{
  "address": "0xF64B5dEfb29f8C63C5f62bb07e804Ce00fF7f1CC",
  "abi": [
    {
      "inputs": [
        {
          "internalType": "address",
          "name": "",
          "type": "address"
        }
      ],
      "name": "guards",
      "outputs": [
        {
          "internalType": "address",
          "name": "",
          "type": "address"
        }
      ],
      "stateMutability": "view",
      "type": "function"
    },
    {
      "inputs": [
        {
          "internalType": "address",
          "name": "",
          "type": "address"
        }
      ],
      "name": "isGuard",
      "outputs": [
        {
          "internalType": "bool",
          "name": "",
          "type": "bool"
        }
      ],
      "stateMutability": "view",
      "type": "function"
    },
    {
      "inputs": [
        {
          "internalType": "bool",
          "name": "permitFurucombo",
          "type": "bool"
        },
        {
          "internalType": "address",
          "name": "furucombo",
          "type": "address"
        },
        {
          "internalType": "address",
          "name": "dsProxy",
          "type": "address"
        }
      ],
      "name": "newGuard",
      "outputs": [
        {
          "internalType": "contract DSGuard",
          "name": "guard",
          "type": "address"
        }
      ],
      "stateMutability": "nonpayable",
      "type": "function"
    }
  ],
  "transactionHash": "0xc5edb85cf1f858dfea9397fe37e484a0374b6056792b0b5824be83b121f6d1ac",
  "args": [],
  "solcInputHash": "b81cc5947007bd07f3254877c80edfb6",
  "bytecode": "0x608060405234801561001057600080fd5b5061159e806100206000396000f3fe608060405234801561001057600080fd5b50600436106100415760003560e01c8063489c1202146100465780636b462151146100a0578063828749cc1461010e575b600080fd5b6100886004803603602081101561005c57600080fd5b81019080803573ffffffffffffffffffffffffffffffffffffffff1690602001909291905050506101a8565b60405180821515815260200191505060405180910390f35b6100e2600480360360208110156100b657600080fd5b81019080803573ffffffffffffffffffffffffffffffffffffffff1690602001909291905050506101c8565b604051808273ffffffffffffffffffffffffffffffffffffffff16815260200191505060405180910390f35b61017c6004803603606081101561012457600080fd5b81019080803515159060200190929190803573ffffffffffffffffffffffffffffffffffffffff169060200190929190803573ffffffffffffffffffffffffffffffffffffffff1690602001909291905050506101fb565b604051808273ffffffffffffffffffffffffffffffffffffffff16815260200191505060405180910390f35b60006020528060005260406000206000915054906101000a900460ff1681565b60016020528060005260406000206000915054906101000a900473ffffffffffffffffffffffffffffffffffffffff1681565b600060405161020990610472565b604051809103906000f080158015610225573d6000803e3d6000fd5b5090508315610315578073ffffffffffffffffffffffffffffffffffffffff1663cbeea68c84847f1cff79cde515a86f6cc1adbebe8ae25888905561371faf11c8102211f56b48706040518463ffffffff1660e01b8152600401808473ffffffffffffffffffffffffffffffffffffffff1681526020018373ffffffffffffffffffffffffffffffffffffffff168152602001827bffffffffffffffffffffffffffffffffffffffffffffffffffffffff191681526020019350505050600060405180830381600087803b1580156102fc57600080fd5b505af1158015610310573d6000803e3d6000fd5b505050505b8073ffffffffffffffffffffffffffffffffffffffff166313af4035336040518263ffffffff1660e01b8152600401808273ffffffffffffffffffffffffffffffffffffffff168152602001915050600060405180830381600087803b15801561037e57600080fd5b505af1158015610392573d6000803e3d6000fd5b5050505060016000808373ffffffffffffffffffffffffffffffffffffffff1673ffffffffffffffffffffffffffffffffffffffff16815260200190815260200160002060006101000a81548160ff02191690831515021790555080600160003373ffffffffffffffffffffffffffffffffffffffff1673ffffffffffffffffffffffffffffffffffffffff16815260200190815260200160002060006101000a81548173ffffffffffffffffffffffffffffffffffffffff021916908373ffffffffffffffffffffffffffffffffffffffff1602179055509392505050565b6110e9806104808339019056fe608060405234801561001057600080fd5b5033600160006101000a81548173ffffffffffffffffffffffffffffffffffffffff021916908373ffffffffffffffffffffffffffffffffffffffff1602179055503373ffffffffffffffffffffffffffffffffffffffff167fce241d7ca1f669fee44b6fc00b8eba2df3bb514eed0f6f668f8f89096e81ed9460405160405180910390a2611045806100a46000396000f3fe608060405234801561001057600080fd5b506004361061009e5760003560e01c8063a8542f6611610066578063a8542f661461020f578063b70096131461022d578063bf7e214f146102d0578063cbeea68c14610304578063f0217ce5146103725761009e565b806313af4035146100a35780632bc3217d146100e757806379d88d87146101555780637a9e5e4b146101975780638da5cb5b146101db575b600080fd5b6100e5600480360360208110156100b957600080fd5b81019080803573ffffffffffffffffffffffffffffffffffffffff1690602001909291905050506103b4565b005b610153600480360360608110156100fd57600080fd5b81019080803573ffffffffffffffffffffffffffffffffffffffff169060200190929190803573ffffffffffffffffffffffffffffffffffffffff169060200190929190803590602001909291905050506104fd565b005b6101956004803603606081101561016b57600080fd5b81019080803590602001909291908035906020019092919080359060200190929190505050610531565b005b6101d9600480360360208110156101ad57600080fd5b81019080803573ffffffffffffffffffffffffffffffffffffffff169060200190929190505050610653565b005b6101e3610799565b604051808273ffffffffffffffffffffffffffffffffffffffff16815260200191505060405180910390f35b6102176107bf565b6040518082815260200191505060405180910390f35b6102b86004803603606081101561024357600080fd5b81019080803573ffffffffffffffffffffffffffffffffffffffff169060200190929190803573ffffffffffffffffffffffffffffffffffffffff16906020019092919080357bffffffffffffffffffffffffffffffffffffffffffffffffffffffff191690602001909291905050506107e6565b60405180821515815260200191505060405180910390f35b6102d8610c89565b604051808273ffffffffffffffffffffffffffffffffffffffff16815260200191505060405180910390f35b6103706004803603606081101561031a57600080fd5b81019080803573ffffffffffffffffffffffffffffffffffffffff169060200190929190803573ffffffffffffffffffffffffffffffffffffffff16906020019092919080359060200190929190505050610cad565b005b6103b26004803603606081101561038857600080fd5b81019080803590602001909291908035906020019092919080359060200190929190505050610ce1565b005b6103e2336000357fffffffff0000000000000000000000000000000000000000000000000000000016610e03565b610454576040517f08c379a00000000000000000000000000000000000000000000000000000000081526004018080602001828103825260148152602001807f64732d617574682d756e617574686f72697a656400000000000000000000000081525060200191505060405180910390fd5b80600160006101000a81548173ffffffffffffffffffffffffffffffffffffffff021916908373ffffffffffffffffffffffffffffffffffffffff160217905550600160009054906101000a900473ffffffffffffffffffffffffffffffffffffffff1673ffffffffffffffffffffffffffffffffffffffff167fce241d7ca1f669fee44b6fc00b8eba2df3bb514eed0f6f668f8f89096e81ed9460405160405180910390a250565b61052c8360601b6bffffffffffffffffffffffff19168360601b6bffffffffffffffffffffffff191683610531565b505050565b61055f336000357fffffffff0000000000000000000000000000000000000000000000000000000016610e03565b6105d1576040517f08c379a00000000000000000000000000000000000000000000000000000000081526004018080602001828103825260148152602001807f64732d617574682d756e617574686f72697a656400000000000000000000000081525060200191505060405180910390fd5b6000600260008581526020019081526020016000206000848152602001908152602001600020600083815260200190815260200160002060006101000a81548160ff0219169083151502179055508082847f95ba64c95d85e67ac83a0476c4a62ac2cf8ab2d0407545b8c9d79c3eefa6282960405160405180910390a4505050565b610681336000357fffffffff0000000000000000000000000000000000000000000000000000000016610e03565b6106f3576040517f08c379a00000000000000000000000000000000000000000000000000000000081526004018080602001828103825260148152602001807f64732d617574682d756e617574686f72697a656400000000000000000000000081525060200191505060405180910390fd5b806000806101000a81548173ffffffffffffffffffffffffffffffffffffffff021916908373ffffffffffffffffffffffffffffffffffffffff16021790555060008054906101000a900473ffffffffffffffffffffffffffffffffffffffff1673ffffffffffffffffffffffffffffffffffffffff167f1abebea81bfa2637f28358c371278fb15ede7ea8dd28d2e03b112ff6d936ada460405160405180910390a250565b600160009054906101000a900473ffffffffffffffffffffffffffffffffffffffff1681565b7fffffffffffffffffffffffffffffffffffffffffffffffffffffffffffffffff60001b81565b6000808460601b6bffffffffffffffffffffffff1916905060008460601b6bffffffffffffffffffffffff191690506002600083815260200190815260200160002060008281526020019081526020016000206000857bffffffffffffffffffffffffffffffffffffffffffffffffffffffff1916815260200190815260200160002060009054906101000a900460ff16806108e4575060026000838152602001908152602001600020600082815260200190815260200160002060007fffffffffffffffffffffffffffffffffffffffffffffffffffffffffffffffff60001b815260200190815260200160002060009054906101000a900460ff165b8061097057506002600083815260200190815260200160002060007fffffffffffffffffffffffffffffffffffffffffffffffffffffffffffffffff60001b81526020019081526020016000206000857bffffffffffffffffffffffffffffffffffffffffffffffffffffffff1916815260200190815260200160002060009054906101000a900460ff165b80610a0057506002600083815260200190815260200160002060007fffffffffffffffffffffffffffffffffffffffffffffffffffffffffffffffff60001b815260200190815260200160002060007fffffffffffffffffffffffffffffffffffffffffffffffffffffffffffffffff60001b815260200190815260200160002060009054906101000a900460ff165b80610a8c5750600260007fffffffffffffffffffffffffffffffffffffffffffffffffffffffffffffffff60001b815260200190815260200160002060008281526020019081526020016000206000857bffffffffffffffffffffffffffffffffffffffffffffffffffffffff1916815260200190815260200160002060009054906101000a900460ff165b80610b1c5750600260007fffffffffffffffffffffffffffffffffffffffffffffffffffffffffffffffff60001b8152602001908152602001600020600082815260200190815260200160002060007fffffffffffffffffffffffffffffffffffffffffffffffffffffffffffffffff60001b815260200190815260200160002060009054906101000a900460ff165b80610bcb5750600260007fffffffffffffffffffffffffffffffffffffffffffffffffffffffffffffffff60001b815260200190815260200160002060007fffffffffffffffffffffffffffffffffffffffffffffffffffffffffffffffff60001b81526020019081526020016000206000857bffffffffffffffffffffffffffffffffffffffffffffffffffffffff1916815260200190815260200160002060009054906101000a900460ff165b80610c7e5750600260007fffffffffffffffffffffffffffffffffffffffffffffffffffffffffffffffff60001b815260200190815260200160002060007fffffffffffffffffffffffffffffffffffffffffffffffffffffffffffffffff60001b815260200190815260200160002060007fffffffffffffffffffffffffffffffffffffffffffffffffffffffffffffffff60001b815260200190815260200160002060009054906101000a900460ff165b925050509392505050565b60008054906101000a900473ffffffffffffffffffffffffffffffffffffffff1681565b610cdc8360601b6bffffffffffffffffffffffff19168360601b6bffffffffffffffffffffffff191683610ce1565b505050565b610d0f336000357fffffffff0000000000000000000000000000000000000000000000000000000016610e03565b610d81576040517f08c379a00000000000000000000000000000000000000000000000000000000081526004018080602001828103825260148152602001807f64732d617574682d756e617574686f72697a656400000000000000000000000081525060200191505060405180910390fd5b6001600260008581526020019081526020016000206000848152602001908152602001600020600083815260200190815260200160002060006101000a81548160ff0219169083151502179055508082847f6f50375045128971c5469d343039ba7b8e30a5b190453737b28bda6f7a30677160405160405180910390a4505050565b60003073ffffffffffffffffffffffffffffffffffffffff168373ffffffffffffffffffffffffffffffffffffffff161415610e425760019050611009565b600160009054906101000a900473ffffffffffffffffffffffffffffffffffffffff1673ffffffffffffffffffffffffffffffffffffffff168373ffffffffffffffffffffffffffffffffffffffff161415610ea15760019050611009565b600073ffffffffffffffffffffffffffffffffffffffff1660008054906101000a900473ffffffffffffffffffffffffffffffffffffffff1673ffffffffffffffffffffffffffffffffffffffff161415610eff5760009050611009565b60008054906101000a900473ffffffffffffffffffffffffffffffffffffffff1673ffffffffffffffffffffffffffffffffffffffff1663b70096138430856040518463ffffffff1660e01b8152600401808473ffffffffffffffffffffffffffffffffffffffff1681526020018373ffffffffffffffffffffffffffffffffffffffff168152602001827bffffffffffffffffffffffffffffffffffffffffffffffffffffffff19168152602001935050505060206040518083038186803b158015610fcb57600080fd5b505afa158015610fdf573d6000803e3d6000fd5b505050506040513d6020811015610ff557600080fd5b810190808051906020019092919050505090505b9291505056fea2646970667358221220e3023d4a2ef2b4ea57c4e12352acf58ca8bea38d18f0ea00540feb5d505527ca64736f6c634300060c0033a26469706673582212205a14e80c241517a1174aaa14800e3c9fd5760ff22ec9f4b9851c420383fec33164736f6c634300060c0033"
}