{
  "address": "0x27BF380c6F201ef591D6c608b672FbDaa159b086",
  "abi": [
    {
      "inputs": [],
      "name": "CUBE_COUNTER_KEY",
      "outputs": [
        {
          "internalType": "bytes32",
          "name": "",
          "type": "bytes32"
        }
      ],
      "stateMutability": "view",
      "type": "function"
    },
    {
      "inputs": [],
      "name": "MSG_SENDER_KEY",
      "outputs": [
        {
          "internalType": "bytes32",
          "name": "",
          "type": "bytes32"
        }
      ],
      "stateMutability": "view",
      "type": "function"
    },
    {
      "inputs": [],
      "name": "PERCENTAGE_BASE",
      "outputs": [
        {
          "internalType": "uint256",
          "name": "",
          "type": "uint256"
        }
      ],
      "stateMutability": "view",
      "type": "function"
    },
    {
      "inputs": [],
      "name": "POSTPROCESS_SIG",
      "outputs": [
        {
          "internalType": "bytes4",
          "name": "",
          "type": "bytes4"
        }
      ],
      "stateMutability": "view",
      "type": "function"
    },
    {
      "inputs": [],
      "name": "REFERRAL_CODE",
      "outputs": [
        {
          "internalType": "uint16",
          "name": "",
          "type": "uint16"
        }
      ],
      "stateMutability": "view",
      "type": "function"
    },
    {
      "inputs": [
        {
          "internalType": "bytes32",
          "name": "",
          "type": "bytes32"
        }
      ],
      "name": "cache",
      "outputs": [
        {
          "internalType": "bytes32",
          "name": "",
          "type": "bytes32"
        }
      ],
      "stateMutability": "view",
      "type": "function"
    },
    {
      "inputs": [
        {
          "internalType": "address",
          "name": "_reserve",
          "type": "address"
        },
        {
          "internalType": "uint256",
          "name": "_amount",
          "type": "uint256"
        }
      ],
      "name": "deposit",
      "outputs": [],
      "stateMutability": "payable",
      "type": "function"
    },
    {
      "inputs": [
        {
          "internalType": "address",
          "name": "_reserve",
          "type": "address"
        },
        {
          "internalType": "uint256",
          "name": "_amount",
          "type": "uint256"
        },
        {
          "internalType": "uint256",
          "name": "_fee",
          "type": "uint256"
        },
        {
          "internalType": "bytes",
          "name": "_params",
          "type": "bytes"
        }
      ],
      "name": "executeOperation",
      "outputs": [],
      "stateMutability": "payable",
      "type": "function"
    },
    {
      "inputs": [
        {
          "internalType": "address",
          "name": "_reserve",
          "type": "address"
        },
        {
          "internalType": "uint256",
          "name": "_amount",
          "type": "uint256"
        },
        {
          "internalType": "bytes",
          "name": "_params",
          "type": "bytes"
        }
      ],
      "name": "flashLoan",
      "outputs": [],
      "stateMutability": "payable",
      "type": "function"
    },
    {
      "inputs": [],
      "name": "getContractName",
      "outputs": [
        {
          "internalType": "string",
          "name": "",
          "type": "string"
        }
      ],
      "stateMutability": "pure",
      "type": "function"
    },
    {
      "inputs": [],
      "name": "postProcess",
      "outputs": [],
      "stateMutability": "payable",
      "type": "function"
    },
    {
      "inputs": [
        {
          "internalType": "address",
          "name": "_aToken",
          "type": "address"
        },
        {
          "internalType": "uint256",
          "name": "_amount",
          "type": "uint256"
        }
      ],
      "name": "redeem",
      "outputs": [
        {
          "internalType": "uint256",
          "name": "underlyingAssetAmount",
          "type": "uint256"
        }
      ],
      "stateMutability": "payable",
      "type": "function"
    },
    {
      "inputs": [
        {
          "internalType": "uint256",
          "name": "",
          "type": "uint256"
        }
      ],
      "name": "stack",
      "outputs": [
        {
          "internalType": "bytes32",
          "name": "",
          "type": "bytes32"
        }
      ],
      "stateMutability": "view",
      "type": "function"
    }
  ],
  "transactionHash": "0x2b785a3ef8f5483b03aa8ceeff2d3ecac3581639ce54fabadb3b445ca531f55f",
  "args": [],
  "solcInputHash": "05a3724dc9e1f283fb20820d17e328b2",
  "bytecode": "0x608060405234801561001057600080fd5b50612ec9806100206000396000f3fe6080604052600436106100c25760003560e01c806399eb59b91161007f578063e0232b4211610059578063e0232b4214610243578063ee8725581461025f578063f5f5ba721461027b578063fa2901a5146102a6576100c2565b806399eb59b9146101bf578063c2722916146101fc578063dc9031c414610206576100c2565b80630f532d18146100c75780631413dc7d146100f25780631e9a69501461011d5780633583849a1461014d57806347e7ef241461017857806387c1394314610194575b600080fd5b3480156100d357600080fd5b506100dc6102d1565b6040516100e99190612922565b60405180910390f35b3480156100fe57600080fd5b506101076102f8565b6040516101149190612922565b60405180910390f35b61013760048036038101906101329190611f8b565b61031f565b6040516101449190612a55565b60405180910390f35b34801561015957600080fd5b50610162610694565b60405161016f9190612a3a565b60405180910390f35b610192600480360381019061018d9190611f8b565b610699565b005b3480156101a057600080fd5b506101a9610aa8565b6040516101b69190612a55565b60405180910390f35b3480156101cb57600080fd5b506101e660048036038101906101e19190612173565b610ab4565b6040516101f39190612922565b60405180910390f35b610204610acc565b005b34801561021257600080fd5b5061022d6004803603810190610228919061219c565b610b07565b60405161023a9190612922565b60405180910390f35b61025d60048036038101906102589190611fc7565b610b28565b005b61027960048036038101906102749190612033565b610d23565b005b34801561028757600080fd5b50610290610f0b565b60405161029d9190612958565b60405180910390f35b3480156102b257600080fd5b506102bb610f48565b6040516102c8919061293d565b60405180910390f35b7fb2f2618cecbbb6e7468cc0f2aa43858ad8d153e0280b22285e28e853bb9d453a60001b81565b7ff9543f11459ccccd21306c8881aaab675ff49d988c1162fd1dd9bbcdbe4446be60001b81565b60008061032c8484610f53565b925060008473ffffffffffffffffffffffffffffffffffffffff166389d1a0fc6040518163ffffffff1660e01b815260040160206040518083038186803b15801561037657600080fd5b505afa15801561038a573d6000803e3d6000fd5b505050506040513d601f19601f820116820180604052508101906103ae9190611f39565b905073eeeeeeeeeeeeeeeeeeeeeeeeeeeeeeeeeeeeeeee73ffffffffffffffffffffffffffffffffffffffff168173ffffffffffffffffffffffffffffffffffffffff1614610487578073ffffffffffffffffffffffffffffffffffffffff166370a08231306040518263ffffffff1660e01b815260040161043091906127e4565b60206040518083038186803b15801561044857600080fd5b505afa15801561045c573d6000803e3d6000fd5b505050506040513d601f19601f8201168201806040525081019061048091906121c5565b915061048b565b4791505b8473ffffffffffffffffffffffffffffffffffffffff1663db006a75856040518263ffffffff1660e01b81526004016104c49190612a55565b600060405180830381600087803b1580156104de57600080fd5b505af19250505080156104ef575060015b61058f576104fb612d49565b80610506575061054b565b6105456040518060400160405280600681526020017f72656465656d00000000000000000000000000000000000000000000000000008152508261109d565b5061058a565b6105896040518060400160405280600681526020017f72656465656d0000000000000000000000000000000000000000000000000000815250611115565b5b610590565b5b600073eeeeeeeeeeeeeeeeeeeeeeeeeeeeeeeeeeeeeeee73ffffffffffffffffffffffffffffffffffffffff168273ffffffffffffffffffffffffffffffffffffffff1614610672578173ffffffffffffffffffffffffffffffffffffffff166370a08231306040518263ffffffff1660e01b815260040161061291906127e4565b60206040518083038186803b15801561062a57600080fd5b505afa15801561063e573d6000803e3d6000fd5b505050506040513d601f19601f8201168201806040525081019061066291906121c5565b905061066d82611157565b610676565b4790505b610689838261116e90919063ffffffff16565b935050505092915050565b603881565b60007324a42fd28c976a61df5d00d0599c34c4f90748c873ffffffffffffffffffffffffffffffffffffffff16630261bf8b6040518163ffffffff1660e01b815260040160206040518083038186803b1580156106f557600080fd5b505afa158015610709573d6000803e3d6000fd5b505050506040513d601f19601f8201168201806040525081019061072d9190611f39565b9050600061073a846111b8565b90506107468484610f53565b925073eeeeeeeeeeeeeeeeeeeeeeeeeeeeeeeeeeeeeeee73ffffffffffffffffffffffffffffffffffffffff168473ffffffffffffffffffffffffffffffffffffffff1614156108a0578173ffffffffffffffffffffffffffffffffffffffff1663d2d0e06684868660386040518563ffffffff1660e01b81526004016107cf9392919061289f565b6000604051808303818588803b1580156107e857600080fd5b505af1935050505080156107fa575060015b61089a57610806612d49565b806108115750610856565b6108506040518060400160405280600781526020017f6465706f736974000000000000000000000000000000000000000000000000008152508261109d565b50610895565b6108946040518060400160405280600781526020017f6465706f73697400000000000000000000000000000000000000000000000000815250611115565b5b61089b565b5b610a99565b60007324a42fd28c976a61df5d00d0599c34c4f90748c873ffffffffffffffffffffffffffffffffffffffff1663ed6ff7606040518163ffffffff1660e01b815260040160206040518083038186803b1580156108fc57600080fd5b505afa158015610910573d6000803e3d6000fd5b505050506040513d601f19601f820116820180604052508101906109349190611f62565b905061096181858773ffffffffffffffffffffffffffffffffffffffff166114159092919063ffffffff16565b8273ffffffffffffffffffffffffffffffffffffffff1663d2d0e066868660386040518463ffffffff1660e01b815260040161099f9392919061289f565b600060405180830381600087803b1580156109b957600080fd5b505af19250505080156109ca575060015b610a6a576109d6612d49565b806109e15750610a26565b610a206040518060400160405280600781526020017f6465706f736974000000000000000000000000000000000000000000000000008152508261109d565b50610a65565b610a646040518060400160405280600781526020017f6465706f73697400000000000000000000000000000000000000000000000000815250611115565b5b610a6b565b5b610a978160008773ffffffffffffffffffffffffffffffffffffffff166114159092919063ffffffff16565b505b610aa281611157565b50505050565b670de0b6b3a764000081565b60016020528060005260406000206000915090505481565b6040517f08c379a0000000000000000000000000000000000000000000000000000000008152600401610afe906129ba565b60405180910390fd5b60008181548110610b1457fe5b906000526020600020016000915090505481565b60007324a42fd28c976a61df5d00d0599c34c4f90748c873ffffffffffffffffffffffffffffffffffffffff16630261bf8b6040518163ffffffff1660e01b815260040160206040518083038186803b158015610b8457600080fd5b505afa158015610b98573d6000803e3d6000fd5b505050506040513d601f19601f82011682018060405250810190610bbc9190611f39565b90508073ffffffffffffffffffffffffffffffffffffffff16635cffe9de30878787876040518663ffffffff1660e01b8152600401610bff959493929190612828565b600060405180830381600087803b158015610c1957600080fd5b505af1925050508015610c2a575060015b610cca57610c36612d49565b80610c415750610c86565b610c806040518060400160405280600981526020017f666c6173684c6f616e00000000000000000000000000000000000000000000008152508261109d565b50610cc5565b610cc46040518060400160405280600981526020017f666c6173684c6f616e0000000000000000000000000000000000000000000000815250611115565b5b610ccb565b5b73eeeeeeeeeeeeeeeeeeeeeeeeeeeeeeeeeeeeeeee73ffffffffffffffffffffffffffffffffffffffff168573ffffffffffffffffffffffffffffffffffffffff1614610d1c57610d1b85611157565b5b5050505050565b7324a42fd28c976a61df5d00d0599c34c4f90748c873ffffffffffffffffffffffffffffffffffffffff16630261bf8b6040518163ffffffff1660e01b815260040160206040518083038186803b158015610d7d57600080fd5b505afa158015610d91573d6000803e3d6000fd5b505050506040513d601f19601f82011682018060405250810190610db59190611f39565b73ffffffffffffffffffffffffffffffffffffffff163373ffffffffffffffffffffffffffffffffffffffff1614610e5c57610e5b6040518060400160405280601081526020017f657865637574654f7065726174696f6e000000000000000000000000000000008152506040518060400160405280600e81526020017f696e76616c69642063616c6c657200000000000000000000000000000000000081525061109d565b5b60608060608484810190610e7091906120b3565b9250925092503073ffffffffffffffffffffffffffffffffffffffff1663719385098484846040518463ffffffff1660e01b8152600401610eb3939291906128d6565b600060405180830381600087803b158015610ecd57600080fd5b505af1158015610ee1573d6000803e3d6000fd5b50505050610f0188610efc888a61157390919063ffffffff16565b6115c8565b5050505050505050565b60606040518060400160405280600d81526020017f484161766550726f746f636f6c00000000000000000000000000000000000000815250905090565b63c272291660e01b81565b60007fffffffffffffffffffffffffffffffffffffffffffffffffffffffffffffffff8214610f8457819050611097565b600073ffffffffffffffffffffffffffffffffffffffff168373ffffffffffffffffffffffffffffffffffffffff161480610ffe575073eeeeeeeeeeeeeeeeeeeeeeeeeeeeeeeeeeeeeeee73ffffffffffffffffffffffffffffffffffffffff168373ffffffffffffffffffffffffffffffffffffffff16145b1561100b57479050611097565b8273ffffffffffffffffffffffffffffffffffffffff166370a08231306040518263ffffffff1660e01b815260040161104491906127e4565b60206040518083038186803b15801561105c57600080fd5b505afa158015611070573d6000803e3d6000fd5b505050506040513d601f19601f8201168201806040525081019061109491906121c5565b90505b92915050565b6110ad6110a861166e565b6116ac565b6110b5610f0b565b83836040516020016110ca9493929190612770565b6040516020818303038152906040526040517f08c379a000000000000000000000000000000000000000000000000000000000815260040161110c9190612958565b60405180910390fd5b611154816040518060400160405280600b81526020017f556e73706563696669656400000000000000000000000000000000000000000081525061109d565b50565b61116b8160006117f390919063ffffffff16565b50565b60006111b083836040518060400160405280601e81526020017f536166654d6174683a207375627472616374696f6e206f766572666c6f770000815250611838565b905092915050565b6000807324a42fd28c976a61df5d00d0599c34c4f90748c873ffffffffffffffffffffffffffffffffffffffff1663ed6ff7606040518163ffffffff1660e01b815260040160206040518083038186803b15801561121557600080fd5b505afa158015611229573d6000803e3d6000fd5b505050506040513d601f19601f8201168201806040525081019061124d9190611f62565b90508073ffffffffffffffffffffffffffffffffffffffff166334b3beee846040518263ffffffff1660e01b815260040161128891906127e4565b60206040518083038186803b1580156112a057600080fd5b505afa9250505080156112d157506040513d601f19601f820116820180604052508101906112ce9190611f39565b60015b611371576112dd612d49565b806112e8575061132d565b6113276040518060400160405280600781526020017f47656e6572616c000000000000000000000000000000000000000000000000008152508261109d565b5061136c565b61136b6040518060400160405280600781526020017f47656e6572616c00000000000000000000000000000000000000000000000000815250611115565b5b61140e565b600073ffffffffffffffffffffffffffffffffffffffff168173ffffffffffffffffffffffffffffffffffffffff161415611402576113fd6040518060400160405280600781526020017f47656e6572616c00000000000000000000000000000000000000000000000000815250604051806060016040528060218152602001612e736021913961109d565b61140c565b8092505050611410565b505b505b919050565b60008114806114ae575060008373ffffffffffffffffffffffffffffffffffffffff1663dd62ed3e30856040518363ffffffff1660e01b815260040161145c9291906127ff565b60206040518083038186803b15801561147457600080fd5b505afa158015611488573d6000803e3d6000fd5b505050506040513d601f19601f820116820180604052508101906114ac91906121c5565b145b6114ed576040517f08c379a00000000000000000000000000000000000000000000000000000000081526004016114e490612a1a565b60405180910390fd5b61156e8363095ea7b360e01b848460405160240161150c929190612876565b604051602081830303815290604052907bffffffffffffffffffffffffffffffffffffffffffffffffffffffff19166020820180517bffffffffffffffffffffffffffffffffffffffffffffffffffffffff8381831617835250505050611893565b505050565b6000808284019050838110156115be576040517f08c379a00000000000000000000000000000000000000000000000000000000081526004016115b59061297a565b60405180910390fd5b8091505092915050565b60007324a42fd28c976a61df5d00d0599c34c4f90748c873ffffffffffffffffffffffffffffffffffffffff1663ed6ff7606040518163ffffffff1660e01b815260040160206040518083038186803b15801561162457600080fd5b505afa158015611638573d6000803e3d6000fd5b505050506040513d601f19601f8201168201806040525081019061165c9190611f62565b905061166981848461195a565b505050565b60006116a77ff9543f11459ccccd21306c8881aaab675ff49d988c1162fd1dd9bbcdbe4446be60001b6001611a4190919063ffffffff16565b905090565b606060008214156116f4576040518060400160405280600181526020017f300000000000000000000000000000000000000000000000000000000000000081525090506117ee565b6000808390505b600081111561171e578180600101925050600a818161171657fe5b0490506116fb565b5060608167ffffffffffffffff8111801561173857600080fd5b506040519080825280601f01601f19166020018201604052801561176b5781602001600182028036833780820191505090505b50905060008290505b60008111156117e757600a858161178757fe5b0660300160f81b82600183038151811061179d57fe5b60200101907effffffffffffffffffffffffffffffffffffffffffffffffffffffffffffff1916908160001a905350600a85816117d657fe5b049450808060019003915050611774565b5080925050505b919050565b818173ffffffffffffffffffffffffffffffffffffffff1660001b90806001815401808255809150506001900390600052602060002001600090919091909150555050565b6000838311158290611880576040517f08c379a00000000000000000000000000000000000000000000000000000000081526004016118779190612958565b60405180910390fd5b5060008385039050809150509392505050565b60606118f5826040518060400160405280602081526020017f5361666545524332303a206c6f772d6c6576656c2063616c6c206661696c65648152508573ffffffffffffffffffffffffffffffffffffffff16611a619092919063ffffffff16565b90506000815111156119555780806020019051810190611915919061214a565b611954576040517f08c379a000000000000000000000000000000000000000000000000000000000815260040161194b906129fa565b60405180910390fd5b5b505050565b73eeeeeeeeeeeeeeeeeeeeeeeeeeeeeeeeeeeeeeee73ffffffffffffffffffffffffffffffffffffffff168273ffffffffffffffffffffffffffffffffffffffff161415611a10578273ffffffffffffffffffffffffffffffffffffffff16816040516119c6906127cf565b60006040518083038185875af1925050503d8060008114611a03576040519150601f19603f3d011682016040523d82523d6000602084013e611a08565b606091505b505050611a3c565b611a3b83828473ffffffffffffffffffffffffffffffffffffffff16611a799092919063ffffffff16565b5b505050565b60008260008381526020019081526020016000205460001c905092915050565b6060611a708484600085611aff565b90509392505050565b611afa8363a9059cbb60e01b8484604051602401611a98929190612876565b604051602081830303815290604052907bffffffffffffffffffffffffffffffffffffffffffffffffffffffff19166020820180517bffffffffffffffffffffffffffffffffffffffffffffffffffffffff8381831617835250505050611893565b505050565b606082471015611b44576040517f08c379a0000000000000000000000000000000000000000000000000000000008152600401611b3b9061299a565b60405180910390fd5b611b4d85611c14565b611b8c576040517f08c379a0000000000000000000000000000000000000000000000000000000008152600401611b83906129da565b60405180910390fd5b600060608673ffffffffffffffffffffffffffffffffffffffff168587604051611bb69190612759565b60006040518083038185875af1925050503d8060008114611bf3576040519150601f19603f3d011682016040523d82523d6000602084013e611bf8565b606091505b5091509150611c08828286611c27565b92505050949350505050565b600080823b905060008111915050919050565b60608315611c3757829050611c87565b600083511115611c4a5782518084602001fd5b816040517f08c379a0000000000000000000000000000000000000000000000000000000008152600401611c7e9190612958565b60405180910390fd5b9392505050565b600081359050611c9d81612dff565b92915050565b600081519050611cb281612dff565b92915050565b600081519050611cc781612e16565b92915050565b600082601f830112611cde57600080fd5b8135611cf1611cec82612a9d565b612a70565b91508181835260208401935060208101905083856020840282011115611d1657600080fd5b60005b83811015611d465781611d2c8882611c8e565b845260208401935060208301925050600181019050611d19565b5050505092915050565b600082601f830112611d6157600080fd5b8135611d74611d6f82612ac5565b612a70565b91508181835260208401935060208101905083856020840282011115611d9957600080fd5b60005b83811015611dc95781611daf8882611e5c565b845260208401935060208301925050600181019050611d9c565b5050505092915050565b600082601f830112611de457600080fd5b8135611df7611df282612aed565b612a70565b9150818183526020840193506020810190508360005b83811015611e3d5781358601611e238882611ebb565b845260208401935060208301925050600181019050611e0d565b5050505092915050565b600081519050611e5681612e2d565b92915050565b600081359050611e6b81612e44565b92915050565b60008083601f840112611e8357600080fd5b8235905067ffffffffffffffff811115611e9c57600080fd5b602083019150836001820283011115611eb457600080fd5b9250929050565b600082601f830112611ecc57600080fd5b8135611edf611eda82612b15565b612a70565b91508082526020830160208301858383011115611efb57600080fd5b611f06838284612ce9565b50505092915050565b600081359050611f1e81612e5b565b92915050565b600081519050611f3381612e5b565b92915050565b600060208284031215611f4b57600080fd5b6000611f5984828501611ca3565b91505092915050565b600060208284031215611f7457600080fd5b6000611f8284828501611cb8565b91505092915050565b60008060408385031215611f9e57600080fd5b6000611fac85828601611c8e565b9250506020611fbd85828601611f0f565b9150509250929050565b60008060008060608587031215611fdd57600080fd5b6000611feb87828801611c8e565b9450506020611ffc87828801611f0f565b935050604085013567ffffffffffffffff81111561201957600080fd5b61202587828801611e71565b925092505092959194509250565b60008060008060006080868803121561204b57600080fd5b600061205988828901611c8e565b955050602061206a88828901611f0f565b945050604061207b88828901611f0f565b935050606086013567ffffffffffffffff81111561209857600080fd5b6120a488828901611e71565b92509250509295509295909350565b6000806000606084860312156120c857600080fd5b600084013567ffffffffffffffff8111156120e257600080fd5b6120ee86828701611ccd565b935050602084013567ffffffffffffffff81111561210b57600080fd5b61211786828701611d50565b925050604084013567ffffffffffffffff81111561213457600080fd5b61214086828701611dd3565b9150509250925092565b60006020828403121561215c57600080fd5b600061216a84828501611e47565b91505092915050565b60006020828403121561218557600080fd5b600061219384828501611e5c565b91505092915050565b6000602082840312156121ae57600080fd5b60006121bc84828501611f0f565b91505092915050565b6000602082840312156121d757600080fd5b60006121e584828501611f24565b91505092915050565b60006121fa8383612232565b60208301905092915050565b60006122128383612381565b60208301905092915050565b600061222a83836123db565b905092915050565b61223b81612c4b565b82525050565b61224a81612c4b565b82525050565b600061225b82612b71565b6122658185612bcf565b935061227083612b41565b8060005b838110156122a157815161228888826121ee565b975061229383612ba8565b925050600181019050612274565b5085935050505092915050565b60006122b982612b7c565b6122c38185612be0565b93506122ce83612b51565b8060005b838110156122ff5781516122e68882612206565b97506122f183612bb5565b9250506001810190506122d2565b5085935050505092915050565b600061231782612b87565b6123218185612bf1565b93508360208202850161233385612b61565b8060005b8581101561236f5784840389528151612350858261221e565b945061235b83612bc2565b925060208a01995050600181019050612337565b50829750879550505050505092915050565b61238a81612c7b565b82525050565b61239981612c7b565b82525050565b6123a881612c85565b82525050565b60006123ba8385612c13565b93506123c7838584612ce9565b6123d083612d2b565b840190509392505050565b60006123e682612b92565b6123f08185612c02565b9350612400818560208601612cf8565b61240981612d2b565b840191505092915050565b600061241f82612b92565b6124298185612c24565b9350612439818560208601612cf8565b80840191505092915050565b600061245082612b9d565b61245a8185612c2f565b935061246a818560208601612cf8565b61247381612d2b565b840191505092915050565b600061248982612b9d565b6124938185612c40565b93506124a3818560208601612cf8565b80840191505092915050565b60006124bc601b83612c2f565b91507f536166654d6174683a206164646974696f6e206f766572666c6f7700000000006000830152602082019050919050565b60006124fc602683612c2f565b91507f416464726573733a20696e73756666696369656e742062616c616e636520666f60008301527f722063616c6c00000000000000000000000000000000000000000000000000006020830152604082019050919050565b6000612562601483612c2f565b91507f496e76616c696420706f73742070726f636573730000000000000000000000006000830152602082019050919050565b60006125a2600083612c24565b9150600082019050919050565b60006125bc601d83612c2f565b91507f416464726573733a2063616c6c20746f206e6f6e2d636f6e74726163740000006000830152602082019050919050565b60006125fc600183612c40565b91507f5f000000000000000000000000000000000000000000000000000000000000006000830152600182019050919050565b600061263c602a83612c2f565b91507f5361666545524332303a204552433230206f7065726174696f6e20646964206e60008301527f6f742073756363656564000000000000000000000000000000000000000000006020830152604082019050919050565b60006126a2600283612c40565b91507f3a200000000000000000000000000000000000000000000000000000000000006000830152600282019050919050565b60006126e2603683612c2f565b91507f5361666545524332303a20617070726f76652066726f6d206e6f6e2d7a65726f60008301527f20746f206e6f6e2d7a65726f20616c6c6f77616e6365000000000000000000006020830152604082019050919050565b61274481612cb1565b82525050565b61275381612cdf565b82525050565b60006127658284612414565b915081905092915050565b600061277c828761247e565b9150612787826125ef565b9150612793828661247e565b915061279e826125ef565b91506127aa828561247e565b91506127b582612695565b91506127c1828461247e565b915081905095945050505050565b60006127da82612595565b9150819050919050565b60006020820190506127f96000830184612241565b92915050565b60006040820190506128146000830185612241565b6128216020830184612241565b9392505050565b600060808201905061283d6000830188612241565b61284a6020830187612241565b612857604083018661274a565b818103606083015261286a8184866123ae565b90509695505050505050565b600060408201905061288b6000830185612241565b612898602083018461274a565b9392505050565b60006060820190506128b46000830186612241565b6128c1602083018561274a565b6128ce604083018461273b565b949350505050565b600060608201905081810360008301526128f08186612250565b9050818103602083015261290481856122ae565b90508181036040830152612918818461230c565b9050949350505050565b60006020820190506129376000830184612390565b92915050565b6000602082019050612952600083018461239f565b92915050565b600060208201905081810360008301526129728184612445565b905092915050565b60006020820190508181036000830152612993816124af565b9050919050565b600060208201905081810360008301526129b3816124ef565b9050919050565b600060208201905081810360008301526129d381612555565b9050919050565b600060208201905081810360008301526129f3816125af565b9050919050565b60006020820190508181036000830152612a138161262f565b9050919050565b60006020820190508181036000830152612a33816126d5565b9050919050565b6000602082019050612a4f600083018461273b565b92915050565b6000602082019050612a6a600083018461274a565b92915050565b6000604051905081810181811067ffffffffffffffff82111715612a9357600080fd5b8060405250919050565b600067ffffffffffffffff821115612ab457600080fd5b602082029050602081019050919050565b600067ffffffffffffffff821115612adc57600080fd5b602082029050602081019050919050565b600067ffffffffffffffff821115612b0457600080fd5b602082029050602081019050919050565b600067ffffffffffffffff821115612b2c57600080fd5b601f19601f8301169050602081019050919050565b6000819050602082019050919050565b6000819050602082019050919050565b6000819050602082019050919050565b600081519050919050565b600081519050919050565b600081519050919050565b600081519050919050565b600081519050919050565b6000602082019050919050565b6000602082019050919050565b6000602082019050919050565b600082825260208201905092915050565b600082825260208201905092915050565b600082825260208201905092915050565b600082825260208201905092915050565b600082825260208201905092915050565b600081905092915050565b600082825260208201905092915050565b600081905092915050565b6000612c5682612cbf565b9050919050565b6000612c6882612cbf565b9050919050565b60008115159050919050565b6000819050919050565b60007fffffffff0000000000000000000000000000000000000000000000000000000082169050919050565b600061ffff82169050919050565b600073ffffffffffffffffffffffffffffffffffffffff82169050919050565b6000819050919050565b82818337600083830152505050565b60005b83811015612d16578082015181840152602081019050612cfb565b83811115612d25576000848401525b50505050565b6000601f19601f8301169050919050565b60008160e01c9050919050565b600060443d1015612d5957612dfc565b60046000803e612d6a600051612d3c565b6308c379a08114612d7b5750612dfc565b60405160043d036004823e80513d602482011167ffffffffffffffff82111715612da757505050612dfc565b808201805167ffffffffffffffff811115612dc6575050505050612dfc565b8060208301013d8501811115612de157505050505050612dfc565b612dea82612d2b565b60208401016040528296505050505050505b90565b612e0881612c4b565b8114612e1357600080fd5b50565b612e1f81612c5d565b8114612e2a57600080fd5b50565b612e3681612c6f565b8114612e4157600080fd5b50565b612e4d81612c7b565b8114612e5857600080fd5b50565b612e6481612cdf565b8114612e6f57600080fd5b5056fe61546f6b656e2073686f756c64206e6f74206265207a65726f2061646472657373a264697066735822122003f14718f7484a885f081a8a26e177dc6f0e566d4c7b2fc1bbe48b7b7dc584e564736f6c634300060c0033",
  "devdoc": {
    "kind": "dev",
    "methods": {},
    "version": 1
  },
  "userdoc": {
    "kind": "user",
    "methods": {},
    "version": 1
  },
  "storageLayout": {
    "storage": [
      {
        "astId": 2834,
        "contract": "contracts/handlers/aave/HAaveProtocol.sol:HAaveProtocol",
        "label": "stack",
        "offset": 0,
        "slot": "0",
        "type": "t_array(t_bytes32)dyn_storage"
      },
      {
        "astId": 2838,
        "contract": "contracts/handlers/aave/HAaveProtocol.sol:HAaveProtocol",
        "label": "cache",
        "offset": 0,
        "slot": "1",
        "type": "t_mapping(t_bytes32,t_bytes32)"
      }
    ],
    "types": {
      "t_array(t_bytes32)dyn_storage": {
        "base": "t_bytes32",
        "encoding": "dynamic_array",
        "label": "bytes32[]",
        "numberOfBytes": "32"
      },
      "t_bytes32": {
        "encoding": "inplace",
        "label": "bytes32",
        "numberOfBytes": "32"
      },
      "t_mapping(t_bytes32,t_bytes32)": {
        "encoding": "mapping",
        "key": "t_bytes32",
        "label": "mapping(bytes32 => bytes32)",
        "numberOfBytes": "32",
        "value": "t_bytes32"
      }
    }
  }
}