{
  "address": "0xdC79264be1eB4cF8501b4eD00E4F2695fb7e8F0c",
  "abi": [
    {
      "inputs": [],
      "name": "BACTIONS",
      "outputs": [
        {
          "internalType": "address",
          "name": "",
          "type": "address"
        }
      ],
      "stateMutability": "view",
      "type": "function"
    },
    {
      "inputs": [],
      "name": "CUBE_COUNTER_KEY",
      "outputs": [
        {
          "internalType": "bytes32",
          "name": "",
          "type": "bytes32"
        }
      ],
      "stateMutability": "view",
      "type": "function"
    },
    {
      "inputs": [],
      "name": "MSG_SENDER_KEY",
      "outputs": [
        {
          "internalType": "bytes32",
          "name": "",
          "type": "bytes32"
        }
      ],
      "stateMutability": "view",
      "type": "function"
    },
    {
      "inputs": [],
      "name": "PERCENTAGE_BASE",
      "outputs": [
        {
          "internalType": "uint256",
          "name": "",
          "type": "uint256"
        }
      ],
      "stateMutability": "view",
      "type": "function"
    },
    {
      "inputs": [],
      "name": "POSTPROCESS_SIG",
      "outputs": [
        {
          "internalType": "bytes4",
          "name": "",
          "type": "bytes4"
        }
      ],
      "stateMutability": "view",
      "type": "function"
    },
    {
      "inputs": [],
      "name": "PROXY_REGISTRY",
      "outputs": [
        {
          "internalType": "address",
          "name": "",
          "type": "address"
        }
      ],
      "stateMutability": "view",
      "type": "function"
    },
    {
      "inputs": [
        {
          "internalType": "bytes32",
          "name": "",
          "type": "bytes32"
        }
      ],
      "name": "cache",
      "outputs": [
        {
          "internalType": "bytes32",
          "name": "",
          "type": "bytes32"
        }
      ],
      "stateMutability": "view",
      "type": "function"
    },
    {
      "inputs": [
        {
          "internalType": "address",
          "name": "pool",
          "type": "address"
        },
        {
          "internalType": "uint256",
          "name": "poolAmountIn",
          "type": "uint256"
        },
        {
          "internalType": "uint256[]",
          "name": "minAmountsOut",
          "type": "uint256[]"
        }
      ],
      "name": "exitPool",
      "outputs": [
        {
          "internalType": "uint256[]",
          "name": "",
          "type": "uint256[]"
        }
      ],
      "stateMutability": "payable",
      "type": "function"
    },
    {
      "inputs": [
        {
          "internalType": "address",
          "name": "pool",
          "type": "address"
        },
        {
          "internalType": "address",
          "name": "tokenOut",
          "type": "address"
        },
        {
          "internalType": "uint256",
          "name": "poolAmountIn",
          "type": "uint256"
        },
        {
          "internalType": "uint256",
          "name": "minAmountOut",
          "type": "uint256"
        }
      ],
      "name": "exitswapPoolAmountIn",
      "outputs": [
        {
          "internalType": "uint256",
          "name": "tokenAmountOut",
          "type": "uint256"
        }
      ],
      "stateMutability": "payable",
      "type": "function"
    },
    {
      "inputs": [],
      "name": "getContractName",
      "outputs": [
        {
          "internalType": "string",
          "name": "",
          "type": "string"
        }
      ],
      "stateMutability": "pure",
      "type": "function"
    },
    {
      "inputs": [
        {
          "internalType": "address",
          "name": "pool",
          "type": "address"
        },
        {
          "internalType": "uint256",
          "name": "poolAmountOut",
          "type": "uint256"
        },
        {
          "internalType": "uint256[]",
          "name": "maxAmountsIn",
          "type": "uint256[]"
        }
      ],
      "name": "joinPool",
      "outputs": [
        {
          "internalType": "uint256[]",
          "name": "",
          "type": "uint256[]"
        }
      ],
      "stateMutability": "payable",
      "type": "function"
    },
    {
      "inputs": [
        {
          "internalType": "address",
          "name": "pool",
          "type": "address"
        },
        {
          "internalType": "address",
          "name": "tokenIn",
          "type": "address"
        },
        {
          "internalType": "uint256",
          "name": "tokenAmountIn",
          "type": "uint256"
        },
        {
          "internalType": "uint256",
          "name": "minPoolAmountOut",
          "type": "uint256"
        }
      ],
      "name": "joinswapExternAmountIn",
      "outputs": [
        {
          "internalType": "uint256",
          "name": "",
          "type": "uint256"
        }
      ],
      "stateMutability": "payable",
      "type": "function"
    },
    {
      "inputs": [],
      "name": "postProcess",
      "outputs": [],
      "stateMutability": "payable",
      "type": "function"
    },
    {
      "inputs": [
        {
          "internalType": "uint256",
          "name": "",
          "type": "uint256"
        }
      ],
      "name": "stack",
      "outputs": [
        {
          "internalType": "bytes32",
          "name": "",
          "type": "bytes32"
        }
      ],
      "stateMutability": "view",
      "type": "function"
    }
  ],
  "transactionHash": "0xf1ae4ad60433003ba66c0a26586521c231669c883cd106d0a01431bb9d909821",
  "args": [],
  "solcInputHash": "05a3724dc9e1f283fb20820d17e328b2",
  "bytecode": "0x608060405234801561001057600080fd5b50612976806100206000396000f3fe6080604052600436106100dd5760003560e01c80638a5c57df1161007f578063c272291611610059578063c27229161461057b578063dc9031c414610585578063f5f5ba72146105d4578063fa2901a514610664576100dd565b80638a5c57df1461036957806399eb59b9146104a0578063c1762b15146104ef576100dd565b806363ced092116100bb57806363ced0921461017957806374c9ab071461027157806375da771d146102b257806387c139431461033e576100dd565b80630f532d18146100e25780631413dc7d1461010d5780634bbc298714610138575b600080fd5b3480156100ee57600080fd5b506100f76106ae565b6040518082815260200191505060405180910390f35b34801561011957600080fd5b506101226106d5565b6040518082815260200191505060405180910390f35b34801561014457600080fd5b5061014d6106fc565b604051808273ffffffffffffffffffffffffffffffffffffffff16815260200191505060405180910390f35b61021a6004803603606081101561018f57600080fd5b81019080803573ffffffffffffffffffffffffffffffffffffffff16906020019092919080359060200190929190803590602001906401000000008111156101d657600080fd5b8201836020820111156101e857600080fd5b8035906020019184602083028401116401000000008311171561020a57600080fd5b9091929391929390505050610714565b6040518080602001828103825283818151815260200191508051906020019060200280838360005b8381101561025d578082015181840152602081019050610242565b505050509050019250505060405180910390f35b34801561027d57600080fd5b50610286610c6b565b604051808273ffffffffffffffffffffffffffffffffffffffff16815260200191505060405180910390f35b610328600480360360808110156102c857600080fd5b81019080803573ffffffffffffffffffffffffffffffffffffffff169060200190929190803573ffffffffffffffffffffffffffffffffffffffff1690602001909291908035906020019092919080359060200190929190505050610c83565b6040518082815260200191505060405180910390f35b34801561034a57600080fd5b50610353610df9565b6040518082815260200191505060405180910390f35b6104496004803603606081101561037f57600080fd5b81019080803573ffffffffffffffffffffffffffffffffffffffff16906020019092919080359060200190929190803590602001906401000000008111156103c657600080fd5b8201836020820111156103d857600080fd5b803590602001918460208302840111640100000000831117156103fa57600080fd5b919080806020026020016040519081016040528093929190818152602001838360200280828437600081840152601f19601f820116905080830192505050505050509192919290505050610e05565b6040518080602001828103825283818151815260200191508051906020019060200280838360005b8381101561048c578082015181840152602081019050610471565b505050509050019250505060405180910390f35b3480156104ac57600080fd5b506104d9600480360360208110156104c357600080fd5b8101908080359060200190929190505050611561565b6040518082815260200191505060405180910390f35b6105656004803603608081101561050557600080fd5b81019080803573ffffffffffffffffffffffffffffffffffffffff169060200190929190803573ffffffffffffffffffffffffffffffffffffffff1690602001909291908035906020019092919080359060200190929190505050611579565b6040518082815260200191505060405180910390f35b6105836119b9565b005b34801561059157600080fd5b506105be600480360360208110156105a857600080fd5b8101908080359060200190929190505050611a27565b6040518082815260200191505060405180910390f35b3480156105e057600080fd5b506105e9611a48565b6040518080602001828103825283818151815260200191508051906020019080838360005b8381101561062957808201518184015260208101905061060e565b50505050905090810190601f1680156106565780820380516001836020036101000a031916815260200191505b509250505060405180910390f35b34801561067057600080fd5b50610679611a85565b60405180827bffffffffffffffffffffffffffffffffffffffffffffffffffffffff1916815260200191505060405180910390f35b7fb2f2618cecbbb6e7468cc0f2aa43858ad8d153e0280b22285e28e853bb9d453a60001b81565b7ff9543f11459ccccd21306c8881aaab675ff49d988c1162fd1dd9bbcdbe4446be60001b81565b734678f0a6958e4d2bc4f1baf7bc52e8f3564f3fe481565b6060600085905060608173ffffffffffffffffffffffffffffffffffffffff1663be3bbd2e6040518163ffffffff1660e01b815260040160006040518083038186803b15801561076357600080fd5b505afa158015610777573d6000803e3d6000fd5b505050506040513d6000823e3d601f19601f8201168201806040525060208110156107a157600080fd5b81019080805160405193929190846401000000008211156107c157600080fd5b838201915060208201858111156107d757600080fd5b82518660208202830111640100000000821117156107f457600080fd5b8083526020830192505050908051906020019060200280838360005b8381101561082b578082015181840152602081019050610810565b505050509050016040525050509050805185859050146108ba576108b96040518060400160405280600881526020017f65786974506f6f6c0000000000000000000000000000000000000000000000008152506040518060400160405280601f81526020017f746f6b656e20616e6420616d6f756e7420646f6573206e6f74206d6174636800815250611a90565b5b6060815167ffffffffffffffff811180156108d457600080fd5b506040519080825280602002602001820160405280156109035781602001602082028036833780820191505090505b50905060005b82518110156109ec5782818151811061091e57fe5b602002602001015173ffffffffffffffffffffffffffffffffffffffff166370a08231306040518263ffffffff1660e01b8152600401808273ffffffffffffffffffffffffffffffffffffffff16815260200191505060206040518083038186803b15801561098c57600080fd5b505afa1580156109a0573d6000803e3d6000fd5b505050506040513d60208110156109b657600080fd5b81019080805190602001909291905050508282815181106109d357fe5b6020026020010181815250508080600101915050610909565b506109f78388611d23565b96508273ffffffffffffffffffffffffffffffffffffffff1663b02f0b738888886040518463ffffffff1660e01b815260040180848152602001806020018281038252848482818152602001925060200280828437600081840152601f19601f820116905080830192505050945050505050600060405180830381600087803b158015610a8357600080fd5b505af1925050508015610a94575060015b610b3457610aa0612804565b80610aab5750610af0565b610aea6040518060400160405280600881526020017f65786974506f6f6c00000000000000000000000000000000000000000000000081525082611a90565b50610b2f565b610b2e6040518060400160405280600881526020017f65786974506f6f6c000000000000000000000000000000000000000000000000815250611e86565b5b610b35565b5b60005b8251811015610c5c57610b5d838281518110610b5057fe5b6020026020010151611ec8565b610c37828281518110610b6c57fe5b6020026020010151848381518110610b8057fe5b602002602001015173ffffffffffffffffffffffffffffffffffffffff166370a08231306040518263ffffffff1660e01b8152600401808273ffffffffffffffffffffffffffffffffffffffff16815260200191505060206040518083038186803b158015610bee57600080fd5b505afa158015610c02573d6000803e3d6000fd5b505050506040513d6020811015610c1857600080fd5b8101908080519060200190929190505050611edf90919063ffffffff16565b828281518110610c4357fe5b6020026020010181815250508080600101915050610b38565b50809350505050949350505050565b73de4a25a0b9589689945d842c5ba0cf4f0d4eb3ac81565b600080859050610c938185611d23565b93508073ffffffffffffffffffffffffffffffffffffffff166346ab38f18686866040518463ffffffff1660e01b8152600401808473ffffffffffffffffffffffffffffffffffffffff1681526020018381526020018281526020019350505050602060405180830381600087803b158015610d0e57600080fd5b505af1925050508015610d4257506040513d6020811015610d2e57600080fd5b810190808051906020019092919050505060015b610de257610d4e612804565b80610d595750610d9e565b610d986040518060400160405280601481526020017f6578697473776170506f6f6c416d6f756e74496e00000000000000000000000081525082611a90565b50610ddd565b610ddc6040518060400160405280601481526020017f6578697473776170506f6f6c416d6f756e74496e000000000000000000000000815250611e86565b5b610de7565b809250505b610df085611ec8565b50949350505050565b670de0b6b3a764000081565b6060600084905060608173ffffffffffffffffffffffffffffffffffffffff1663be3bbd2e6040518163ffffffff1660e01b815260040160006040518083038186803b158015610e5457600080fd5b505afa158015610e68573d6000803e3d6000fd5b505050506040513d6000823e3d601f19601f820116820180604052506020811015610e9257600080fd5b8101908080516040519392919084640100000000821115610eb257600080fd5b83820191506020820185811115610ec857600080fd5b8251866020820283011164010000000082111715610ee557600080fd5b8083526020830192505050908051906020019060200280838360005b83811015610f1c578082015181840152602081019050610f01565b5050505090500160405250505090508351815114610fa957610fa86040518060400160405280600881526020017f6a6f696e506f6f6c0000000000000000000000000000000000000000000000008152506040518060400160405280601f81526020017f746f6b656e20616e6420616d6f756e7420646f6573206e6f74206d6174636800815250611a90565b5b6000610fb430611f29565b90506060825167ffffffffffffffff81118015610fd057600080fd5b50604051908082528060200260200182016040528015610fff5781602001602082028036833780820191505090505b50905060005b83518110156111815761103e84828151811061101d57fe5b602002602001015188838151811061103157fe5b6020026020010151611d23565b87828151811061104a57fe5b6020026020010181815250506110a78388838151811061106657fe5b602002602001015186848151811061107a57fe5b602002602001015173ffffffffffffffffffffffffffffffffffffffff16611fe89092919063ffffffff16565b8381815181106110b357fe5b602002602001015173ffffffffffffffffffffffffffffffffffffffff166370a08231306040518263ffffffff1660e01b8152600401808273ffffffffffffffffffffffffffffffffffffffff16815260200191505060206040518083038186803b15801561112157600080fd5b505afa158015611135573d6000803e3d6000fd5b505050506040513d602081101561114b57600080fd5b810190808051906020019092919050505082828151811061116857fe5b6020026020010181815250508080600101915050611005565b508173ffffffffffffffffffffffffffffffffffffffff16631cff79cd73de4a25a0b9589689945d842c5ba0cf4f0d4eb3ac638a5c57df8b8b8b604051602401808473ffffffffffffffffffffffffffffffffffffffff16815260200183815260200180602001828103825283818151815260200191508051906020019060200280838360005b83811015611223578082015181840152602081019050611208565b505050509050019450505050506040516020818303038152906040529060e01b6020820180517bffffffffffffffffffffffffffffffffffffffffffffffffffffffff83818316178352505050506040518363ffffffff1660e01b8152600401808373ffffffffffffffffffffffffffffffffffffffff16815260200180602001828103825283818151815260200191508051906020019080838360005b838110156112dc5780820151818401526020810190506112c1565b50505050905090810190601f1680156113095780820380516001836020036101000a031916815260200191505b509350505050602060405180830381600087803b15801561132957600080fd5b505af192505050801561135d57506040513d602081101561134957600080fd5b810190808051906020019092919050505060015b6113fd57611369612804565b8061137457506113b9565b6113b36040518060400160405280600881526020017f6a6f696e506f6f6c00000000000000000000000000000000000000000000000081525082611a90565b506113f8565b6113f76040518060400160405280600881526020017f6a6f696e506f6f6c000000000000000000000000000000000000000000000000815250611e86565b5b6113ff565b505b60005b83518110156115495761144a83600086848151811061141d57fe5b602002602001015173ffffffffffffffffffffffffffffffffffffffff16611fe89092919063ffffffff16565b61152484828151811061145957fe5b602002602001015173ffffffffffffffffffffffffffffffffffffffff166370a08231306040518263ffffffff1660e01b8152600401808273ffffffffffffffffffffffffffffffffffffffff16815260200191505060206040518083038186803b1580156114c757600080fd5b505afa1580156114db573d6000803e3d6000fd5b505050506040513d60208110156114f157600080fd5b810190808051906020019092919050505083838151811061150e57fe5b6020026020010151611edf90919063ffffffff16565b82828151811061153057fe5b6020026020010181815250508080600101915050611402565b5061155388611ec8565b809450505050509392505050565b60016020528060005260406000206000915090505481565b60008061158530611f29565b905060008673ffffffffffffffffffffffffffffffffffffffff166370a08231306040518263ffffffff1660e01b8152600401808273ffffffffffffffffffffffffffffffffffffffff16815260200191505060206040518083038186803b1580156115f057600080fd5b505afa158015611604573d6000803e3d6000fd5b505050506040513d602081101561161a57600080fd5b810190808051906020019092919050505090506116378686611d23565b945061166482868873ffffffffffffffffffffffffffffffffffffffff16611fe89092919063ffffffff16565b8173ffffffffffffffffffffffffffffffffffffffff16631cff79cd73de4a25a0b9589689945d842c5ba0cf4f0d4eb3ac63c1762b158a8a8a8a604051602401808573ffffffffffffffffffffffffffffffffffffffff1681526020018473ffffffffffffffffffffffffffffffffffffffff1681526020018381526020018281526020019450505050506040516020818303038152906040529060e01b6020820180517bffffffffffffffffffffffffffffffffffffffffffffffffffffffff83818316178352505050506040518363ffffffff1660e01b8152600401808373ffffffffffffffffffffffffffffffffffffffff16815260200180602001828103825283818151815260200191508051906020019080838360005b8381101561179b578082015181840152602081019050611780565b50505050905090810190601f1680156117c85780820380516001836020036101000a031916815260200191505b509350505050602060405180830381600087803b1580156117e857600080fd5b505af192505050801561181c57506040513d602081101561180857600080fd5b810190808051906020019092919050505060015b6118bc57611828612804565b806118335750611878565b6118726040518060400160405280601681526020017f6a6f696e7377617045787465726e416d6f756e74496e0000000000000000000081525082611a90565b506118b7565b6118b66040518060400160405280601681526020017f6a6f696e7377617045787465726e416d6f756e74496e00000000000000000000815250611e86565b5b6118be565b505b6118ea8260008873ffffffffffffffffffffffffffffffffffffffff16611fe89092919063ffffffff16565b60008773ffffffffffffffffffffffffffffffffffffffff166370a08231306040518263ffffffff1660e01b8152600401808273ffffffffffffffffffffffffffffffffffffffff16815260200191505060206040518083038186803b15801561195357600080fd5b505afa158015611967573d6000803e3d6000fd5b505050506040513d602081101561197d57600080fd5b8101908080519060200190929190505050905061199988611ec8565b6119ac8282611edf90919063ffffffff16565b9350505050949350505050565b6040517f08c379a00000000000000000000000000000000000000000000000000000000081526004018080602001828103825260148152602001807f496e76616c696420706f73742070726f6365737300000000000000000000000081525060200191505060405180910390fd5b60008181548110611a3457fe5b906000526020600020016000915090505481565b60606040518060400160405280600981526020017f4842616c616e6365720000000000000000000000000000000000000000000000815250905090565b63c272291660e01b81565b611aa0611a9b6121ad565b6121eb565b611aa8611a48565b83836040516020018085805190602001908083835b60208310611ae05780518252602082019150602081019050602083039250611abd565b6001836020036101000a038019825116818451168082178552505050505050905001807f5f0000000000000000000000000000000000000000000000000000000000000081525060010184805190602001908083835b60208310611b595780518252602082019150602081019050602083039250611b36565b6001836020036101000a038019825116818451168082178552505050505050905001807f5f0000000000000000000000000000000000000000000000000000000000000081525060010183805190602001908083835b60208310611bd25780518252602082019150602081019050602083039250611baf565b6001836020036101000a038019825116818451168082178552505050505050905001807f3a2000000000000000000000000000000000000000000000000000000000000081525060020182805190602001908083835b60208310611c4b5780518252602082019150602081019050602083039250611c28565b6001836020036101000a0380198251168184511680821785525050505050509050019450505050506040516020818303038152906040526040517f08c379a00000000000000000000000000000000000000000000000000000000081526004018080602001828103825283818151815260200191508051906020019080838360005b83811015611ce8578082015181840152602081019050611ccd565b50505050905090810190601f168015611d155780820380516001836020036101000a031916815260200191505b509250505060405180910390fd5b60007fffffffffffffffffffffffffffffffffffffffffffffffffffffffffffffffff8214611d5457819050611e80565b600073ffffffffffffffffffffffffffffffffffffffff168373ffffffffffffffffffffffffffffffffffffffff161480611dce575073eeeeeeeeeeeeeeeeeeeeeeeeeeeeeeeeeeeeeeee73ffffffffffffffffffffffffffffffffffffffff168373ffffffffffffffffffffffffffffffffffffffff16145b15611ddb57479050611e80565b8273ffffffffffffffffffffffffffffffffffffffff166370a08231306040518263ffffffff1660e01b8152600401808273ffffffffffffffffffffffffffffffffffffffff16815260200191505060206040518083038186803b158015611e4257600080fd5b505afa158015611e56573d6000803e3d6000fd5b505050506040513d6020811015611e6c57600080fd5b810190808051906020019092919050505090505b92915050565b611ec5816040518060400160405280600b81526020017f556e737065636966696564000000000000000000000000000000000000000000815250611a90565b50565b611edc81600061233290919063ffffffff16565b50565b6000611f2183836040518060400160405280601e81526020017f536166654d6174683a207375627472616374696f6e206f766572666c6f770000815250612377565b905092915050565b6000734678f0a6958e4d2bc4f1baf7bc52e8f3564f3fe473ffffffffffffffffffffffffffffffffffffffff1663c4552791836040518263ffffffff1660e01b8152600401808273ffffffffffffffffffffffffffffffffffffffff16815260200191505060206040518083038186803b158015611fa657600080fd5b505afa158015611fba573d6000803e3d6000fd5b505050506040513d6020811015611fd057600080fd5b81019080805190602001909291905050509050919050565b60008114806120b6575060008373ffffffffffffffffffffffffffffffffffffffff1663dd62ed3e30856040518363ffffffff1660e01b8152600401808373ffffffffffffffffffffffffffffffffffffffff1681526020018273ffffffffffffffffffffffffffffffffffffffff1681526020019250505060206040518083038186803b15801561207957600080fd5b505afa15801561208d573d6000803e3d6000fd5b505050506040513d60208110156120a357600080fd5b8101908080519060200190929190505050145b61210b576040517f08c379a000000000000000000000000000000000000000000000000000000000815260040180806020018281038252603681526020018061290b6036913960400191505060405180910390fd5b6121a88363095ea7b360e01b8484604051602401808373ffffffffffffffffffffffffffffffffffffffff16815260200182815260200192505050604051602081830303815290604052907bffffffffffffffffffffffffffffffffffffffffffffffffffffffff19166020820180517bffffffffffffffffffffffffffffffffffffffffffffffffffffffff8381831617835250505050612437565b505050565b60006121e67ff9543f11459ccccd21306c8881aaab675ff49d988c1162fd1dd9bbcdbe4446be60001b600161252690919063ffffffff16565b905090565b60606000821415612233576040518060400160405280600181526020017f3000000000000000000000000000000000000000000000000000000000000000815250905061232d565b6000808390505b600081111561225d578180600101925050600a818161225557fe5b04905061223a565b5060608167ffffffffffffffff8111801561227757600080fd5b506040519080825280601f01601f1916602001820160405280156122aa5781602001600182028036833780820191505090505b50905060008290505b600081111561232657600a85816122c657fe5b0660300160f81b8260018303815181106122dc57fe5b60200101907effffffffffffffffffffffffffffffffffffffffffffffffffffffffffffff1916908160001a905350600a858161231557fe5b0494508080600190039150506122b3565b5080925050505b919050565b818173ffffffffffffffffffffffffffffffffffffffff1660001b90806001815401808255809150506001900390600052602060002001600090919091909150555050565b6000838311158290612424576040517f08c379a00000000000000000000000000000000000000000000000000000000081526004018080602001828103825283818151815260200191508051906020019080838360005b838110156123e95780820151818401526020810190506123ce565b50505050905090810190601f1680156124165780820380516001836020036101000a031916815260200191505b509250505060405180910390fd5b5060008385039050809150509392505050565b6060612499826040518060400160405280602081526020017f5361666545524332303a206c6f772d6c6576656c2063616c6c206661696c65648152508573ffffffffffffffffffffffffffffffffffffffff166125469092919063ffffffff16565b9050600081511115612521578080602001905160208110156124ba57600080fd5b8101908080519060200190929190505050612520576040517f08c379a000000000000000000000000000000000000000000000000000000000815260040180806020018281038252602a8152602001806128e1602a913960400191505060405180910390fd5b5b505050565b60008260008381526020019081526020016000205460001c905092915050565b6060612555848460008561255e565b90509392505050565b6060824710156125b9576040517f08c379a00000000000000000000000000000000000000000000000000000000081526004018080602001828103825260268152602001806128bb6026913960400191505060405180910390fd5b6125c285612707565b612634576040517f08c379a000000000000000000000000000000000000000000000000000000000815260040180806020018281038252601d8152602001807f416464726573733a2063616c6c20746f206e6f6e2d636f6e747261637400000081525060200191505060405180910390fd5b600060608673ffffffffffffffffffffffffffffffffffffffff1685876040518082805190602001908083835b602083106126845780518252602082019150602081019050602083039250612661565b6001836020036101000a03801982511681845116808217855250505050505090500191505060006040518083038185875af1925050503d80600081146126e6576040519150601f19603f3d011682016040523d82523d6000602084013e6126eb565b606091505b50915091506126fb82828661271a565b92505050949350505050565b600080823b905060008111915050919050565b6060831561272a578290506127df565b60008351111561273d5782518084602001fd5b816040517f08c379a00000000000000000000000000000000000000000000000000000000081526004018080602001828103825283818151815260200191508051906020019080838360005b838110156127a4578082015181840152602081019050612789565b50505050905090810190601f1680156127d15780820380516001836020036101000a031916815260200191505b509250505060405180910390fd5b9392505050565b6000601f19601f8301169050919050565b60008160e01c9050919050565b600060443d1015612814576128b7565b60046000803e6128256000516127f7565b6308c379a0811461283657506128b7565b60405160043d036004823e80513d602482011167ffffffffffffffff82111715612862575050506128b7565b808201805167ffffffffffffffff8111156128815750505050506128b7565b8060208301013d850181111561289c575050505050506128b7565b6128a5826127e6565b60208401016040528296505050505050505b9056fe416464726573733a20696e73756666696369656e742062616c616e636520666f722063616c6c5361666545524332303a204552433230206f7065726174696f6e20646964206e6f7420737563636565645361666545524332303a20617070726f76652066726f6d206e6f6e2d7a65726f20746f206e6f6e2d7a65726f20616c6c6f77616e6365a264697066735822122069478abb841d88f7c866a1b1cf797b71fac406d6949018540ba667d267d7a54464736f6c634300060c0033",
  "devdoc": {
    "kind": "dev",
    "methods": {},
    "version": 1
  },
  "userdoc": {
    "kind": "user",
    "methods": {},
    "version": 1
  },
  "storageLayout": {
    "storage": [
      {
        "astId": 2834,
        "contract": "contracts/handlers/balancer/HBalancer.sol:HBalancer",
        "label": "stack",
        "offset": 0,
        "slot": "0",
        "type": "t_array(t_bytes32)dyn_storage"
      },
      {
        "astId": 2838,
        "contract": "contracts/handlers/balancer/HBalancer.sol:HBalancer",
        "label": "cache",
        "offset": 0,
        "slot": "1",
        "type": "t_mapping(t_bytes32,t_bytes32)"
      }
    ],
    "types": {
      "t_array(t_bytes32)dyn_storage": {
        "base": "t_bytes32",
        "encoding": "dynamic_array",
        "label": "bytes32[]",
        "numberOfBytes": "32"
      },
      "t_bytes32": {
        "encoding": "inplace",
        "label": "bytes32",
        "numberOfBytes": "32"
      },
      "t_mapping(t_bytes32,t_bytes32)": {
        "encoding": "mapping",
        "key": "t_bytes32",
        "label": "mapping(bytes32 => bytes32)",
        "numberOfBytes": "32",
        "value": "t_bytes32"
      }
    }
  }
}