{
  "address": "0x6832C76d4E809251034857E0c0bd5f802a2245d8",
  "abi": [
    {
      "inputs": [],
      "name": "COMPTROLLER",
      "outputs": [
        {
          "internalType": "address",
          "name": "",
          "type": "address"
        }
      ],
      "stateMutability": "view",
      "type": "function"
    },
    {
      "inputs": [],
      "name": "CUBE_COUNTER_KEY",
      "outputs": [
        {
          "internalType": "bytes32",
          "name": "",
          "type": "bytes32"
        }
      ],
      "stateMutability": "view",
      "type": "function"
    },
    {
      "inputs": [],
      "name": "MSG_SENDER_KEY",
      "outputs": [
        {
          "internalType": "bytes32",
          "name": "",
          "type": "bytes32"
        }
      ],
      "stateMutability": "view",
      "type": "function"
    },
    {
      "inputs": [],
      "name": "PERCENTAGE_BASE",
      "outputs": [
        {
          "internalType": "uint256",
          "name": "",
          "type": "uint256"
        }
      ],
      "stateMutability": "view",
      "type": "function"
    },
    {
      "inputs": [],
      "name": "POSTPROCESS_SIG",
      "outputs": [
        {
          "internalType": "bytes4",
          "name": "",
          "type": "bytes4"
        }
      ],
      "stateMutability": "view",
      "type": "function"
    },
    {
      "inputs": [
        {
          "internalType": "bytes32",
          "name": "",
          "type": "bytes32"
        }
      ],
      "name": "cache",
      "outputs": [
        {
          "internalType": "bytes32",
          "name": "",
          "type": "bytes32"
        }
      ],
      "stateMutability": "view",
      "type": "function"
    },
    {
      "inputs": [],
      "name": "claimComp",
      "outputs": [
        {
          "internalType": "uint256",
          "name": "",
          "type": "uint256"
        }
      ],
      "stateMutability": "payable",
      "type": "function"
    },
    {
      "inputs": [
        {
          "internalType": "address",
          "name": "holder",
          "type": "address"
        }
      ],
      "name": "claimComp",
      "outputs": [
        {
          "internalType": "uint256",
          "name": "",
          "type": "uint256"
        }
      ],
      "stateMutability": "payable",
      "type": "function"
    },
    {
      "inputs": [],
      "name": "getContractName",
      "outputs": [
        {
          "internalType": "string",
          "name": "",
          "type": "string"
        }
      ],
      "stateMutability": "pure",
      "type": "function"
    },
    {
      "inputs": [],
      "name": "postProcess",
      "outputs": [],
      "stateMutability": "payable",
      "type": "function"
    },
    {
      "inputs": [
        {
          "internalType": "uint256",
          "name": "",
          "type": "uint256"
        }
      ],
      "name": "stack",
      "outputs": [
        {
          "internalType": "bytes32",
          "name": "",
          "type": "bytes32"
        }
      ],
      "stateMutability": "view",
      "type": "function"
    }
  ],
  "transactionHash": "0x7bef52eb17ac85a053d6276abe4082fcd41b8119210c4417f5acfa343319cc7c",
  "args": [],
  "solcInputHash": "05a3724dc9e1f283fb20820d17e328b2",
  "bytecode": "0x608060405234801561001057600080fd5b506111fb806100206000396000f3fe60806040526004361061009c5760003560e01c806399eb59b91161006457806399eb59b914610181578063c2722916146101d0578063dc9031c4146101da578063e9af029214610229578063f5f5ba7214610281578063fa2901a5146103115761009c565b80630f532d18146100a15780631413dc7d146100cc5780631bd85bdb146100f75780635f82c67e1461011557806387c1394314610156575b600080fd5b3480156100ad57600080fd5b506100b661035b565b6040518082815260200191505060405180910390f35b3480156100d857600080fd5b506100e1610382565b6040518082815260200191505060405180910390f35b6100ff6103a9565b6040518082815260200191505060405180910390f35b34801561012157600080fd5b5061012a6106d8565b604051808273ffffffffffffffffffffffffffffffffffffffff16815260200191505060405180910390f35b34801561016257600080fd5b5061016b6106f0565b6040518082815260200191505060405180910390f35b34801561018d57600080fd5b506101ba600480360360208110156101a457600080fd5b81019080803590602001909291905050506106fc565b6040518082815260200191505060405180910390f35b6101d8610714565b005b3480156101e657600080fd5b50610213600480360360208110156101fd57600080fd5b8101908080359060200190929190505050610782565b6040518082815260200191505060405180910390f35b61026b6004803603602081101561023f57600080fd5b81019080803573ffffffffffffffffffffffffffffffffffffffff1690602001909291905050506107a3565b6040518082815260200191505060405180910390f35b34801561028d57600080fd5b50610296610ac7565b6040518080602001828103825283818151815260200191508051906020019080838360005b838110156102d65780820151818401526020810190506102bb565b50505050905090810190601f1680156103035780820380516001836020036101000a031916815260200191505b509250505060405180910390f35b34801561031d57600080fd5b50610326610b04565b60405180827bffffffffffffffffffffffffffffffffffffffffffffffffffffffff1916815260200191505060405180910390f35b7fb2f2618cecbbb6e7468cc0f2aa43858ad8d153e0280b22285e28e853bb9d453a60001b81565b7ff9543f11459ccccd21306c8881aaab675ff49d988c1162fd1dd9bbcdbe4446be60001b81565b600080733d9819210a31b4961b30ef54be2aed79b9c9cd3b905060008173ffffffffffffffffffffffffffffffffffffffff16639d1b5a0a6040518163ffffffff1660e01b815260040160206040518083038186803b15801561040b57600080fd5b505afa15801561041f573d6000803e3d6000fd5b505050506040513d602081101561043557600080fd5b810190808051906020019092919050505090506000610452610b0f565b905060008273ffffffffffffffffffffffffffffffffffffffff166370a08231836040518263ffffffff1660e01b8152600401808273ffffffffffffffffffffffffffffffffffffffff16815260200191505060206040518083038186803b1580156104bd57600080fd5b505afa1580156104d1573d6000803e3d6000fd5b505050506040513d60208110156104e757600080fd5b810190808051906020019092919050505090508373ffffffffffffffffffffffffffffffffffffffff1663e9af0292836040518263ffffffff1660e01b8152600401808273ffffffffffffffffffffffffffffffffffffffff168152602001915050600060405180830381600087803b15801561056357600080fd5b505af1925050508015610574575060015b6106145761058061110f565b8061058b57506105d0565b6105ca6040518060400160405280600981526020017f636c61696d436f6d70000000000000000000000000000000000000000000000081525082610b4d565b5061060f565b61060e6040518060400160405280600981526020017f636c61696d436f6d700000000000000000000000000000000000000000000000815250610de0565b5b610615565b5b60008373ffffffffffffffffffffffffffffffffffffffff166370a08231846040518263ffffffff1660e01b8152600401808273ffffffffffffffffffffffffffffffffffffffff16815260200191505060206040518083038186803b15801561067e57600080fd5b505afa158015610692573d6000803e3d6000fd5b505050506040513d60208110156106a857600080fd5b810190808051906020019092919050505090506106ce8282610e2290919063ffffffff16565b9550505050505090565b733d9819210a31b4961b30ef54be2aed79b9c9cd3b81565b670de0b6b3a764000081565b60016020528060005260406000206000915090505481565b6040517f08c379a00000000000000000000000000000000000000000000000000000000081526004018080602001828103825260148152602001807f496e76616c696420706f73742070726f6365737300000000000000000000000081525060200191505060405180910390fd5b6000818154811061078f57fe5b906000526020600020016000915090505481565b600080733d9819210a31b4961b30ef54be2aed79b9c9cd3b905060008173ffffffffffffffffffffffffffffffffffffffff16639d1b5a0a6040518163ffffffff1660e01b815260040160206040518083038186803b15801561080557600080fd5b505afa158015610819573d6000803e3d6000fd5b505050506040513d602081101561082f57600080fd5b8101908080519060200190929190505050905060008173ffffffffffffffffffffffffffffffffffffffff166370a08231866040518263ffffffff1660e01b8152600401808273ffffffffffffffffffffffffffffffffffffffff16815260200191505060206040518083038186803b1580156108ab57600080fd5b505afa1580156108bf573d6000803e3d6000fd5b505050506040513d60208110156108d557600080fd5b810190808051906020019092919050505090508273ffffffffffffffffffffffffffffffffffffffff1663e9af0292866040518263ffffffff1660e01b8152600401808273ffffffffffffffffffffffffffffffffffffffff168152602001915050600060405180830381600087803b15801561095157600080fd5b505af1925050508015610962575060015b610a025761096e61110f565b8061097957506109be565b6109b86040518060400160405280600981526020017f636c61696d436f6d70000000000000000000000000000000000000000000000081525082610b4d565b506109fd565b6109fc6040518060400160405280600981526020017f636c61696d436f6d700000000000000000000000000000000000000000000000815250610de0565b5b610a03565b5b60008273ffffffffffffffffffffffffffffffffffffffff166370a08231876040518263ffffffff1660e01b8152600401808273ffffffffffffffffffffffffffffffffffffffff16815260200191505060206040518083038186803b158015610a6c57600080fd5b505afa158015610a80573d6000803e3d6000fd5b505050506040513d6020811015610a9657600080fd5b81019080805190602001909291905050509050610abc8282610e2290919063ffffffff16565b945050505050919050565b60606040518060400160405280600c81526020017f48436f6d7074726f6c6c65720000000000000000000000000000000000000000815250905090565b63c272291660e01b81565b6000610b487fb2f2618cecbbb6e7468cc0f2aa43858ad8d153e0280b22285e28e853bb9d453a60001b6001610e6c90919063ffffffff16565b905090565b610b5d610b58610e8c565b610eca565b610b65610ac7565b83836040516020018085805190602001908083835b60208310610b9d5780518252602082019150602081019050602083039250610b7a565b6001836020036101000a038019825116818451168082178552505050505050905001807f5f0000000000000000000000000000000000000000000000000000000000000081525060010184805190602001908083835b60208310610c165780518252602082019150602081019050602083039250610bf3565b6001836020036101000a038019825116818451168082178552505050505050905001807f5f0000000000000000000000000000000000000000000000000000000000000081525060010183805190602001908083835b60208310610c8f5780518252602082019150602081019050602083039250610c6c565b6001836020036101000a038019825116818451168082178552505050505050905001807f3a2000000000000000000000000000000000000000000000000000000000000081525060020182805190602001908083835b60208310610d085780518252602082019150602081019050602083039250610ce5565b6001836020036101000a0380198251168184511680821785525050505050509050019450505050506040516020818303038152906040526040517f08c379a00000000000000000000000000000000000000000000000000000000081526004018080602001828103825283818151815260200191508051906020019080838360005b83811015610da5578082015181840152602081019050610d8a565b50505050905090810190601f168015610dd25780820380516001836020036101000a031916815260200191505b509250505060405180910390fd5b610e1f816040518060400160405280600b81526020017f556e737065636966696564000000000000000000000000000000000000000000815250610b4d565b50565b6000610e6483836040518060400160405280601e81526020017f536166654d6174683a207375627472616374696f6e206f766572666c6f770000815250611011565b905092915050565b60008260008381526020019081526020016000205460001c905092915050565b6000610ec57ff9543f11459ccccd21306c8881aaab675ff49d988c1162fd1dd9bbcdbe4446be60001b60016110d190919063ffffffff16565b905090565b60606000821415610f12576040518060400160405280600181526020017f3000000000000000000000000000000000000000000000000000000000000000815250905061100c565b6000808390505b6000811115610f3c578180600101925050600a8181610f3457fe5b049050610f19565b5060608167ffffffffffffffff81118015610f5657600080fd5b506040519080825280601f01601f191660200182016040528015610f895781602001600182028036833780820191505090505b50905060008290505b600081111561100557600a8581610fa557fe5b0660300160f81b826001830381518110610fbb57fe5b60200101907effffffffffffffffffffffffffffffffffffffffffffffffffffffffffffff1916908160001a905350600a8581610ff457fe5b049450808060019003915050610f92565b5080925050505b919050565b60008383111582906110be576040517f08c379a00000000000000000000000000000000000000000000000000000000081526004018080602001828103825283818151815260200191508051906020019080838360005b83811015611083578082015181840152602081019050611068565b50505050905090810190601f1680156110b05780820380516001836020036101000a031916815260200191505b509250505060405180910390fd5b5060008385039050809150509392505050565b60008260008381526020019081526020016000205460001c905092915050565b6000601f19601f8301169050919050565b60008160e01c9050919050565b600060443d101561111f576111c2565b60046000803e611130600051611102565b6308c379a0811461114157506111c2565b60405160043d036004823e80513d602482011167ffffffffffffffff8211171561116d575050506111c2565b808201805167ffffffffffffffff81111561118c5750505050506111c2565b8060208301013d85018111156111a7575050505050506111c2565b6111b0826110f1565b60208401016040528296505050505050505b9056fea2646970667358221220435ae58b3cd241451a9890ac5338c4c5303a5df83d9a8d382747d48a39a53e3464736f6c634300060c0033",
  "devdoc": {
    "kind": "dev",
    "methods": {},
    "version": 1
  },
  "userdoc": {
    "kind": "user",
    "methods": {},
    "version": 1
  },
  "storageLayout": {
    "storage": [
      {
        "astId": 2834,
        "contract": "contracts/handlers/compound/HComptroller.sol:HComptroller",
        "label": "stack",
        "offset": 0,
        "slot": "0",
        "type": "t_array(t_bytes32)dyn_storage"
      },
      {
        "astId": 2838,
        "contract": "contracts/handlers/compound/HComptroller.sol:HComptroller",
        "label": "cache",
        "offset": 0,
        "slot": "1",
        "type": "t_mapping(t_bytes32,t_bytes32)"
      }
    ],
    "types": {
      "t_array(t_bytes32)dyn_storage": {
        "base": "t_bytes32",
        "encoding": "dynamic_array",
        "label": "bytes32[]",
        "numberOfBytes": "32"
      },
      "t_bytes32": {
        "encoding": "inplace",
        "label": "bytes32",
        "numberOfBytes": "32"
      },
      "t_mapping(t_bytes32,t_bytes32)": {
        "encoding": "mapping",
        "key": "t_bytes32",
        "label": "mapping(bytes32 => bytes32)",
        "numberOfBytes": "32",
        "value": "t_bytes32"
      }
    }
  }
}