{
  "address": "0x5d398A9B3C3a6f4541c46ECb874edc7Ef8ccD16a",
  "abi": [
    {
      "inputs": [],
      "name": "CUBE_COUNTER_KEY",
      "outputs": [
        {
          "internalType": "bytes32",
          "name": "",
          "type": "bytes32"
        }
      ],
      "stateMutability": "view",
      "type": "function"
    },
    {
      "inputs": [],
      "name": "MSG_SENDER_KEY",
      "outputs": [
        {
          "internalType": "bytes32",
          "name": "",
          "type": "bytes32"
        }
      ],
      "stateMutability": "view",
      "type": "function"
    },
    {
      "inputs": [],
      "name": "PERCENTAGE_BASE",
      "outputs": [
        {
          "internalType": "uint256",
          "name": "",
          "type": "uint256"
        }
      ],
      "stateMutability": "view",
      "type": "function"
    },
    {
      "inputs": [],
      "name": "POSTPROCESS_SIG",
      "outputs": [
        {
          "internalType": "bytes4",
          "name": "",
          "type": "bytes4"
        }
      ],
      "stateMutability": "view",
      "type": "function"
    },
    {
      "inputs": [
        {
          "internalType": "bytes32",
          "name": "",
          "type": "bytes32"
        }
      ],
      "name": "cache",
      "outputs": [
        {
          "internalType": "bytes32",
          "name": "",
          "type": "bytes32"
        }
      ],
      "stateMutability": "view",
      "type": "function"
    },
    {
      "inputs": [],
      "name": "getContractName",
      "outputs": [
        {
          "internalType": "string",
          "name": "",
          "type": "string"
        }
      ],
      "stateMutability": "pure",
      "type": "function"
    },
    {
      "inputs": [
        {
          "internalType": "address",
          "name": "cToken",
          "type": "address"
        },
        {
          "internalType": "uint256",
          "name": "mintAmount",
          "type": "uint256"
        }
      ],
      "name": "mint",
      "outputs": [
        {
          "internalType": "uint256",
          "name": "",
          "type": "uint256"
        }
      ],
      "stateMutability": "payable",
      "type": "function"
    },
    {
      "inputs": [],
      "name": "postProcess",
      "outputs": [],
      "stateMutability": "payable",
      "type": "function"
    },
    {
      "inputs": [
        {
          "internalType": "address",
          "name": "cToken",
          "type": "address"
        },
        {
          "internalType": "uint256",
          "name": "redeemTokens",
          "type": "uint256"
        }
      ],
      "name": "redeem",
      "outputs": [
        {
          "internalType": "uint256",
          "name": "",
          "type": "uint256"
        }
      ],
      "stateMutability": "payable",
      "type": "function"
    },
    {
      "inputs": [
        {
          "internalType": "address",
          "name": "cToken",
          "type": "address"
        },
        {
          "internalType": "uint256",
          "name": "redeemAmount",
          "type": "uint256"
        }
      ],
      "name": "redeemUnderlying",
      "outputs": [
        {
          "internalType": "uint256",
          "name": "",
          "type": "uint256"
        }
      ],
      "stateMutability": "payable",
      "type": "function"
    },
    {
      "inputs": [
        {
          "internalType": "address",
          "name": "cToken",
          "type": "address"
        },
        {
          "internalType": "address",
          "name": "borrower",
          "type": "address"
        },
        {
          "internalType": "uint256",
          "name": "repayAmount",
          "type": "uint256"
        }
      ],
      "name": "repayBorrowBehalf",
      "outputs": [
        {
          "internalType": "uint256",
          "name": "",
          "type": "uint256"
        }
      ],
      "stateMutability": "payable",
      "type": "function"
    },
    {
      "inputs": [
        {
          "internalType": "uint256",
          "name": "",
          "type": "uint256"
        }
      ],
      "name": "stack",
      "outputs": [
        {
          "internalType": "bytes32",
          "name": "",
          "type": "bytes32"
        }
      ],
      "stateMutability": "view",
      "type": "function"
    }
  ],
  "transactionHash": "0xca2a051982fd7c721797e2b096185dd4360fe25d21158cac1cbd4c7c1d134984",
  "args": [],
  "solcInputHash": "05a3724dc9e1f283fb20820d17e328b2",
  "bytecode": "0x608060405234801561001057600080fd5b50612441806100206000396000f3fe6080604052600436106100a75760003560e01c80639629417811610064578063962941781461027357806399eb59b9146102d5578063c272291614610324578063dc9031c41461032e578063f5f5ba721461037d578063fa2901a51461040d576100a7565b80630f532d18146100ac5780631413dc7d146100d75780631e9a69501461010257806340c10f191461016457806359086a5e146101c657806387c1394314610248575b600080fd5b3480156100b857600080fd5b506100c1610457565b6040518082815260200191505060405180910390f35b3480156100e357600080fd5b506100ec61047e565b6040518082815260200191505060405180910390f35b61014e6004803603604081101561011857600080fd5b81019080803573ffffffffffffffffffffffffffffffffffffffff169060200190929190803590602001909291905050506104a5565b6040518082815260200191505060405180910390f35b6101b06004803603604081101561017a57600080fd5b81019080803573ffffffffffffffffffffffffffffffffffffffff1690602001909291908035906020019092919050505061089a565b6040518082815260200191505060405180910390f35b610232600480360360608110156101dc57600080fd5b81019080803573ffffffffffffffffffffffffffffffffffffffff169060200190929190803573ffffffffffffffffffffffffffffffffffffffff16906020019092919080359060200190929190505050610c8f565b6040518082815260200191505060405180910390f35b34801561025457600080fd5b5061025d61108c565b6040518082815260200191505060405180910390f35b6102bf6004803603604081101561028957600080fd5b81019080803573ffffffffffffffffffffffffffffffffffffffff16906020019092919080359060200190929190505050611098565b6040518082815260200191505060405180910390f35b3480156102e157600080fd5b5061030e600480360360208110156102f857600080fd5b81019080803590602001909291905050506114a1565b6040518082815260200191505060405180910390f35b61032c6114b9565b005b34801561033a57600080fd5b506103676004803603602081101561035157600080fd5b8101908080359060200190929190505050611527565b6040518082815260200191505060405180910390f35b34801561038957600080fd5b50610392611548565b6040518080602001828103825283818151815260200191508051906020019080838360005b838110156103d25780820151818401526020810190506103b7565b50505050905090810190601f1680156103ff5780820380516001836020036101000a031916815260200191505b509250505060405180910390f35b34801561041957600080fd5b50610422611585565b60405180827bffffffffffffffffffffffffffffffffffffffffffffffffffffffff1916815260200191505060405180910390f35b7fb2f2618cecbbb6e7468cc0f2aa43858ad8d153e0280b22285e28e853bb9d453a60001b81565b7ff9543f11459ccccd21306c8881aaab675ff49d988c1162fd1dd9bbcdbe4446be60001b81565b6000806104b184611590565b905060008173ffffffffffffffffffffffffffffffffffffffff166370a08231306040518263ffffffff1660e01b8152600401808273ffffffffffffffffffffffffffffffffffffffff16815260200191505060206040518083038186803b15801561051c57600080fd5b505afa158015610530573d6000803e3d6000fd5b505050506040513d602081101561054657600080fd5b810190808051906020019092919050505090506000859050610568868661161a565b945061059586868873ffffffffffffffffffffffffffffffffffffffff1661177d9092919063ffffffff16565b8073ffffffffffffffffffffffffffffffffffffffff1663db006a75866040518263ffffffff1660e01b815260040180828152602001915050602060405180830381600087803b1580156105e857600080fd5b505af192505050801561061c57506040513d602081101561060857600080fd5b810190808051906020019092919050505060015b6106bc576106286122cf565b806106335750610678565b6106726040518060400160405280600681526020017f72656465656d000000000000000000000000000000000000000000000000000081525082611942565b506106b7565b6106b66040518060400160405280600681526020017f72656465656d0000000000000000000000000000000000000000000000000000815250611bd5565b5b6107a0565b6000811461079e5761079d6040518060400160405280600681526020017f72656465656d000000000000000000000000000000000000000000000000000081525061070683611c17565b60405160200180807f6572726f7220000000000000000000000000000000000000000000000000000081525060060182805190602001908083835b602083106107645780518252602082019150602081019050602083039250610741565b6001836020036101000a038019825116818451168082178552505050505050905001915050604051602081830303815290604052611942565b5b505b6107cc8660008873ffffffffffffffffffffffffffffffffffffffff1661177d9092919063ffffffff16565b60008373ffffffffffffffffffffffffffffffffffffffff166370a08231306040518263ffffffff1660e01b8152600401808273ffffffffffffffffffffffffffffffffffffffff16815260200191505060206040518083038186803b15801561083557600080fd5b505afa158015610849573d6000803e3d6000fd5b505050506040513d602081101561085f57600080fd5b8101908080519060200190929190505050905061087b84611d5e565b61088e8382611d7590919063ffffffff16565b94505050505092915050565b60008083905060008173ffffffffffffffffffffffffffffffffffffffff166370a08231306040518263ffffffff1660e01b8152600401808273ffffffffffffffffffffffffffffffffffffffff16815260200191505060206040518083038186803b15801561090957600080fd5b505afa15801561091d573d6000803e3d6000fd5b505050506040513d602081101561093357600080fd5b81019080805190602001909291905050509050600061095186611590565b905061095d818661161a565b945061098a86868373ffffffffffffffffffffffffffffffffffffffff1661177d9092919063ffffffff16565b8273ffffffffffffffffffffffffffffffffffffffff1663a0712d68866040518263ffffffff1660e01b815260040180828152602001915050602060405180830381600087803b1580156109dd57600080fd5b505af1925050508015610a1157506040513d60208110156109fd57600080fd5b810190808051906020019092919050505060015b610ab157610a1d6122cf565b80610a285750610a6d565b610a676040518060400160405280600481526020017f6d696e740000000000000000000000000000000000000000000000000000000081525082611942565b50610aac565b610aab6040518060400160405280600481526020017f6d696e7400000000000000000000000000000000000000000000000000000000815250611bd5565b5b610b95565b60008114610b9357610b926040518060400160405280600481526020017f6d696e7400000000000000000000000000000000000000000000000000000000815250610afb83611c17565b60405160200180807f6572726f7220000000000000000000000000000000000000000000000000000081525060060182805190602001908083835b60208310610b595780518252602082019150602081019050602083039250610b36565b6001836020036101000a038019825116818451168082178552505050505050905001915050604051602081830303815290604052611942565b5b505b610bc18660008373ffffffffffffffffffffffffffffffffffffffff1661177d9092919063ffffffff16565b60008373ffffffffffffffffffffffffffffffffffffffff166370a08231306040518263ffffffff1660e01b8152600401808273ffffffffffffffffffffffffffffffffffffffff16815260200191505060206040518083038186803b158015610c2a57600080fd5b505afa158015610c3e573d6000803e3d6000fd5b505050506040513d6020811015610c5457600080fd5b81019080805190602001909291905050509050610c7087611d5e565b610c838382611d7590919063ffffffff16565b94505050505092915050565b6000808490506000610ca086611590565b905060008273ffffffffffffffffffffffffffffffffffffffff166317bfdfbc876040518263ffffffff1660e01b8152600401808273ffffffffffffffffffffffffffffffffffffffff168152602001915050602060405180830381600087803b158015610d0d57600080fd5b505af1158015610d21573d6000803e3d6000fd5b505050506040513d6020811015610d3757600080fd5b8101908080519060200190929190505050905080851015610d56578490505b610d8187828473ffffffffffffffffffffffffffffffffffffffff1661177d9092919063ffffffff16565b8273ffffffffffffffffffffffffffffffffffffffff16632608f81887836040518363ffffffff1660e01b8152600401808373ffffffffffffffffffffffffffffffffffffffff16815260200182815260200192505050602060405180830381600087803b158015610df257600080fd5b505af1925050508015610e2657506040513d6020811015610e1257600080fd5b810190808051906020019092919050505060015b610ec657610e326122cf565b80610e3d5750610e82565b610e7c6040518060400160405280601181526020017f7265706179426f72726f77426568616c6600000000000000000000000000000081525082611942565b50610ec1565b610ec06040518060400160405280601181526020017f7265706179426f72726f77426568616c66000000000000000000000000000000815250611bd5565b5b610faa565b60008114610fa857610fa76040518060400160405280601181526020017f7265706179426f72726f77426568616c66000000000000000000000000000000815250610f1083611c17565b60405160200180807f6572726f7220000000000000000000000000000000000000000000000000000081525060060182805190602001908083835b60208310610f6e5780518252602082019150602081019050602083039250610f4b565b6001836020036101000a038019825116818451168082178552505050505050905001915050604051602081830303815290604052611942565b5b505b60008373ffffffffffffffffffffffffffffffffffffffff166317bfdfbc886040518263ffffffff1660e01b8152600401808273ffffffffffffffffffffffffffffffffffffffff168152602001915050602060405180830381600087803b15801561101557600080fd5b505af1158015611029573d6000803e3d6000fd5b505050506040513d602081101561103f57600080fd5b8101908080519060200190929190505050905061107e8860008573ffffffffffffffffffffffffffffffffffffffff1661177d9092919063ffffffff16565b809450505050509392505050565b670de0b6b3a764000081565b60008083905060008173ffffffffffffffffffffffffffffffffffffffff166370a08231306040518263ffffffff1660e01b8152600401808273ffffffffffffffffffffffffffffffffffffffff16815260200191505060206040518083038186803b15801561110757600080fd5b505afa15801561111b573d6000803e3d6000fd5b505050506040513d602081101561113157600080fd5b8101908080519060200190929190505050905061118f857fffffffffffffffffffffffffffffffffffffffffffffffffffffffffffffffff8773ffffffffffffffffffffffffffffffffffffffff1661177d9092919063ffffffff16565b8173ffffffffffffffffffffffffffffffffffffffff1663852a12e3856040518263ffffffff1660e01b815260040180828152602001915050602060405180830381600087803b1580156111e257600080fd5b505af192505050801561121657506040513d602081101561120257600080fd5b810190808051906020019092919050505060015b6112b6576112226122cf565b8061122d5750611272565b61126c6040518060400160405280601081526020017f72656465656d556e6465726c79696e670000000000000000000000000000000081525082611942565b506112b1565b6112b06040518060400160405280601081526020017f72656465656d556e6465726c79696e6700000000000000000000000000000000815250611bd5565b5b61139a565b60008114611398576113976040518060400160405280601081526020017f72656465656d556e6465726c79696e670000000000000000000000000000000081525061130083611c17565b60405160200180807f6572726f7220000000000000000000000000000000000000000000000000000081525060060182805190602001908083835b6020831061135e578051825260208201915060208101905060208303925061133b565b6001836020036101000a038019825116818451168082178552505050505050905001915050604051602081830303815290604052611942565b5b505b6113c68560008773ffffffffffffffffffffffffffffffffffffffff1661177d9092919063ffffffff16565b60008273ffffffffffffffffffffffffffffffffffffffff166370a08231306040518263ffffffff1660e01b8152600401808273ffffffffffffffffffffffffffffffffffffffff16815260200191505060206040518083038186803b15801561142f57600080fd5b505afa158015611443573d6000803e3d6000fd5b505050506040513d602081101561145957600080fd5b81019080805190602001909291905050509050600061147787611590565b905061148281611d5e565b6114958284611d7590919063ffffffff16565b94505050505092915050565b60016020528060005260406000206000915090505481565b6040517f08c379a00000000000000000000000000000000000000000000000000000000081526004018080602001828103825260148152602001807f496e76616c696420706f73742070726f6365737300000000000000000000000081525060200191505060405180910390fd5b6000818154811061153457fe5b906000526020600020016000915090505481565b60606040518060400160405280600781526020017f4843546f6b656e00000000000000000000000000000000000000000000000000815250905090565b63c272291660e01b81565b60008173ffffffffffffffffffffffffffffffffffffffff16636f307dc36040518163ffffffff1660e01b815260040160206040518083038186803b1580156115d857600080fd5b505afa1580156115ec573d6000803e3d6000fd5b505050506040513d602081101561160257600080fd5b81019080805190602001909291905050509050919050565b60007fffffffffffffffffffffffffffffffffffffffffffffffffffffffffffffffff821461164b57819050611777565b600073ffffffffffffffffffffffffffffffffffffffff168373ffffffffffffffffffffffffffffffffffffffff1614806116c5575073eeeeeeeeeeeeeeeeeeeeeeeeeeeeeeeeeeeeeeee73ffffffffffffffffffffffffffffffffffffffff168373ffffffffffffffffffffffffffffffffffffffff16145b156116d257479050611777565b8273ffffffffffffffffffffffffffffffffffffffff166370a08231306040518263ffffffff1660e01b8152600401808273ffffffffffffffffffffffffffffffffffffffff16815260200191505060206040518083038186803b15801561173957600080fd5b505afa15801561174d573d6000803e3d6000fd5b505050506040513d602081101561176357600080fd5b810190808051906020019092919050505090505b92915050565b600081148061184b575060008373ffffffffffffffffffffffffffffffffffffffff1663dd62ed3e30856040518363ffffffff1660e01b8152600401808373ffffffffffffffffffffffffffffffffffffffff1681526020018273ffffffffffffffffffffffffffffffffffffffff1681526020019250505060206040518083038186803b15801561180e57600080fd5b505afa158015611822573d6000803e3d6000fd5b505050506040513d602081101561183857600080fd5b8101908080519060200190929190505050145b6118a0576040517f08c379a00000000000000000000000000000000000000000000000000000000081526004018080602001828103825260368152602001806123d66036913960400191505060405180910390fd5b61193d8363095ea7b360e01b8484604051602401808373ffffffffffffffffffffffffffffffffffffffff16815260200182815260200192505050604051602081830303815290604052907bffffffffffffffffffffffffffffffffffffffffffffffffffffffff19166020820180517bffffffffffffffffffffffffffffffffffffffffffffffffffffffff8381831617835250505050611dbf565b505050565b61195261194d611eae565b611c17565b61195a611548565b83836040516020018085805190602001908083835b60208310611992578051825260208201915060208101905060208303925061196f565b6001836020036101000a038019825116818451168082178552505050505050905001807f5f0000000000000000000000000000000000000000000000000000000000000081525060010184805190602001908083835b60208310611a0b57805182526020820191506020810190506020830392506119e8565b6001836020036101000a038019825116818451168082178552505050505050905001807f5f0000000000000000000000000000000000000000000000000000000000000081525060010183805190602001908083835b60208310611a845780518252602082019150602081019050602083039250611a61565b6001836020036101000a038019825116818451168082178552505050505050905001807f3a2000000000000000000000000000000000000000000000000000000000000081525060020182805190602001908083835b60208310611afd5780518252602082019150602081019050602083039250611ada565b6001836020036101000a0380198251168184511680821785525050505050509050019450505050506040516020818303038152906040526040517f08c379a00000000000000000000000000000000000000000000000000000000081526004018080602001828103825283818151815260200191508051906020019080838360005b83811015611b9a578082015181840152602081019050611b7f565b50505050905090810190601f168015611bc75780820380516001836020036101000a031916815260200191505b509250505060405180910390fd5b611c14816040518060400160405280600b81526020017f556e737065636966696564000000000000000000000000000000000000000000815250611942565b50565b60606000821415611c5f576040518060400160405280600181526020017f30000000000000000000000000000000000000000000000000000000000000008152509050611d59565b6000808390505b6000811115611c89578180600101925050600a8181611c8157fe5b049050611c66565b5060608167ffffffffffffffff81118015611ca357600080fd5b506040519080825280601f01601f191660200182016040528015611cd65781602001600182028036833780820191505090505b50905060008290505b6000811115611d5257600a8581611cf257fe5b0660300160f81b826001830381518110611d0857fe5b60200101907effffffffffffffffffffffffffffffffffffffffffffffffffffffffffffff1916908160001a905350600a8581611d4157fe5b049450808060019003915050611cdf565b5080925050505b919050565b611d72816000611eec90919063ffffffff16565b50565b6000611db783836040518060400160405280601e81526020017f536166654d6174683a207375627472616374696f6e206f766572666c6f770000815250611f31565b905092915050565b6060611e21826040518060400160405280602081526020017f5361666545524332303a206c6f772d6c6576656c2063616c6c206661696c65648152508573ffffffffffffffffffffffffffffffffffffffff16611ff19092919063ffffffff16565b9050600081511115611ea957808060200190516020811015611e4257600080fd5b8101908080519060200190929190505050611ea8576040517f08c379a000000000000000000000000000000000000000000000000000000000815260040180806020018281038252602a8152602001806123ac602a913960400191505060405180910390fd5b5b505050565b6000611ee77ff9543f11459ccccd21306c8881aaab675ff49d988c1162fd1dd9bbcdbe4446be60001b600161200990919063ffffffff16565b905090565b818173ffffffffffffffffffffffffffffffffffffffff1660001b90806001815401808255809150506001900390600052602060002001600090919091909150555050565b6000838311158290611fde576040517f08c379a00000000000000000000000000000000000000000000000000000000081526004018080602001828103825283818151815260200191508051906020019080838360005b83811015611fa3578082015181840152602081019050611f88565b50505050905090810190601f168015611fd05780820380516001836020036101000a031916815260200191505b509250505060405180910390fd5b5060008385039050809150509392505050565b60606120008484600085612029565b90509392505050565b60008260008381526020019081526020016000205460001c905092915050565b606082471015612084576040517f08c379a00000000000000000000000000000000000000000000000000000000081526004018080602001828103825260268152602001806123866026913960400191505060405180910390fd5b61208d856121d2565b6120ff576040517f08c379a000000000000000000000000000000000000000000000000000000000815260040180806020018281038252601d8152602001807f416464726573733a2063616c6c20746f206e6f6e2d636f6e747261637400000081525060200191505060405180910390fd5b600060608673ffffffffffffffffffffffffffffffffffffffff1685876040518082805190602001908083835b6020831061214f578051825260208201915060208101905060208303925061212c565b6001836020036101000a03801982511681845116808217855250505050505090500191505060006040518083038185875af1925050503d80600081146121b1576040519150601f19603f3d011682016040523d82523d6000602084013e6121b6565b606091505b50915091506121c68282866121e5565b92505050949350505050565b600080823b905060008111915050919050565b606083156121f5578290506122aa565b6000835111156122085782518084602001fd5b816040517f08c379a00000000000000000000000000000000000000000000000000000000081526004018080602001828103825283818151815260200191508051906020019080838360005b8381101561226f578082015181840152602081019050612254565b50505050905090810190601f16801561229c5780820380516001836020036101000a031916815260200191505b509250505060405180910390fd5b9392505050565b6000601f19601f8301169050919050565b60008160e01c9050919050565b600060443d10156122df57612382565b60046000803e6122f06000516122c2565b6308c379a081146123015750612382565b60405160043d036004823e80513d602482011167ffffffffffffffff8211171561232d57505050612382565b808201805167ffffffffffffffff81111561234c575050505050612382565b8060208301013d850181111561236757505050505050612382565b612370826122b1565b60208401016040528296505050505050505b9056fe416464726573733a20696e73756666696369656e742062616c616e636520666f722063616c6c5361666545524332303a204552433230206f7065726174696f6e20646964206e6f7420737563636565645361666545524332303a20617070726f76652066726f6d206e6f6e2d7a65726f20746f206e6f6e2d7a65726f20616c6c6f77616e6365a264697066735822122006254a8595548cfb57390ab7c9c539d74b27ec99f03226289640079a45a5cef864736f6c634300060c0033",
  "devdoc": {
    "kind": "dev",
    "methods": {},
    "version": 1
  },
  "userdoc": {
    "kind": "user",
    "methods": {},
    "version": 1
  },
  "storageLayout": {
    "storage": [
      {
        "astId": 2834,
        "contract": "contracts/handlers/compound/HCToken.sol:HCToken",
        "label": "stack",
        "offset": 0,
        "slot": "0",
        "type": "t_array(t_bytes32)dyn_storage"
      },
      {
        "astId": 2838,
        "contract": "contracts/handlers/compound/HCToken.sol:HCToken",
        "label": "cache",
        "offset": 0,
        "slot": "1",
        "type": "t_mapping(t_bytes32,t_bytes32)"
      }
    ],
    "types": {
      "t_array(t_bytes32)dyn_storage": {
        "base": "t_bytes32",
        "encoding": "dynamic_array",
        "label": "bytes32[]",
        "numberOfBytes": "32"
      },
      "t_bytes32": {
        "encoding": "inplace",
        "label": "bytes32",
        "numberOfBytes": "32"
      },
      "t_mapping(t_bytes32,t_bytes32)": {
        "encoding": "mapping",
        "key": "t_bytes32",
        "label": "mapping(bytes32 => bytes32)",
        "numberOfBytes": "32",
        "value": "t_bytes32"
      }
    }
  }
}