{
  "address": "0x17d327c328487d7df8E21eA116A3A0A9aE2dBc3c",
  "abi": [
    {
      "inputs": [],
      "name": "CRV_TOKEN",
      "outputs": [
        {
          "internalType": "address",
          "name": "",
          "type": "address"
        }
      ],
      "stateMutability": "view",
      "type": "function"
    },
    {
      "inputs": [],
      "name": "CUBE_COUNTER_KEY",
      "outputs": [
        {
          "internalType": "bytes32",
          "name": "",
          "type": "bytes32"
        }
      ],
      "stateMutability": "view",
      "type": "function"
    },
    {
      "inputs": [],
      "name": "CURVE_MINTER",
      "outputs": [
        {
          "internalType": "address",
          "name": "",
          "type": "address"
        }
      ],
      "stateMutability": "view",
      "type": "function"
    },
    {
      "inputs": [],
      "name": "MSG_SENDER_KEY",
      "outputs": [
        {
          "internalType": "bytes32",
          "name": "",
          "type": "bytes32"
        }
      ],
      "stateMutability": "view",
      "type": "function"
    },
    {
      "inputs": [],
      "name": "PERCENTAGE_BASE",
      "outputs": [
        {
          "internalType": "uint256",
          "name": "",
          "type": "uint256"
        }
      ],
      "stateMutability": "view",
      "type": "function"
    },
    {
      "inputs": [],
      "name": "POSTPROCESS_SIG",
      "outputs": [
        {
          "internalType": "bytes4",
          "name": "",
          "type": "bytes4"
        }
      ],
      "stateMutability": "view",
      "type": "function"
    },
    {
      "inputs": [
        {
          "internalType": "bytes32",
          "name": "",
          "type": "bytes32"
        }
      ],
      "name": "cache",
      "outputs": [
        {
          "internalType": "bytes32",
          "name": "",
          "type": "bytes32"
        }
      ],
      "stateMutability": "view",
      "type": "function"
    },
    {
      "inputs": [
        {
          "internalType": "address",
          "name": "gaugeAddress",
          "type": "address"
        },
        {
          "internalType": "uint256",
          "name": "_value",
          "type": "uint256"
        }
      ],
      "name": "deposit",
      "outputs": [],
      "stateMutability": "payable",
      "type": "function"
    },
    {
      "inputs": [],
      "name": "getContractName",
      "outputs": [
        {
          "internalType": "string",
          "name": "",
          "type": "string"
        }
      ],
      "stateMutability": "pure",
      "type": "function"
    },
    {
      "inputs": [
        {
          "internalType": "address",
          "name": "gaugeAddr",
          "type": "address"
        }
      ],
      "name": "mint",
      "outputs": [
        {
          "internalType": "uint256",
          "name": "",
          "type": "uint256"
        }
      ],
      "stateMutability": "payable",
      "type": "function"
    },
    {
      "inputs": [
        {
          "internalType": "address[]",
          "name": "gaugeAddrs",
          "type": "address[]"
        }
      ],
      "name": "mintMany",
      "outputs": [
        {
          "internalType": "uint256",
          "name": "",
          "type": "uint256"
        }
      ],
      "stateMutability": "payable",
      "type": "function"
    },
    {
      "inputs": [],
      "name": "postProcess",
      "outputs": [],
      "stateMutability": "payable",
      "type": "function"
    },
    {
      "inputs": [
        {
          "internalType": "uint256",
          "name": "",
          "type": "uint256"
        }
      ],
      "name": "stack",
      "outputs": [
        {
          "internalType": "bytes32",
          "name": "",
          "type": "bytes32"
        }
      ],
      "stateMutability": "view",
      "type": "function"
    }
  ],
  "transactionHash": "0x0dd96da2f1f73b97aadab7485ba88c1332b6c22282b5b1f04dd974c962501352",
  "args": [],
  "solcInputHash": "05a3724dc9e1f283fb20820d17e328b2",
  "bytecode": "0x608060405234801561001057600080fd5b506121a1806100206000396000f3fe6080604052600436106100c25760003560e01c80636a6278421161007f578063c272291611610059578063c27229161461034c578063dc9031c414610356578063f5f5ba72146103a5578063fa2901a514610435576100c2565b80636a6278421461027a57806387c13943146102d257806399eb59b9146102fd576100c2565b80630f532d18146100c75780631413dc7d146100f2578063397ada211461011d57806347e7ef24146101aa5780635c13c168146101f8578063657428a314610239575b600080fd5b3480156100d357600080fd5b506100dc61047f565b6040518082815260200191505060405180910390f35b3480156100fe57600080fd5b506101076104a6565b6040518082815260200191505060405180910390f35b6101946004803603602081101561013357600080fd5b810190808035906020019064010000000081111561015057600080fd5b82018360208201111561016257600080fd5b8035906020019184602083028401116401000000008311171561018457600080fd5b90919293919293905050506104cd565b6040518082815260200191505060405180910390f35b6101f6600480360360408110156101c057600080fd5b81019080803573ffffffffffffffffffffffffffffffffffffffff16906020019092919080359060200190929190505050610ae3565b005b34801561020457600080fd5b5061020d610cba565b604051808273ffffffffffffffffffffffffffffffffffffffff16815260200191505060405180910390f35b34801561024557600080fd5b5061024e610cd2565b604051808273ffffffffffffffffffffffffffffffffffffffff16815260200191505060405180910390f35b6102bc6004803603602081101561029057600080fd5b81019080803573ffffffffffffffffffffffffffffffffffffffff169060200190929190505050610cea565b6040518082815260200191505060405180910390f35b3480156102de57600080fd5b506102e7611139565b6040518082815260200191505060405180910390f35b34801561030957600080fd5b506103366004803603602081101561032057600080fd5b8101908080359060200190929190505050611145565b6040518082815260200191505060405180910390f35b61035461115d565b005b34801561036257600080fd5b5061038f6004803603602081101561037957600080fd5b81019080803590602001909291905050506111cb565b6040518082815260200191505060405180910390f35b3480156103b157600080fd5b506103ba6111ec565b6040518080602001828103825283818151815260200191508051906020019080838360005b838110156103fa5780820151818401526020810190506103df565b50505050905090810190601f1680156104275780820380516001836020036101000a031916815260200191505b509250505060405180910390f35b34801561044157600080fd5b5061044a611229565b60405180827bffffffffffffffffffffffffffffffffffffffffffffffffffffffff1916815260200191505060405180910390f35b7fb2f2618cecbbb6e7468cc0f2aa43858ad8d153e0280b22285e28e853bb9d453a60001b81565b7ff9543f11459ccccd21306c8881aaab675ff49d988c1162fd1dd9bbcdbe4446be60001b81565b60008073d061d61a4d941c39e5453435b6345dc261c2fce0905060006104f1611234565b9050600073d533a949740bb3306d119cc777fa900ba034cd5273ffffffffffffffffffffffffffffffffffffffff166370a08231836040518263ffffffff1660e01b8152600401808273ffffffffffffffffffffffffffffffffffffffff16815260200191505060206040518083038186803b15801561057057600080fd5b505afa158015610584573d6000803e3d6000fd5b505050506040513d602081101561059a57600080fd5b81019080805190602001909291905050509050600015158373ffffffffffffffffffffffffffffffffffffffff1663a099003330856040518363ffffffff1660e01b8152600401808373ffffffffffffffffffffffffffffffffffffffff1681526020018273ffffffffffffffffffffffffffffffffffffffff1681526020019250505060206040518083038186803b15801561063657600080fd5b505afa15801561064a573d6000803e3d6000fd5b505050506040513d602081101561066057600080fd5b8101908080519060200190929190505050151514156106ee576106ed6040518060400160405280600881526020017f6d696e744d616e790000000000000000000000000000000000000000000000008152506040518060400160405280601381526020017f6e6f7420616c6c6f77656420746f206d696e7400000000000000000000000000815250611272565b5b60005b868690508110156109f2578373ffffffffffffffffffffffffffffffffffffffff166327f18ae388888481811061072457fe5b9050602002013573ffffffffffffffffffffffffffffffffffffffff16856040518363ffffffff1660e01b8152600401808373ffffffffffffffffffffffffffffffffffffffff1681526020018273ffffffffffffffffffffffffffffffffffffffff16815260200192505050600060405180830381600087803b1580156107ab57600080fd5b505af19250505080156107bc575060015b6109e4576107c861202f565b806107d35750610905565b6108ff6040518060400160405280600881526020017f6d696e744d616e790000000000000000000000000000000000000000000000008152508261081685611505565b6040516020018083805190602001908083835b6020831061084c5780518252602082019150602081019050602083039250610829565b6001836020036101000a038019825116818451168082178552505050505050905001807f206f6e200000000000000000000000000000000000000000000000000000000081525060040182805190602001908083835b602083106108c557805182526020820191506020810190506020830392506108a2565b6001836020036101000a03801982511681845116808217855250505050505090500192505050604051602081830303815290604052611272565b506109df565b6109de6040518060400160405280600881526020017f6d696e744d616e7900000000000000000000000000000000000000000000000081525061094783611505565b60405160200180807f556e737065636966696564206f6e200000000000000000000000000000000000815250600f0182805190602001908083835b602083106109a55780518252602082019150602081019050602083039250610982565b6001836020036101000a038019825116818451168082178552505050505050905001915050604051602081830303815290604052611272565b5b6109e5565b5b80806001019150506106f1565b50610a1073d533a949740bb3306d119cc777fa900ba034cd5261164c565b610ad88173d533a949740bb3306d119cc777fa900ba034cd5273ffffffffffffffffffffffffffffffffffffffff166370a08231856040518263ffffffff1660e01b8152600401808273ffffffffffffffffffffffffffffffffffffffff16815260200191505060206040518083038186803b158015610a8f57600080fd5b505afa158015610aa3573d6000803e3d6000fd5b505050506040513d6020811015610ab957600080fd5b810190808051906020019092919050505061166390919063ffffffff16565b935050505092915050565b600082905060008173ffffffffffffffffffffffffffffffffffffffff166382c630666040518163ffffffff1660e01b815260040160206040518083038186803b158015610b3057600080fd5b505afa158015610b44573d6000803e3d6000fd5b505050506040513d6020811015610b5a57600080fd5b810190808051906020019092919050505090506000610b77611234565b9050610b8382856116ad565b9350610b90828686611810565b8273ffffffffffffffffffffffffffffffffffffffff16636e553f6585836040518363ffffffff1660e01b8152600401808381526020018273ffffffffffffffffffffffffffffffffffffffff16815260200192505050600060405180830381600087803b158015610c0157600080fd5b505af1925050508015610c12575060015b610cb257610c1e61202f565b80610c295750610c6e565b610c686040518060400160405280600781526020017f6465706f7369740000000000000000000000000000000000000000000000000081525082611272565b50610cad565b610cac6040518060400160405280600781526020017f6465706f736974000000000000000000000000000000000000000000000000008152506118f8565b5b610cb3565b5b5050505050565b73d061d61a4d941c39e5453435b6345dc261c2fce081565b73d533a949740bb3306d119cc777fa900ba034cd5281565b60008073d061d61a4d941c39e5453435b6345dc261c2fce090506000610d0e611234565b9050600073d533a949740bb3306d119cc777fa900ba034cd5273ffffffffffffffffffffffffffffffffffffffff166370a08231836040518263ffffffff1660e01b8152600401808273ffffffffffffffffffffffffffffffffffffffff16815260200191505060206040518083038186803b158015610d8d57600080fd5b505afa158015610da1573d6000803e3d6000fd5b505050506040513d6020811015610db757600080fd5b81019080805190602001909291905050509050600015158373ffffffffffffffffffffffffffffffffffffffff1663a099003330856040518363ffffffff1660e01b8152600401808373ffffffffffffffffffffffffffffffffffffffff1681526020018273ffffffffffffffffffffffffffffffffffffffff1681526020019250505060206040518083038186803b158015610e5357600080fd5b505afa158015610e67573d6000803e3d6000fd5b505050506040513d6020811015610e7d57600080fd5b810190808051906020019092919050505015151415610f0b57610f0a6040518060400160405280600481526020017f6d696e74000000000000000000000000000000000000000000000000000000008152506040518060400160405280601381526020017f6e6f7420616c6c6f77656420746f206d696e7400000000000000000000000000815250611272565b5b8273ffffffffffffffffffffffffffffffffffffffff166327f18ae386846040518363ffffffff1660e01b8152600401808373ffffffffffffffffffffffffffffffffffffffff1681526020018273ffffffffffffffffffffffffffffffffffffffff16815260200192505050600060405180830381600087803b158015610f9257600080fd5b505af1925050508015610fa3575060015b61104357610faf61202f565b80610fba5750610fff565b610ff96040518060400160405280600481526020017f6d696e740000000000000000000000000000000000000000000000000000000081525082611272565b5061103e565b61103d6040518060400160405280600481526020017f6d696e74000000000000000000000000000000000000000000000000000000008152506118f8565b5b611044565b5b600073d533a949740bb3306d119cc777fa900ba034cd5273ffffffffffffffffffffffffffffffffffffffff166370a08231846040518263ffffffff1660e01b8152600401808273ffffffffffffffffffffffffffffffffffffffff16815260200191505060206040518083038186803b1580156110c157600080fd5b505afa1580156110d5573d6000803e3d6000fd5b505050506040513d60208110156110eb57600080fd5b8101908080519060200190929190505050905061111b73d533a949740bb3306d119cc777fa900ba034cd5261164c565b61112e828261166390919063ffffffff16565b945050505050919050565b670de0b6b3a764000081565b60016020528060005260406000206000915090505481565b6040517f08c379a00000000000000000000000000000000000000000000000000000000081526004018080602001828103825260148152602001807f496e76616c696420706f73742070726f6365737300000000000000000000000081525060200191505060405180910390fd5b600081815481106111d857fe5b906000526020600020016000915090505481565b60606040518060400160405280600981526020017f48437572766544616f0000000000000000000000000000000000000000000000815250905090565b63c272291660e01b81565b600061126d7fb2f2618cecbbb6e7468cc0f2aa43858ad8d153e0280b22285e28e853bb9d453a60001b600161193a90919063ffffffff16565b905090565b61128261127d61195a565b611505565b61128a6111ec565b83836040516020018085805190602001908083835b602083106112c2578051825260208201915060208101905060208303925061129f565b6001836020036101000a038019825116818451168082178552505050505050905001807f5f0000000000000000000000000000000000000000000000000000000000000081525060010184805190602001908083835b6020831061133b5780518252602082019150602081019050602083039250611318565b6001836020036101000a038019825116818451168082178552505050505050905001807f5f0000000000000000000000000000000000000000000000000000000000000081525060010183805190602001908083835b602083106113b45780518252602082019150602081019050602083039250611391565b6001836020036101000a038019825116818451168082178552505050505050905001807f3a2000000000000000000000000000000000000000000000000000000000000081525060020182805190602001908083835b6020831061142d578051825260208201915060208101905060208303925061140a565b6001836020036101000a0380198251168184511680821785525050505050509050019450505050506040516020818303038152906040526040517f08c379a00000000000000000000000000000000000000000000000000000000081526004018080602001828103825283818151815260200191508051906020019080838360005b838110156114ca5780820151818401526020810190506114af565b50505050905090810190601f1680156114f75780820380516001836020036101000a031916815260200191505b509250505060405180910390fd5b6060600082141561154d576040518060400160405280600181526020017f30000000000000000000000000000000000000000000000000000000000000008152509050611647565b6000808390505b6000811115611577578180600101925050600a818161156f57fe5b049050611554565b5060608167ffffffffffffffff8111801561159157600080fd5b506040519080825280601f01601f1916602001820160405280156115c45781602001600182028036833780820191505090505b50905060008290505b600081111561164057600a85816115e057fe5b0660300160f81b8260018303815181106115f657fe5b60200101907effffffffffffffffffffffffffffffffffffffffffffffffffffffffffffff1916908160001a905350600a858161162f57fe5b0494508080600190039150506115cd565b5080925050505b919050565b61166081600061199890919063ffffffff16565b50565b60006116a583836040518060400160405280601e81526020017f536166654d6174683a207375627472616374696f6e206f766572666c6f7700008152506119dd565b905092915050565b60007fffffffffffffffffffffffffffffffffffffffffffffffffffffffffffffffff82146116de5781905061180a565b600073ffffffffffffffffffffffffffffffffffffffff168373ffffffffffffffffffffffffffffffffffffffff161480611758575073eeeeeeeeeeeeeeeeeeeeeeeeeeeeeeeeeeeeeeee73ffffffffffffffffffffffffffffffffffffffff168373ffffffffffffffffffffffffffffffffffffffff16145b156117655747905061180a565b8273ffffffffffffffffffffffffffffffffffffffff166370a08231306040518263ffffffff1660e01b8152600401808273ffffffffffffffffffffffffffffffffffffffff16815260200191505060206040518083038186803b1580156117cc57600080fd5b505afa1580156117e0573d6000803e3d6000fd5b505050506040513d60208110156117f657600080fd5b810190808051906020019092919050505090505b92915050565b8273ffffffffffffffffffffffffffffffffffffffff1663095ea7b383836040518363ffffffff1660e01b8152600401808373ffffffffffffffffffffffffffffffffffffffff16815260200182815260200192505050600060405180830381600087803b15801561188157600080fd5b505af1925050508015611892575060015b6118f2576118c28260008573ffffffffffffffffffffffffffffffffffffffff16611a9d9092919063ffffffff16565b6118ed82828573ffffffffffffffffffffffffffffffffffffffff16611a9d9092919063ffffffff16565b6118f3565b5b505050565b611937816040518060400160405280600b81526020017f556e737065636966696564000000000000000000000000000000000000000000815250611272565b50565b60008260008381526020019081526020016000205460001c905092915050565b60006119937ff9543f11459ccccd21306c8881aaab675ff49d988c1162fd1dd9bbcdbe4446be60001b6001611c6290919063ffffffff16565b905090565b818173ffffffffffffffffffffffffffffffffffffffff1660001b90806001815401808255809150506001900390600052602060002001600090919091909150555050565b6000838311158290611a8a576040517f08c379a00000000000000000000000000000000000000000000000000000000081526004018080602001828103825283818151815260200191508051906020019080838360005b83811015611a4f578082015181840152602081019050611a34565b50505050905090810190601f168015611a7c5780820380516001836020036101000a031916815260200191505b509250505060405180910390fd5b5060008385039050809150509392505050565b6000811480611b6b575060008373ffffffffffffffffffffffffffffffffffffffff1663dd62ed3e30856040518363ffffffff1660e01b8152600401808373ffffffffffffffffffffffffffffffffffffffff1681526020018273ffffffffffffffffffffffffffffffffffffffff1681526020019250505060206040518083038186803b158015611b2e57600080fd5b505afa158015611b42573d6000803e3d6000fd5b505050506040513d6020811015611b5857600080fd5b8101908080519060200190929190505050145b611bc0576040517f08c379a00000000000000000000000000000000000000000000000000000000081526004018080602001828103825260368152602001806121366036913960400191505060405180910390fd5b611c5d8363095ea7b360e01b8484604051602401808373ffffffffffffffffffffffffffffffffffffffff16815260200182815260200192505050604051602081830303815290604052907bffffffffffffffffffffffffffffffffffffffffffffffffffffffff19166020820180517bffffffffffffffffffffffffffffffffffffffffffffffffffffffff8381831617835250505050611c82565b505050565b60008260008381526020019081526020016000205460001c905092915050565b6060611ce4826040518060400160405280602081526020017f5361666545524332303a206c6f772d6c6576656c2063616c6c206661696c65648152508573ffffffffffffffffffffffffffffffffffffffff16611d719092919063ffffffff16565b9050600081511115611d6c57808060200190516020811015611d0557600080fd5b8101908080519060200190929190505050611d6b576040517f08c379a000000000000000000000000000000000000000000000000000000000815260040180806020018281038252602a81526020018061210c602a913960400191505060405180910390fd5b5b505050565b6060611d808484600085611d89565b90509392505050565b606082471015611de4576040517f08c379a00000000000000000000000000000000000000000000000000000000081526004018080602001828103825260268152602001806120e66026913960400191505060405180910390fd5b611ded85611f32565b611e5f576040517f08c379a000000000000000000000000000000000000000000000000000000000815260040180806020018281038252601d8152602001807f416464726573733a2063616c6c20746f206e6f6e2d636f6e747261637400000081525060200191505060405180910390fd5b600060608673ffffffffffffffffffffffffffffffffffffffff1685876040518082805190602001908083835b60208310611eaf5780518252602082019150602081019050602083039250611e8c565b6001836020036101000a03801982511681845116808217855250505050505090500191505060006040518083038185875af1925050503d8060008114611f11576040519150601f19603f3d011682016040523d82523d6000602084013e611f16565b606091505b5091509150611f26828286611f45565b92505050949350505050565b600080823b905060008111915050919050565b60608315611f555782905061200a565b600083511115611f685782518084602001fd5b816040517f08c379a00000000000000000000000000000000000000000000000000000000081526004018080602001828103825283818151815260200191508051906020019080838360005b83811015611fcf578082015181840152602081019050611fb4565b50505050905090810190601f168015611ffc5780820380516001836020036101000a031916815260200191505b509250505060405180910390fd5b9392505050565b6000601f19601f8301169050919050565b60008160e01c9050919050565b600060443d101561203f576120e2565b60046000803e612050600051612022565b6308c379a0811461206157506120e2565b60405160043d036004823e80513d602482011167ffffffffffffffff8211171561208d575050506120e2565b808201805167ffffffffffffffff8111156120ac5750505050506120e2565b8060208301013d85018111156120c7575050505050506120e2565b6120d082612011565b60208401016040528296505050505050505b9056fe416464726573733a20696e73756666696369656e742062616c616e636520666f722063616c6c5361666545524332303a204552433230206f7065726174696f6e20646964206e6f7420737563636565645361666545524332303a20617070726f76652066726f6d206e6f6e2d7a65726f20746f206e6f6e2d7a65726f20616c6c6f77616e6365a2646970667358221220a307eb96ffbeb67c5a079292bfa7e02d3a85259fffcc0788324028241c2d776d64736f6c634300060c0033",
  "devdoc": {
    "kind": "dev",
    "methods": {},
    "version": 1
  },
  "userdoc": {
    "kind": "user",
    "methods": {},
    "version": 1
  },
  "storageLayout": {
    "storage": [
      {
        "astId": 2834,
        "contract": "contracts/handlers/curve/HCurveDao.sol:HCurveDao",
        "label": "stack",
        "offset": 0,
        "slot": "0",
        "type": "t_array(t_bytes32)dyn_storage"
      },
      {
        "astId": 2838,
        "contract": "contracts/handlers/curve/HCurveDao.sol:HCurveDao",
        "label": "cache",
        "offset": 0,
        "slot": "1",
        "type": "t_mapping(t_bytes32,t_bytes32)"
      }
    ],
    "types": {
      "t_array(t_bytes32)dyn_storage": {
        "base": "t_bytes32",
        "encoding": "dynamic_array",
        "label": "bytes32[]",
        "numberOfBytes": "32"
      },
      "t_bytes32": {
        "encoding": "inplace",
        "label": "bytes32",
        "numberOfBytes": "32"
      },
      "t_mapping(t_bytes32,t_bytes32)": {
        "encoding": "mapping",
        "key": "t_bytes32",
        "label": "mapping(bytes32 => bytes32)",
        "numberOfBytes": "32",
        "value": "t_bytes32"
      }
    }
  }
}