{
  "address": "0x3bC5E3fe1bAf1CE8D95fC0C7b72250A929904703",
  "abi": [
    {
      "inputs": [],
      "name": "CUBE_COUNTER_KEY",
      "outputs": [
        {
          "internalType": "bytes32",
          "name": "",
          "type": "bytes32"
        }
      ],
      "stateMutability": "view",
      "type": "function"
    },
    {
      "inputs": [],
      "name": "ETH_ADDRESS",
      "outputs": [
        {
          "internalType": "address",
          "name": "",
          "type": "address"
        }
      ],
      "stateMutability": "view",
      "type": "function"
    },
    {
      "inputs": [],
      "name": "MSG_SENDER_KEY",
      "outputs": [
        {
          "internalType": "bytes32",
          "name": "",
          "type": "bytes32"
        }
      ],
      "stateMutability": "view",
      "type": "function"
    },
    {
      "inputs": [],
      "name": "PERCENTAGE_BASE",
      "outputs": [
        {
          "internalType": "uint256",
          "name": "",
          "type": "uint256"
        }
      ],
      "stateMutability": "view",
      "type": "function"
    },
    {
      "inputs": [],
      "name": "POSTPROCESS_SIG",
      "outputs": [
        {
          "internalType": "bytes4",
          "name": "",
          "type": "bytes4"
        }
      ],
      "stateMutability": "view",
      "type": "function"
    },
    {
      "inputs": [
        {
          "internalType": "bytes32",
          "name": "",
          "type": "bytes32"
        }
      ],
      "name": "cache",
      "outputs": [
        {
          "internalType": "bytes32",
          "name": "",
          "type": "bytes32"
        }
      ],
      "stateMutability": "view",
      "type": "function"
    },
    {
      "inputs": [
        {
          "internalType": "address[]",
          "name": "tokens",
          "type": "address[]"
        },
        {
          "internalType": "uint256[]",
          "name": "amounts",
          "type": "uint256[]"
        }
      ],
      "name": "checkSlippage",
      "outputs": [],
      "stateMutability": "payable",
      "type": "function"
    },
    {
      "inputs": [
        {
          "internalType": "address",
          "name": "token",
          "type": "address"
        }
      ],
      "name": "getBalance",
      "outputs": [
        {
          "internalType": "uint256",
          "name": "",
          "type": "uint256"
        }
      ],
      "stateMutability": "payable",
      "type": "function"
    },
    {
      "inputs": [],
      "name": "getContractName",
      "outputs": [
        {
          "internalType": "string",
          "name": "",
          "type": "string"
        }
      ],
      "stateMutability": "pure",
      "type": "function"
    },
    {
      "inputs": [
        {
          "internalType": "address[]",
          "name": "tokens",
          "type": "address[]"
        },
        {
          "internalType": "uint256[]",
          "name": "amounts",
          "type": "uint256[]"
        }
      ],
      "name": "inject",
      "outputs": [
        {
          "internalType": "uint256[]",
          "name": "",
          "type": "uint256[]"
        }
      ],
      "stateMutability": "payable",
      "type": "function"
    },
    {
      "inputs": [],
      "name": "postProcess",
      "outputs": [],
      "stateMutability": "payable",
      "type": "function"
    },
    {
      "inputs": [
        {
          "internalType": "uint256",
          "name": "amount",
          "type": "uint256"
        },
        {
          "internalType": "address payable",
          "name": "receiver",
          "type": "address"
        }
      ],
      "name": "send",
      "outputs": [],
      "stateMutability": "payable",
      "type": "function"
    },
    {
      "inputs": [
        {
          "internalType": "address",
          "name": "token",
          "type": "address"
        },
        {
          "internalType": "uint256",
          "name": "amount",
          "type": "uint256"
        },
        {
          "internalType": "address",
          "name": "receiver",
          "type": "address"
        }
      ],
      "name": "sendToken",
      "outputs": [],
      "stateMutability": "payable",
      "type": "function"
    },
    {
      "inputs": [
        {
          "internalType": "address[]",
          "name": "tokens",
          "type": "address[]"
        },
        {
          "internalType": "uint256[]",
          "name": "amounts",
          "type": "uint256[]"
        },
        {
          "internalType": "address payable",
          "name": "receiver",
          "type": "address"
        }
      ],
      "name": "sendTokens",
      "outputs": [],
      "stateMutability": "payable",
      "type": "function"
    },
    {
      "inputs": [
        {
          "internalType": "uint256",
          "name": "",
          "type": "uint256"
        }
      ],
      "name": "stack",
      "outputs": [
        {
          "internalType": "bytes32",
          "name": "",
          "type": "bytes32"
        }
      ],
      "stateMutability": "view",
      "type": "function"
    },
    {
      "inputs": [
        {
          "internalType": "address[]",
          "name": "tokens",
          "type": "address[]"
        }
      ],
      "name": "updateTokens",
      "outputs": [
        {
          "internalType": "uint256[]",
          "name": "",
          "type": "uint256[]"
        }
      ],
      "stateMutability": "payable",
      "type": "function"
    }
  ],
  "transactionHash": "0xa67604300ed7a778d7b363dc23def838c07111506f57878b5159eafedd62b49f",
  "args": [],
  "solcInputHash": "05a3724dc9e1f283fb20820d17e328b2",
  "bytecode": "0x608060405234801561001057600080fd5b50612080806100206000396000f3fe6080604052600436106100f35760003560e01c8063c27229161161008a578063de41691c11610059578063de41691c146105fd578063f5f5ba72146106cb578063f8b2cb4f1461075b578063fa2901a5146107b3576100f3565b8063c2722916146103b3578063d0797f84146103bd578063db71410e146104e0578063dc9031c4146105ae576100f3565b806381baf3ab116100c657806381baf3ab1461020a57806387c13943146102f857806399eb59b914610323578063a734f06e14610372576100f3565b80630f532d18146100f85780631413dc7d1461012357806318248f2a1461014e578063785d04f5146101bc575b600080fd5b34801561010457600080fd5b5061010d6107fd565b6040518082815260200191505060405180910390f35b34801561012f57600080fd5b50610138610824565b6040518082815260200191505060405180910390f35b6101ba6004803603606081101561016457600080fd5b81019080803573ffffffffffffffffffffffffffffffffffffffff16906020019092919080359060200190929190803573ffffffffffffffffffffffffffffffffffffffff16906020019092919050505061084b565b005b610208600480360360408110156101d257600080fd5b8101908080359060200190929190803573ffffffffffffffffffffffffffffffffffffffff169060200190929190505050610891565b005b6102f66004803603606081101561022057600080fd5b810190808035906020019064010000000081111561023d57600080fd5b82018360208201111561024f57600080fd5b8035906020019184602083028401116401000000008311171561027157600080fd5b90919293919293908035906020019064010000000081111561029257600080fd5b8201836020820111156102a457600080fd5b803590602001918460208302840111640100000000831117156102c657600080fd5b9091929391929390803573ffffffffffffffffffffffffffffffffffffffff1690602001909291905050506108f3565b005b34801561030457600080fd5b5061030d610ad8565b6040518082815260200191505060405180910390f35b34801561032f57600080fd5b5061035c6004803603602081101561034657600080fd5b8101908080359060200190929190505050610ae4565b6040518082815260200191505060405180910390f35b34801561037e57600080fd5b50610387610afc565b604051808273ffffffffffffffffffffffffffffffffffffffff16815260200191505060405180910390f35b6103bb610b14565b005b610489600480360360408110156103d357600080fd5b81019080803590602001906401000000008111156103f057600080fd5b82018360208201111561040257600080fd5b8035906020019184602083028401116401000000008311171561042457600080fd5b90919293919293908035906020019064010000000081111561044557600080fd5b82018360208201111561045757600080fd5b8035906020019184602083028401116401000000008311171561047957600080fd5b9091929391929390505050610b82565b6040518080602001828103825283818151815260200191508051906020019060200280838360005b838110156104cc5780820151818401526020810190506104b1565b505050509050019250505060405180910390f35b6105ac600480360360408110156104f657600080fd5b810190808035906020019064010000000081111561051357600080fd5b82018360208201111561052557600080fd5b8035906020019184602083028401116401000000008311171561054757600080fd5b90919293919293908035906020019064010000000081111561056857600080fd5b82018360208201111561057a57600080fd5b8035906020019184602083028401116401000000008311171561059c57600080fd5b9091929391929390505050610d13565b005b3480156105ba57600080fd5b506105e7600480360360208110156105d157600080fd5b81019080803590602001909291905050506112a6565b6040518082815260200191505060405180910390f35b6106746004803603602081101561061357600080fd5b810190808035906020019064010000000081111561063057600080fd5b82018360208201111561064257600080fd5b8035906020019184602083028401116401000000008311171561066457600080fd5b90919293919293905050506112c7565b6040518080602001828103825283818151815260200191508051906020019060200280838360005b838110156106b757808201518184015260208101905061069c565b505050509050019250505060405180910390f35b3480156106d757600080fd5b506106e0611438565b6040518080602001828103825283818151815260200191508051906020019080838360005b83811015610720578082015181840152602081019050610705565b50505050905090810190601f16801561074d5780820380516001836020036101000a031916815260200191505b509250505060405180910390f35b61079d6004803603602081101561077157600080fd5b81019080803573ffffffffffffffffffffffffffffffffffffffff169060200190929190505050611475565b6040518082815260200191505060405180910390f35b3480156107bf57600080fd5b506107c86114a8565b60405180827bffffffffffffffffffffffffffffffffffffffffffffffffffffffff1916815260200191505060405180910390f35b7fb2f2618cecbbb6e7468cc0f2aa43858ad8d153e0280b22285e28e853bb9d453a60001b81565b7ff9543f11459ccccd21306c8881aaab675ff49d988c1162fd1dd9bbcdbe4446be60001b81565b61085583836114b3565b9150600082111561088c5761088b81838573ffffffffffffffffffffffffffffffffffffffff166116169092919063ffffffff16565b5b505050565b61089c6000836114b3565b915060008211156108ef578073ffffffffffffffffffffffffffffffffffffffff166108fc839081150290604051600060405180830381858888f193505050501580156108ed573d6000803e3d6000fd5b505b5050565b60005b85859050811015610ad057600061094787878481811061091257fe5b9050602002013573ffffffffffffffffffffffffffffffffffffffff1686868581811061093b57fe5b905060200201356114b3565b90506000811115610ac257600073ffffffffffffffffffffffffffffffffffffffff1687878481811061097657fe5b9050602002013573ffffffffffffffffffffffffffffffffffffffff1673ffffffffffffffffffffffffffffffffffffffff161480610a1c575073eeeeeeeeeeeeeeeeeeeeeeeeeeeeeeeeeeeeeeee73ffffffffffffffffffffffffffffffffffffffff168787848181106109e757fe5b9050602002013573ffffffffffffffffffffffffffffffffffffffff1673ffffffffffffffffffffffffffffffffffffffff16145b15610a6d578273ffffffffffffffffffffffffffffffffffffffff166108fc829081150290604051600060405180830381858888f19350505050158015610a67573d6000803e3d6000fd5b50610ac1565b610ac08382898986818110610a7e57fe5b9050602002013573ffffffffffffffffffffffffffffffffffffffff1673ffffffffffffffffffffffffffffffffffffffff166116169092919063ffffffff16565b5b5b5080806001019150506108f6565b505050505050565b670de0b6b3a764000081565b60016020528060005260406000206000915090505481565b73eeeeeeeeeeeeeeeeeeeeeeeeeeeeeeeeeeeeeeee81565b6040517f08c379a00000000000000000000000000000000000000000000000000000000081526004018080602001828103825260148152602001807f496e76616c696420706f73742070726f6365737300000000000000000000000081525060200191505060405180910390fd5b6060828290508585905014610c0657610c056040518060400160405280600681526020017f696e6a65637400000000000000000000000000000000000000000000000000008152506040518060400160405280601f81526020017f746f6b656e20616e6420616d6f756e7420646f6573206e6f74206d61746368008152506116b8565b5b6000610c1061194b565b905060005b86869050811015610cc557610c878230878785818110610c3157fe5b905060200201358a8a86818110610c4457fe5b9050602002013573ffffffffffffffffffffffffffffffffffffffff1673ffffffffffffffffffffffffffffffffffffffff16611989909392919063ffffffff16565b610cb8878783818110610c9657fe5b9050602002013573ffffffffffffffffffffffffffffffffffffffff16611a4a565b8080600101915050610c15565b50838380806020026020016040519081016040528093929190818152602001838360200280828437600081840152601f19601f82011690508083019250505050505050915050949350505050565b818190508484905014610d9557610d946040518060400160405280600d81526020017f636865636b536c697070616765000000000000000000000000000000000000008152506040518060400160405280601d81526020017f746f6b656e20616e6420616d6f756e7420646f206e6f74206d617463680000008152506116b8565b5b60005b8484905081101561129f57600073ffffffffffffffffffffffffffffffffffffffff16858583818110610dc757fe5b9050602002013573ffffffffffffffffffffffffffffffffffffffff1673ffffffffffffffffffffffffffffffffffffffff161415610f8257828282818110610e0c57fe5b90506020020135471015610f7d576060610e2582611a61565b610e2e47611a61565b60405160200180807f6572726f723a200000000000000000000000000000000000000000000000000081525060070183805190602001908083835b60208310610e8c5780518252602082019150602081019050602083039250610e69565b6001836020036101000a038019825116818451168082178552505050505050905001807f5f0000000000000000000000000000000000000000000000000000000000000081525060010182805190602001908083835b60208310610f055780518252602082019150602081019050602083039250610ee2565b6001836020036101000a038019825116818451168082178552505050505050905001925050506040516020818303038152906040529050610f7b6040518060400160405280600d81526020017f636865636b536c69707061676500000000000000000000000000000000000000815250826116b8565b505b611292565b828282818110610f8e57fe5b90506020020135858583818110610fa157fe5b9050602002013573ffffffffffffffffffffffffffffffffffffffff1673ffffffffffffffffffffffffffffffffffffffff166370a08231306040518263ffffffff1660e01b8152600401808273ffffffffffffffffffffffffffffffffffffffff16815260200191505060206040518083038186803b15801561102457600080fd5b505afa158015611038573d6000803e3d6000fd5b505050506040513d602081101561104e57600080fd5b8101908080519060200190929190505050101561129157606061107082611a61565b61114287878581811061107f57fe5b9050602002013573ffffffffffffffffffffffffffffffffffffffff1673ffffffffffffffffffffffffffffffffffffffff166370a08231306040518263ffffffff1660e01b8152600401808273ffffffffffffffffffffffffffffffffffffffff16815260200191505060206040518083038186803b15801561110257600080fd5b505afa158015611116573d6000803e3d6000fd5b505050506040513d602081101561112c57600080fd5b8101908080519060200190929190505050611a61565b60405160200180807f6572726f723a200000000000000000000000000000000000000000000000000081525060070183805190602001908083835b602083106111a0578051825260208201915060208101905060208303925061117d565b6001836020036101000a038019825116818451168082178552505050505050905001807f5f0000000000000000000000000000000000000000000000000000000000000081525060010182805190602001908083835b6020831061121957805182526020820191506020810190506020830392506111f6565b6001836020036101000a03801982511681845116808217855250505050505090500192505050604051602081830303815290604052905061128f6040518060400160405280600d81526020017f636865636b536c69707061676500000000000000000000000000000000000000815250826116b8565b505b5b8080600101915050610d98565b5050505050565b600081815481106112b357fe5b906000526020600020016000915090505481565b6060808383905067ffffffffffffffff811180156112e457600080fd5b506040519080825280602002602001820160405280156113135781602001602082028036833780820191505090505b50905060005b8484905081101561142d57600085858381811061133257fe5b9050602002013573ffffffffffffffffffffffffffffffffffffffff169050600073ffffffffffffffffffffffffffffffffffffffff168173ffffffffffffffffffffffffffffffffffffffff16141580156113ce575073eeeeeeeeeeeeeeeeeeeeeeeeeeeeeeeeeeeeeeee73ffffffffffffffffffffffffffffffffffffffff168173ffffffffffffffffffffffffffffffffffffffff1614155b156113dd576113dc81611a4a565b5b611407817fffffffffffffffffffffffffffffffffffffffffffffffffffffffffffffffff6114b3565b83838151811061141357fe5b602002602001018181525050508080600101915050611319565b508091505092915050565b60606040518060400160405280600681526020017f4846756e64730000000000000000000000000000000000000000000000000000815250905090565b60006114a1827fffffffffffffffffffffffffffffffffffffffffffffffffffffffffffffffff6114b3565b9050919050565b63c272291660e01b81565b60007fffffffffffffffffffffffffffffffffffffffffffffffffffffffffffffffff82146114e457819050611610565b600073ffffffffffffffffffffffffffffffffffffffff168373ffffffffffffffffffffffffffffffffffffffff16148061155e575073eeeeeeeeeeeeeeeeeeeeeeeeeeeeeeeeeeeeeeee73ffffffffffffffffffffffffffffffffffffffff168373ffffffffffffffffffffffffffffffffffffffff16145b1561156b57479050611610565b8273ffffffffffffffffffffffffffffffffffffffff166370a08231306040518263ffffffff1660e01b8152600401808273ffffffffffffffffffffffffffffffffffffffff16815260200191505060206040518083038186803b1580156115d257600080fd5b505afa1580156115e6573d6000803e3d6000fd5b505050506040513d60208110156115fc57600080fd5b810190808051906020019092919050505090505b92915050565b6116b38363a9059cbb60e01b8484604051602401808373ffffffffffffffffffffffffffffffffffffffff16815260200182815260200192505050604051602081830303815290604052907bffffffffffffffffffffffffffffffffffffffffffffffffffffffff19166020820180517bffffffffffffffffffffffffffffffffffffffffffffffffffffffff8381831617835250505050611ba8565b505050565b6116c86116c3611c97565b611a61565b6116d0611438565b83836040516020018085805190602001908083835b6020831061170857805182526020820191506020810190506020830392506116e5565b6001836020036101000a038019825116818451168082178552505050505050905001807f5f0000000000000000000000000000000000000000000000000000000000000081525060010184805190602001908083835b60208310611781578051825260208201915060208101905060208303925061175e565b6001836020036101000a038019825116818451168082178552505050505050905001807f5f0000000000000000000000000000000000000000000000000000000000000081525060010183805190602001908083835b602083106117fa57805182526020820191506020810190506020830392506117d7565b6001836020036101000a038019825116818451168082178552505050505050905001807f3a2000000000000000000000000000000000000000000000000000000000000081525060020182805190602001908083835b602083106118735780518252602082019150602081019050602083039250611850565b6001836020036101000a0380198251168184511680821785525050505050509050019450505050506040516020818303038152906040526040517f08c379a00000000000000000000000000000000000000000000000000000000081526004018080602001828103825283818151815260200191508051906020019080838360005b838110156119105780820151818401526020810190506118f5565b50505050905090810190601f16801561193d5780820380516001836020036101000a031916815260200191505b509250505060405180910390fd5b60006119847fb2f2618cecbbb6e7468cc0f2aa43858ad8d153e0280b22285e28e853bb9d453a60001b6001611cd590919063ffffffff16565b905090565b611a44846323b872dd60e01b858585604051602401808473ffffffffffffffffffffffffffffffffffffffff1681526020018373ffffffffffffffffffffffffffffffffffffffff1681526020018281526020019350505050604051602081830303815290604052907bffffffffffffffffffffffffffffffffffffffffffffffffffffffff19166020820180517bffffffffffffffffffffffffffffffffffffffffffffffffffffffff8381831617835250505050611ba8565b50505050565b611a5e816000611cf590919063ffffffff16565b50565b60606000821415611aa9576040518060400160405280600181526020017f30000000000000000000000000000000000000000000000000000000000000008152509050611ba3565b6000808390505b6000811115611ad3578180600101925050600a8181611acb57fe5b049050611ab0565b5060608167ffffffffffffffff81118015611aed57600080fd5b506040519080825280601f01601f191660200182016040528015611b205781602001600182028036833780820191505090505b50905060008290505b6000811115611b9c57600a8581611b3c57fe5b0660300160f81b826001830381518110611b5257fe5b60200101907effffffffffffffffffffffffffffffffffffffffffffffffffffffffffffff1916908160001a905350600a8581611b8b57fe5b049450808060019003915050611b29565b5080925050505b919050565b6060611c0a826040518060400160405280602081526020017f5361666545524332303a206c6f772d6c6576656c2063616c6c206661696c65648152508573ffffffffffffffffffffffffffffffffffffffff16611d3a9092919063ffffffff16565b9050600081511115611c9257808060200190516020811015611c2b57600080fd5b8101908080519060200190929190505050611c91576040517f08c379a000000000000000000000000000000000000000000000000000000000815260040180806020018281038252602a815260200180612021602a913960400191505060405180910390fd5b5b505050565b6000611cd07ff9543f11459ccccd21306c8881aaab675ff49d988c1162fd1dd9bbcdbe4446be60001b6001611d5290919063ffffffff16565b905090565b60008260008381526020019081526020016000205460001c905092915050565b818173ffffffffffffffffffffffffffffffffffffffff1660001b90806001815401808255809150506001900390600052602060002001600090919091909150555050565b6060611d498484600085611d72565b90509392505050565b60008260008381526020019081526020016000205460001c905092915050565b606082471015611dcd576040517f08c379a0000000000000000000000000000000000000000000000000000000008152600401808060200182810382526026815260200180611ffb6026913960400191505060405180910390fd5b611dd685611f1b565b611e48576040517f08c379a000000000000000000000000000000000000000000000000000000000815260040180806020018281038252601d8152602001807f416464726573733a2063616c6c20746f206e6f6e2d636f6e747261637400000081525060200191505060405180910390fd5b600060608673ffffffffffffffffffffffffffffffffffffffff1685876040518082805190602001908083835b60208310611e985780518252602082019150602081019050602083039250611e75565b6001836020036101000a03801982511681845116808217855250505050505090500191505060006040518083038185875af1925050503d8060008114611efa576040519150601f19603f3d011682016040523d82523d6000602084013e611eff565b606091505b5091509150611f0f828286611f2e565b92505050949350505050565b600080823b905060008111915050919050565b60608315611f3e57829050611ff3565b600083511115611f515782518084602001fd5b816040517f08c379a00000000000000000000000000000000000000000000000000000000081526004018080602001828103825283818151815260200191508051906020019080838360005b83811015611fb8578082015181840152602081019050611f9d565b50505050905090810190601f168015611fe55780820380516001836020036101000a031916815260200191505b509250505060405180910390fd5b939250505056fe416464726573733a20696e73756666696369656e742062616c616e636520666f722063616c6c5361666545524332303a204552433230206f7065726174696f6e20646964206e6f742073756363656564a2646970667358221220567a3f44bf73e8d260ede4a7b628730958dcb58bd1834d3de18e2f3cb86d37ac64736f6c634300060c0033",
  "devdoc": {
    "kind": "dev",
    "methods": {},
    "version": 1
  },
  "userdoc": {
    "kind": "user",
    "methods": {},
    "version": 1
  },
  "storageLayout": {
    "storage": [
      {
        "astId": 2834,
        "contract": "contracts/handlers/funds/HFunds.sol:HFunds",
        "label": "stack",
        "offset": 0,
        "slot": "0",
        "type": "t_array(t_bytes32)dyn_storage"
      },
      {
        "astId": 2838,
        "contract": "contracts/handlers/funds/HFunds.sol:HFunds",
        "label": "cache",
        "offset": 0,
        "slot": "1",
        "type": "t_mapping(t_bytes32,t_bytes32)"
      }
    ],
    "types": {
      "t_array(t_bytes32)dyn_storage": {
        "base": "t_bytes32",
        "encoding": "dynamic_array",
        "label": "bytes32[]",
        "numberOfBytes": "32"
      },
      "t_bytes32": {
        "encoding": "inplace",
        "label": "bytes32",
        "numberOfBytes": "32"
      },
      "t_mapping(t_bytes32,t_bytes32)": {
        "encoding": "mapping",
        "key": "t_bytes32",
        "label": "mapping(bytes32 => bytes32)",
        "numberOfBytes": "32",
        "value": "t_bytes32"
      }
    }
  }
}