{
  "address": "0xB91b37b0c01B84E3494ec8163136D4ed435Afc06",
  "abi": [
    {
      "inputs": [],
      "name": "CUBE_COUNTER_KEY",
      "outputs": [
        {
          "internalType": "bytes32",
          "name": "",
          "type": "bytes32"
        }
      ],
      "stateMutability": "view",
      "type": "function"
    },
    {
      "inputs": [],
      "name": "MSG_SENDER_KEY",
      "outputs": [
        {
          "internalType": "bytes32",
          "name": "",
          "type": "bytes32"
        }
      ],
      "stateMutability": "view",
      "type": "function"
    },
    {
      "inputs": [],
      "name": "PERCENTAGE_BASE",
      "outputs": [
        {
          "internalType": "uint256",
          "name": "",
          "type": "uint256"
        }
      ],
      "stateMutability": "view",
      "type": "function"
    },
    {
      "inputs": [],
      "name": "POSTPROCESS_SIG",
      "outputs": [
        {
          "internalType": "bytes4",
          "name": "",
          "type": "bytes4"
        }
      ],
      "stateMutability": "view",
      "type": "function"
    },
    {
      "inputs": [
        {
          "internalType": "bytes32",
          "name": "",
          "type": "bytes32"
        }
      ],
      "name": "cache",
      "outputs": [
        {
          "internalType": "bytes32",
          "name": "",
          "type": "bytes32"
        }
      ],
      "stateMutability": "view",
      "type": "function"
    },
    {
      "inputs": [
        {
          "internalType": "address",
          "name": "user",
          "type": "address"
        },
        {
          "internalType": "address[]",
          "name": "pools",
          "type": "address[]"
        },
        {
          "components": [
            {
              "internalType": "uint256",
              "name": "week",
              "type": "uint256"
            },
            {
              "internalType": "uint256",
              "name": "balance",
              "type": "uint256"
            },
            {
              "internalType": "bytes32[]",
              "name": "merkleProof",
              "type": "bytes32[]"
            }
          ],
          "internalType": "struct IMerkleRedeem.Claim[][]",
          "name": "claims",
          "type": "tuple[][]"
        }
      ],
      "name": "claimAll",
      "outputs": [],
      "stateMutability": "payable",
      "type": "function"
    },
    {
      "inputs": [],
      "name": "getContractName",
      "outputs": [
        {
          "internalType": "string",
          "name": "",
          "type": "string"
        }
      ],
      "stateMutability": "pure",
      "type": "function"
    },
    {
      "inputs": [],
      "name": "postProcess",
      "outputs": [],
      "stateMutability": "payable",
      "type": "function"
    },
    {
      "inputs": [
        {
          "internalType": "uint256",
          "name": "",
          "type": "uint256"
        }
      ],
      "name": "stack",
      "outputs": [
        {
          "internalType": "bytes32",
          "name": "",
          "type": "bytes32"
        }
      ],
      "stateMutability": "view",
      "type": "function"
    },
    {
      "inputs": [
        {
          "internalType": "address",
          "name": "pool",
          "type": "address"
        },
        {
          "internalType": "uint256",
          "name": "amount",
          "type": "uint256"
        }
      ],
      "name": "stake",
      "outputs": [],
      "stateMutability": "payable",
      "type": "function"
    },
    {
      "inputs": [
        {
          "internalType": "address",
          "name": "pool",
          "type": "address"
        },
        {
          "internalType": "uint256",
          "name": "amount",
          "type": "uint256"
        }
      ],
      "name": "unstake",
      "outputs": [],
      "stateMutability": "payable",
      "type": "function"
    }
  ],
  "transactionHash": "0xd200a1e082b1df4451b0eccd82983a8f8e367876b50ef6f93f1e4be1f539b945",
  "args": [],
  "solcInputHash": "05a3724dc9e1f283fb20820d17e328b2",
  "bytecode": "0x608060405234801561001057600080fd5b50611a2a806100206000396000f3fe60806040526004361061009c5760003560e01c8063adc9772e11610064578063adc9772e1461017b578063c272291614610197578063c2a672e0146101a1578063dc9031c4146101bd578063f5f5ba72146101fa578063fa2901a5146102255761009c565b80630f532d18146100a15780631413dc7d146100cc5780632c420db3146100f757806387c139431461011357806399eb59b91461013e575b600080fd5b3480156100ad57600080fd5b506100b6610250565b6040516100c391906115e0565b60405180910390f35b3480156100d857600080fd5b506100e1610277565b6040516100ee91906115e0565b60405180910390f35b610111600480360381019061010c9190610eea565b61029e565b005b34801561011f57600080fd5b50610128610400565b6040516101359190611758565b60405180910390f35b34801561014a57600080fd5b5061016560048036038101906101609190610fd8565b61040c565b60405161017291906115e0565b60405180910390f35b61019560048036038101906101909190610f73565b610424565b005b61019f6105cb565b005b6101bb60048036038101906101b69190610f73565b610606565b005b3480156101c957600080fd5b506101e460048036038101906101df9190611001565b61074d565b6040516101f191906115e0565b60405180910390f35b34801561020657600080fd5b5061020f61076e565b60405161021c9190611616565b60405180910390f35b34801561023157600080fd5b5061023a6107ab565b60405161024791906115fb565b60405180910390f35b7fb2f2618cecbbb6e7468cc0f2aa43858ad8d153e0280b22285e28e853bb9d453a60001b81565b7ff9543f11459ccccd21306c8881aaab675ff49d988c1162fd1dd9bbcdbe4446be60001b81565b600082829050116102e4576040517f08c379a00000000000000000000000000000000000000000000000000000000081526004016102db90611638565b60405180910390fd5b81819050848490501461032c576040517f08c379a000000000000000000000000000000000000000000000000000000000815260040161032390611698565b60405180910390fd5b60005b828290508110156103f857600085858381811061034857fe5b905060200201602081019061035d9190610e98565b90508073ffffffffffffffffffffffffffffffffffffffff1663c804c39a8886868681811061038857fe5b905060200281019061039a9190611773565b6040518463ffffffff1660e01b81526004016103b893929190611585565b600060405180830381600087803b1580156103d257600080fd5b505af11580156103e6573d6000803e3d6000fd5b5050505050808060010191505061032f565b505050505050565b670de0b6b3a764000081565b60016020528060005260406000206000915090505481565b600082905060008173ffffffffffffffffffffffffffffffffffffffff166372f702f36040518163ffffffff1660e01b815260040160206040518083038186803b15801561047157600080fd5b505afa158015610485573d6000803e3d6000fd5b505050506040513d601f19601f820116820180604052508101906104a99190610ec1565b90506104b581846107b6565b9250600083116104fa576040517f08c379a00000000000000000000000000000000000000000000000000000000081526004016104f190611658565b60405180910390fd5b61052584848373ffffffffffffffffffffffffffffffffffffffff166109009092919063ffffffff16565b8173ffffffffffffffffffffffffffffffffffffffff16632ee40908610549610a5e565b856040518363ffffffff1660e01b81526004016105679291906115b7565b600060405180830381600087803b15801561058157600080fd5b505af1158015610595573d6000803e3d6000fd5b505050506105c58460008373ffffffffffffffffffffffffffffffffffffffff166109009092919063ffffffff16565b50505050565b6040517f08c379a00000000000000000000000000000000000000000000000000000000081526004016105fd906116d8565b60405180910390fd5b60008111610649576040517f08c379a000000000000000000000000000000000000000000000000000000000815260040161064090611678565b60405180910390fd5b60008290508073ffffffffffffffffffffffffffffffffffffffff166336ef088c610672610a5e565b846040518363ffffffff1660e01b81526004016106909291906115b7565b600060405180830381600087803b1580156106aa57600080fd5b505af11580156106be573d6000803e3d6000fd5b505050506107488173ffffffffffffffffffffffffffffffffffffffff166372f702f36040518163ffffffff1660e01b815260040160206040518083038186803b15801561070b57600080fd5b505afa15801561071f573d6000803e3d6000fd5b505050506040513d601f19601f820116820180604052508101906107439190610ec1565b610a9c565b505050565b6000818154811061075a57fe5b906000526020600020016000915090505481565b60606040518060400160405280601181526020017f4846757275636f6d626f5374616b696e67000000000000000000000000000000815250905090565b63c272291660e01b81565b60007fffffffffffffffffffffffffffffffffffffffffffffffffffffffffffffffff82146107e7578190506108fa565b600073ffffffffffffffffffffffffffffffffffffffff168373ffffffffffffffffffffffffffffffffffffffff161480610861575073eeeeeeeeeeeeeeeeeeeeeeeeeeeeeeeeeeeeeeee73ffffffffffffffffffffffffffffffffffffffff168373ffffffffffffffffffffffffffffffffffffffff16145b1561086e574790506108fa565b8273ffffffffffffffffffffffffffffffffffffffff166370a08231306040518263ffffffff1660e01b81526004016108a79190611541565b60206040518083038186803b1580156108bf57600080fd5b505afa1580156108d3573d6000803e3d6000fd5b505050506040513d601f19601f820116820180604052508101906108f7919061102a565b90505b92915050565b6000811480610999575060008373ffffffffffffffffffffffffffffffffffffffff1663dd62ed3e30856040518363ffffffff1660e01b815260040161094792919061155c565b60206040518083038186803b15801561095f57600080fd5b505afa158015610973573d6000803e3d6000fd5b505050506040513d601f19601f82011682018060405250810190610997919061102a565b145b6109d8576040517f08c379a00000000000000000000000000000000000000000000000000000000081526004016109cf90611738565b60405180910390fd5b610a598363095ea7b360e01b84846040516024016109f79291906115b7565b604051602081830303815290604052907bffffffffffffffffffffffffffffffffffffffffffffffffffffffff19166020820180517bffffffffffffffffffffffffffffffffffffffffffffffffffffffff8381831617835250505050610ab3565b505050565b6000610a977fb2f2618cecbbb6e7468cc0f2aa43858ad8d153e0280b22285e28e853bb9d453a60001b6001610b7a90919063ffffffff16565b905090565b610ab0816000610b9a90919063ffffffff16565b50565b6060610b15826040518060400160405280602081526020017f5361666545524332303a206c6f772d6c6576656c2063616c6c206661696c65648152508573ffffffffffffffffffffffffffffffffffffffff16610bdf9092919063ffffffff16565b9050600081511115610b755780806020019051810190610b359190610faf565b610b74576040517f08c379a0000000000000000000000000000000000000000000000000000000008152600401610b6b90611718565b60405180910390fd5b5b505050565b60008260008381526020019081526020016000205460001c905092915050565b818173ffffffffffffffffffffffffffffffffffffffff1660001b90806001815401808255809150506001900390600052602060002001600090919091909150555050565b6060610bee8484600085610bf7565b90509392505050565b606082471015610c3c576040517f08c379a0000000000000000000000000000000000000000000000000000000008152600401610c33906116b8565b60405180910390fd5b610c4585610d0c565b610c84576040517f08c379a0000000000000000000000000000000000000000000000000000000008152600401610c7b906116f8565b60405180910390fd5b600060608673ffffffffffffffffffffffffffffffffffffffff168587604051610cae919061152a565b60006040518083038185875af1925050503d8060008114610ceb576040519150601f19603f3d011682016040523d82523d6000602084013e610cf0565b606091505b5091509150610d00828286610d1f565b92505050949350505050565b600080823b905060008111915050919050565b60608315610d2f57829050610d7f565b600083511115610d425782518084602001fd5b816040517f08c379a0000000000000000000000000000000000000000000000000000000008152600401610d769190611616565b60405180910390fd5b9392505050565b600081359050610d9581611998565b92915050565b600081519050610daa81611998565b92915050565b60008083601f840112610dc257600080fd5b8235905067ffffffffffffffff811115610ddb57600080fd5b602083019150836020820283011115610df357600080fd5b9250929050565b60008083601f840112610e0c57600080fd5b8235905067ffffffffffffffff811115610e2557600080fd5b602083019150836020820283011115610e3d57600080fd5b9250929050565b600081519050610e53816119af565b92915050565b600081359050610e68816119c6565b92915050565b600081359050610e7d816119dd565b92915050565b600081519050610e92816119dd565b92915050565b600060208284031215610eaa57600080fd5b6000610eb884828501610d86565b91505092915050565b600060208284031215610ed357600080fd5b6000610ee184828501610d9b565b91505092915050565b600080600080600060608688031215610f0257600080fd5b6000610f1088828901610d86565b955050602086013567ffffffffffffffff811115610f2d57600080fd5b610f3988828901610db0565b9450945050604086013567ffffffffffffffff811115610f5857600080fd5b610f6488828901610dfa565b92509250509295509295909350565b60008060408385031215610f8657600080fd5b6000610f9485828601610d86565b9250506020610fa585828601610e6e565b9150509250929050565b600060208284031215610fc157600080fd5b6000610fcf84828501610e44565b91505092915050565b600060208284031215610fea57600080fd5b6000610ff884828501610e59565b91505092915050565b60006020828403121561101357600080fd5b600061102184828501610e6e565b91505092915050565b60006020828403121561103c57600080fd5b600061104a84828501610e83565b91505092915050565b600061105f83836114a2565b905092915050565b611070816118c7565b82525050565b600061108283856117f7565b93507f07ffffffffffffffffffffffffffffffffffffffffffffffffffffffffffffff8311156110b157600080fd5b6020830292506110c2838584611945565b82840190509392505050565b60006110da8385611808565b9350836020840285016110ec846117ca565b8060005b87811015611130578484038952611107828461188c565b6111118582611053565b945061111c836117ea565b925060208a019950506001810190506110f0565b50829750879450505050509392505050565b61114b816118e5565b82525050565b61115a816118ef565b82525050565b600061116b826117d4565b6111758185611819565b9350611185818560208601611954565b80840191505092915050565b600061119c826117df565b6111a68185611824565b93506111b6818560208601611954565b6111bf81611987565b840191505092915050565b60006111d7601d83611824565b91507f4846757275636f6d626f3a20636c61696d73206c656e677468203d20300000006000830152602082019050919050565b6000611217601c83611824565b91507f4846757275636f6d626f3a207374616b6520616d6f756e74203d2030000000006000830152602082019050919050565b6000611257601e83611824565b91507f4846757275636f6d626f3a20756e7374616b6520616d6f756e74203d203000006000830152602082019050919050565b6000611297602983611824565b91507f4846757275636f6d626f3a20706f6f6c73206c656e67746820213d20636c616960008301527f6d73206c656e67746800000000000000000000000000000000000000000000006020830152604082019050919050565b60006112fd602683611824565b91507f416464726573733a20696e73756666696369656e742062616c616e636520666f60008301527f722063616c6c00000000000000000000000000000000000000000000000000006020830152604082019050919050565b6000611363601483611824565b91507f496e76616c696420706f73742070726f636573730000000000000000000000006000830152602082019050919050565b60006113a3601d83611824565b91507f416464726573733a2063616c6c20746f206e6f6e2d636f6e74726163740000006000830152602082019050919050565b60006113e3602a83611824565b91507f5361666545524332303a204552433230206f7065726174696f6e20646964206e60008301527f6f742073756363656564000000000000000000000000000000000000000000006020830152604082019050919050565b6000611449603683611824565b91507f5361666545524332303a20617070726f76652066726f6d206e6f6e2d7a65726f60008301527f20746f206e6f6e2d7a65726f20616c6c6f77616e6365000000000000000000006020830152604082019050919050565b6000606083016114b560008401846118b0565b6114c2600086018261150c565b506114d060208401846118b0565b6114dd602086018261150c565b506114eb6040840184611835565b85830360408701526114fe838284611076565b925050508091505092915050565b6115158161193b565b82525050565b6115248161193b565b82525050565b60006115368284611160565b915081905092915050565b60006020820190506115566000830184611067565b92915050565b60006040820190506115716000830185611067565b61157e6020830184611067565b9392505050565b600060408201905061159a6000830186611067565b81810360208301526115ad8184866110ce565b9050949350505050565b60006040820190506115cc6000830185611067565b6115d9602083018461151b565b9392505050565b60006020820190506115f56000830184611142565b92915050565b60006020820190506116106000830184611151565b92915050565b600060208201905081810360008301526116308184611191565b905092915050565b60006020820190508181036000830152611651816111ca565b9050919050565b600060208201905081810360008301526116718161120a565b9050919050565b600060208201905081810360008301526116918161124a565b9050919050565b600060208201905081810360008301526116b18161128a565b9050919050565b600060208201905081810360008301526116d1816112f0565b9050919050565b600060208201905081810360008301526116f181611356565b9050919050565b6000602082019050818103600083015261171181611396565b9050919050565b60006020820190508181036000830152611731816113d6565b9050919050565b600060208201905081810360008301526117518161143c565b9050919050565b600060208201905061176d600083018461151b565b92915050565b6000808335600160200384360303811261178c57600080fd5b80840192508235915067ffffffffffffffff8211156117aa57600080fd5b6020830192506020820236038313156117c257600080fd5b509250929050565b6000819050919050565b600081519050919050565b600081519050919050565b6000602082019050919050565b600082825260208201905092915050565b600082825260208201905092915050565b600081905092915050565b600082825260208201905092915050565b6000808335600160200384360303811261184e57600080fd5b83810192508235915060208301925067ffffffffffffffff82111561187257600080fd5b60208202360384131561188457600080fd5b509250929050565b6000823560016060038336030381126118a457600080fd5b82810191505092915050565b60006118bf6020840184610e6e565b905092915050565b60006118d28261191b565b9050919050565b60008115159050919050565b6000819050919050565b60007fffffffff0000000000000000000000000000000000000000000000000000000082169050919050565b600073ffffffffffffffffffffffffffffffffffffffff82169050919050565b6000819050919050565b82818337600083830152505050565b60005b83811015611972578082015181840152602081019050611957565b83811115611981576000848401525b50505050565b6000601f19601f8301169050919050565b6119a1816118c7565b81146119ac57600080fd5b50565b6119b8816118d9565b81146119c357600080fd5b50565b6119cf816118e5565b81146119da57600080fd5b50565b6119e68161193b565b81146119f157600080fd5b5056fea26469706673582212203fd13c4603189998cca97fab23e8ecb860b6e740d4cc13d02d8b2ca64f7131f364736f6c634300060c0033",
  "devdoc": {
    "kind": "dev",
    "methods": {},
    "version": 1
  },
  "userdoc": {
    "kind": "user",
    "methods": {},
    "version": 1
  },
  "storageLayout": {
    "storage": [
      {
        "astId": 2834,
        "contract": "contracts/handlers/furucombo/HFurucomboStaking.sol:HFurucomboStaking",
        "label": "stack",
        "offset": 0,
        "slot": "0",
        "type": "t_array(t_bytes32)dyn_storage"
      },
      {
        "astId": 2838,
        "contract": "contracts/handlers/furucombo/HFurucomboStaking.sol:HFurucomboStaking",
        "label": "cache",
        "offset": 0,
        "slot": "1",
        "type": "t_mapping(t_bytes32,t_bytes32)"
      }
    ],
    "types": {
      "t_array(t_bytes32)dyn_storage": {
        "base": "t_bytes32",
        "encoding": "dynamic_array",
        "label": "bytes32[]",
        "numberOfBytes": "32"
      },
      "t_bytes32": {
        "encoding": "inplace",
        "label": "bytes32",
        "numberOfBytes": "32"
      },
      "t_mapping(t_bytes32,t_bytes32)": {
        "encoding": "mapping",
        "key": "t_bytes32",
        "label": "mapping(bytes32 => bytes32)",
        "numberOfBytes": "32",
        "value": "t_bytes32"
      }
    }
  }
}