{
  "address": "0x8c14326BfbAF8e379030b960B8c3BE74B6A3B6e9",
  "abi": [
    {
      "inputs": [
        {
          "internalType": "address",
          "name": "_gelatoPine",
          "type": "address"
        },
        {
          "internalType": "address",
          "name": "_module",
          "type": "address"
        }
      ],
      "stateMutability": "nonpayable",
      "type": "constructor"
    },
    {
      "inputs": [],
      "name": "CUBE_COUNTER_KEY",
      "outputs": [
        {
          "internalType": "bytes32",
          "name": "",
          "type": "bytes32"
        }
      ],
      "stateMutability": "view",
      "type": "function"
    },
    {
      "inputs": [],
      "name": "GELATO_LIMIT_ORDER_MODULE",
      "outputs": [
        {
          "internalType": "address",
          "name": "",
          "type": "address"
        }
      ],
      "stateMutability": "view",
      "type": "function"
    },
    {
      "inputs": [],
      "name": "GELATO_PINE",
      "outputs": [
        {
          "internalType": "address",
          "name": "",
          "type": "address"
        }
      ],
      "stateMutability": "view",
      "type": "function"
    },
    {
      "inputs": [],
      "name": "MSG_SENDER_KEY",
      "outputs": [
        {
          "internalType": "bytes32",
          "name": "",
          "type": "bytes32"
        }
      ],
      "stateMutability": "view",
      "type": "function"
    },
    {
      "inputs": [],
      "name": "PERCENTAGE_BASE",
      "outputs": [
        {
          "internalType": "uint256",
          "name": "",
          "type": "uint256"
        }
      ],
      "stateMutability": "view",
      "type": "function"
    },
    {
      "inputs": [],
      "name": "POSTPROCESS_SIG",
      "outputs": [
        {
          "internalType": "bytes4",
          "name": "",
          "type": "bytes4"
        }
      ],
      "stateMutability": "view",
      "type": "function"
    },
    {
      "inputs": [
        {
          "internalType": "bytes32",
          "name": "",
          "type": "bytes32"
        }
      ],
      "name": "cache",
      "outputs": [
        {
          "internalType": "bytes32",
          "name": "",
          "type": "bytes32"
        }
      ],
      "stateMutability": "view",
      "type": "function"
    },
    {
      "inputs": [],
      "name": "getContractName",
      "outputs": [
        {
          "internalType": "string",
          "name": "",
          "type": "string"
        }
      ],
      "stateMutability": "pure",
      "type": "function"
    },
    {
      "inputs": [
        {
          "internalType": "uint256",
          "name": "value",
          "type": "uint256"
        },
        {
          "internalType": "address",
          "name": "module",
          "type": "address"
        },
        {
          "internalType": "address",
          "name": "inToken",
          "type": "address"
        },
        {
          "internalType": "address payable",
          "name": "owner",
          "type": "address"
        },
        {
          "internalType": "address",
          "name": "_witness",
          "type": "address"
        },
        {
          "internalType": "bytes",
          "name": "limitOrderData",
          "type": "bytes"
        },
        {
          "internalType": "bytes32",
          "name": "_secret",
          "type": "bytes32"
        }
      ],
      "name": "placeLimitOrder",
      "outputs": [],
      "stateMutability": "payable",
      "type": "function"
    },
    {
      "inputs": [],
      "name": "postProcess",
      "outputs": [],
      "stateMutability": "payable",
      "type": "function"
    },
    {
      "inputs": [
        {
          "internalType": "uint256",
          "name": "",
          "type": "uint256"
        }
      ],
      "name": "stack",
      "outputs": [
        {
          "internalType": "bytes32",
          "name": "",
          "type": "bytes32"
        }
      ],
      "stateMutability": "view",
      "type": "function"
    }
  ],
  "transactionHash": "0x74083ddc34702d392013ae24812f02b8f4642307320dad239ad9cc1e373b6051",
  "args": [
    "0x36049D479A97CdE1fC6E2a5D2caE30B666Ebf92B",
    "0x037fc8e71445910e1E0bBb2a0896d5e9A7485318"
  ],
  "solcInputHash": "05a3724dc9e1f283fb20820d17e328b2",
  "bytecode": "0x60c060405234801561001057600080fd5b506040516114f03803806114f08339818101604052604081101561003357600080fd5b8101908080519060200190929190805190602001909291905050508173ffffffffffffffffffffffffffffffffffffffff1660808173ffffffffffffffffffffffffffffffffffffffff1660601b815250508073ffffffffffffffffffffffffffffffffffffffff1660a08173ffffffffffffffffffffffffffffffffffffffff1660601b81525050505060805160601c60a05160601c6113f06101006000398061055052806108fa5280610b6a5250806104d7528061051452806108bf5280610b8e52506113f06000f3fe60806040526004361061009c5760003560e01c806387c139431161006457806387c139431461028657806399eb59b9146102b1578063c272291614610300578063dc9031c41461030a578063f5f5ba7214610359578063fa2901a5146103e95761009c565b80630f532d18146100a15780631413dc7d146100cc578063172c5fcc146100f757806318433352146102045780632659e12014610245575b600080fd5b3480156100ad57600080fd5b506100b6610433565b6040518082815260200191505060405180910390f35b3480156100d857600080fd5b506100e161045a565b6040518082815260200191505060405180910390f35b610202600480360360e081101561010d57600080fd5b8101908080359060200190929190803573ffffffffffffffffffffffffffffffffffffffff169060200190929190803573ffffffffffffffffffffffffffffffffffffffff169060200190929190803573ffffffffffffffffffffffffffffffffffffffff169060200190929190803573ffffffffffffffffffffffffffffffffffffffff169060200190929190803590602001906401000000008111156101b457600080fd5b8201836020820111156101c657600080fd5b803590602001918460018302840111640100000000831117156101e857600080fd5b909192939192939080359060200190929190505050610481565b005b34801561021057600080fd5b50610219610b68565b604051808273ffffffffffffffffffffffffffffffffffffffff16815260200191505060405180910390f35b34801561025157600080fd5b5061025a610b8c565b604051808273ffffffffffffffffffffffffffffffffffffffff16815260200191505060405180910390f35b34801561029257600080fd5b5061029b610bb0565b6040518082815260200191505060405180910390f35b3480156102bd57600080fd5b506102ea600480360360208110156102d457600080fd5b8101908080359060200190929190505050610bbc565b6040518082815260200191505060405180910390f35b610308610bd4565b005b34801561031657600080fd5b506103436004803603602081101561032d57600080fd5b8101908080359060200190929190505050610c42565b6040518082815260200191505060405180910390f35b34801561036557600080fd5b5061036e610c63565b6040518080602001828103825283818151815260200191508051906020019080838360005b838110156103ae578082015181840152602081019050610393565b50505050905090810190601f1680156103db5780820380516001836020036101000a031916815260200191505b509250505060405180910390f35b3480156103f557600080fd5b506103fe610ca0565b60405180827bffffffffffffffffffffffffffffffffffffffffffffffffffffffff1916815260200191505060405180910390f35b7fb2f2618cecbbb6e7468cc0f2aa43858ad8d153e0280b22285e28e853bb9d453a60001b81565b7ff9543f11459ccccd21306c8881aaab675ff49d988c1162fd1dd9bbcdbe4446be60001b81565b61048b8689610cab565b975073eeeeeeeeeeeeeeeeeeeeeeeeeeeeeeeeeeeeeeee73ffffffffffffffffffffffffffffffffffffffff168673ffffffffffffffffffffffffffffffffffffffff1614156108a1577f000000000000000000000000000000000000000000000000000000000000000073ffffffffffffffffffffffffffffffffffffffff166313a76c4c897f000000000000000000000000000000000000000000000000000000000000000073ffffffffffffffffffffffffffffffffffffffff16632bd470d37f00000000000000000000000000000000000000000000000000000000000000008b610578610e0e565b8b8b8b8b6040518863ffffffff1660e01b8152600401808873ffffffffffffffffffffffffffffffffffffffff1681526020018773ffffffffffffffffffffffffffffffffffffffff1681526020018673ffffffffffffffffffffffffffffffffffffffff1681526020018573ffffffffffffffffffffffffffffffffffffffff168152602001806020018381526020018281038252858582818152602001925080828437600081840152601f19601f8201169050808301925050509850505050505050505060006040518083038186803b15801561065657600080fd5b505afa15801561066a573d6000803e3d6000fd5b505050506040513d6000823e3d601f19601f82011682018060405250602081101561069457600080fd5b81019080805160405193929190846401000000008211156106b457600080fd5b838201915060208201858111156106ca57600080fd5b82518660018202830111640100000000821117156106e757600080fd5b8083526020830192505050908051906020019080838360005b8381101561071b578082015181840152602081019050610700565b50505050905090810190601f1680156107485780820380516001836020036101000a031916815260200191505b506040525050506040518363ffffffff1660e01b81526004018080602001828103825283818151815260200191508051906020019080838360005b8381101561079e578082015181840152602081019050610783565b50505050905090810190601f1680156107cb5780820380516001836020036101000a031916815260200191505b50925050506000604051808303818588803b1580156107e957600080fd5b505af1935050505080156107fb575060015b61089b57610807611304565b806108125750610857565b6108516040518060400160405280600f81526020017f706c6163654c696d69744f72646572000000000000000000000000000000000081525082610e4c565b50610896565b6108956040518060400160405280600f81526020017f706c6163654c696d69744f7264657200000000000000000000000000000000008152506110df565b5b61089c565b5b610b5e565b8573ffffffffffffffffffffffffffffffffffffffff1663a9059cbb7f000000000000000000000000000000000000000000000000000000000000000073ffffffffffffffffffffffffffffffffffffffff166286f48f7f00000000000000000000000000000000000000000000000000000000000000008a610922610e0e565b8a8a8a6040518763ffffffff1660e01b8152600401808773ffffffffffffffffffffffffffffffffffffffff1681526020018673ffffffffffffffffffffffffffffffffffffffff1681526020018573ffffffffffffffffffffffffffffffffffffffff1681526020018473ffffffffffffffffffffffffffffffffffffffff168152602001806020018281038252848482818152602001925080828437600081840152601f19601f82011690508083019250505097505050505050505060206040518083038186803b1580156109f857600080fd5b505afa158015610a0c573d6000803e3d6000fd5b505050506040513d6020811015610a2257600080fd5b81019080805190602001909291905050508a6040518363ffffffff1660e01b8152600401808373ffffffffffffffffffffffffffffffffffffffff16815260200182815260200192505050602060405180830381600087803b158015610a8757600080fd5b505af1925050508015610abb57506040513d6020811015610aa757600080fd5b810190808051906020019092919050505060015b610b5b57610ac7611304565b80610ad25750610b17565b610b116040518060400160405280600f81526020017f706c6163654c696d69744f72646572000000000000000000000000000000000081525082610e4c565b50610b56565b610b556040518060400160405280600f81526020017f706c6163654c696d69744f7264657200000000000000000000000000000000008152506110df565b5b610b5d565b505b5b5050505050505050565b7f000000000000000000000000000000000000000000000000000000000000000081565b7f000000000000000000000000000000000000000000000000000000000000000081565b670de0b6b3a764000081565b60016020528060005260406000206000915090505481565b6040517f08c379a00000000000000000000000000000000000000000000000000000000081526004018080602001828103825260148152602001807f496e76616c696420706f73742070726f6365737300000000000000000000000081525060200191505060405180910390fd5b60008181548110610c4f57fe5b906000526020600020016000915090505481565b60606040518060400160405280601381526020017f4847656c61746f56324c696d69744f7264657200000000000000000000000000815250905090565b63c272291660e01b81565b60007fffffffffffffffffffffffffffffffffffffffffffffffffffffffffffffffff8214610cdc57819050610e08565b600073ffffffffffffffffffffffffffffffffffffffff168373ffffffffffffffffffffffffffffffffffffffff161480610d56575073eeeeeeeeeeeeeeeeeeeeeeeeeeeeeeeeeeeeeeee73ffffffffffffffffffffffffffffffffffffffff168373ffffffffffffffffffffffffffffffffffffffff16145b15610d6357479050610e08565b8273ffffffffffffffffffffffffffffffffffffffff166370a08231306040518263ffffffff1660e01b8152600401808273ffffffffffffffffffffffffffffffffffffffff16815260200191505060206040518083038186803b158015610dca57600080fd5b505afa158015610dde573d6000803e3d6000fd5b505050506040513d6020811015610df457600080fd5b810190808051906020019092919050505090505b92915050565b6000610e477fb2f2618cecbbb6e7468cc0f2aa43858ad8d153e0280b22285e28e853bb9d453a60001b600161112190919063ffffffff16565b905090565b610e5c610e57611141565b61117f565b610e64610c63565b83836040516020018085805190602001908083835b60208310610e9c5780518252602082019150602081019050602083039250610e79565b6001836020036101000a038019825116818451168082178552505050505050905001807f5f0000000000000000000000000000000000000000000000000000000000000081525060010184805190602001908083835b60208310610f155780518252602082019150602081019050602083039250610ef2565b6001836020036101000a038019825116818451168082178552505050505050905001807f5f0000000000000000000000000000000000000000000000000000000000000081525060010183805190602001908083835b60208310610f8e5780518252602082019150602081019050602083039250610f6b565b6001836020036101000a038019825116818451168082178552505050505050905001807f3a2000000000000000000000000000000000000000000000000000000000000081525060020182805190602001908083835b602083106110075780518252602082019150602081019050602083039250610fe4565b6001836020036101000a0380198251168184511680821785525050505050509050019450505050506040516020818303038152906040526040517f08c379a00000000000000000000000000000000000000000000000000000000081526004018080602001828103825283818151815260200191508051906020019080838360005b838110156110a4578082015181840152602081019050611089565b50505050905090810190601f1680156110d15780820380516001836020036101000a031916815260200191505b509250505060405180910390fd5b61111e816040518060400160405280600b81526020017f556e737065636966696564000000000000000000000000000000000000000000815250610e4c565b50565b60008260008381526020019081526020016000205460001c905092915050565b600061117a7ff9543f11459ccccd21306c8881aaab675ff49d988c1162fd1dd9bbcdbe4446be60001b60016112c690919063ffffffff16565b905090565b606060008214156111c7576040518060400160405280600181526020017f300000000000000000000000000000000000000000000000000000000000000081525090506112c1565b6000808390505b60008111156111f1578180600101925050600a81816111e957fe5b0490506111ce565b5060608167ffffffffffffffff8111801561120b57600080fd5b506040519080825280601f01601f19166020018201604052801561123e5781602001600182028036833780820191505090505b50905060008290505b60008111156112ba57600a858161125a57fe5b0660300160f81b82600183038151811061127057fe5b60200101907effffffffffffffffffffffffffffffffffffffffffffffffffffffffffffff1916908160001a905350600a85816112a957fe5b049450808060019003915050611247565b5080925050505b919050565b60008260008381526020019081526020016000205460001c905092915050565b6000601f19601f8301169050919050565b60008160e01c9050919050565b600060443d1015611314576113b7565b60046000803e6113256000516112f7565b6308c379a0811461133657506113b7565b60405160043d036004823e80513d602482011167ffffffffffffffff82111715611362575050506113b7565b808201805167ffffffffffffffff8111156113815750505050506113b7565b8060208301013d850181111561139c575050505050506113b7565b6113a5826112e6565b60208401016040528296505050505050505b9056fea2646970667358221220a5d81370d4609c214aca14ef9bcc68de4607870af4d435fc585382273830816d64736f6c634300060c0033",
  "devdoc": {
    "kind": "dev",
    "methods": {},
    "version": 1
  },
  "userdoc": {
    "kind": "user",
    "methods": {},
    "version": 1
  },
  "storageLayout": {
    "storage": [
      {
        "astId": 2834,
        "contract": "contracts/handlers/gelatov2/HGelatoV2LimitOrder.sol:HGelatoV2LimitOrder",
        "label": "stack",
        "offset": 0,
        "slot": "0",
        "type": "t_array(t_bytes32)dyn_storage"
      },
      {
        "astId": 2838,
        "contract": "contracts/handlers/gelatov2/HGelatoV2LimitOrder.sol:HGelatoV2LimitOrder",
        "label": "cache",
        "offset": 0,
        "slot": "1",
        "type": "t_mapping(t_bytes32,t_bytes32)"
      }
    ],
    "types": {
      "t_array(t_bytes32)dyn_storage": {
        "base": "t_bytes32",
        "encoding": "dynamic_array",
        "label": "bytes32[]",
        "numberOfBytes": "32"
      },
      "t_bytes32": {
        "encoding": "inplace",
        "label": "bytes32",
        "numberOfBytes": "32"
      },
      "t_mapping(t_bytes32,t_bytes32)": {
        "encoding": "mapping",
        "key": "t_bytes32",
        "label": "mapping(bytes32 => bytes32)",
        "numberOfBytes": "32",
        "value": "t_bytes32"
      }
    }
  }
}