{
  "address": "0x9bc5eB3fB09f18f80538CBC7e406aA769aA9c3C9",
  "abi": [
    {
      "inputs": [],
      "name": "CUBE_COUNTER_KEY",
      "outputs": [
        {
          "internalType": "bytes32",
          "name": "",
          "type": "bytes32"
        }
      ],
      "stateMutability": "view",
      "type": "function"
    },
    {
      "inputs": [],
      "name": "ETH_TOKEN_ADDRESS",
      "outputs": [
        {
          "internalType": "address",
          "name": "",
          "type": "address"
        }
      ],
      "stateMutability": "view",
      "type": "function"
    },
    {
      "inputs": [],
      "name": "KYBERNETWORK_PROXY",
      "outputs": [
        {
          "internalType": "address",
          "name": "",
          "type": "address"
        }
      ],
      "stateMutability": "view",
      "type": "function"
    },
    {
      "inputs": [],
      "name": "MSG_SENDER_KEY",
      "outputs": [
        {
          "internalType": "bytes32",
          "name": "",
          "type": "bytes32"
        }
      ],
      "stateMutability": "view",
      "type": "function"
    },
    {
      "inputs": [],
      "name": "PERCENTAGE_BASE",
      "outputs": [
        {
          "internalType": "uint256",
          "name": "",
          "type": "uint256"
        }
      ],
      "stateMutability": "view",
      "type": "function"
    },
    {
      "inputs": [],
      "name": "POSTPROCESS_SIG",
      "outputs": [
        {
          "internalType": "bytes4",
          "name": "",
          "type": "bytes4"
        }
      ],
      "stateMutability": "view",
      "type": "function"
    },
    {
      "inputs": [
        {
          "internalType": "bytes32",
          "name": "",
          "type": "bytes32"
        }
      ],
      "name": "cache",
      "outputs": [
        {
          "internalType": "bytes32",
          "name": "",
          "type": "bytes32"
        }
      ],
      "stateMutability": "view",
      "type": "function"
    },
    {
      "inputs": [],
      "name": "getContractName",
      "outputs": [
        {
          "internalType": "string",
          "name": "",
          "type": "string"
        }
      ],
      "stateMutability": "pure",
      "type": "function"
    },
    {
      "inputs": [],
      "name": "postProcess",
      "outputs": [],
      "stateMutability": "payable",
      "type": "function"
    },
    {
      "inputs": [
        {
          "internalType": "uint256",
          "name": "",
          "type": "uint256"
        }
      ],
      "name": "stack",
      "outputs": [
        {
          "internalType": "bytes32",
          "name": "",
          "type": "bytes32"
        }
      ],
      "stateMutability": "view",
      "type": "function"
    },
    {
      "inputs": [
        {
          "internalType": "uint256",
          "name": "value",
          "type": "uint256"
        },
        {
          "internalType": "address",
          "name": "token",
          "type": "address"
        },
        {
          "internalType": "uint256",
          "name": "minRate",
          "type": "uint256"
        }
      ],
      "name": "swapEtherToToken",
      "outputs": [
        {
          "internalType": "uint256",
          "name": "destAmount",
          "type": "uint256"
        }
      ],
      "stateMutability": "payable",
      "type": "function"
    },
    {
      "inputs": [
        {
          "internalType": "address",
          "name": "token",
          "type": "address"
        },
        {
          "internalType": "uint256",
          "name": "tokenQty",
          "type": "uint256"
        },
        {
          "internalType": "uint256",
          "name": "minRate",
          "type": "uint256"
        }
      ],
      "name": "swapTokenToEther",
      "outputs": [
        {
          "internalType": "uint256",
          "name": "destAmount",
          "type": "uint256"
        }
      ],
      "stateMutability": "payable",
      "type": "function"
    },
    {
      "inputs": [
        {
          "internalType": "address",
          "name": "srcToken",
          "type": "address"
        },
        {
          "internalType": "uint256",
          "name": "srcQty",
          "type": "uint256"
        },
        {
          "internalType": "address",
          "name": "destToken",
          "type": "address"
        },
        {
          "internalType": "uint256",
          "name": "minRate",
          "type": "uint256"
        }
      ],
      "name": "swapTokenToToken",
      "outputs": [
        {
          "internalType": "uint256",
          "name": "destAmount",
          "type": "uint256"
        }
      ],
      "stateMutability": "payable",
      "type": "function"
    }
  ],
  "transactionHash": "0xb7709274ac32937197e97fa0b0c33cdf2b82e769d17f0efc740ac2e1acb1f70b",
  "args": [],
  "solcInputHash": "05a3724dc9e1f283fb20820d17e328b2",
  "bytecode": "0x608060405234801561001057600080fd5b506118b2806100206000396000f3fe6080604052600436106100c25760003560e01c80637409e2eb1161007f578063c272291611610059578063c27229161461037d578063dc9031c414610387578063f5f5ba72146103d6578063fa2901a514610466576100c2565b80637409e2eb1461027757806387c139431461030357806399eb59b91461032e576100c2565b80630f532d18146100c75780631413dc7d146100f25780631878d1f11461011d57806333c139e51461015e5780633bba21dc1461019f57806343ac1dc61461020b575b600080fd5b3480156100d357600080fd5b506100dc6104b0565b6040518082815260200191505060405180910390f35b3480156100fe57600080fd5b506101076104d7565b6040518082815260200191505060405180910390f35b34801561012957600080fd5b506101326104fe565b604051808273ffffffffffffffffffffffffffffffffffffffff16815260200191505060405180910390f35b34801561016a57600080fd5b50610173610516565b604051808273ffffffffffffffffffffffffffffffffffffffff16815260200191505060405180910390f35b6101f5600480360360608110156101b557600080fd5b81019080803573ffffffffffffffffffffffffffffffffffffffff169060200190929190803590602001909291908035906020019092919050505061052e565b6040518082815260200191505060405180910390f35b6102616004803603606081101561022157600080fd5b8101908080359060200190929190803573ffffffffffffffffffffffffffffffffffffffff16906020019092919080359060200190929190505050610705565b6040518082815260200191505060405180910390f35b6102ed6004803603608081101561028d57600080fd5b81019080803573ffffffffffffffffffffffffffffffffffffffff16906020019092919080359060200190929190803573ffffffffffffffffffffffffffffffffffffffff1690602001909291908035906020019092919050505061089b565b6040518082815260200191505060405180910390f35b34801561030f57600080fd5b50610318610a9a565b6040518082815260200191505060405180910390f35b34801561033a57600080fd5b506103676004803603602081101561035157600080fd5b8101908080359060200190929190505050610aa6565b6040518082815260200191505060405180910390f35b610385610abe565b005b34801561039357600080fd5b506103c0600480360360208110156103aa57600080fd5b8101908080359060200190929190505050610b2c565b6040518082815260200191505060405180910390f35b3480156103e257600080fd5b506103eb610b4d565b6040518080602001828103825283818151815260200191508051906020019080838360005b8381101561042b578082015181840152602081019050610410565b50505050905090810190601f1680156104585780820380516001836020036101000a031916815260200191505b509250505060405180910390f35b34801561047257600080fd5b5061047b610b8a565b60405180827bffffffffffffffffffffffffffffffffffffffffffffffffffffffff1916815260200191505060405180910390f35b7fb2f2618cecbbb6e7468cc0f2aa43858ad8d153e0280b22285e28e853bb9d453a60001b81565b7ff9543f11459ccccd21306c8881aaab675ff49d988c1162fd1dd9bbcdbe4446be60001b81565b73eeeeeeeeeeeeeeeeeeeeeeeeeeeeeeeeeeeeeeee81565b73818e6fecd516ecc3849daf6845e3ec868087b75581565b60008073818e6fecd516ecc3849daf6845e3ec868087b75590506105528585610b95565b935061057f81858773ffffffffffffffffffffffffffffffffffffffff16610cf89092919063ffffffff16565b8073ffffffffffffffffffffffffffffffffffffffff16633bba21dc8686866040518463ffffffff1660e01b8152600401808473ffffffffffffffffffffffffffffffffffffffff1681526020018381526020018281526020019350505050602060405180830381600087803b1580156105f857600080fd5b505af192505050801561062c57506040513d602081101561061857600080fd5b810190808051906020019092919050505060015b6106cc57610638611740565b806106435750610688565b6106826040518060400160405280601081526020017f73776170546f6b656e546f45746865720000000000000000000000000000000081525082610ebd565b506106c7565b6106c66040518060400160405280601081526020017f73776170546f6b656e546f457468657200000000000000000000000000000000815250611150565b5b6106d1565b809250505b6106fd8160008773ffffffffffffffffffffffffffffffffffffffff16610cf89092919063ffffffff16565b509392505050565b60008073818e6fecd516ecc3849daf6845e3ec868087b755905061073d73eeeeeeeeeeeeeeeeeeeeeeeeeeeeeeeeeeeeeeee86610b95565b94508073ffffffffffffffffffffffffffffffffffffffff16637a2a04568686866040518463ffffffff1660e01b8152600401808373ffffffffffffffffffffffffffffffffffffffff168152602001828152602001925050506020604051808303818588803b1580156107b057600080fd5b505af1935050505080156107e557506040513d60208110156107d157600080fd5b810190808051906020019092919050505060015b610885576107f1611740565b806107fc5750610841565b61083b6040518060400160405280601081526020017f737761704574686572546f546f6b656e0000000000000000000000000000000081525082610ebd565b50610880565b61087f6040518060400160405280601081526020017f737761704574686572546f546f6b656e00000000000000000000000000000000815250611150565b5b61088a565b809250505b61089384611192565b509392505050565b60008073818e6fecd516ecc3849daf6845e3ec868087b75590506108bf8686610b95565b94506108ec81868873ffffffffffffffffffffffffffffffffffffffff16610cf89092919063ffffffff16565b8073ffffffffffffffffffffffffffffffffffffffff16637409e2eb878787876040518563ffffffff1660e01b8152600401808573ffffffffffffffffffffffffffffffffffffffff1681526020018481526020018373ffffffffffffffffffffffffffffffffffffffff168152602001828152602001945050505050602060405180830381600087803b15801561098357600080fd5b505af19250505080156109b757506040513d60208110156109a357600080fd5b810190808051906020019092919050505060015b610a57576109c3611740565b806109ce5750610a13565b610a0d6040518060400160405280601081526020017f73776170546f6b656e546f546f6b656e0000000000000000000000000000000081525082610ebd565b50610a52565b610a516040518060400160405280601081526020017f73776170546f6b656e546f546f6b656e00000000000000000000000000000000815250611150565b5b610a5c565b809250505b610a888160008873ffffffffffffffffffffffffffffffffffffffff16610cf89092919063ffffffff16565b610a9184611192565b50949350505050565b670de0b6b3a764000081565b60016020528060005260406000206000915090505481565b6040517f08c379a00000000000000000000000000000000000000000000000000000000081526004018080602001828103825260148152602001807f496e76616c696420706f73742070726f6365737300000000000000000000000081525060200191505060405180910390fd5b60008181548110610b3957fe5b906000526020600020016000915090505481565b60606040518060400160405280600d81526020017f484b796265724e6574776f726b00000000000000000000000000000000000000815250905090565b63c272291660e01b81565b60007fffffffffffffffffffffffffffffffffffffffffffffffffffffffffffffffff8214610bc657819050610cf2565b600073ffffffffffffffffffffffffffffffffffffffff168373ffffffffffffffffffffffffffffffffffffffff161480610c40575073eeeeeeeeeeeeeeeeeeeeeeeeeeeeeeeeeeeeeeee73ffffffffffffffffffffffffffffffffffffffff168373ffffffffffffffffffffffffffffffffffffffff16145b15610c4d57479050610cf2565b8273ffffffffffffffffffffffffffffffffffffffff166370a08231306040518263ffffffff1660e01b8152600401808273ffffffffffffffffffffffffffffffffffffffff16815260200191505060206040518083038186803b158015610cb457600080fd5b505afa158015610cc8573d6000803e3d6000fd5b505050506040513d6020811015610cde57600080fd5b810190808051906020019092919050505090505b92915050565b6000811480610dc6575060008373ffffffffffffffffffffffffffffffffffffffff1663dd62ed3e30856040518363ffffffff1660e01b8152600401808373ffffffffffffffffffffffffffffffffffffffff1681526020018273ffffffffffffffffffffffffffffffffffffffff1681526020019250505060206040518083038186803b158015610d8957600080fd5b505afa158015610d9d573d6000803e3d6000fd5b505050506040513d6020811015610db357600080fd5b8101908080519060200190929190505050145b610e1b576040517f08c379a00000000000000000000000000000000000000000000000000000000081526004018080602001828103825260368152602001806118476036913960400191505060405180910390fd5b610eb88363095ea7b360e01b8484604051602401808373ffffffffffffffffffffffffffffffffffffffff16815260200182815260200192505050604051602081830303815290604052907bffffffffffffffffffffffffffffffffffffffffffffffffffffffff19166020820180517bffffffffffffffffffffffffffffffffffffffffffffffffffffffff83818316178352505050506111a9565b505050565b610ecd610ec8611298565b6112d6565b610ed5610b4d565b83836040516020018085805190602001908083835b60208310610f0d5780518252602082019150602081019050602083039250610eea565b6001836020036101000a038019825116818451168082178552505050505050905001807f5f0000000000000000000000000000000000000000000000000000000000000081525060010184805190602001908083835b60208310610f865780518252602082019150602081019050602083039250610f63565b6001836020036101000a038019825116818451168082178552505050505050905001807f5f0000000000000000000000000000000000000000000000000000000000000081525060010183805190602001908083835b60208310610fff5780518252602082019150602081019050602083039250610fdc565b6001836020036101000a038019825116818451168082178552505050505050905001807f3a2000000000000000000000000000000000000000000000000000000000000081525060020182805190602001908083835b602083106110785780518252602082019150602081019050602083039250611055565b6001836020036101000a0380198251168184511680821785525050505050509050019450505050506040516020818303038152906040526040517f08c379a00000000000000000000000000000000000000000000000000000000081526004018080602001828103825283818151815260200191508051906020019080838360005b838110156111155780820151818401526020810190506110fa565b50505050905090810190601f1680156111425780820380516001836020036101000a031916815260200191505b509250505060405180910390fd5b61118f816040518060400160405280600b81526020017f556e737065636966696564000000000000000000000000000000000000000000815250610ebd565b50565b6111a681600061141d90919063ffffffff16565b50565b606061120b826040518060400160405280602081526020017f5361666545524332303a206c6f772d6c6576656c2063616c6c206661696c65648152508573ffffffffffffffffffffffffffffffffffffffff166114629092919063ffffffff16565b90506000815111156112935780806020019051602081101561122c57600080fd5b8101908080519060200190929190505050611292576040517f08c379a000000000000000000000000000000000000000000000000000000000815260040180806020018281038252602a81526020018061181d602a913960400191505060405180910390fd5b5b505050565b60006112d17ff9543f11459ccccd21306c8881aaab675ff49d988c1162fd1dd9bbcdbe4446be60001b600161147a90919063ffffffff16565b905090565b6060600082141561131e576040518060400160405280600181526020017f30000000000000000000000000000000000000000000000000000000000000008152509050611418565b6000808390505b6000811115611348578180600101925050600a818161134057fe5b049050611325565b5060608167ffffffffffffffff8111801561136257600080fd5b506040519080825280601f01601f1916602001820160405280156113955781602001600182028036833780820191505090505b50905060008290505b600081111561141157600a85816113b157fe5b0660300160f81b8260018303815181106113c757fe5b60200101907effffffffffffffffffffffffffffffffffffffffffffffffffffffffffffff1916908160001a905350600a858161140057fe5b04945080806001900391505061139e565b5080925050505b919050565b818173ffffffffffffffffffffffffffffffffffffffff1660001b90806001815401808255809150506001900390600052602060002001600090919091909150555050565b6060611471848460008561149a565b90509392505050565b60008260008381526020019081526020016000205460001c905092915050565b6060824710156114f5576040517f08c379a00000000000000000000000000000000000000000000000000000000081526004018080602001828103825260268152602001806117f76026913960400191505060405180910390fd5b6114fe85611643565b611570576040517f08c379a000000000000000000000000000000000000000000000000000000000815260040180806020018281038252601d8152602001807f416464726573733a2063616c6c20746f206e6f6e2d636f6e747261637400000081525060200191505060405180910390fd5b600060608673ffffffffffffffffffffffffffffffffffffffff1685876040518082805190602001908083835b602083106115c0578051825260208201915060208101905060208303925061159d565b6001836020036101000a03801982511681845116808217855250505050505090500191505060006040518083038185875af1925050503d8060008114611622576040519150601f19603f3d011682016040523d82523d6000602084013e611627565b606091505b5091509150611637828286611656565b92505050949350505050565b600080823b905060008111915050919050565b606083156116665782905061171b565b6000835111156116795782518084602001fd5b816040517f08c379a00000000000000000000000000000000000000000000000000000000081526004018080602001828103825283818151815260200191508051906020019080838360005b838110156116e05780820151818401526020810190506116c5565b50505050905090810190601f16801561170d5780820380516001836020036101000a031916815260200191505b509250505060405180910390fd5b9392505050565b6000601f19601f8301169050919050565b60008160e01c9050919050565b600060443d1015611750576117f3565b60046000803e611761600051611733565b6308c379a0811461177257506117f3565b60405160043d036004823e80513d602482011167ffffffffffffffff8211171561179e575050506117f3565b808201805167ffffffffffffffff8111156117bd5750505050506117f3565b8060208301013d85018111156117d8575050505050506117f3565b6117e182611722565b60208401016040528296505050505050505b9056fe416464726573733a20696e73756666696369656e742062616c616e636520666f722063616c6c5361666545524332303a204552433230206f7065726174696f6e20646964206e6f7420737563636565645361666545524332303a20617070726f76652066726f6d206e6f6e2d7a65726f20746f206e6f6e2d7a65726f20616c6c6f77616e6365a2646970667358221220e146b5d20ff2a2cb5ba43695285050abbacc771e80ad4c101fb1069ef7763f2d64736f6c634300060c0033",
  "devdoc": {
    "kind": "dev",
    "methods": {},
    "version": 1
  },
  "userdoc": {
    "kind": "user",
    "methods": {},
    "version": 1
  },
  "storageLayout": {
    "storage": [
      {
        "astId": 2834,
        "contract": "contracts/handlers/kybernetwork/HKyberNetwork.sol:HKyberNetwork",
        "label": "stack",
        "offset": 0,
        "slot": "0",
        "type": "t_array(t_bytes32)dyn_storage"
      },
      {
        "astId": 2838,
        "contract": "contracts/handlers/kybernetwork/HKyberNetwork.sol:HKyberNetwork",
        "label": "cache",
        "offset": 0,
        "slot": "1",
        "type": "t_mapping(t_bytes32,t_bytes32)"
      }
    ],
    "types": {
      "t_array(t_bytes32)dyn_storage": {
        "base": "t_bytes32",
        "encoding": "dynamic_array",
        "label": "bytes32[]",
        "numberOfBytes": "32"
      },
      "t_bytes32": {
        "encoding": "inplace",
        "label": "bytes32",
        "numberOfBytes": "32"
      },
      "t_mapping(t_bytes32,t_bytes32)": {
        "encoding": "mapping",
        "key": "t_bytes32",
        "label": "mapping(bytes32 => bytes32)",
        "numberOfBytes": "32",
        "value": "t_bytes32"
      }
    }
  }
}