{
  "address": "0xA9ae8b7D570a16EAcFA7Ba667A89DC4F871fdBb1",
  "abi": [
    {
      "inputs": [],
      "name": "CHAIN_LOG",
      "outputs": [
        {
          "internalType": "address",
          "name": "",
          "type": "address"
        }
      ],
      "stateMutability": "view",
      "type": "function"
    },
    {
      "inputs": [],
      "name": "CUBE_COUNTER_KEY",
      "outputs": [
        {
          "internalType": "bytes32",
          "name": "",
          "type": "bytes32"
        }
      ],
      "stateMutability": "view",
      "type": "function"
    },
    {
      "inputs": [],
      "name": "DAI_TOKEN",
      "outputs": [
        {
          "internalType": "address",
          "name": "",
          "type": "address"
        }
      ],
      "stateMutability": "view",
      "type": "function"
    },
    {
      "inputs": [],
      "name": "MSG_SENDER_KEY",
      "outputs": [
        {
          "internalType": "bytes32",
          "name": "",
          "type": "bytes32"
        }
      ],
      "stateMutability": "view",
      "type": "function"
    },
    {
      "inputs": [],
      "name": "PERCENTAGE_BASE",
      "outputs": [
        {
          "internalType": "uint256",
          "name": "",
          "type": "uint256"
        }
      ],
      "stateMutability": "view",
      "type": "function"
    },
    {
      "inputs": [],
      "name": "POSTPROCESS_SIG",
      "outputs": [
        {
          "internalType": "bytes4",
          "name": "",
          "type": "bytes4"
        }
      ],
      "stateMutability": "view",
      "type": "function"
    },
    {
      "inputs": [],
      "name": "PROXY_REGISTRY",
      "outputs": [
        {
          "internalType": "address",
          "name": "",
          "type": "address"
        }
      ],
      "stateMutability": "view",
      "type": "function"
    },
    {
      "inputs": [
        {
          "internalType": "bytes32",
          "name": "",
          "type": "bytes32"
        }
      ],
      "name": "cache",
      "outputs": [
        {
          "internalType": "bytes32",
          "name": "",
          "type": "bytes32"
        }
      ],
      "stateMutability": "view",
      "type": "function"
    },
    {
      "inputs": [
        {
          "internalType": "address",
          "name": "daiJoin",
          "type": "address"
        },
        {
          "internalType": "uint256",
          "name": "cdp",
          "type": "uint256"
        },
        {
          "internalType": "uint256",
          "name": "wad",
          "type": "uint256"
        }
      ],
      "name": "draw",
      "outputs": [],
      "stateMutability": "payable",
      "type": "function"
    },
    {
      "inputs": [
        {
          "internalType": "address",
          "name": "ethJoin",
          "type": "address"
        },
        {
          "internalType": "uint256",
          "name": "cdp",
          "type": "uint256"
        },
        {
          "internalType": "uint256",
          "name": "wad",
          "type": "uint256"
        }
      ],
      "name": "freeETH",
      "outputs": [],
      "stateMutability": "payable",
      "type": "function"
    },
    {
      "inputs": [
        {
          "internalType": "address",
          "name": "gemJoin",
          "type": "address"
        },
        {
          "internalType": "uint256",
          "name": "cdp",
          "type": "uint256"
        },
        {
          "internalType": "uint256",
          "name": "wad",
          "type": "uint256"
        }
      ],
      "name": "freeGem",
      "outputs": [],
      "stateMutability": "payable",
      "type": "function"
    },
    {
      "inputs": [],
      "name": "getCdpManager",
      "outputs": [
        {
          "internalType": "address",
          "name": "",
          "type": "address"
        }
      ],
      "stateMutability": "pure",
      "type": "function"
    },
    {
      "inputs": [],
      "name": "getContractName",
      "outputs": [
        {
          "internalType": "string",
          "name": "",
          "type": "string"
        }
      ],
      "stateMutability": "pure",
      "type": "function"
    },
    {
      "inputs": [],
      "name": "getMcdJug",
      "outputs": [
        {
          "internalType": "address",
          "name": "",
          "type": "address"
        }
      ],
      "stateMutability": "view",
      "type": "function"
    },
    {
      "inputs": [],
      "name": "getProxyActions",
      "outputs": [
        {
          "internalType": "address",
          "name": "",
          "type": "address"
        }
      ],
      "stateMutability": "pure",
      "type": "function"
    },
    {
      "inputs": [
        {
          "internalType": "uint256",
          "name": "value",
          "type": "uint256"
        },
        {
          "internalType": "address",
          "name": "ethJoin",
          "type": "address"
        },
        {
          "internalType": "address",
          "name": "daiJoin",
          "type": "address"
        },
        {
          "internalType": "bytes32",
          "name": "ilk",
          "type": "bytes32"
        },
        {
          "internalType": "uint256",
          "name": "wadD",
          "type": "uint256"
        }
      ],
      "name": "openLockETHAndDraw",
      "outputs": [
        {
          "internalType": "uint256",
          "name": "cdp",
          "type": "uint256"
        }
      ],
      "stateMutability": "payable",
      "type": "function"
    },
    {
      "inputs": [
        {
          "internalType": "address",
          "name": "gemJoin",
          "type": "address"
        },
        {
          "internalType": "address",
          "name": "daiJoin",
          "type": "address"
        },
        {
          "internalType": "bytes32",
          "name": "ilk",
          "type": "bytes32"
        },
        {
          "internalType": "uint256",
          "name": "wadC",
          "type": "uint256"
        },
        {
          "internalType": "uint256",
          "name": "wadD",
          "type": "uint256"
        }
      ],
      "name": "openLockGemAndDraw",
      "outputs": [
        {
          "internalType": "uint256",
          "name": "cdp",
          "type": "uint256"
        }
      ],
      "stateMutability": "payable",
      "type": "function"
    },
    {
      "inputs": [],
      "name": "postProcess",
      "outputs": [],
      "stateMutability": "payable",
      "type": "function"
    },
    {
      "inputs": [
        {
          "internalType": "uint256",
          "name": "value",
          "type": "uint256"
        },
        {
          "internalType": "address",
          "name": "ethJoin",
          "type": "address"
        },
        {
          "internalType": "uint256",
          "name": "cdp",
          "type": "uint256"
        }
      ],
      "name": "safeLockETH",
      "outputs": [],
      "stateMutability": "payable",
      "type": "function"
    },
    {
      "inputs": [
        {
          "internalType": "address",
          "name": "gemJoin",
          "type": "address"
        },
        {
          "internalType": "uint256",
          "name": "cdp",
          "type": "uint256"
        },
        {
          "internalType": "uint256",
          "name": "wad",
          "type": "uint256"
        }
      ],
      "name": "safeLockGem",
      "outputs": [],
      "stateMutability": "payable",
      "type": "function"
    },
    {
      "inputs": [
        {
          "internalType": "uint256",
          "name": "",
          "type": "uint256"
        }
      ],
      "name": "stack",
      "outputs": [
        {
          "internalType": "bytes32",
          "name": "",
          "type": "bytes32"
        }
      ],
      "stateMutability": "view",
      "type": "function"
    },
    {
      "inputs": [
        {
          "internalType": "address",
          "name": "daiJoin",
          "type": "address"
        },
        {
          "internalType": "uint256",
          "name": "cdp",
          "type": "uint256"
        },
        {
          "internalType": "uint256",
          "name": "wad",
          "type": "uint256"
        }
      ],
      "name": "wipe",
      "outputs": [],
      "stateMutability": "payable",
      "type": "function"
    },
    {
      "inputs": [
        {
          "internalType": "address",
          "name": "daiJoin",
          "type": "address"
        },
        {
          "internalType": "uint256",
          "name": "cdp",
          "type": "uint256"
        }
      ],
      "name": "wipeAll",
      "outputs": [],
      "stateMutability": "payable",
      "type": "function"
    }
  ],
  "transactionHash": "0x6dd2ffbf6456ce918e3807f1982549310c36b8c3fbfbdaccad044e2622bdc251",
  "args": [],
  "solcInputHash": "05a3724dc9e1f283fb20820d17e328b2",
  "bytecode": "0x608060405234801561001057600080fd5b50614437806100206000396000f3fe60806040526004361061013f5760003560e01c8063895e4990116100b6578063e606df871161006f578063e606df871461064b578063f07ab7be1461068c578063f5f5ba72146106e4578063f659659014610774578063fa2901a5146107cc578063fe285fd5146108165761013f565b8063895e4990146104c957806399eb59b91461050a578063b98d24b014610559578063c27229161461059a578063c3b6cb4b146105a4578063dc9031c4146105fc5761013f565b80635481e4a4116101085780635481e4a41461027457806363d070a51461030a5780636ddb4566146103625780637031b517146103b057806373af24e71461040857806387c139431461049e5761013f565b8062e28c52146101445780630f532d18146101855780631413dc7d146101b05780632537e4b5146101db5780634bbc298714610233575b600080fd5b34801561015057600080fd5b50610159610857565b604051808273ffffffffffffffffffffffffffffffffffffffff16815260200191505060405180910390f35b34801561019157600080fd5b5061019a61091e565b6040518082815260200191505060405180910390f35b3480156101bc57600080fd5b506101c5610945565b6040518082815260200191505060405180910390f35b610231600480360360608110156101f157600080fd5b81019080803573ffffffffffffffffffffffffffffffffffffffff169060200190929190803590602001909291908035906020019092919050505061096c565b005b34801561023f57600080fd5b50610248610eb3565b604051808273ffffffffffffffffffffffffffffffffffffffff16815260200191505060405180910390f35b6102f4600480360360a081101561028a57600080fd5b8101908080359060200190929190803573ffffffffffffffffffffffffffffffffffffffff169060200190929190803573ffffffffffffffffffffffffffffffffffffffff1690602001909291908035906020019092919080359060200190929190505050610ecb565b6040518082815260200191505060405180910390f35b6103606004803603606081101561032057600080fd5b81019080803573ffffffffffffffffffffffffffffffffffffffff1690602001909291908035906020019092919080359060200190929190505050611201565b005b6103ae6004803603604081101561037857600080fd5b81019080803573ffffffffffffffffffffffffffffffffffffffff1690602001909291908035906020019092919050505061158f565b005b610406600480360360608110156103c657600080fd5b81019080803573ffffffffffffffffffffffffffffffffffffffff169060200190929190803590602001909291908035906020019092919050505061188c565b005b610488600480360360a081101561041e57600080fd5b81019080803573ffffffffffffffffffffffffffffffffffffffff169060200190929190803573ffffffffffffffffffffffffffffffffffffffff169060200190929190803590602001909291908035906020019092919080359060200190929190505050611e62565b6040518082815260200191505060405180910390f35b3480156104aa57600080fd5b506104b3612286565b6040518082815260200191505060405180910390f35b3480156104d557600080fd5b506104de612292565b604051808273ffffffffffffffffffffffffffffffffffffffff16815260200191505060405180910390f35b34801561051657600080fd5b506105436004803603602081101561052d57600080fd5b81019080803590602001909291905050506122aa565b6040518082815260200191505060405180910390f35b34801561056557600080fd5b5061056e6122c2565b604051808273ffffffffffffffffffffffffffffffffffffffff16815260200191505060405180910390f35b6105a26122de565b005b6105fa600480360360608110156105ba57600080fd5b81019080803573ffffffffffffffffffffffffffffffffffffffff16906020019092919080359060200190929190803590602001909291905050506124e0565b005b34801561060857600080fd5b506106356004803603602081101561061f57600080fd5b81019080803590602001909291905050506127c6565b6040518082815260200191505060405180910390f35b34801561065757600080fd5b506106606127e7565b604051808273ffffffffffffffffffffffffffffffffffffffff16815260200191505060405180910390f35b6106e2600480360360608110156106a257600080fd5b81019080803573ffffffffffffffffffffffffffffffffffffffff16906020019092919080359060200190929190803590602001909291905050506127ff565b005b3480156106f057600080fd5b506106f9612d88565b6040518080602001828103825283818151815260200191508051906020019080838360005b8381101561073957808201518184015260208101905061071e565b50505050905090810190601f1680156107665780820380516001836020036101000a031916815260200191505b509250505060405180910390f35b6107ca6004803603606081101561078a57600080fd5b8101908080359060200190929190803573ffffffffffffffffffffffffffffffffffffffff16906020019092919080359060200190929190505050612dc5565b005b3480156107d857600080fd5b506107e1613065565b60405180827bffffffffffffffffffffffffffffffffffffffffffffffffffffffff1916815260200191505060405180910390f35b34801561082257600080fd5b5061082b613070565b604051808273ffffffffffffffffffffffffffffffffffffffff16815260200191505060405180910390f35b600073da0ab1e0017debcd72be8599041a2aa3ba7e740f73ffffffffffffffffffffffffffffffffffffffff166321f8a7216040518163ffffffff1660e01b815260040180807f4d43445f4a554700000000000000000000000000000000000000000000000000815250602001905060206040518083038186803b1580156108de57600080fd5b505afa1580156108f2573d6000803e3d6000fd5b505050506040513d602081101561090857600080fd5b8101908080519060200190929190505050905090565b7fb2f2618cecbbb6e7468cc0f2aa43858ad8d153e0280b22285e28e853bb9d453a60001b81565b7ff9543f11459ccccd21306c8881aaab675ff49d988c1162fd1dd9bbcdbe4446be60001b81565b816000610977613070565b905060008173ffffffffffffffffffffffffffffffffffffffff16638161b120846040518263ffffffff1660e01b81526004018082815260200191505060206040518083038186803b1580156109cc57600080fd5b505afa1580156109e0573d6000803e3d6000fd5b505050506040513d60208110156109f657600080fd5b810190808051906020019092919050505090506000610a1361308c565b90508173ffffffffffffffffffffffffffffffffffffffff16734678f0a6958e4d2bc4f1baf7bc52e8f3564f3fe473ffffffffffffffffffffffffffffffffffffffff1663c4552791836040518263ffffffff1660e01b8152600401808273ffffffffffffffffffffffffffffffffffffffff16815260200191505060206040518083038186803b158015610aa757600080fd5b505afa158015610abb573d6000803e3d6000fd5b505050506040513d6020811015610ad157600080fd5b810190808051906020019092919050505073ffffffffffffffffffffffffffffffffffffffff1614158015610bce575060018373ffffffffffffffffffffffffffffffffffffffff16635aebb4608487856040518463ffffffff1660e01b8152600401808473ffffffffffffffffffffffffffffffffffffffff1681526020018381526020018273ffffffffffffffffffffffffffffffffffffffff168152602001935050505060206040518083038186803b158015610b9057600080fd5b505afa158015610ba4573d6000803e3d6000fd5b505050506040513d6020811015610bba57600080fd5b810190808051906020019092919050505014155b15610c4857610c476040518060400160405280600781526020017f47656e6572616c000000000000000000000000000000000000000000000000008152506040518060400160405280601a81526020017f556e617574686f72697a65642073656e646572206f66206364700000000000008152506130ca565b5b6000610c533061335d565b90508073ffffffffffffffffffffffffffffffffffffffff16631cff79cd610c796122c2565b637b5a3b43610c86613070565b8c8c8c604051602401808573ffffffffffffffffffffffffffffffffffffffff1681526020018473ffffffffffffffffffffffffffffffffffffffff1681526020018381526020018281526020019450505050506040516020818303038152906040529060e01b6020820180517bffffffffffffffffffffffffffffffffffffffffffffffffffffffff83818316178352505050506040518363ffffffff1660e01b8152600401808373ffffffffffffffffffffffffffffffffffffffff16815260200180602001828103825283818151815260200191508051906020019080838360005b83811015610d86578082015181840152602081019050610d6b565b50505050905090810190601f168015610db35780820380516001836020036101000a031916815260200191505b509350505050602060405180830381600087803b158015610dd357600080fd5b505af1925050508015610e0757506040513d6020811015610df357600080fd5b810190808051906020019092919050505060015b610ea757610e136142c5565b80610e1e5750610e63565b610e5d6040518060400160405280600781526020017f6672656545544800000000000000000000000000000000000000000000000000815250826130ca565b50610ea2565b610ea16040518060400160405280600781526020017f667265654554480000000000000000000000000000000000000000000000000081525061341c565b5b610ea9565b505b5050505050505050565b734678f0a6958e4d2bc4f1baf7bc52e8f3564f3fe481565b600080610ed73061335d565b9050610ee460008861345e565b96508073ffffffffffffffffffffffffffffffffffffffff16631cff79cd88610f0b6122c2565b63e685cc04610f18613070565b610f20610857565b8c8c8c8c604051602401808773ffffffffffffffffffffffffffffffffffffffff1681526020018673ffffffffffffffffffffffffffffffffffffffff1681526020018573ffffffffffffffffffffffffffffffffffffffff1681526020018473ffffffffffffffffffffffffffffffffffffffff16815260200183815260200182815260200196505050505050506040516020818303038152906040529060e01b6020820180517bffffffffffffffffffffffffffffffffffffffffffffffffffffffff83818316178352505050506040518463ffffffff1660e01b8152600401808373ffffffffffffffffffffffffffffffffffffffff16815260200180602001828103825283818151815260200191508051906020019080838360005b8381101561105b578082015181840152602081019050611040565b50505050905090810190601f1680156110885780820380516001836020036101000a031916815260200191505b5093505050506020604051808303818588803b1580156110a757600080fd5b505af1935050505080156110dc57506040513d60208110156110c857600080fd5b810190808051906020019092919050505060015b61117c576110e86142c5565b806110f35750611138565b6111326040518060400160405280601281526020017f6f70656e4c6f636b455448416e64447261770000000000000000000000000000815250826130ca565b50611177565b6111766040518060400160405280601281526020017f6f70656e4c6f636b455448416e6444726177000000000000000000000000000081525061341c565b5b611184565b8060001c9250505b6060600167ffffffffffffffff8111801561119e57600080fd5b506040519080825280602002602001820160405280156111cd5781602001602082028036833780820191505090505b5090508260001b816000815181106111e157fe5b6020026020010181815250506111f6816135c1565b505095945050505050565b600061120c3061335d565b9050600061122061121b61308c565b61335d565b905060008573ffffffffffffffffffffffffffffffffffffffff16637bd2bea76040518163ffffffff1660e01b815260040160206040518083038186803b15801561126a57600080fd5b505afa15801561127e573d6000803e3d6000fd5b505050506040513d602081101561129457600080fd5b810190808051906020019092919050505090506112b1818561345e565b93506112de83858373ffffffffffffffffffffffffffffffffffffffff166136799092919063ffffffff16565b8273ffffffffffffffffffffffffffffffffffffffff16631cff79cd6113026122c2565b63ead6472961130f613070565b8a8a8a60018a604051602401808773ffffffffffffffffffffffffffffffffffffffff1681526020018673ffffffffffffffffffffffffffffffffffffffff16815260200185815260200184815260200183151581526020018273ffffffffffffffffffffffffffffffffffffffff16815260200196505050505050506040516020818303038152906040529060e01b6020820180517bffffffffffffffffffffffffffffffffffffffffffffffffffffffff83818316178352505050506040518363ffffffff1660e01b8152600401808373ffffffffffffffffffffffffffffffffffffffff16815260200180602001828103825283818151815260200191508051906020019080838360005b8381101561143857808201518184015260208101905061141d565b50505050905090810190601f1680156114655780820380516001836020036101000a031916815260200191505b509350505050602060405180830381600087803b15801561148557600080fd5b505af19250505080156114b957506040513d60208110156114a557600080fd5b810190808051906020019092919050505060015b611559576114c56142c5565b806114d05750611515565b61150f6040518060400160405280600b81526020017f736166654c6f636b47656d000000000000000000000000000000000000000000815250826130ca565b50611554565b6115536040518060400160405280600b81526020017f736166654c6f636b47656d00000000000000000000000000000000000000000081525061341c565b5b61155b565b505b6115878360008373ffffffffffffffffffffffffffffffffffffffff166136799092919063ffffffff16565b505050505050565b600061159a3061335d565b90506115fb817fffffffffffffffffffffffffffffffffffffffffffffffffffffffffffffffff736b175474e89094c44da98b954eedeac495271d0f73ffffffffffffffffffffffffffffffffffffffff166136799092919063ffffffff16565b8073ffffffffffffffffffffffffffffffffffffffff16631cff79cd61161f6122c2565b63036a239561162c613070565b8787604051602401808473ffffffffffffffffffffffffffffffffffffffff1681526020018373ffffffffffffffffffffffffffffffffffffffff16815260200182815260200193505050506040516020818303038152906040529060e01b6020820180517bffffffffffffffffffffffffffffffffffffffffffffffffffffffff83818316178352505050506040518363ffffffff1660e01b8152600401808373ffffffffffffffffffffffffffffffffffffffff16815260200180602001828103825283818151815260200191508051906020019080838360005b83811015611724578082015181840152602081019050611709565b50505050905090810190601f1680156117515780820380516001836020036101000a031916815260200191505b509350505050602060405180830381600087803b15801561177157600080fd5b505af19250505080156117a557506040513d602081101561179157600080fd5b810190808051906020019092919050505060015b611845576117b16142c5565b806117bc5750611801565b6117fb6040518060400160405280600781526020017f77697065416c6c00000000000000000000000000000000000000000000000000815250826130ca565b50611840565b61183f6040518060400160405280600781526020017f77697065416c6c0000000000000000000000000000000000000000000000000081525061341c565b5b611847565b505b611887816000736b175474e89094c44da98b954eedeac495271d0f73ffffffffffffffffffffffffffffffffffffffff166136799092919063ffffffff16565b505050565b816000611897613070565b905060008173ffffffffffffffffffffffffffffffffffffffff16638161b120846040518263ffffffff1660e01b81526004018082815260200191505060206040518083038186803b1580156118ec57600080fd5b505afa158015611900573d6000803e3d6000fd5b505050506040513d602081101561191657600080fd5b81019080805190602001909291905050509050600061193361308c565b90508173ffffffffffffffffffffffffffffffffffffffff16734678f0a6958e4d2bc4f1baf7bc52e8f3564f3fe473ffffffffffffffffffffffffffffffffffffffff1663c4552791836040518263ffffffff1660e01b8152600401808273ffffffffffffffffffffffffffffffffffffffff16815260200191505060206040518083038186803b1580156119c757600080fd5b505afa1580156119db573d6000803e3d6000fd5b505050506040513d60208110156119f157600080fd5b810190808051906020019092919050505073ffffffffffffffffffffffffffffffffffffffff1614158015611aee575060018373ffffffffffffffffffffffffffffffffffffffff16635aebb4608487856040518463ffffffff1660e01b8152600401808473ffffffffffffffffffffffffffffffffffffffff1681526020018381526020018273ffffffffffffffffffffffffffffffffffffffff168152602001935050505060206040518083038186803b158015611ab057600080fd5b505afa158015611ac4573d6000803e3d6000fd5b505050506040513d6020811015611ada57600080fd5b810190808051906020019092919050505014155b15611b6857611b676040518060400160405280600781526020017f47656e6572616c000000000000000000000000000000000000000000000000008152506040518060400160405280601a81526020017f556e617574686f72697a65642073656e646572206f66206364700000000000008152506130ca565b5b6000611b733061335d565b905060008873ffffffffffffffffffffffffffffffffffffffff16637bd2bea76040518163ffffffff1660e01b815260040160206040518083038186803b158015611bbd57600080fd5b505afa158015611bd1573d6000803e3d6000fd5b505050506040513d6020811015611be757600080fd5b810190808051906020019092919050505090508173ffffffffffffffffffffffffffffffffffffffff16631cff79cd611c1e6122c2565b636ab6a491611c2b613070565b8d8d8d604051602401808573ffffffffffffffffffffffffffffffffffffffff1681526020018473ffffffffffffffffffffffffffffffffffffffff1681526020018381526020018281526020019450505050506040516020818303038152906040529060e01b6020820180517bffffffffffffffffffffffffffffffffffffffffffffffffffffffff83818316178352505050506040518363ffffffff1660e01b8152600401808373ffffffffffffffffffffffffffffffffffffffff16815260200180602001828103825283818151815260200191508051906020019080838360005b83811015611d2b578082015181840152602081019050611d10565b50505050905090810190601f168015611d585780820380516001836020036101000a031916815260200191505b509350505050602060405180830381600087803b158015611d7857600080fd5b505af1925050508015611dac57506040513d6020811015611d9857600080fd5b810190808051906020019092919050505060015b611e4c57611db86142c5565b80611dc35750611e08565b611e026040518060400160405280600781526020017f6672656547656d00000000000000000000000000000000000000000000000000815250826130ca565b50611e47565b611e466040518060400160405280600781526020017f6672656547656d0000000000000000000000000000000000000000000000000081525061341c565b5b611e4e565b505b611e578161383e565b505050505050505050565b600080611e6e3061335d565b905060008773ffffffffffffffffffffffffffffffffffffffff16637bd2bea76040518163ffffffff1660e01b815260040160206040518083038186803b158015611eb857600080fd5b505afa158015611ecc573d6000803e3d6000fd5b505050506040513d6020811015611ee257600080fd5b81019080805190602001909291905050509050611eff818661345e565b9450611f2c82868373ffffffffffffffffffffffffffffffffffffffff166136799092919063ffffffff16565b8173ffffffffffffffffffffffffffffffffffffffff16631cff79cd611f506122c2565b63db802a32611f5d613070565b611f65610857565b8d8d8d8d8d6001604051602401808973ffffffffffffffffffffffffffffffffffffffff1681526020018873ffffffffffffffffffffffffffffffffffffffff1681526020018773ffffffffffffffffffffffffffffffffffffffff1681526020018673ffffffffffffffffffffffffffffffffffffffff1681526020018581526020018481526020018381526020018215158152602001985050505050505050506040516020818303038152906040529060e01b6020820180517bffffffffffffffffffffffffffffffffffffffffffffffffffffffff83818316178352505050506040518363ffffffff1660e01b8152600401808373ffffffffffffffffffffffffffffffffffffffff16815260200180602001828103825283818151815260200191508051906020019080838360005b838110156120b3578082015181840152602081019050612098565b50505050905090810190601f1680156120e05780820380516001836020036101000a031916815260200191505b509350505050602060405180830381600087803b15801561210057600080fd5b505af192505050801561213457506040513d602081101561212057600080fd5b810190808051906020019092919050505060015b6121d4576121406142c5565b8061214b5750612190565b61218a6040518060400160405280601281526020017f6f70656e4c6f636b47656d416e64447261770000000000000000000000000000815250826130ca565b506121cf565b6121ce6040518060400160405280601281526020017f6f70656e4c6f636b47656d416e6444726177000000000000000000000000000081525061341c565b5b6121dc565b8060001c9350505b6122088260008373ffffffffffffffffffffffffffffffffffffffff166136799092919063ffffffff16565b6060600167ffffffffffffffff8111801561222257600080fd5b506040519080825280602002602001820160405280156122515781602001602082028036833780820191505090505b5090508360001b8160008151811061226557fe5b60200260200101818152505061227a816135c1565b50505095945050505050565b670de0b6b3a764000081565b73da0ab1e0017debcd72be8599041a2aa3ba7e740f81565b60016020528060005260406000206000915090505481565b60007382ecd135dce65fbc6dbdd0e4237e0af93ffd5038905090565b60006122ea6000613855565b9050635481e4a460e01b817bffffffffffffffffffffffffffffffffffffffffffffffffffffffff1916148061234557506373af24e760e01b817bffffffffffffffffffffffffffffffffffffffffffffffffffffffff1916145b1561246f5761235f6123576000613887565b60001c6138b9565b6000736b175474e89094c44da98b954eedeac495271d0f73ffffffffffffffffffffffffffffffffffffffff166370a08231306040518263ffffffff1660e01b8152600401808273ffffffffffffffffffffffffffffffffffffffff16815260200191505060206040518083038186803b1580156123dc57600080fd5b505afa1580156123f0573d6000803e3d6000fd5b505050506040513d602081101561240657600080fd5b8101908080519060200190929190505050905060008111156124695761246861242d61308c565b82736b175474e89094c44da98b954eedeac495271d0f73ffffffffffffffffffffffffffffffffffffffff16613b4f9092919063ffffffff16565b5b506124dd565b6040517f08c379a00000000000000000000000000000000000000000000000000000000081526004018080602001828103825260148152602001807f496e76616c696420706f73742070726f6365737300000000000000000000000081525060200191505060405180910390fd5b50565b60006124eb3061335d565b905061252c8183736b175474e89094c44da98b954eedeac495271d0f73ffffffffffffffffffffffffffffffffffffffff166136799092919063ffffffff16565b8073ffffffffffffffffffffffffffffffffffffffff16631cff79cd6125506122c2565b634b66619961255d613070565b888888604051602401808573ffffffffffffffffffffffffffffffffffffffff1681526020018473ffffffffffffffffffffffffffffffffffffffff1681526020018381526020018281526020019450505050506040516020818303038152906040529060e01b6020820180517bffffffffffffffffffffffffffffffffffffffffffffffffffffffff83818316178352505050506040518363ffffffff1660e01b8152600401808373ffffffffffffffffffffffffffffffffffffffff16815260200180602001828103825283818151815260200191508051906020019080838360005b8381101561265d578082015181840152602081019050612642565b50505050905090810190601f16801561268a5780820380516001836020036101000a031916815260200191505b509350505050602060405180830381600087803b1580156126aa57600080fd5b505af19250505080156126de57506040513d60208110156126ca57600080fd5b810190808051906020019092919050505060015b61277e576126ea6142c5565b806126f5575061273a565b6127346040518060400160405280600481526020017f7769706500000000000000000000000000000000000000000000000000000000815250826130ca565b50612779565b6127786040518060400160405280600481526020017f776970650000000000000000000000000000000000000000000000000000000081525061341c565b5b612780565b505b6127c0816000736b175474e89094c44da98b954eedeac495271d0f73ffffffffffffffffffffffffffffffffffffffff166136799092919063ffffffff16565b50505050565b600081815481106127d357fe5b906000526020600020016000915090505481565b736b175474e89094c44da98b954eedeac495271d0f81565b81600061280a613070565b905060008173ffffffffffffffffffffffffffffffffffffffff16638161b120846040518263ffffffff1660e01b81526004018082815260200191505060206040518083038186803b15801561285f57600080fd5b505afa158015612873573d6000803e3d6000fd5b505050506040513d602081101561288957600080fd5b8101908080519060200190929190505050905060006128a661308c565b90508173ffffffffffffffffffffffffffffffffffffffff16734678f0a6958e4d2bc4f1baf7bc52e8f3564f3fe473ffffffffffffffffffffffffffffffffffffffff1663c4552791836040518263ffffffff1660e01b8152600401808273ffffffffffffffffffffffffffffffffffffffff16815260200191505060206040518083038186803b15801561293a57600080fd5b505afa15801561294e573d6000803e3d6000fd5b505050506040513d602081101561296457600080fd5b810190808051906020019092919050505073ffffffffffffffffffffffffffffffffffffffff1614158015612a61575060018373ffffffffffffffffffffffffffffffffffffffff16635aebb4608487856040518463ffffffff1660e01b8152600401808473ffffffffffffffffffffffffffffffffffffffff1681526020018381526020018273ffffffffffffffffffffffffffffffffffffffff168152602001935050505060206040518083038186803b158015612a2357600080fd5b505afa158015612a37573d6000803e3d6000fd5b505050506040513d6020811015612a4d57600080fd5b810190808051906020019092919050505014155b15612adb57612ada6040518060400160405280600781526020017f47656e6572616c000000000000000000000000000000000000000000000000008152506040518060400160405280601a81526020017f556e617574686f72697a65642073656e646572206f66206364700000000000008152506130ca565b5b6000612ae63061335d565b90508073ffffffffffffffffffffffffffffffffffffffff16631cff79cd612b0c6122c2565b639f6f3d5b612b19613070565b612b21610857565b8d8d8d604051602401808673ffffffffffffffffffffffffffffffffffffffff1681526020018573ffffffffffffffffffffffffffffffffffffffff1681526020018473ffffffffffffffffffffffffffffffffffffffff168152602001838152602001828152602001955050505050506040516020818303038152906040529060e01b6020820180517bffffffffffffffffffffffffffffffffffffffffffffffffffffffff83818316178352505050506040518363ffffffff1660e01b8152600401808373ffffffffffffffffffffffffffffffffffffffff16815260200180602001828103825283818151815260200191508051906020019080838360005b83811015612c3e578082015181840152602081019050612c23565b50505050905090810190601f168015612c6b5780820380516001836020036101000a031916815260200191505b509350505050602060405180830381600087803b158015612c8b57600080fd5b505af1925050508015612cbf57506040513d6020811015612cab57600080fd5b810190808051906020019092919050505060015b612d5f57612ccb6142c5565b80612cd65750612d1b565b612d156040518060400160405280600481526020017f6472617700000000000000000000000000000000000000000000000000000000815250826130ca565b50612d5a565b612d596040518060400160405280600481526020017f647261770000000000000000000000000000000000000000000000000000000081525061341c565b5b612d61565b505b612d7e736b175474e89094c44da98b954eedeac495271d0f61383e565b5050505050505050565b60606040518060400160405280600681526020017f484d616b65720000000000000000000000000000000000000000000000000000815250905090565b6000612dd03061335d565b90506000612de4612ddf61308c565b61335d565b9050612df160008661345e565b94508173ffffffffffffffffffffffffffffffffffffffff16631cff79cd86612e186122c2565b63ee284576612e25613070565b898988604051602401808573ffffffffffffffffffffffffffffffffffffffff1681526020018473ffffffffffffffffffffffffffffffffffffffff1681526020018381526020018273ffffffffffffffffffffffffffffffffffffffff1681526020019450505050506040516020818303038152906040529060e01b6020820180517bffffffffffffffffffffffffffffffffffffffffffffffffffffffff83818316178352505050506040518463ffffffff1660e01b8152600401808373ffffffffffffffffffffffffffffffffffffffff16815260200180602001828103825283818151815260200191508051906020019080838360005b83811015612f3b578082015181840152602081019050612f20565b50505050905090810190601f168015612f685780820380516001836020036101000a031916815260200191505b5093505050506020604051808303818588803b158015612f8757600080fd5b505af193505050508015612fbc57506040513d6020811015612fa857600080fd5b810190808051906020019092919050505060015b61305c57612fc86142c5565b80612fd35750613018565b6130126040518060400160405280600b81526020017f736166654c6f636b455448000000000000000000000000000000000000000000815250826130ca565b50613057565b6130566040518060400160405280600b81526020017f736166654c6f636b45544800000000000000000000000000000000000000000081525061341c565b5b61305e565b505b5050505050565b63c272291660e01b81565b6000735ef30b9986345249bc32d8928b7ee64de9435e39905090565b60006130c57fb2f2618cecbbb6e7468cc0f2aa43858ad8d153e0280b22285e28e853bb9d453a60001b6001613bf190919063ffffffff16565b905090565b6130da6130d5613c11565b613c4f565b6130e2612d88565b83836040516020018085805190602001908083835b6020831061311a57805182526020820191506020810190506020830392506130f7565b6001836020036101000a038019825116818451168082178552505050505050905001807f5f0000000000000000000000000000000000000000000000000000000000000081525060010184805190602001908083835b602083106131935780518252602082019150602081019050602083039250613170565b6001836020036101000a038019825116818451168082178552505050505050905001807f5f0000000000000000000000000000000000000000000000000000000000000081525060010183805190602001908083835b6020831061320c57805182526020820191506020810190506020830392506131e9565b6001836020036101000a038019825116818451168082178552505050505050905001807f3a2000000000000000000000000000000000000000000000000000000000000081525060020182805190602001908083835b602083106132855780518252602082019150602081019050602083039250613262565b6001836020036101000a0380198251168184511680821785525050505050509050019450505050506040516020818303038152906040526040517f08c379a00000000000000000000000000000000000000000000000000000000081526004018080602001828103825283818151815260200191508051906020019080838360005b83811015613322578082015181840152602081019050613307565b50505050905090810190601f16801561334f5780820380516001836020036101000a031916815260200191505b509250505060405180910390fd5b6000734678f0a6958e4d2bc4f1baf7bc52e8f3564f3fe473ffffffffffffffffffffffffffffffffffffffff1663c4552791836040518263ffffffff1660e01b8152600401808273ffffffffffffffffffffffffffffffffffffffff16815260200191505060206040518083038186803b1580156133da57600080fd5b505afa1580156133ee573d6000803e3d6000fd5b505050506040513d602081101561340457600080fd5b81019080805190602001909291905050509050919050565b61345b816040518060400160405280600b81526020017f556e7370656369666965640000000000000000000000000000000000000000008152506130ca565b50565b60007fffffffffffffffffffffffffffffffffffffffffffffffffffffffffffffffff821461348f578190506135bb565b600073ffffffffffffffffffffffffffffffffffffffff168373ffffffffffffffffffffffffffffffffffffffff161480613509575073eeeeeeeeeeeeeeeeeeeeeeeeeeeeeeeeeeeeeeee73ffffffffffffffffffffffffffffffffffffffff168373ffffffffffffffffffffffffffffffffffffffff16145b15613516574790506135bb565b8273ffffffffffffffffffffffffffffffffffffffff166370a08231306040518263ffffffff1660e01b8152600401808273ffffffffffffffffffffffffffffffffffffffff16815260200191505060206040518083038186803b15801561357d57600080fd5b505afa158015613591573d6000803e3d6000fd5b505050506040513d60208110156135a757600080fd5b810190808051906020019092919050505090505b92915050565b6000815190505b6000811115613609576135fb8260018303815181106135e357fe5b60200260200101516000613d9690919063ffffffff16565b8080600190039150506135c8565b506136616000357fffffffff00000000000000000000000000000000000000000000000000000000167bffffffffffffffffffffffffffffffffffffffffffffffffffffffff19166000613d9690919063ffffffff16565b61367660016000613dc290919063ffffffff16565b50565b6000811480613747575060008373ffffffffffffffffffffffffffffffffffffffff1663dd62ed3e30856040518363ffffffff1660e01b8152600401808373ffffffffffffffffffffffffffffffffffffffff1681526020018273ffffffffffffffffffffffffffffffffffffffff1681526020019250505060206040518083038186803b15801561370a57600080fd5b505afa15801561371e573d6000803e3d6000fd5b505050506040513d602081101561373457600080fd5b8101908080519060200190929190505050145b61379c576040517f08c379a00000000000000000000000000000000000000000000000000000000081526004018080602001828103825260368152602001806143cc6036913960400191505060405180910390fd5b6138398363095ea7b360e01b8484604051602401808373ffffffffffffffffffffffffffffffffffffffff16815260200182815260200192505050604051602081830303815290604052907bffffffffffffffffffffffffffffffffffffffffffffffffffffffff19166020820180517bffffffffffffffffffffffffffffffffffffffffffffffffffffffff8381831617835250505050613e13565b505050565b613852816000613f0290919063ffffffff16565b50565b600061386082613f47565b90508180548061386c57fe5b60019003818190600052602060002001600090559055919050565b600061389282613f47565b90508180548061389e57fe5b60019003818190600052602060002001600090559055919050565b60006138c43061335d565b90508073ffffffffffffffffffffffffffffffffffffffff16631cff79cd6138ea6122c2565b63493c2049734678f0a6958e4d2bc4f1baf7bc52e8f3564f3fe461390c613070565b8761391561308c565b604051602401808573ffffffffffffffffffffffffffffffffffffffff1681526020018473ffffffffffffffffffffffffffffffffffffffff1681526020018381526020018273ffffffffffffffffffffffffffffffffffffffff1681526020019450505050506040516020818303038152906040529060e01b6020820180517bffffffffffffffffffffffffffffffffffffffffffffffffffffffff83818316178352505050506040518363ffffffff1660e01b8152600401808373ffffffffffffffffffffffffffffffffffffffff16815260200180602001828103825283818151815260200191508051906020019080838360005b83811015613a28578082015181840152602081019050613a0d565b50505050905090810190601f168015613a555780820380516001836020036101000a031916815260200191505b509350505050602060405180830381600087803b158015613a7557600080fd5b505af1925050508015613aa957506040513d6020811015613a9557600080fd5b810190808051906020019092919050505060015b613b4957613ab56142c5565b80613ac05750613b05565b613aff6040518060400160405280600c81526020017f5f7472616e736665724364700000000000000000000000000000000000000000815250826130ca565b50613b44565b613b436040518060400160405280600c81526020017f5f7472616e73666572436470000000000000000000000000000000000000000081525061341c565b5b613b4b565b505b5050565b613bec8363a9059cbb60e01b8484604051602401808373ffffffffffffffffffffffffffffffffffffffff16815260200182815260200192505050604051602081830303815290604052907bffffffffffffffffffffffffffffffffffffffffffffffffffffffff19166020820180517bffffffffffffffffffffffffffffffffffffffffffffffffffffffff8381831617835250505050613e13565b505050565b60008260008381526020019081526020016000205460001c905092915050565b6000613c4a7ff9543f11459ccccd21306c8881aaab675ff49d988c1162fd1dd9bbcdbe4446be60001b6001613fe790919063ffffffff16565b905090565b60606000821415613c97576040518060400160405280600181526020017f30000000000000000000000000000000000000000000000000000000000000008152509050613d91565b6000808390505b6000811115613cc1578180600101925050600a8181613cb957fe5b049050613c9e565b5060608167ffffffffffffffff81118015613cdb57600080fd5b506040519080825280601f01601f191660200182016040528015613d0e5781602001600182028036833780820191505090505b50905060008290505b6000811115613d8a57600a8581613d2a57fe5b0660300160f81b826001830381518110613d4057fe5b60200101907effffffffffffffffffffffffffffffffffffffffffffffffffffffffffffff1916908160001a905350600a8581613d7957fe5b049450808060019003915050613d17565b5080925050505b919050565b818190806001815401808255809150506001900390600052602060002001600090919091909150555050565b81816002811115613dcf57fe5b60a01b908060018154018082558091505060019003906000526020600020016000909173ffffffffffffffffffffffffffffffffffffffff19169091909150555050565b6060613e75826040518060400160405280602081526020017f5361666545524332303a206c6f772d6c6576656c2063616c6c206661696c65648152508573ffffffffffffffffffffffffffffffffffffffff166140079092919063ffffffff16565b9050600081511115613efd57808060200190516020811015613e9657600080fd5b8101908080519060200190929190505050613efc576040517f08c379a000000000000000000000000000000000000000000000000000000000815260040180806020018281038252602a8152602001806143a2602a913960400191505060405180910390fd5b5b505050565b818173ffffffffffffffffffffffffffffffffffffffff1660001b90806001815401808255809150506001900390600052602060002001600090919091909150555050565b600080828054905011613fc2576040517f08c379a000000000000000000000000000000000000000000000000000000000815260040180806020018281038252600b8152602001807f737461636b20656d70747900000000000000000000000000000000000000000081525060200191505060405180910390fd5b81600183805490500381548110613fd557fe5b90600052602060002001549050919050565b60008260008381526020019081526020016000205460001c905092915050565b6060614016848460008561401f565b90509392505050565b60608247101561407a576040517f08c379a000000000000000000000000000000000000000000000000000000000815260040180806020018281038252602681526020018061437c6026913960400191505060405180910390fd5b614083856141c8565b6140f5576040517f08c379a000000000000000000000000000000000000000000000000000000000815260040180806020018281038252601d8152602001807f416464726573733a2063616c6c20746f206e6f6e2d636f6e747261637400000081525060200191505060405180910390fd5b600060608673ffffffffffffffffffffffffffffffffffffffff1685876040518082805190602001908083835b602083106141455780518252602082019150602081019050602083039250614122565b6001836020036101000a03801982511681845116808217855250505050505090500191505060006040518083038185875af1925050503d80600081146141a7576040519150601f19603f3d011682016040523d82523d6000602084013e6141ac565b606091505b50915091506141bc8282866141db565b92505050949350505050565b600080823b905060008111915050919050565b606083156141eb578290506142a0565b6000835111156141fe5782518084602001fd5b816040517f08c379a00000000000000000000000000000000000000000000000000000000081526004018080602001828103825283818151815260200191508051906020019080838360005b8381101561426557808201518184015260208101905061424a565b50505050905090810190601f1680156142925780820380516001836020036101000a031916815260200191505b509250505060405180910390fd5b9392505050565b6000601f19601f8301169050919050565b60008160e01c9050919050565b600060443d10156142d557614378565b60046000803e6142e66000516142b8565b6308c379a081146142f75750614378565b60405160043d036004823e80513d602482011167ffffffffffffffff8211171561432357505050614378565b808201805167ffffffffffffffff811115614342575050505050614378565b8060208301013d850181111561435d57505050505050614378565b614366826142a7565b60208401016040528296505050505050505b9056fe416464726573733a20696e73756666696369656e742062616c616e636520666f722063616c6c5361666545524332303a204552433230206f7065726174696f6e20646964206e6f7420737563636565645361666545524332303a20617070726f76652066726f6d206e6f6e2d7a65726f20746f206e6f6e2d7a65726f20616c6c6f77616e6365a26469706673582212203b82feedc6fb56ae04c5e9645d90178dd014161329727337811fbc28b7586ba464736f6c634300060c0033",
  "devdoc": {
    "kind": "dev",
    "methods": {},
    "version": 1
  },
  "userdoc": {
    "kind": "user",
    "methods": {},
    "version": 1
  },
  "storageLayout": {
    "storage": [
      {
        "astId": 2834,
        "contract": "contracts/handlers/maker/HMaker.sol:HMaker",
        "label": "stack",
        "offset": 0,
        "slot": "0",
        "type": "t_array(t_bytes32)dyn_storage"
      },
      {
        "astId": 2838,
        "contract": "contracts/handlers/maker/HMaker.sol:HMaker",
        "label": "cache",
        "offset": 0,
        "slot": "1",
        "type": "t_mapping(t_bytes32,t_bytes32)"
      }
    ],
    "types": {
      "t_array(t_bytes32)dyn_storage": {
        "base": "t_bytes32",
        "encoding": "dynamic_array",
        "label": "bytes32[]",
        "numberOfBytes": "32"
      },
      "t_bytes32": {
        "encoding": "inplace",
        "label": "bytes32",
        "numberOfBytes": "32"
      },
      "t_mapping(t_bytes32,t_bytes32)": {
        "encoding": "mapping",
        "key": "t_bytes32",
        "label": "mapping(bytes32 => bytes32)",
        "numberOfBytes": "32",
        "value": "t_bytes32"
      }
    }
  }
}