{
  "address": "0x04aeBae3137E6ed50856A3464D2359c5905A4104",
  "abi": [
    {
      "inputs": [],
      "name": "CUBE_COUNTER_KEY",
      "outputs": [
        {
          "internalType": "bytes32",
          "name": "",
          "type": "bytes32"
        }
      ],
      "stateMutability": "view",
      "type": "function"
    },
    {
      "inputs": [],
      "name": "MSG_SENDER_KEY",
      "outputs": [
        {
          "internalType": "bytes32",
          "name": "",
          "type": "bytes32"
        }
      ],
      "stateMutability": "view",
      "type": "function"
    },
    {
      "inputs": [],
      "name": "PERCENTAGE_BASE",
      "outputs": [
        {
          "internalType": "uint256",
          "name": "",
          "type": "uint256"
        }
      ],
      "stateMutability": "view",
      "type": "function"
    },
    {
      "inputs": [],
      "name": "POSTPROCESS_SIG",
      "outputs": [
        {
          "internalType": "bytes4",
          "name": "",
          "type": "bytes4"
        }
      ],
      "stateMutability": "view",
      "type": "function"
    },
    {
      "inputs": [
        {
          "internalType": "bytes32",
          "name": "",
          "type": "bytes32"
        }
      ],
      "name": "cache",
      "outputs": [
        {
          "internalType": "bytes32",
          "name": "",
          "type": "bytes32"
        }
      ],
      "stateMutability": "view",
      "type": "function"
    },
    {
      "inputs": [
        {
          "internalType": "bytes32[]",
          "name": "",
          "type": "bytes32[]"
        }
      ],
      "name": "decode",
      "outputs": [
        {
          "internalType": "address",
          "name": "ret",
          "type": "address"
        }
      ],
      "stateMutability": "view",
      "type": "function"
    },
    {
      "inputs": [],
      "name": "getContractName",
      "outputs": [
        {
          "internalType": "string",
          "name": "",
          "type": "string"
        }
      ],
      "stateMutability": "pure",
      "type": "function"
    },
    {
      "inputs": [],
      "name": "postProcess",
      "outputs": [],
      "stateMutability": "payable",
      "type": "function"
    },
    {
      "inputs": [
        {
          "internalType": "uint256",
          "name": "",
          "type": "uint256"
        }
      ],
      "name": "stack",
      "outputs": [
        {
          "internalType": "bytes32",
          "name": "",
          "type": "bytes32"
        }
      ],
      "stateMutability": "view",
      "type": "function"
    },
    {
      "inputs": [
        {
          "internalType": "contract IAggregationExecutor",
          "name": "caller",
          "type": "address"
        },
        {
          "components": [
            {
              "internalType": "contract IERC20",
              "name": "srcToken",
              "type": "address"
            },
            {
              "internalType": "contract IERC20",
              "name": "dstToken",
              "type": "address"
            },
            {
              "internalType": "address",
              "name": "srcReceiver",
              "type": "address"
            },
            {
              "internalType": "address",
              "name": "dstReceiver",
              "type": "address"
            },
            {
              "internalType": "uint256",
              "name": "amount",
              "type": "uint256"
            },
            {
              "internalType": "uint256",
              "name": "minReturnAmount",
              "type": "uint256"
            },
            {
              "internalType": "uint256",
              "name": "flags",
              "type": "uint256"
            },
            {
              "internalType": "bytes",
              "name": "permit",
              "type": "bytes"
            }
          ],
          "internalType": "struct IAggregationRouterV3.SwapDescriptionV3",
          "name": "desc",
          "type": "tuple"
        },
        {
          "internalType": "bytes",
          "name": "data",
          "type": "bytes"
        }
      ],
      "name": "swap",
      "outputs": [
        {
          "internalType": "uint256",
          "name": "returnAmount",
          "type": "uint256"
        }
      ],
      "stateMutability": "payable",
      "type": "function"
    },
    {
      "inputs": [
        {
          "internalType": "contract IERC20",
          "name": "srcToken",
          "type": "address"
        },
        {
          "internalType": "uint256",
          "name": "amount",
          "type": "uint256"
        },
        {
          "internalType": "uint256",
          "name": "minReturn",
          "type": "uint256"
        },
        {
          "internalType": "bytes32[]",
          "name": "data",
          "type": "bytes32[]"
        }
      ],
      "name": "unoswap",
      "outputs": [
        {
          "internalType": "uint256",
          "name": "returnAmount",
          "type": "uint256"
        }
      ],
      "stateMutability": "payable",
      "type": "function"
    }
  ],
  "transactionHash": "0xf0e84cc71c79981b4f164384177574fc4903d36a70177b13b61561b61c506f21",
  "args": [],
  "solcInputHash": "05a3724dc9e1f283fb20820d17e328b2",
  "bytecode": "0x608060405234801561001057600080fd5b5061218f806100206000396000f3fe60806040526004361061009c5760003560e01c806399eb59b91161006457806399eb59b914610182578063be7e549a146101bf578063c2722916146101fc578063dc9031c414610206578063f5f5ba7214610243578063fa2901a51461026e5761009c565b80630f532d18146100a15780631413dc7d146100cc5780632e95b6c8146100f75780637c0252001461012757806387c1394314610157575b600080fd5b3480156100ad57600080fd5b506100b6610299565b6040516100c39190611c1b565b60405180910390f35b3480156100d857600080fd5b506100e16102c0565b6040516100ee9190611c1b565b60405180910390f35b610111600480360381019061010c9190611532565b6102e7565b60405161011e9190611da8565b60405180910390f35b610141600480360381019061013c9190611485565b6105d7565b60405161014e9190611da8565b60405180910390f35b34801561016357600080fd5b5061016c610903565b6040516101799190611da8565b60405180910390f35b34801561018e57600080fd5b506101a960048036038101906101a4919061145c565b61090f565b6040516101b69190611c1b565b60405180910390f35b3480156101cb57600080fd5b506101e660048036038101906101e191906113ee565b610927565b6040516101f39190611bae565b60405180910390f35b610204610a2f565b005b34801561021257600080fd5b5061022d600480360381019061022891906115b2565b610a6a565b60405161023a9190611c1b565b60405180910390f35b34801561024f57600080fd5b50610258610a8b565b6040516102659190611ce6565b60405180910390f35b34801561027a57600080fd5b50610283610ac8565b6040516102909190611c36565b60405180910390f35b7fb2f2618cecbbb6e7468cc0f2aa43858ad8d153e0280b22285e28e853bb9d453a60001b81565b7ff9543f11459ccccd21306c8881aaab675ff49d988c1162fd1dd9bbcdbe4446be60001b81565b60006102f286610ad3565b1561046057610316867311111112542d85b3ef69ae05771c2dccff4faa2687610b58565b7311111112542d85b3ef69ae05771c2dccff4faa2673ffffffffffffffffffffffffffffffffffffffff16632e95b6c887878787876040518663ffffffff1660e01b815260040161036b959493929190611c98565b602060405180830381600087803b15801561038557600080fd5b505af19250505080156103b657506040513d601f19601f820116820180604052508101906103b391906115db565b60015b610456576103c2612019565b806103cd5750610412565b61040c6040518060400160405280600781526020017f756e6f737761700000000000000000000000000000000000000000000000000081525082610c24565b50610451565b6104506040518060400160405280600781526020017f756e6f7377617000000000000000000000000000000000000000000000000000815250610c9c565b5b61045b565b809150505b6105a7565b7311111112542d85b3ef69ae05771c2dccff4faa2673ffffffffffffffffffffffffffffffffffffffff16632e95b6c88688888888886040518763ffffffff1660e01b81526004016104b6959493929190611c98565b6020604051808303818588803b1580156104cf57600080fd5b505af19350505050801561050157506040513d601f19601f820116820180604052508101906104fe91906115db565b60015b6105a15761050d612019565b80610518575061055d565b6105576040518060400160405280600781526020017f756e6f737761700000000000000000000000000000000000000000000000000081525082610c24565b5061059c565b61059b6040518060400160405280600781526020017f756e6f7377617000000000000000000000000000000000000000000000000000815250610c9c565b5b6105a6565b809150505b5b60006105b38484610927565b90506105be81610ad3565b156105cd576105cc81610cde565b5b5095945050505050565b60006105f48460000160208101906105ef9190611509565b610ad3565b156107765761062e84600001602081019061060f9190611509565b7311111112542d85b3ef69ae05771c2dccff4faa268660800135610b58565b7311111112542d85b3ef69ae05771c2dccff4faa2673ffffffffffffffffffffffffffffffffffffffff16637c025200868686866040518563ffffffff1660e01b81526004016106819493929190611c51565b6040805180830381600087803b15801561069a57600080fd5b505af19250505080156106cb57506040513d601f19601f820116820180604052508101906106c89190611604565b60015b61076b576106d7612019565b806106e25750610727565b6107216040518060400160405280600481526020017f737761700000000000000000000000000000000000000000000000000000000081525082610c24565b50610766565b6107656040518060400160405280600481526020017f7377617000000000000000000000000000000000000000000000000000000000815250610c9c565b5b610771565b81925050505b6108bf565b7311111112542d85b3ef69ae05771c2dccff4faa2673ffffffffffffffffffffffffffffffffffffffff16637c0252008560800135878787876040518663ffffffff1660e01b81526004016107ce9493929190611c51565b60408051808303818588803b1580156107e657600080fd5b505af19350505050801561081857506040513d601f19601f820116820180604052508101906108159190611604565b60015b6108b857610824612019565b8061082f5750610874565b61086e6040518060400160405280600481526020017f737761700000000000000000000000000000000000000000000000000000000081525082610c24565b506108b3565b6108b26040518060400160405280600481526020017f7377617000000000000000000000000000000000000000000000000000000000815250610c9c565b5b6108be565b81925050505b5b6108da8460200160208101906108d59190611509565b610ad3565b156108fb576108fa8460200160208101906108f59190611509565b610cde565b5b949350505050565b670de0b6b3a764000081565b60016020528060005260406000206000915090505481565b6000610938565b3d6000803e3d6000fd5b602036033573ffffffffffffffffffffffffffffffffffffffff8116604051602081016040527f40000000000000000000000000000000000000000000000000000000000000008316600081146109925760009450610a25565b7f80000000000000000000000000000000000000000000000000000000000000008416600081146109e5577f0dfe1681000000000000000000000000000000000000000000000000000000008352610a09565b7fd21220a70000000000000000000000000000000000000000000000000000000083525b50602082600484865afa610a2057610a1f61092e565b5b815194505b5050505092915050565b6040517f08c379a0000000000000000000000000000000000000000000000000000000008152600401610a6190611d28565b60405180910390fd5b60008181548110610a7757fe5b906000526020600020016000915090505481565b60606040518060400160405280600a81526020017f484f6e65496e6368563300000000000000000000000000000000000000000000815250905090565b63c272291660e01b81565b60008073ffffffffffffffffffffffffffffffffffffffff168273ffffffffffffffffffffffffffffffffffffffff1614158015610b51575073eeeeeeeeeeeeeeeeeeeeeeeeeeeeeeeeeeeeeeee73ffffffffffffffffffffffffffffffffffffffff168273ffffffffffffffffffffffffffffffffffffffff1614155b9050919050565b8273ffffffffffffffffffffffffffffffffffffffff1663095ea7b383836040518363ffffffff1660e01b8152600401610b93929190611bf2565b600060405180830381600087803b158015610bad57600080fd5b505af1925050508015610bbe575060015b610c1e57610bee8260008573ffffffffffffffffffffffffffffffffffffffff16610cf59092919063ffffffff16565b610c1982828573ffffffffffffffffffffffffffffffffffffffff16610cf59092919063ffffffff16565b610c1f565b5b505050565b610c34610c2f610e53565b610e91565b610c3c610a8b565b8383604051602001610c519493929190611b4f565b6040516020818303038152906040526040517f08c379a0000000000000000000000000000000000000000000000000000000008152600401610c939190611ce6565b60405180910390fd5b610cdb816040518060400160405280600b81526020017f556e737065636966696564000000000000000000000000000000000000000000815250610c24565b50565b610cf2816000610fd890919063ffffffff16565b50565b6000811480610d8e575060008373ffffffffffffffffffffffffffffffffffffffff1663dd62ed3e30856040518363ffffffff1660e01b8152600401610d3c929190611bc9565b60206040518083038186803b158015610d5457600080fd5b505afa158015610d68573d6000803e3d6000fd5b505050506040513d601f19601f82011682018060405250810190610d8c91906115db565b145b610dcd576040517f08c379a0000000000000000000000000000000000000000000000000000000008152600401610dc490611d88565b60405180910390fd5b610e4e8363095ea7b360e01b8484604051602401610dec929190611bf2565b604051602081830303815290604052907bffffffffffffffffffffffffffffffffffffffffffffffffffffffff19166020820180517bffffffffffffffffffffffffffffffffffffffffffffffffffffffff838183161783525050505061101d565b505050565b6000610e8c7ff9543f11459ccccd21306c8881aaab675ff49d988c1162fd1dd9bbcdbe4446be60001b60016110e490919063ffffffff16565b905090565b60606000821415610ed9576040518060400160405280600181526020017f30000000000000000000000000000000000000000000000000000000000000008152509050610fd3565b6000808390505b6000811115610f03578180600101925050600a8181610efb57fe5b049050610ee0565b5060608167ffffffffffffffff81118015610f1d57600080fd5b506040519080825280601f01601f191660200182016040528015610f505781602001600182028036833780820191505090505b50905060008290505b6000811115610fcc57600a8581610f6c57fe5b0660300160f81b826001830381518110610f8257fe5b60200101907effffffffffffffffffffffffffffffffffffffffffffffffffffffffffffff1916908160001a905350600a8581610fbb57fe5b049450808060019003915050610f59565b5080925050505b919050565b818173ffffffffffffffffffffffffffffffffffffffff1660001b90806001815401808255809150506001900390600052602060002001600090919091909150555050565b606061107f826040518060400160405280602081526020017f5361666545524332303a206c6f772d6c6576656c2063616c6c206661696c65648152508573ffffffffffffffffffffffffffffffffffffffff166111049092919063ffffffff16565b90506000815111156110df578080602001905181019061109f9190611433565b6110de576040517f08c379a00000000000000000000000000000000000000000000000000000000081526004016110d590611d68565b60405180910390fd5b5b505050565b60008260008381526020019081526020016000205460001c905092915050565b6060611113848460008561111c565b90509392505050565b606082471015611161576040517f08c379a000000000000000000000000000000000000000000000000000000000815260040161115890611d08565b60405180910390fd5b61116a85611231565b6111a9576040517f08c379a00000000000000000000000000000000000000000000000000000000081526004016111a090611d48565b60405180910390fd5b600060608673ffffffffffffffffffffffffffffffffffffffff1685876040516111d39190611b38565b60006040518083038185875af1925050503d8060008114611210576040519150601f19603f3d011682016040523d82523d6000602084013e611215565b606091505b5091509150611225828286611244565b92505050949350505050565b600080823b905060008111915050919050565b60608315611254578290506112a4565b6000835111156112675782518084602001fd5b816040517f08c379a000000000000000000000000000000000000000000000000000000000815260040161129b9190611ce6565b60405180910390fd5b9392505050565b6000813590506112ba816120cf565b92915050565b60008083601f8401126112d257600080fd5b8235905067ffffffffffffffff8111156112eb57600080fd5b60208301915083602082028301111561130357600080fd5b9250929050565b600081519050611319816120e6565b92915050565b60008135905061132e816120fd565b92915050565b60008083601f84011261134657600080fd5b8235905067ffffffffffffffff81111561135f57600080fd5b60208301915083600182028301111561137757600080fd5b9250929050565b60008135905061138d81612114565b92915050565b6000813590506113a28161212b565b92915050565b600061010082840312156113bb57600080fd5b81905092915050565b6000813590506113d381612142565b92915050565b6000815190506113e881612142565b92915050565b6000806020838503121561140157600080fd5b600083013567ffffffffffffffff81111561141b57600080fd5b611427858286016112c0565b92509250509250929050565b60006020828403121561144557600080fd5b60006114538482850161130a565b91505092915050565b60006020828403121561146e57600080fd5b600061147c8482850161131f565b91505092915050565b6000806000806060858703121561149b57600080fd5b60006114a98782880161137e565b945050602085013567ffffffffffffffff8111156114c657600080fd5b6114d2878288016113a8565b935050604085013567ffffffffffffffff8111156114ef57600080fd5b6114fb87828801611334565b925092505092959194509250565b60006020828403121561151b57600080fd5b600061152984828501611393565b91505092915050565b60008060008060006080868803121561154a57600080fd5b600061155888828901611393565b9550506020611569888289016113c4565b945050604061157a888289016113c4565b935050606086013567ffffffffffffffff81111561159757600080fd5b6115a3888289016112c0565b92509250509295509295909350565b6000602082840312156115c457600080fd5b60006115d2848285016113c4565b91505092915050565b6000602082840312156115ed57600080fd5b60006115fb848285016113d9565b91505092915050565b6000806040838503121561161757600080fd5b6000611625858286016113d9565b9250506020611636858286016113d9565b9150509250929050565b61164981611ecf565b82525050565b61165881611ecf565b82525050565b600061166a8385611dd9565b93507f07ffffffffffffffffffffffffffffffffffffffffffffffffffffffffffffff83111561169957600080fd5b6020830292506116aa838584611fb9565b82840190509392505050565b6116bf81611eed565b82525050565b6116ce81611ef7565b82525050565b60006116e08385611dea565b93506116ed838584611fb9565b6116f683611ffb565b840190509392505050565b600061170d8385611dfb565b935061171a838584611fb9565b61172383611ffb565b840190509392505050565b600061173982611dc3565b6117438185611e0c565b9350611753818560208601611fc8565b80840191505092915050565b61176881611f71565b82525050565b61177781611f95565b82525050565b61178681611f95565b82525050565b600061179782611dce565b6117a18185611e17565b93506117b1818560208601611fc8565b6117ba81611ffb565b840191505092915050565b60006117d082611dce565b6117da8185611e28565b93506117ea818560208601611fc8565b80840191505092915050565b6000611803602683611e17565b91507f416464726573733a20696e73756666696369656e742062616c616e636520666f60008301527f722063616c6c00000000000000000000000000000000000000000000000000006020830152604082019050919050565b6000611869601483611e17565b91507f496e76616c696420706f73742070726f636573730000000000000000000000006000830152602082019050919050565b60006118a9601d83611e17565b91507f416464726573733a2063616c6c20746f206e6f6e2d636f6e74726163740000006000830152602082019050919050565b60006118e9600183611e28565b91507f5f000000000000000000000000000000000000000000000000000000000000006000830152600182019050919050565b6000611929602a83611e17565b91507f5361666545524332303a204552433230206f7065726174696f6e20646964206e60008301527f6f742073756363656564000000000000000000000000000000000000000000006020830152604082019050919050565b600061198f600283611e28565b91507f3a200000000000000000000000000000000000000000000000000000000000006000830152600282019050919050565b60006119cf603683611e17565b91507f5361666545524332303a20617070726f76652066726f6d206e6f6e2d7a65726f60008301527f20746f206e6f6e2d7a65726f20616c6c6f77616e6365000000000000000000006020830152604082019050919050565b60006101008301611a3c6000840184611ea1565b611a49600086018261176e565b50611a576020840184611ea1565b611a64602086018261176e565b50611a726040840184611e33565b611a7f6040860182611640565b50611a8d6060840184611e33565b611a9a6060860182611640565b50611aa86080840184611eb8565b611ab56080860182611b1a565b50611ac360a0840184611eb8565b611ad060a0860182611b1a565b50611ade60c0840184611eb8565b611aeb60c0860182611b1a565b50611af960e0840184611e4a565b85830360e0870152611b0c8382846116d4565b925050508091505092915050565b611b2381611f67565b82525050565b611b3281611f67565b82525050565b6000611b44828461172e565b915081905092915050565b6000611b5b82876117c5565b9150611b66826118dc565b9150611b7282866117c5565b9150611b7d826118dc565b9150611b8982856117c5565b9150611b9482611982565b9150611ba082846117c5565b915081905095945050505050565b6000602082019050611bc3600083018461164f565b92915050565b6000604082019050611bde600083018561164f565b611beb602083018461164f565b9392505050565b6000604082019050611c07600083018561164f565b611c146020830184611b29565b9392505050565b6000602082019050611c3060008301846116b6565b92915050565b6000602082019050611c4b60008301846116c5565b92915050565b6000606082019050611c66600083018761175f565b8181036020830152611c788186611a28565b90508181036040830152611c8d818486611701565b905095945050505050565b6000608082019050611cad600083018861177d565b611cba6020830187611b29565b611cc76040830186611b29565b8181036060830152611cda81848661165e565b90509695505050505050565b60006020820190508181036000830152611d00818461178c565b905092915050565b60006020820190508181036000830152611d21816117f6565b9050919050565b60006020820190508181036000830152611d418161185c565b9050919050565b60006020820190508181036000830152611d618161189c565b9050919050565b60006020820190508181036000830152611d818161191c565b9050919050565b60006020820190508181036000830152611da1816119c2565b9050919050565b6000602082019050611dbd6000830184611b29565b92915050565b600081519050919050565b600081519050919050565b600082825260208201905092915050565b600082825260208201905092915050565b600082825260208201905092915050565b600081905092915050565b600082825260208201905092915050565b600081905092915050565b6000611e4260208401846112ab565b905092915050565b60008083356001602003843603038112611e6357600080fd5b83810192508235915060208301925067ffffffffffffffff821115611e8757600080fd5b600182023603841315611e9957600080fd5b509250929050565b6000611eb06020840184611393565b905092915050565b6000611ec760208401846113c4565b905092915050565b6000611eda82611f47565b9050919050565b60008115159050919050565b6000819050919050565b60007fffffffff0000000000000000000000000000000000000000000000000000000082169050919050565b6000611f2e82611ecf565b9050919050565b6000611f4082611ecf565b9050919050565b600073ffffffffffffffffffffffffffffffffffffffff82169050919050565b6000819050919050565b6000611f7c82611f83565b9050919050565b6000611f8e82611f47565b9050919050565b6000611fa082611fa7565b9050919050565b6000611fb282611f47565b9050919050565b82818337600083830152505050565b60005b83811015611fe6578082015181840152602081019050611fcb565b83811115611ff5576000848401525b50505050565b6000601f19601f8301169050919050565b60008160e01c9050919050565b600060443d1015612029576120cc565b60046000803e61203a60005161200c565b6308c379a0811461204b57506120cc565b60405160043d036004823e80513d602482011167ffffffffffffffff82111715612077575050506120cc565b808201805167ffffffffffffffff8111156120965750505050506120cc565b8060208301013d85018111156120b1575050505050506120cc565b6120ba82611ffb565b60208401016040528296505050505050505b90565b6120d881611ecf565b81146120e357600080fd5b50565b6120ef81611ee1565b81146120fa57600080fd5b50565b61210681611eed565b811461211157600080fd5b50565b61211d81611f23565b811461212857600080fd5b50565b61213481611f35565b811461213f57600080fd5b50565b61214b81611f67565b811461215657600080fd5b5056fea2646970667358221220ee03f03f8321a0c3dd0ff6e3332c71be131610af2dac28b76ca99a7a4d576f8564736f6c634300060c0033",
  "devdoc": {
    "kind": "dev",
    "methods": {},
    "version": 1
  },
  "userdoc": {
    "kind": "user",
    "methods": {},
    "version": 1
  },
  "storageLayout": {
    "storage": [
      {
        "astId": 2834,
        "contract": "contracts/handlers/oneinchV3/HOneInchV3.sol:HOneInchV3",
        "label": "stack",
        "offset": 0,
        "slot": "0",
        "type": "t_array(t_bytes32)dyn_storage"
      },
      {
        "astId": 2838,
        "contract": "contracts/handlers/oneinchV3/HOneInchV3.sol:HOneInchV3",
        "label": "cache",
        "offset": 0,
        "slot": "1",
        "type": "t_mapping(t_bytes32,t_bytes32)"
      }
    ],
    "types": {
      "t_array(t_bytes32)dyn_storage": {
        "base": "t_bytes32",
        "encoding": "dynamic_array",
        "label": "bytes32[]",
        "numberOfBytes": "32"
      },
      "t_bytes32": {
        "encoding": "inplace",
        "label": "bytes32",
        "numberOfBytes": "32"
      },
      "t_mapping(t_bytes32,t_bytes32)": {
        "encoding": "mapping",
        "key": "t_bytes32",
        "label": "mapping(bytes32 => bytes32)",
        "numberOfBytes": "32",
        "value": "t_bytes32"
      }
    }
  }
}