{
  "address": "0xEDd163d3AB7EAd88Ce7FBF300D4aa6269f7ce68d",
  "abi": [
    {
      "inputs": [],
      "name": "CUBE_COUNTER_KEY",
      "outputs": [
        {
          "internalType": "bytes32",
          "name": "",
          "type": "bytes32"
        }
      ],
      "stateMutability": "view",
      "type": "function"
    },
    {
      "inputs": [],
      "name": "ETH_ADDRESS",
      "outputs": [
        {
          "internalType": "address",
          "name": "",
          "type": "address"
        }
      ],
      "stateMutability": "view",
      "type": "function"
    },
    {
      "inputs": [],
      "name": "MSG_SENDER_KEY",
      "outputs": [
        {
          "internalType": "bytes32",
          "name": "",
          "type": "bytes32"
        }
      ],
      "stateMutability": "view",
      "type": "function"
    },
    {
      "inputs": [],
      "name": "ONEINCH_SPENDER",
      "outputs": [
        {
          "internalType": "address",
          "name": "",
          "type": "address"
        }
      ],
      "stateMutability": "view",
      "type": "function"
    },
    {
      "inputs": [],
      "name": "PERCENTAGE_BASE",
      "outputs": [
        {
          "internalType": "uint256",
          "name": "",
          "type": "uint256"
        }
      ],
      "stateMutability": "view",
      "type": "function"
    },
    {
      "inputs": [],
      "name": "POSTPROCESS_SIG",
      "outputs": [
        {
          "internalType": "bytes4",
          "name": "",
          "type": "bytes4"
        }
      ],
      "stateMutability": "view",
      "type": "function"
    },
    {
      "inputs": [],
      "name": "REFERRER",
      "outputs": [
        {
          "internalType": "address",
          "name": "",
          "type": "address"
        }
      ],
      "stateMutability": "view",
      "type": "function"
    },
    {
      "inputs": [
        {
          "internalType": "bytes32",
          "name": "",
          "type": "bytes32"
        }
      ],
      "name": "cache",
      "outputs": [
        {
          "internalType": "bytes32",
          "name": "",
          "type": "bytes32"
        }
      ],
      "stateMutability": "view",
      "type": "function"
    },
    {
      "inputs": [],
      "name": "getContractName",
      "outputs": [
        {
          "internalType": "string",
          "name": "",
          "type": "string"
        }
      ],
      "stateMutability": "pure",
      "type": "function"
    },
    {
      "inputs": [],
      "name": "postProcess",
      "outputs": [],
      "stateMutability": "payable",
      "type": "function"
    },
    {
      "inputs": [
        {
          "internalType": "uint256",
          "name": "",
          "type": "uint256"
        }
      ],
      "name": "stack",
      "outputs": [
        {
          "internalType": "bytes32",
          "name": "",
          "type": "bytes32"
        }
      ],
      "stateMutability": "view",
      "type": "function"
    },
    {
      "inputs": [
        {
          "internalType": "contract IOneInchCaller",
          "name": "caller",
          "type": "address"
        },
        {
          "components": [
            {
              "internalType": "contract IERC20",
              "name": "srcToken",
              "type": "address"
            },
            {
              "internalType": "contract IERC20",
              "name": "dstToken",
              "type": "address"
            },
            {
              "internalType": "address",
              "name": "srcReceiver",
              "type": "address"
            },
            {
              "internalType": "address",
              "name": "dstReceiver",
              "type": "address"
            },
            {
              "internalType": "uint256",
              "name": "amount",
              "type": "uint256"
            },
            {
              "internalType": "uint256",
              "name": "minReturnAmount",
              "type": "uint256"
            },
            {
              "internalType": "uint256",
              "name": "guaranteedAmount",
              "type": "uint256"
            },
            {
              "internalType": "uint256",
              "name": "flags",
              "type": "uint256"
            },
            {
              "internalType": "address",
              "name": "referrer",
              "type": "address"
            },
            {
              "internalType": "bytes",
              "name": "permit",
              "type": "bytes"
            }
          ],
          "internalType": "struct IOneInchExchangeV2.SwapDescription",
          "name": "desc",
          "type": "tuple"
        },
        {
          "components": [
            {
              "internalType": "uint256",
              "name": "targetWithMandatory",
              "type": "uint256"
            },
            {
              "internalType": "uint256",
              "name": "gasLimit",
              "type": "uint256"
            },
            {
              "internalType": "uint256",
              "name": "value",
              "type": "uint256"
            },
            {
              "internalType": "bytes",
              "name": "data",
              "type": "bytes"
            }
          ],
          "internalType": "struct IOneInchCaller.CallDescription[]",
          "name": "calls",
          "type": "tuple[]"
        }
      ],
      "name": "swap",
      "outputs": [
        {
          "internalType": "uint256",
          "name": "returnAmount",
          "type": "uint256"
        }
      ],
      "stateMutability": "payable",
      "type": "function"
    }
  ],
  "transactionHash": "0x6a7da490585e2d8139955573a4a215a349864a05c808fa51e2e8b5cb5a4ffc3e",
  "args": [],
  "solcInputHash": "05a3724dc9e1f283fb20820d17e328b2",
  "bytecode": "0x608060405234801561001057600080fd5b50611e07806100206000396000f3fe6080604052600436106100a75760003560e01c8063a734f06e11610064578063a734f06e146101c5578063c0560374146101f0578063c27229161461021b578063dc9031c414610225578063f5f5ba7214610262578063fa2901a51461028d576100a7565b80630f532d18146100ac5780631413dc7d146100d757806387c139431461010257806390411a321461012d578063975662021461015d57806399eb59b914610188575b600080fd5b3480156100b857600080fd5b506100c16102b8565b6040516100ce919061188c565b60405180910390f35b3480156100e357600080fd5b506100ec6102df565b6040516100f9919061188c565b60405180910390f35b34801561010e57600080fd5b50610117610306565b60405161012491906119cb565b60405180910390f35b61014760048036038101906101429190611141565b610312565b60405161015491906119cb565b60405180910390f35b34801561016957600080fd5b50610172610729565b60405161017f919061181f565b60405180910390f35b34801561019457600080fd5b506101af60048036038101906101aa9190611118565b610741565b6040516101bc919061188c565b60405180910390f35b3480156101d157600080fd5b506101da610759565b6040516101e7919061181f565b60405180910390f35b3480156101fc57600080fd5b50610205610771565b604051610212919061181f565b60405180910390f35b610223610789565b005b34801561023157600080fd5b5061024c600480360381019061024791906111c5565b6107c4565b604051610259919061188c565b60405180910390f35b34801561026e57600080fd5b506102776107e5565b6040516102849190611909565b60405180910390f35b34801561029957600080fd5b506102a2610822565b6040516102af91906118a7565b60405180910390f35b7fb2f2618cecbbb6e7468cc0f2aa43858ad8d153e0280b22285e28e853bb9d453a60001b81565b7ff9543f11459ccccd21306c8881aaab675ff49d988c1162fd1dd9bbcdbe4446be60001b81565b670de0b6b3a764000081565b600073bcb909975715dc8fde643ee44b89e3fd6a35a25984610100019073ffffffffffffffffffffffffffffffffffffffff16908173ffffffffffffffffffffffffffffffffffffffff168152505073eeeeeeeeeeeeeeeeeeeeeeeeeeeeeeeeeeeeeeee73ffffffffffffffffffffffffffffffffffffffff16846000015173ffffffffffffffffffffffffffffffffffffffff161461057f576103f373111111125434b319222cdbf8c261674adb56f3ae8560800151866000015173ffffffffffffffffffffffffffffffffffffffff1661082d9092919063ffffffff16565b73111111125434b319222cdbf8c261674adb56f3ae73ffffffffffffffffffffffffffffffffffffffff166390411a32868686866040518563ffffffff1660e01b815260040161044694939291906118c2565b602060405180830381600087803b15801561046057600080fd5b505af192505050801561049157506040513d601f19601f8201168201806040525081019061048e91906111ee565b60015b6105315761049d611c91565b806104a857506104ed565b6104e76040518060400160405280600481526020017f73776170000000000000000000000000000000000000000000000000000000008152508261098b565b5061052c565b61052b6040518060400160405280600481526020017f7377617000000000000000000000000000000000000000000000000000000000815250610a03565b5b610536565b809150505b61057a73111111125434b319222cdbf8c261674adb56f3ae6000866000015173ffffffffffffffffffffffffffffffffffffffff1661082d9092919063ffffffff16565b6106c8565b73111111125434b319222cdbf8c261674adb56f3ae73ffffffffffffffffffffffffffffffffffffffff166390411a328560800151878787876040518663ffffffff1660e01b81526004016105d794939291906118c2565b6020604051808303818588803b1580156105f057600080fd5b505af19350505050801561062257506040513d601f19601f8201168201806040525081019061061f91906111ee565b60015b6106c25761062e611c91565b80610639575061067e565b6106786040518060400160405280600481526020017f73776170000000000000000000000000000000000000000000000000000000008152508261098b565b506106bd565b6106bc6040518060400160405280600481526020017f7377617000000000000000000000000000000000000000000000000000000000815250610a03565b5b6106c7565b809150505b5b73eeeeeeeeeeeeeeeeeeeeeeeeeeeeeeeeeeeeeeee73ffffffffffffffffffffffffffffffffffffffff16846020015173ffffffffffffffffffffffffffffffffffffffff1614610721576107208460200151610a45565b5b949350505050565b73111111125434b319222cdbf8c261674adb56f3ae81565b60016020528060005260406000206000915090505481565b73eeeeeeeeeeeeeeeeeeeeeeeeeeeeeeeeeeeeeeee81565b73bcb909975715dc8fde643ee44b89e3fd6a35a25981565b6040517f08c379a00000000000000000000000000000000000000000000000000000000081526004016107bb9061194b565b60405180910390fd5b600081815481106107d157fe5b906000526020600020016000915090505481565b60606040518060400160405280600a81526020017f484f6e65496e6368563200000000000000000000000000000000000000000000815250905090565b63c272291660e01b81565b60008114806108c6575060008373ffffffffffffffffffffffffffffffffffffffff1663dd62ed3e30856040518363ffffffff1660e01b815260040161087492919061183a565b60206040518083038186803b15801561088c57600080fd5b505afa1580156108a0573d6000803e3d6000fd5b505050506040513d601f19601f820116820180604052508101906108c491906111ee565b145b610905576040517f08c379a00000000000000000000000000000000000000000000000000000000081526004016108fc906119ab565b60405180910390fd5b6109868363095ea7b360e01b8484604051602401610924929190611863565b604051602081830303815290604052907bffffffffffffffffffffffffffffffffffffffffffffffffffffffff19166020820180517bffffffffffffffffffffffffffffffffffffffffffffffffffffffff8381831617835250505050610a5c565b505050565b61099b610996610b23565b610b61565b6109a36107e5565b83836040516020016109b894939291906117c0565b6040516020818303038152906040526040517f08c379a00000000000000000000000000000000000000000000000000000000081526004016109fa9190611909565b60405180910390fd5b610a42816040518060400160405280600b81526020017f556e73706563696669656400000000000000000000000000000000000000000081525061098b565b50565b610a59816000610ca890919063ffffffff16565b50565b6060610abe826040518060400160405280602081526020017f5361666545524332303a206c6f772d6c6576656c2063616c6c206661696c65648152508573ffffffffffffffffffffffffffffffffffffffff16610ced9092919063ffffffff16565b9050600081511115610b1e5780806020019051810190610ade91906110ef565b610b1d576040517f08c379a0000000000000000000000000000000000000000000000000000000008152600401610b149061198b565b60405180910390fd5b5b505050565b6000610b5c7ff9543f11459ccccd21306c8881aaab675ff49d988c1162fd1dd9bbcdbe4446be60001b6001610d0590919063ffffffff16565b905090565b60606000821415610ba9576040518060400160405280600181526020017f30000000000000000000000000000000000000000000000000000000000000008152509050610ca3565b6000808390505b6000811115610bd3578180600101925050600a8181610bcb57fe5b049050610bb0565b5060608167ffffffffffffffff81118015610bed57600080fd5b506040519080825280601f01601f191660200182016040528015610c205781602001600182028036833780820191505090505b50905060008290505b6000811115610c9c57600a8581610c3c57fe5b0660300160f81b826001830381518110610c5257fe5b60200101907effffffffffffffffffffffffffffffffffffffffffffffffffffffffffffff1916908160001a905350600a8581610c8b57fe5b049450808060019003915050610c29565b5080925050505b919050565b818173ffffffffffffffffffffffffffffffffffffffff1660001b90806001815401808255809150506001900390600052602060002001600090919091909150555050565b6060610cfc8484600085610d25565b90509392505050565b60008260008381526020019081526020016000205460001c905092915050565b606082471015610d6a576040517f08c379a0000000000000000000000000000000000000000000000000000000008152600401610d619061192b565b60405180910390fd5b610d7385610e3a565b610db2576040517f08c379a0000000000000000000000000000000000000000000000000000000008152600401610da99061196b565b60405180910390fd5b600060608673ffffffffffffffffffffffffffffffffffffffff168587604051610ddc91906117a9565b60006040518083038185875af1925050503d8060008114610e19576040519150601f19603f3d011682016040523d82523d6000602084013e610e1e565b606091505b5091509150610e2e828286610e4d565b92505050949350505050565b600080823b905060008111915050919050565b60608315610e5d57829050610ead565b600083511115610e705782518084602001fd5b816040517f08c379a0000000000000000000000000000000000000000000000000000000008152600401610ea49190611909565b60405180910390fd5b9392505050565b600081359050610ec381611d47565b92915050565b60008083601f840112610edb57600080fd5b8235905067ffffffffffffffff811115610ef457600080fd5b602083019150836020820283011115610f0c57600080fd5b9250929050565b600081519050610f2281611d5e565b92915050565b600081359050610f3781611d75565b92915050565b600082601f830112610f4e57600080fd5b8135610f61610f5c82611a13565b6119e6565b91508082526020830160208301858383011115610f7d57600080fd5b610f88838284611c31565b50505092915050565b600081359050610fa081611d8c565b92915050565b600081359050610fb581611da3565b92915050565b60006101408284031215610fce57600080fd5b610fd96101406119e6565b90506000610fe984828501610f91565b6000830152506020610ffd84828501610f91565b602083015250604061101184828501610eb4565b604083015250606061102584828501610eb4565b6060830152506080611039848285016110c5565b60808301525060a061104d848285016110c5565b60a08301525060c0611061848285016110c5565b60c08301525060e0611075848285016110c5565b60e08301525061010061108a84828501610eb4565b6101008301525061012082013567ffffffffffffffff8111156110ac57600080fd5b6110b884828501610f3d565b6101208301525092915050565b6000813590506110d481611dba565b92915050565b6000815190506110e981611dba565b92915050565b60006020828403121561110157600080fd5b600061110f84828501610f13565b91505092915050565b60006020828403121561112a57600080fd5b600061113884828501610f28565b91505092915050565b6000806000806060858703121561115757600080fd5b600061116587828801610fa6565b945050602085013567ffffffffffffffff81111561118257600080fd5b61118e87828801610fbb565b935050604085013567ffffffffffffffff8111156111ab57600080fd5b6111b787828801610ec9565b925092505092959194509250565b6000602082840312156111d757600080fd5b60006111e5848285016110c5565b91505092915050565b60006020828403121561120057600080fd5b600061120e848285016110da565b91505092915050565b6000611223838361162c565b905092915050565b61123481611b47565b82525050565b61124381611b47565b82525050565b60006112558385611a6c565b93508360208402850161126784611a3f565b8060005b878110156112ab5784840389526112828284611b0c565b61128c8582611217565b945061129783611a5f565b925060208a0199505060018101905061126b565b50829750879450505050509392505050565b6112c681611b65565b82525050565b6112d581611b6f565b82525050565b60006112e78385611a7d565b93506112f4838584611c31565b6112fd83611c73565b840190509392505050565b600061131382611a49565b61131d8185611a7d565b935061132d818560208601611c40565b61133681611c73565b840191505092915050565b600061134c82611a49565b6113568185611a8e565b9350611366818560208601611c40565b80840191505092915050565b61137b81611be9565b82525050565b61138a81611c0d565b82525050565b600061139b82611a54565b6113a58185611a99565b93506113b5818560208601611c40565b6113be81611c73565b840191505092915050565b60006113d482611a54565b6113de8185611aaa565b93506113ee818560208601611c40565b80840191505092915050565b6000611407602683611a99565b91507f416464726573733a20696e73756666696369656e742062616c616e636520666f60008301527f722063616c6c00000000000000000000000000000000000000000000000000006020830152604082019050919050565b600061146d601483611a99565b91507f496e76616c696420706f73742070726f636573730000000000000000000000006000830152602082019050919050565b60006114ad601d83611a99565b91507f416464726573733a2063616c6c20746f206e6f6e2d636f6e74726163740000006000830152602082019050919050565b60006114ed600183611aaa565b91507f5f000000000000000000000000000000000000000000000000000000000000006000830152600182019050919050565b600061152d602a83611a99565b91507f5361666545524332303a204552433230206f7065726174696f6e20646964206e60008301527f6f742073756363656564000000000000000000000000000000000000000000006020830152604082019050919050565b6000611593600283611aaa565b91507f3a200000000000000000000000000000000000000000000000000000000000006000830152600282019050919050565b60006115d3603683611a99565b91507f5361666545524332303a20617070726f76652066726f6d206e6f6e2d7a65726f60008301527f20746f206e6f6e2d7a65726f20616c6c6f77616e6365000000000000000000006020830152604082019050919050565b60006080830161163f6000840184611b30565b61164c600086018261178b565b5061165a6020840184611b30565b611667602086018261178b565b506116756040840184611b30565b611682604086018261178b565b506116906060840184611ab5565b85830360608701526116a38382846112db565b925050508091505092915050565b6000610140830160008301516116ca6000860182611372565b5060208301516116dd6020860182611372565b5060408301516116f0604086018261122b565b506060830151611703606086018261122b565b506080830151611716608086018261178b565b5060a083015161172960a086018261178b565b5060c083015161173c60c086018261178b565b5060e083015161174f60e086018261178b565b5061010083015161176461010086018261122b565b5061012083015184820361012086015261177e8282611308565b9150508091505092915050565b61179481611bdf565b82525050565b6117a381611bdf565b82525050565b60006117b58284611341565b915081905092915050565b60006117cc82876113c9565b91506117d7826114e0565b91506117e382866113c9565b91506117ee826114e0565b91506117fa82856113c9565b915061180582611586565b915061181182846113c9565b915081905095945050505050565b6000602082019050611834600083018461123a565b92915050565b600060408201905061184f600083018561123a565b61185c602083018461123a565b9392505050565b6000604082019050611878600083018561123a565b611885602083018461179a565b9392505050565b60006020820190506118a160008301846112bd565b92915050565b60006020820190506118bc60008301846112cc565b92915050565b60006060820190506118d76000830187611381565b81810360208301526118e981866116b1565b905081810360408301526118fe818486611249565b905095945050505050565b600060208201905081810360008301526119238184611390565b905092915050565b60006020820190508181036000830152611944816113fa565b9050919050565b6000602082019050818103600083015261196481611460565b9050919050565b60006020820190508181036000830152611984816114a0565b9050919050565b600060208201905081810360008301526119a481611520565b9050919050565b600060208201905081810360008301526119c4816115c6565b9050919050565b60006020820190506119e0600083018461179a565b92915050565b6000604051905081810181811067ffffffffffffffff82111715611a0957600080fd5b8060405250919050565b600067ffffffffffffffff821115611a2a57600080fd5b601f19601f8301169050602081019050919050565b6000819050919050565b600081519050919050565b600081519050919050565b6000602082019050919050565b600082825260208201905092915050565b600082825260208201905092915050565b600081905092915050565b600082825260208201905092915050565b600081905092915050565b60008083356001602003843603038112611ace57600080fd5b83810192508235915060208301925067ffffffffffffffff821115611af257600080fd5b600182023603841315611b0457600080fd5b509250929050565b600082356001608003833603038112611b2457600080fd5b82810191505092915050565b6000611b3f60208401846110c5565b905092915050565b6000611b5282611bbf565b9050919050565b60008115159050919050565b6000819050919050565b60007fffffffff0000000000000000000000000000000000000000000000000000000082169050919050565b6000611ba682611b47565b9050919050565b6000611bb882611b47565b9050919050565b600073ffffffffffffffffffffffffffffffffffffffff82169050919050565b6000819050919050565b6000611bf482611bfb565b9050919050565b6000611c0682611bbf565b9050919050565b6000611c1882611c1f565b9050919050565b6000611c2a82611bbf565b9050919050565b82818337600083830152505050565b60005b83811015611c5e578082015181840152602081019050611c43565b83811115611c6d576000848401525b50505050565b6000601f19601f8301169050919050565b60008160e01c9050919050565b600060443d1015611ca157611d44565b60046000803e611cb2600051611c84565b6308c379a08114611cc35750611d44565b60405160043d036004823e80513d602482011167ffffffffffffffff82111715611cef57505050611d44565b808201805167ffffffffffffffff811115611d0e575050505050611d44565b8060208301013d8501811115611d2957505050505050611d44565b611d3282611c73565b60208401016040528296505050505050505b90565b611d5081611b47565b8114611d5b57600080fd5b50565b611d6781611b59565b8114611d7257600080fd5b50565b611d7e81611b65565b8114611d8957600080fd5b50565b611d9581611b9b565b8114611da057600080fd5b50565b611dac81611bad565b8114611db757600080fd5b50565b611dc381611bdf565b8114611dce57600080fd5b5056fea2646970667358221220c032c004789ec56ed007eda9d88e593ee279fea50ef7645fe94a74a54c70fb6064736f6c634300060c0033",
  "devdoc": {
    "kind": "dev",
    "methods": {},
    "version": 1
  },
  "userdoc": {
    "kind": "user",
    "methods": {},
    "version": 1
  },
  "storageLayout": {
    "storage": [
      {
        "astId": 2834,
        "contract": "contracts/handlers/oneinchV2/HOneInchExchange.sol:HOneInchExchange",
        "label": "stack",
        "offset": 0,
        "slot": "0",
        "type": "t_array(t_bytes32)dyn_storage"
      },
      {
        "astId": 2838,
        "contract": "contracts/handlers/oneinchV2/HOneInchExchange.sol:HOneInchExchange",
        "label": "cache",
        "offset": 0,
        "slot": "1",
        "type": "t_mapping(t_bytes32,t_bytes32)"
      }
    ],
    "types": {
      "t_array(t_bytes32)dyn_storage": {
        "base": "t_bytes32",
        "encoding": "dynamic_array",
        "label": "bytes32[]",
        "numberOfBytes": "32"
      },
      "t_bytes32": {
        "encoding": "inplace",
        "label": "bytes32",
        "numberOfBytes": "32"
      },
      "t_mapping(t_bytes32,t_bytes32)": {
        "encoding": "mapping",
        "key": "t_bytes32",
        "label": "mapping(bytes32 => bytes32)",
        "numberOfBytes": "32",
        "value": "t_bytes32"
      }
    }
  }
}