{
  "address": "0xf82dD121803ef47C1D05158855C4d4f417855AB2",
  "abi": [
    {
      "anonymous": false,
      "inputs": [
        {
          "indexed": true,
          "internalType": "address",
          "name": "sender",
          "type": "address"
        },
        {
          "indexed": true,
          "internalType": "address",
          "name": "token",
          "type": "address"
        },
        {
          "indexed": false,
          "internalType": "uint256",
          "name": "amount",
          "type": "uint256"
        }
      ],
      "name": "PolygonBridged",
      "type": "event"
    },
    {
      "inputs": [],
      "name": "CUBE_COUNTER_KEY",
      "outputs": [
        {
          "internalType": "bytes32",
          "name": "",
          "type": "bytes32"
        }
      ],
      "stateMutability": "view",
      "type": "function"
    },
    {
      "inputs": [],
      "name": "ETH_ADDRESS",
      "outputs": [
        {
          "internalType": "address",
          "name": "",
          "type": "address"
        }
      ],
      "stateMutability": "view",
      "type": "function"
    },
    {
      "inputs": [],
      "name": "MATIC_ADDRESS",
      "outputs": [
        {
          "internalType": "address",
          "name": "",
          "type": "address"
        }
      ],
      "stateMutability": "view",
      "type": "function"
    },
    {
      "inputs": [],
      "name": "MSG_SENDER_KEY",
      "outputs": [
        {
          "internalType": "bytes32",
          "name": "",
          "type": "bytes32"
        }
      ],
      "stateMutability": "view",
      "type": "function"
    },
    {
      "inputs": [],
      "name": "PERCENTAGE_BASE",
      "outputs": [
        {
          "internalType": "uint256",
          "name": "",
          "type": "uint256"
        }
      ],
      "stateMutability": "view",
      "type": "function"
    },
    {
      "inputs": [],
      "name": "PLASMA_MANAGER",
      "outputs": [
        {
          "internalType": "contract IDepositManager",
          "name": "",
          "type": "address"
        }
      ],
      "stateMutability": "view",
      "type": "function"
    },
    {
      "inputs": [],
      "name": "POSTPROCESS_SIG",
      "outputs": [
        {
          "internalType": "bytes4",
          "name": "",
          "type": "bytes4"
        }
      ],
      "stateMutability": "view",
      "type": "function"
    },
    {
      "inputs": [],
      "name": "POS_MANAGER",
      "outputs": [
        {
          "internalType": "contract IRootChainManager",
          "name": "",
          "type": "address"
        }
      ],
      "stateMutability": "view",
      "type": "function"
    },
    {
      "inputs": [],
      "name": "POS_PREDICATE_ERC20",
      "outputs": [
        {
          "internalType": "address",
          "name": "",
          "type": "address"
        }
      ],
      "stateMutability": "view",
      "type": "function"
    },
    {
      "inputs": [
        {
          "internalType": "bytes32",
          "name": "",
          "type": "bytes32"
        }
      ],
      "name": "cache",
      "outputs": [
        {
          "internalType": "bytes32",
          "name": "",
          "type": "bytes32"
        }
      ],
      "stateMutability": "view",
      "type": "function"
    },
    {
      "inputs": [
        {
          "internalType": "address",
          "name": "token",
          "type": "address"
        },
        {
          "internalType": "uint256",
          "name": "amount",
          "type": "uint256"
        }
      ],
      "name": "depositERC20",
      "outputs": [],
      "stateMutability": "payable",
      "type": "function"
    },
    {
      "inputs": [
        {
          "internalType": "uint256",
          "name": "value",
          "type": "uint256"
        }
      ],
      "name": "depositEther",
      "outputs": [],
      "stateMutability": "payable",
      "type": "function"
    },
    {
      "inputs": [],
      "name": "getContractName",
      "outputs": [
        {
          "internalType": "string",
          "name": "",
          "type": "string"
        }
      ],
      "stateMutability": "pure",
      "type": "function"
    },
    {
      "inputs": [],
      "name": "postProcess",
      "outputs": [],
      "stateMutability": "payable",
      "type": "function"
    },
    {
      "inputs": [
        {
          "internalType": "uint256",
          "name": "",
          "type": "uint256"
        }
      ],
      "name": "stack",
      "outputs": [
        {
          "internalType": "bytes32",
          "name": "",
          "type": "bytes32"
        }
      ],
      "stateMutability": "view",
      "type": "function"
    }
  ],
  "transactionHash": "0x7030a5e559c633adaa708de1ef46f60d1e8b14ed41de41d209e590695004efb9",
  "args": [],
  "solcInputHash": "05a3724dc9e1f283fb20820d17e328b2",
  "bytecode": "0x608060405234801561001057600080fd5b50611a81806100206000396000f3fe6080604052600436106100e85760003560e01c806399eb59b91161008a578063dc9031c411610059578063dc9031c414610347578063e50eb4c814610396578063f5f5ba72146103d7578063fa2901a514610467576100e8565b806399eb59b91461026c578063a734f06e146102bb578063c2722916146102fc578063c71ffe5d14610306576100e8565b80631413dc7d116100c65780631413dc7d1461019a57806326839f17146101c557806387c13943146101f357806397feb9261461021e576100e8565b80630278b670146100ed5780630bd85ca71461012e5780630f532d181461016f575b600080fd5b3480156100f957600080fd5b506101026104b1565b604051808273ffffffffffffffffffffffffffffffffffffffff16815260200191505060405180910390f35b34801561013a57600080fd5b506101436104c9565b604051808273ffffffffffffffffffffffffffffffffffffffff16815260200191505060405180910390f35b34801561017b57600080fd5b506101846104e1565b6040518082815260200191505060405180910390f35b3480156101a657600080fd5b506101af610508565b6040518082815260200191505060405180910390f35b6101f1600480360360208110156101db57600080fd5b810190808035906020019092919050505061052f565b005b3480156101ff57600080fd5b506102086106f5565b6040518082815260200191505060405180910390f35b61026a6004803603604081101561023457600080fd5b81019080803573ffffffffffffffffffffffffffffffffffffffff16906020019092919080359060200190929190505050610701565b005b34801561027857600080fd5b506102a56004803603602081101561028f57600080fd5b8101908080359060200190929190505050610b43565b6040518082815260200191505060405180910390f35b3480156102c757600080fd5b506102d0610b5b565b604051808273ffffffffffffffffffffffffffffffffffffffff16815260200191505060405180910390f35b610304610b73565b005b34801561031257600080fd5b5061031b610be1565b604051808273ffffffffffffffffffffffffffffffffffffffff16815260200191505060405180910390f35b34801561035357600080fd5b506103806004803603602081101561036a57600080fd5b8101908080359060200190929190505050610bf9565b6040518082815260200191505060405180910390f35b3480156103a257600080fd5b506103ab610c1a565b604051808273ffffffffffffffffffffffffffffffffffffffff16815260200191505060405180910390f35b3480156103e357600080fd5b506103ec610c32565b6040518080602001828103825283818151815260200191508051906020019080838360005b8381101561042c578082015181840152602081019050610411565b50505050905090810190601f1680156104595780820380516001836020036101000a031916815260200191505b509250505060405180910390f35b34801561047357600080fd5b5061047c610c6f565b60405180827bffffffffffffffffffffffffffffffffffffffffffffffffffffffff1916815260200191505060405180910390f35b73a0c68c638235ee32657e8f720a23cec1bfc77c7781565b737d1afa7b718fb893db30a3abc0cfc608aacfebb081565b7fb2f2618cecbbb6e7468cc0f2aa43858ad8d153e0280b22285e28e853bb9d453a60001b81565b7ff9543f11459ccccd21306c8881aaab675ff49d988c1162fd1dd9bbcdbe4446be60001b81565b6000610539610c7a565b9050610546600083610cb8565b915073a0c68c638235ee32657e8f720a23cec1bfc77c7773ffffffffffffffffffffffffffffffffffffffff16634faa8a2683836040518363ffffffff1660e01b8152600401808273ffffffffffffffffffffffffffffffffffffffff1681526020019150506000604051808303818588803b1580156105c557600080fd5b505af1935050505080156105d7575060015b610677576105e361190f565b806105ee5750610633565b61062d6040518060400160405280600c81526020017f6465706f7369744574686572000000000000000000000000000000000000000081525082610e1b565b50610672565b6106716040518060400160405280600c81526020017f6465706f736974457468657200000000000000000000000000000000000000008152506110ae565b5b610678565b5b73eeeeeeeeeeeeeeeeeeeeeeeeeeeeeeeeeeeeeeee73ffffffffffffffffffffffffffffffffffffffff168173ffffffffffffffffffffffffffffffffffffffff167f3dad4cff57d5936bbc3bf46df565c9f1545c580c0efef238c7363402b42ba864846040518082815260200191505060405180910390a35050565b670de0b6b3a764000081565b600061070b610c7a565b90506107178383610cb8565b9150737d1afa7b718fb893db30a3abc0cfc608aacfebb073ffffffffffffffffffffffffffffffffffffffff168373ffffffffffffffffffffffffffffffffffffffff1614156108da576107808373401f6c983ea34274ec46f84d70b31c151321188b846110f0565b73401f6c983ea34274ec46f84d70b31c151321188b73ffffffffffffffffffffffffffffffffffffffff16638b9e4f938483856040518463ffffffff1660e01b8152600401808473ffffffffffffffffffffffffffffffffffffffff1681526020018373ffffffffffffffffffffffffffffffffffffffff1681526020018281526020019350505050600060405180830381600087803b15801561082357600080fd5b505af1925050508015610834575060015b6108d45761084061190f565b8061084b5750610890565b61088a6040518060400160405280600c81526020017f6465706f7369744552433230000000000000000000000000000000000000000081525082610e1b565b506108cf565b6108ce6040518060400160405280600c81526020017f6465706f736974455243323000000000000000000000000000000000000000008152506110ae565b5b6108d5565b5b610ad9565b60608260405160200180828152602001915050604051602081830303815290604052905061091d847340ec5b33f54e0e8a33a975908c5ba1c14e5bbbdf856110f0565b73a0c68c638235ee32657e8f720a23cec1bfc77c7773ffffffffffffffffffffffffffffffffffffffff1663e3dec8fb8386846040518463ffffffff1660e01b8152600401808473ffffffffffffffffffffffffffffffffffffffff1681526020018373ffffffffffffffffffffffffffffffffffffffff16815260200180602001828103825283818151815260200191508051906020019080838360005b838110156109d75780820151818401526020810190506109bc565b50505050905090810190601f168015610a045780820380516001836020036101000a031916815260200191505b50945050505050600060405180830381600087803b158015610a2557600080fd5b505af1925050508015610a36575060015b610ad657610a4261190f565b80610a4d5750610a92565b610a8c6040518060400160405280600c81526020017f6465706f7369744552433230000000000000000000000000000000000000000081525082610e1b565b50610ad1565b610ad06040518060400160405280600c81526020017f6465706f736974455243323000000000000000000000000000000000000000008152506110ae565b5b610ad7565b5b505b8273ffffffffffffffffffffffffffffffffffffffff168173ffffffffffffffffffffffffffffffffffffffff167f3dad4cff57d5936bbc3bf46df565c9f1545c580c0efef238c7363402b42ba864846040518082815260200191505060405180910390a3505050565b60016020528060005260406000206000915090505481565b73eeeeeeeeeeeeeeeeeeeeeeeeeeeeeeeeeeeeeeee81565b6040517f08c379a00000000000000000000000000000000000000000000000000000000081526004018080602001828103825260148152602001807f496e76616c696420706f73742070726f6365737300000000000000000000000081525060200191505060405180910390fd5b7340ec5b33f54e0e8a33a975908c5ba1c14e5bbbdf81565b60008181548110610c0657fe5b906000526020600020016000915090505481565b73401f6c983ea34274ec46f84d70b31c151321188b81565b60606040518060400160405280600881526020017f48506f6c79676f6e000000000000000000000000000000000000000000000000815250905090565b63c272291660e01b81565b6000610cb37fb2f2618cecbbb6e7468cc0f2aa43858ad8d153e0280b22285e28e853bb9d453a60001b60016111d890919063ffffffff16565b905090565b60007fffffffffffffffffffffffffffffffffffffffffffffffffffffffffffffffff8214610ce957819050610e15565b600073ffffffffffffffffffffffffffffffffffffffff168373ffffffffffffffffffffffffffffffffffffffff161480610d63575073eeeeeeeeeeeeeeeeeeeeeeeeeeeeeeeeeeeeeeee73ffffffffffffffffffffffffffffffffffffffff168373ffffffffffffffffffffffffffffffffffffffff16145b15610d7057479050610e15565b8273ffffffffffffffffffffffffffffffffffffffff166370a08231306040518263ffffffff1660e01b8152600401808273ffffffffffffffffffffffffffffffffffffffff16815260200191505060206040518083038186803b158015610dd757600080fd5b505afa158015610deb573d6000803e3d6000fd5b505050506040513d6020811015610e0157600080fd5b810190808051906020019092919050505090505b92915050565b610e2b610e266111f8565b611236565b610e33610c32565b83836040516020018085805190602001908083835b60208310610e6b5780518252602082019150602081019050602083039250610e48565b6001836020036101000a038019825116818451168082178552505050505050905001807f5f0000000000000000000000000000000000000000000000000000000000000081525060010184805190602001908083835b60208310610ee45780518252602082019150602081019050602083039250610ec1565b6001836020036101000a038019825116818451168082178552505050505050905001807f5f0000000000000000000000000000000000000000000000000000000000000081525060010183805190602001908083835b60208310610f5d5780518252602082019150602081019050602083039250610f3a565b6001836020036101000a038019825116818451168082178552505050505050905001807f3a2000000000000000000000000000000000000000000000000000000000000081525060020182805190602001908083835b60208310610fd65780518252602082019150602081019050602083039250610fb3565b6001836020036101000a0380198251168184511680821785525050505050509050019450505050506040516020818303038152906040526040517f08c379a00000000000000000000000000000000000000000000000000000000081526004018080602001828103825283818151815260200191508051906020019080838360005b83811015611073578082015181840152602081019050611058565b50505050905090810190601f1680156110a05780820380516001836020036101000a031916815260200191505b509250505060405180910390fd5b6110ed816040518060400160405280600b81526020017f556e737065636966696564000000000000000000000000000000000000000000815250610e1b565b50565b8273ffffffffffffffffffffffffffffffffffffffff1663095ea7b383836040518363ffffffff1660e01b8152600401808373ffffffffffffffffffffffffffffffffffffffff16815260200182815260200192505050600060405180830381600087803b15801561116157600080fd5b505af1925050508015611172575060015b6111d2576111a28260008573ffffffffffffffffffffffffffffffffffffffff1661137d9092919063ffffffff16565b6111cd82828573ffffffffffffffffffffffffffffffffffffffff1661137d9092919063ffffffff16565b6111d3565b5b505050565b60008260008381526020019081526020016000205460001c905092915050565b60006112317ff9543f11459ccccd21306c8881aaab675ff49d988c1162fd1dd9bbcdbe4446be60001b600161154290919063ffffffff16565b905090565b6060600082141561127e576040518060400160405280600181526020017f30000000000000000000000000000000000000000000000000000000000000008152509050611378565b6000808390505b60008111156112a8578180600101925050600a81816112a057fe5b049050611285565b5060608167ffffffffffffffff811180156112c257600080fd5b506040519080825280601f01601f1916602001820160405280156112f55781602001600182028036833780820191505090505b50905060008290505b600081111561137157600a858161131157fe5b0660300160f81b82600183038151811061132757fe5b60200101907effffffffffffffffffffffffffffffffffffffffffffffffffffffffffffff1916908160001a905350600a858161136057fe5b0494508080600190039150506112fe565b5080925050505b919050565b600081148061144b575060008373ffffffffffffffffffffffffffffffffffffffff1663dd62ed3e30856040518363ffffffff1660e01b8152600401808373ffffffffffffffffffffffffffffffffffffffff1681526020018273ffffffffffffffffffffffffffffffffffffffff1681526020019250505060206040518083038186803b15801561140e57600080fd5b505afa158015611422573d6000803e3d6000fd5b505050506040513d602081101561143857600080fd5b8101908080519060200190929190505050145b6114a0576040517f08c379a0000000000000000000000000000000000000000000000000000000008152600401808060200182810382526036815260200180611a166036913960400191505060405180910390fd5b61153d8363095ea7b360e01b8484604051602401808373ffffffffffffffffffffffffffffffffffffffff16815260200182815260200192505050604051602081830303815290604052907bffffffffffffffffffffffffffffffffffffffffffffffffffffffff19166020820180517bffffffffffffffffffffffffffffffffffffffffffffffffffffffff8381831617835250505050611562565b505050565b60008260008381526020019081526020016000205460001c905092915050565b60606115c4826040518060400160405280602081526020017f5361666545524332303a206c6f772d6c6576656c2063616c6c206661696c65648152508573ffffffffffffffffffffffffffffffffffffffff166116519092919063ffffffff16565b905060008151111561164c578080602001905160208110156115e557600080fd5b810190808051906020019092919050505061164b576040517f08c379a000000000000000000000000000000000000000000000000000000000815260040180806020018281038252602a8152602001806119ec602a913960400191505060405180910390fd5b5b505050565b60606116608484600085611669565b90509392505050565b6060824710156116c4576040517f08c379a00000000000000000000000000000000000000000000000000000000081526004018080602001828103825260268152602001806119c66026913960400191505060405180910390fd5b6116cd85611812565b61173f576040517f08c379a000000000000000000000000000000000000000000000000000000000815260040180806020018281038252601d8152602001807f416464726573733a2063616c6c20746f206e6f6e2d636f6e747261637400000081525060200191505060405180910390fd5b600060608673ffffffffffffffffffffffffffffffffffffffff1685876040518082805190602001908083835b6020831061178f578051825260208201915060208101905060208303925061176c565b6001836020036101000a03801982511681845116808217855250505050505090500191505060006040518083038185875af1925050503d80600081146117f1576040519150601f19603f3d011682016040523d82523d6000602084013e6117f6565b606091505b5091509150611806828286611825565b92505050949350505050565b600080823b905060008111915050919050565b60608315611835578290506118ea565b6000835111156118485782518084602001fd5b816040517f08c379a00000000000000000000000000000000000000000000000000000000081526004018080602001828103825283818151815260200191508051906020019080838360005b838110156118af578082015181840152602081019050611894565b50505050905090810190601f1680156118dc5780820380516001836020036101000a031916815260200191505b509250505060405180910390fd5b9392505050565b6000601f19601f8301169050919050565b60008160e01c9050919050565b600060443d101561191f576119c2565b60046000803e611930600051611902565b6308c379a0811461194157506119c2565b60405160043d036004823e80513d602482011167ffffffffffffffff8211171561196d575050506119c2565b808201805167ffffffffffffffff81111561198c5750505050506119c2565b8060208301013d85018111156119a7575050505050506119c2565b6119b0826118f1565b60208401016040528296505050505050505b9056fe416464726573733a20696e73756666696369656e742062616c616e636520666f722063616c6c5361666545524332303a204552433230206f7065726174696f6e20646964206e6f7420737563636565645361666545524332303a20617070726f76652066726f6d206e6f6e2d7a65726f20746f206e6f6e2d7a65726f20616c6c6f77616e6365a264697066735822122049f211d7cce21ac1cadf17a6529f2a37c732f044a000ac434270fa3b532b4e5964736f6c634300060c0033",
  "devdoc": {
    "kind": "dev",
    "methods": {},
    "version": 1
  },
  "userdoc": {
    "kind": "user",
    "methods": {},
    "version": 1
  },
  "storageLayout": {
    "storage": [
      {
        "astId": 2834,
        "contract": "contracts/handlers/polygon/HPolygon.sol:HPolygon",
        "label": "stack",
        "offset": 0,
        "slot": "0",
        "type": "t_array(t_bytes32)dyn_storage"
      },
      {
        "astId": 2838,
        "contract": "contracts/handlers/polygon/HPolygon.sol:HPolygon",
        "label": "cache",
        "offset": 0,
        "slot": "1",
        "type": "t_mapping(t_bytes32,t_bytes32)"
      }
    ],
    "types": {
      "t_array(t_bytes32)dyn_storage": {
        "base": "t_bytes32",
        "encoding": "dynamic_array",
        "label": "bytes32[]",
        "numberOfBytes": "32"
      },
      "t_bytes32": {
        "encoding": "inplace",
        "label": "bytes32",
        "numberOfBytes": "32"
      },
      "t_mapping(t_bytes32,t_bytes32)": {
        "encoding": "mapping",
        "key": "t_bytes32",
        "label": "mapping(bytes32 => bytes32)",
        "numberOfBytes": "32",
        "value": "t_bytes32"
      }
    }
  }
}