{
  "address": "0x6262640bdd96B483575BA4fEE55C6dfd8f547d25",
  "abi": [
    {
      "inputs": [],
      "name": "CETH_ADDRESS",
      "outputs": [
        {
          "internalType": "address",
          "name": "",
          "type": "address"
        }
      ],
      "stateMutability": "view",
      "type": "function"
    },
    {
      "inputs": [],
      "name": "COMPTROLLER",
      "outputs": [
        {
          "internalType": "address",
          "name": "",
          "type": "address"
        }
      ],
      "stateMutability": "view",
      "type": "function"
    },
    {
      "inputs": [],
      "name": "COMP_ADDRESS",
      "outputs": [
        {
          "internalType": "address",
          "name": "",
          "type": "address"
        }
      ],
      "stateMutability": "view",
      "type": "function"
    },
    {
      "inputs": [],
      "name": "CUBE_COUNTER_KEY",
      "outputs": [
        {
          "internalType": "bytes32",
          "name": "",
          "type": "bytes32"
        }
      ],
      "stateMutability": "view",
      "type": "function"
    },
    {
      "inputs": [],
      "name": "ETH_ADDRESS",
      "outputs": [
        {
          "internalType": "address",
          "name": "",
          "type": "address"
        }
      ],
      "stateMutability": "view",
      "type": "function"
    },
    {
      "inputs": [],
      "name": "FCOMPOUND_ACTIONS",
      "outputs": [
        {
          "internalType": "address",
          "name": "",
          "type": "address"
        }
      ],
      "stateMutability": "view",
      "type": "function"
    },
    {
      "inputs": [],
      "name": "MSG_SENDER_KEY",
      "outputs": [
        {
          "internalType": "bytes32",
          "name": "",
          "type": "bytes32"
        }
      ],
      "stateMutability": "view",
      "type": "function"
    },
    {
      "inputs": [],
      "name": "PERCENTAGE_BASE",
      "outputs": [
        {
          "internalType": "uint256",
          "name": "",
          "type": "uint256"
        }
      ],
      "stateMutability": "view",
      "type": "function"
    },
    {
      "inputs": [],
      "name": "POSTPROCESS_SIG",
      "outputs": [
        {
          "internalType": "bytes4",
          "name": "",
          "type": "bytes4"
        }
      ],
      "stateMutability": "view",
      "type": "function"
    },
    {
      "inputs": [
        {
          "internalType": "address",
          "name": "dsProxy",
          "type": "address"
        },
        {
          "internalType": "address",
          "name": "cTokenIn",
          "type": "address"
        },
        {
          "internalType": "address",
          "name": "cTokenBorrow",
          "type": "address"
        },
        {
          "internalType": "uint256",
          "name": "cAmountIn",
          "type": "uint256"
        },
        {
          "internalType": "uint256",
          "name": "uBorrowAmount",
          "type": "uint256"
        },
        {
          "internalType": "bool",
          "name": "enterMarket",
          "type": "bool"
        }
      ],
      "name": "borrow",
      "outputs": [],
      "stateMutability": "payable",
      "type": "function"
    },
    {
      "inputs": [
        {
          "internalType": "bytes32",
          "name": "",
          "type": "bytes32"
        }
      ],
      "name": "cache",
      "outputs": [
        {
          "internalType": "bytes32",
          "name": "",
          "type": "bytes32"
        }
      ],
      "stateMutability": "view",
      "type": "function"
    },
    {
      "inputs": [
        {
          "internalType": "address",
          "name": "dsProxy",
          "type": "address"
        }
      ],
      "name": "claimComp",
      "outputs": [
        {
          "internalType": "uint256",
          "name": "",
          "type": "uint256"
        }
      ],
      "stateMutability": "payable",
      "type": "function"
    },
    {
      "inputs": [
        {
          "internalType": "address",
          "name": "dsProxy",
          "type": "address"
        },
        {
          "internalType": "address",
          "name": "token",
          "type": "address"
        },
        {
          "internalType": "uint256",
          "name": "amount",
          "type": "uint256"
        }
      ],
      "name": "deposit",
      "outputs": [],
      "stateMutability": "payable",
      "type": "function"
    },
    {
      "inputs": [
        {
          "internalType": "address",
          "name": "dsProxy",
          "type": "address"
        },
        {
          "internalType": "address",
          "name": "cToken",
          "type": "address"
        }
      ],
      "name": "enterMarket",
      "outputs": [],
      "stateMutability": "payable",
      "type": "function"
    },
    {
      "inputs": [
        {
          "internalType": "address",
          "name": "dsProxy",
          "type": "address"
        },
        {
          "internalType": "address[]",
          "name": "cTokens",
          "type": "address[]"
        }
      ],
      "name": "enterMarkets",
      "outputs": [],
      "stateMutability": "payable",
      "type": "function"
    },
    {
      "inputs": [
        {
          "internalType": "address",
          "name": "dsProxy",
          "type": "address"
        },
        {
          "internalType": "address",
          "name": "cToken",
          "type": "address"
        }
      ],
      "name": "exitMarket",
      "outputs": [],
      "stateMutability": "payable",
      "type": "function"
    },
    {
      "inputs": [],
      "name": "getContractName",
      "outputs": [
        {
          "internalType": "string",
          "name": "",
          "type": "string"
        }
      ],
      "stateMutability": "pure",
      "type": "function"
    },
    {
      "inputs": [],
      "name": "postProcess",
      "outputs": [],
      "stateMutability": "payable",
      "type": "function"
    },
    {
      "inputs": [
        {
          "internalType": "address",
          "name": "dsProxy",
          "type": "address"
        },
        {
          "internalType": "address",
          "name": "cTokenRepay",
          "type": "address"
        },
        {
          "internalType": "address",
          "name": "cTokenWithdraw",
          "type": "address"
        },
        {
          "internalType": "uint256",
          "name": "uRepayAmount",
          "type": "uint256"
        },
        {
          "internalType": "uint256",
          "name": "cWithdrawAmount",
          "type": "uint256"
        }
      ],
      "name": "repayBorrow",
      "outputs": [],
      "stateMutability": "payable",
      "type": "function"
    },
    {
      "inputs": [
        {
          "internalType": "uint256",
          "name": "",
          "type": "uint256"
        }
      ],
      "name": "stack",
      "outputs": [
        {
          "internalType": "bytes32",
          "name": "",
          "type": "bytes32"
        }
      ],
      "stateMutability": "view",
      "type": "function"
    },
    {
      "inputs": [
        {
          "internalType": "address",
          "name": "dsProxy",
          "type": "address"
        },
        {
          "internalType": "address",
          "name": "token",
          "type": "address"
        },
        {
          "internalType": "uint256",
          "name": "amount",
          "type": "uint256"
        }
      ],
      "name": "withdraw",
      "outputs": [],
      "stateMutability": "payable",
      "type": "function"
    }
  ],
  "transactionHash": "0x6af2bda48b25c0910ab2d4f99c18862a061df820be2cb7c14ae03d20bcfa2ec6",
  "args": [],
  "solcInputHash": "05a3724dc9e1f283fb20820d17e328b2",
  "bytecode": "0x608060405234801561001057600080fd5b506135e8806100206000396000f3fe60806040526004361061012a5760003560e01c8063a734f06e116100ab578063dc9031c41161006f578063dc9031c4146105cb578063e9af02921461061a578063f53cc4b314610672578063f5f5ba72146106d6578063fa2901a514610766578063fffdb6a0146107b05761012a565b8063a734f06e14610490578063b2b8b7dc146104d1578063c272291614610512578063d6a898c71461051c578063d9caed121461055d5761012a565b80634ab45d33116100f25780634ab45d33146103265780635f82c67e146103675780638340f549146103a857806387c139431461041657806399eb59b9146104415761012a565b80630f532d181461012f5780631413dc7d1461015a57806324991d66146101855780632e528a37146101e95780634883400d1461028d575b600080fd5b34801561013b57600080fd5b50610144610848565b6040518082815260200191505060405180910390f35b34801561016657600080fd5b5061016f61086f565b6040518082815260200191505060405180910390f35b6101e76004803603604081101561019b57600080fd5b81019080803573ffffffffffffffffffffffffffffffffffffffff169060200190929190803573ffffffffffffffffffffffffffffffffffffffff169060200190929190505050610896565b005b61028b600480360360c08110156101ff57600080fd5b81019080803573ffffffffffffffffffffffffffffffffffffffff169060200190929190803573ffffffffffffffffffffffffffffffffffffffff169060200190929190803573ffffffffffffffffffffffffffffffffffffffff16906020019092919080359060200190929190803590602001909291908035151590602001909291905050506109db565b005b610324600480360360408110156102a357600080fd5b81019080803573ffffffffffffffffffffffffffffffffffffffff169060200190929190803590602001906401000000008111156102e057600080fd5b8201836020820111156102f257600080fd5b8035906020019184602083028401116401000000008311171561031457600080fd5b9091929391929390505050610e4d565b005b34801561033257600080fd5b5061033b6111ce565b604051808273ffffffffffffffffffffffffffffffffffffffff16815260200191505060405180910390f35b34801561037357600080fd5b5061037c6111e6565b604051808273ffffffffffffffffffffffffffffffffffffffff16815260200191505060405180910390f35b610414600480360360608110156103be57600080fd5b81019080803573ffffffffffffffffffffffffffffffffffffffff169060200190929190803573ffffffffffffffffffffffffffffffffffffffff169060200190929190803590602001909291905050506111fe565b005b34801561042257600080fd5b5061042b611345565b6040518082815260200191505060405180910390f35b34801561044d57600080fd5b5061047a6004803603602081101561046457600080fd5b8101908080359060200190929190505050611351565b6040518082815260200191505060405180910390f35b34801561049c57600080fd5b506104a5611369565b604051808273ffffffffffffffffffffffffffffffffffffffff16815260200191505060405180910390f35b3480156104dd57600080fd5b506104e6611381565b604051808273ffffffffffffffffffffffffffffffffffffffff16815260200191505060405180910390f35b61051a611399565b005b34801561052857600080fd5b50610531611407565b604051808273ffffffffffffffffffffffffffffffffffffffff16815260200191505060405180910390f35b6105c96004803603606081101561057357600080fd5b81019080803573ffffffffffffffffffffffffffffffffffffffff169060200190929190803573ffffffffffffffffffffffffffffffffffffffff1690602001909291908035906020019092919050505061141f565b005b3480156105d757600080fd5b50610604600480360360208110156105ee57600080fd5b81019080803590602001909291905050506115b7565b6040518082815260200191505060405180910390f35b61065c6004803603602081101561063057600080fd5b81019080803573ffffffffffffffffffffffffffffffffffffffff1690602001909291905050506115d8565b6040518082815260200191505060405180910390f35b6106d46004803603604081101561068857600080fd5b81019080803573ffffffffffffffffffffffffffffffffffffffff169060200190929190803573ffffffffffffffffffffffffffffffffffffffff16906020019092919050505061193f565b005b3480156106e257600080fd5b506106eb611ca6565b6040518080602001828103825283818151815260200191508051906020019080838360005b8381101561072b578082015181840152602081019050610710565b50505050905090810190601f1680156107585780820380516001836020036101000a031916815260200191505b509250505060405180910390f35b34801561077257600080fd5b5061077b611ce3565b60405180827bffffffffffffffffffffffffffffffffffffffffffffffffffffffff1916815260200191505060405180910390f35b610846600480360360a08110156107c657600080fd5b81019080803573ffffffffffffffffffffffffffffffffffffffff169060200190929190803573ffffffffffffffffffffffffffffffffffffffff169060200190929190803573ffffffffffffffffffffffffffffffffffffffff1690602001909291908035906020019092919080359060200190929190505050611cee565b005b7fb2f2618cecbbb6e7468cc0f2aa43858ad8d153e0280b22285e28e853bb9d453a60001b81565b7ff9543f11459ccccd21306c8881aaab675ff49d988c1162fd1dd9bbcdbe4446be60001b81565b8160006108a1612370565b90508073ffffffffffffffffffffffffffffffffffffffff168273ffffffffffffffffffffffffffffffffffffffff16638da5cb5b6040518163ffffffff1660e01b815260040160206040518083038186803b15801561090057600080fd5b505afa158015610914573d6000803e3d6000fd5b505050506040513d602081101561092a57600080fd5b810190808051906020019092919050505073ffffffffffffffffffffffffffffffffffffffff16146109cb576109ca6040518060400160405280600781526020017f47656e6572616c000000000000000000000000000000000000000000000000008152506040518060400160405280601881526020017f4e6f74206f776e6572206f662074686520445350726f787900000000000000008152506123ae565b5b6109d58484612641565b50505050565b8560006109e6612370565b90508073ffffffffffffffffffffffffffffffffffffffff168273ffffffffffffffffffffffffffffffffffffffff16638da5cb5b6040518163ffffffff1660e01b815260040160206040518083038186803b158015610a4557600080fd5b505afa158015610a59573d6000803e3d6000fd5b505050506040513d6020811015610a6f57600080fd5b810190808051906020019092919050505073ffffffffffffffffffffffffffffffffffffffff1614610b1057610b0f6040518060400160405280600781526020017f47656e6572616c000000000000000000000000000000000000000000000000008152506040518060400160405280601881526020017f4e6f74206f776e6572206f662074686520445350726f787900000000000000008152506123ae565b5b6000851115610b2557610b24888887612871565b5b8215610b3657610b358888612641565b5b6000841115610e43576000734ddc2d193948926d02f9b1fe9e1daa0718270ed573ffffffffffffffffffffffffffffffffffffffff168773ffffffffffffffffffffffffffffffffffffffff161415610ba55773eeeeeeeeeeeeeeeeeeeeeeeeeeeeeeeeeeeeeeee9050610bb1565b610bae8761293c565b90505b8873ffffffffffffffffffffffffffffffffffffffff16631cff79cd7305ef8eb657027927fab9b279138f0189cb144976634b8a35298a89604051602401808373ffffffffffffffffffffffffffffffffffffffff168152602001828152602001925050506040516020818303038152906040529060e01b6020820180517bffffffffffffffffffffffffffffffffffffffffffffffffffffffff83818316178352505050506040518363ffffffff1660e01b8152600401808373ffffffffffffffffffffffffffffffffffffffff16815260200180602001828103825283818151815260200191508051906020019080838360005b83811015610cc2578082015181840152602081019050610ca7565b50505050905090810190601f168015610cef5780820380516001836020036101000a031916815260200191505b509350505050602060405180830381600087803b158015610d0f57600080fd5b505af1925050508015610d4357506040513d6020811015610d2f57600080fd5b810190808051906020019092919050505060015b610de357610d4f613476565b80610d5a5750610d9f565b610d996040518060400160405280600681526020017f626f72726f770000000000000000000000000000000000000000000000000000815250826123ae565b50610dde565b610ddd6040518060400160405280600681526020017f626f72726f7700000000000000000000000000000000000000000000000000008152506129c6565b5b610de5565b505b610df0898287612a08565b73eeeeeeeeeeeeeeeeeeeeeeeeeeeeeeeeeeeeeeee73ffffffffffffffffffffffffffffffffffffffff168173ffffffffffffffffffffffffffffffffffffffff1614610e4157610e4081612c41565b5b505b5050505050505050565b826000610e58612370565b90508073ffffffffffffffffffffffffffffffffffffffff168273ffffffffffffffffffffffffffffffffffffffff16638da5cb5b6040518163ffffffff1660e01b815260040160206040518083038186803b158015610eb757600080fd5b505afa158015610ecb573d6000803e3d6000fd5b505050506040513d6020811015610ee157600080fd5b810190808051906020019092919050505073ffffffffffffffffffffffffffffffffffffffff1614610f8257610f816040518060400160405280600781526020017f47656e6572616c000000000000000000000000000000000000000000000000008152506040518060400160405280601881526020017f4e6f74206f776e6572206f662074686520445350726f787900000000000000008152506123ae565b5b8473ffffffffffffffffffffffffffffffffffffffff16631cff79cd7305ef8eb657027927fab9b279138f0189cb14497663c2998238878760405160240180806020018281038252848482818152602001925060200280828437600081840152601f19601f82011690508083019250505093505050506040516020818303038152906040529060e01b6020820180517bffffffffffffffffffffffffffffffffffffffffffffffffffffffff83818316178352505050506040518363ffffffff1660e01b8152600401808373ffffffffffffffffffffffffffffffffffffffff16815260200180602001828103825283818151815260200191508051906020019080838360005b838110156110a4578082015181840152602081019050611089565b50505050905090810190601f1680156110d15780820380516001836020036101000a031916815260200191505b509350505050602060405180830381600087803b1580156110f157600080fd5b505af192505050801561112557506040513d602081101561111157600080fd5b810190808051906020019092919050505060015b6111c557611131613476565b8061113c5750611181565b61117b6040518060400160405280600c81526020017f656e7465724d61726b6574730000000000000000000000000000000000000000815250826123ae565b506111c0565b6111bf6040518060400160405280600c81526020017f656e7465724d61726b65747300000000000000000000000000000000000000008152506129c6565b5b6111c7565b505b5050505050565b734ddc2d193948926d02f9b1fe9e1daa0718270ed581565b733d9819210a31b4961b30ef54be2aed79b9c9cd3b81565b826000611209612370565b90508073ffffffffffffffffffffffffffffffffffffffff168273ffffffffffffffffffffffffffffffffffffffff16638da5cb5b6040518163ffffffff1660e01b815260040160206040518083038186803b15801561126857600080fd5b505afa15801561127c573d6000803e3d6000fd5b505050506040513d602081101561129257600080fd5b810190808051906020019092919050505073ffffffffffffffffffffffffffffffffffffffff1614611333576113326040518060400160405280600781526020017f47656e6572616c000000000000000000000000000000000000000000000000008152506040518060400160405280601881526020017f4e6f74206f776e6572206f662074686520445350726f787900000000000000008152506123ae565b5b61133e858585612871565b5050505050565b670de0b6b3a764000081565b60016020528060005260406000206000915090505481565b73eeeeeeeeeeeeeeeeeeeeeeeeeeeeeeeeeeeeeeee81565b73c00e94cb662c3520282e6f5717214004a7f2688881565b6040517f08c379a00000000000000000000000000000000000000000000000000000000081526004018080602001828103825260148152602001807f496e76616c696420706f73742070726f6365737300000000000000000000000081525060200191505060405180910390fd5b7305ef8eb657027927fab9b279138f0189cb14497681565b82600061142a612370565b90508073ffffffffffffffffffffffffffffffffffffffff168273ffffffffffffffffffffffffffffffffffffffff16638da5cb5b6040518163ffffffff1660e01b815260040160206040518083038186803b15801561148957600080fd5b505afa15801561149d573d6000803e3d6000fd5b505050506040513d60208110156114b357600080fd5b810190808051906020019092919050505073ffffffffffffffffffffffffffffffffffffffff1614611554576115536040518060400160405280600781526020017f47656e6572616c000000000000000000000000000000000000000000000000008152506040518060400160405280601881526020017f4e6f74206f776e6572206f662074686520445350726f787900000000000000008152506123ae565b5b61155f858585612a08565b73eeeeeeeeeeeeeeeeeeeeeeeeeeeeeeeeeeeeeeee73ffffffffffffffffffffffffffffffffffffffff168473ffffffffffffffffffffffffffffffffffffffff16146115b0576115af84612c41565b5b5050505050565b600081815481106115c457fe5b906000526020600020016000915090505481565b60008160006115e5612370565b90508073ffffffffffffffffffffffffffffffffffffffff168273ffffffffffffffffffffffffffffffffffffffff16638da5cb5b6040518163ffffffff1660e01b815260040160206040518083038186803b15801561164457600080fd5b505afa158015611658573d6000803e3d6000fd5b505050506040513d602081101561166e57600080fd5b810190808051906020019092919050505073ffffffffffffffffffffffffffffffffffffffff161461170f5761170e6040518060400160405280600781526020017f47656e6572616c000000000000000000000000000000000000000000000000008152506040518060400160405280601881526020017f4e6f74206f776e6572206f662074686520445350726f787900000000000000008152506123ae565b5b733d9819210a31b4961b30ef54be2aed79b9c9cd3b73ffffffffffffffffffffffffffffffffffffffff1663e9af0292856040518263ffffffff1660e01b8152600401808273ffffffffffffffffffffffffffffffffffffffff168152602001915050600060405180830381600087803b15801561178c57600080fd5b505af192505050801561179d575060015b61183d576117a9613476565b806117b457506117f9565b6117f36040518060400160405280600981526020017f636c61696d436f6d700000000000000000000000000000000000000000000000815250826123ae565b50611838565b6118376040518060400160405280600981526020017f636c61696d436f6d7000000000000000000000000000000000000000000000008152506129c6565b5b61183e565b5b600073c00e94cb662c3520282e6f5717214004a7f2688873ffffffffffffffffffffffffffffffffffffffff166370a08231866040518263ffffffff1660e01b8152600401808273ffffffffffffffffffffffffffffffffffffffff16815260200191505060206040518083038186803b1580156118bb57600080fd5b505afa1580156118cf573d6000803e3d6000fd5b505050506040513d60208110156118e557600080fd5b810190808051906020019092919050505090506119178573c00e94cb662c3520282e6f5717214004a7f2688883612a08565b61193473c00e94cb662c3520282e6f5717214004a7f26888612c41565b809350505050919050565b81600061194a612370565b90508073ffffffffffffffffffffffffffffffffffffffff168273ffffffffffffffffffffffffffffffffffffffff16638da5cb5b6040518163ffffffff1660e01b815260040160206040518083038186803b1580156119a957600080fd5b505afa1580156119bd573d6000803e3d6000fd5b505050506040513d60208110156119d357600080fd5b810190808051906020019092919050505073ffffffffffffffffffffffffffffffffffffffff1614611a7457611a736040518060400160405280600781526020017f47656e6572616c000000000000000000000000000000000000000000000000008152506040518060400160405280601881526020017f4e6f74206f776e6572206f662074686520445350726f787900000000000000008152506123ae565b5b8373ffffffffffffffffffffffffffffffffffffffff16631cff79cd7305ef8eb657027927fab9b279138f0189cb14497663ede4edd086604051602401808273ffffffffffffffffffffffffffffffffffffffff1681526020019150506040516020818303038152906040529060e01b6020820180517bffffffffffffffffffffffffffffffffffffffffffffffffffffffff83818316178352505050506040518363ffffffff1660e01b8152600401808373ffffffffffffffffffffffffffffffffffffffff16815260200180602001828103825283818151815260200191508051906020019080838360005b83811015611b7d578082015181840152602081019050611b62565b50505050905090810190601f168015611baa5780820380516001836020036101000a031916815260200191505b509350505050602060405180830381600087803b158015611bca57600080fd5b505af1925050508015611bfe57506040513d6020811015611bea57600080fd5b810190808051906020019092919050505060015b611c9e57611c0a613476565b80611c155750611c5a565b611c546040518060400160405280600a81526020017f657869744d61726b657400000000000000000000000000000000000000000000815250826123ae565b50611c99565b611c986040518060400160405280600a81526020017f657869744d61726b6574000000000000000000000000000000000000000000008152506129c6565b5b611ca0565b505b50505050565b60606040518060400160405280600a81526020017f4853436f6d706f756e6400000000000000000000000000000000000000000000815250905090565b63c272291660e01b81565b846000611cf9612370565b90508073ffffffffffffffffffffffffffffffffffffffff168273ffffffffffffffffffffffffffffffffffffffff16638da5cb5b6040518163ffffffff1660e01b815260040160206040518083038186803b158015611d5857600080fd5b505afa158015611d6c573d6000803e3d6000fd5b505050506040513d6020811015611d8257600080fd5b810190808051906020019092919050505073ffffffffffffffffffffffffffffffffffffffff1614611e2357611e226040518060400160405280600781526020017f47656e6572616c000000000000000000000000000000000000000000000000008152506040518060400160405280601881526020017f4e6f74206f776e6572206f662074686520445350726f787900000000000000008152506123ae565b5b600084111561234957734ddc2d193948926d02f9b1fe9e1daa0718270ed573ffffffffffffffffffffffffffffffffffffffff168673ffffffffffffffffffffffffffffffffffffffff1614156120ae578673ffffffffffffffffffffffffffffffffffffffff16631cff79cd857305ef8eb657027927fab9b279138f0189cb14497663abdb5ea88a89604051602401808373ffffffffffffffffffffffffffffffffffffffff168152602001828152602001925050506040516020818303038152906040529060e01b6020820180517bffffffffffffffffffffffffffffffffffffffffffffffffffffffff83818316178352505050506040518463ffffffff1660e01b8152600401808373ffffffffffffffffffffffffffffffffffffffff16815260200180602001828103825283818151815260200191508051906020019080838360005b83811015611f86578082015181840152602081019050611f6b565b50505050905090810190601f168015611fb35780820380516001836020036101000a031916815260200191505b5093505050506020604051808303818588803b158015611fd257600080fd5b505af19350505050801561200757506040513d6020811015611ff357600080fd5b810190808051906020019092919050505060015b6120a757612013613476565b8061201e5750612063565b61205d6040518060400160405280600b81526020017f7265706179426f72726f77000000000000000000000000000000000000000000815250826123ae565b506120a2565b6120a16040518060400160405280600b81526020017f7265706179426f72726f770000000000000000000000000000000000000000008152506129c6565b5b6120a9565b505b612348565b60006120b98761293c565b90506120e688868373ffffffffffffffffffffffffffffffffffffffff16612c589092919063ffffffff16565b8773ffffffffffffffffffffffffffffffffffffffff16631cff79cd7305ef8eb657027927fab9b279138f0189cb14497663abdb5ea88a89604051602401808373ffffffffffffffffffffffffffffffffffffffff168152602001828152602001925050506040516020818303038152906040529060e01b6020820180517bffffffffffffffffffffffffffffffffffffffffffffffffffffffff83818316178352505050506040518363ffffffff1660e01b8152600401808373ffffffffffffffffffffffffffffffffffffffff16815260200180602001828103825283818151815260200191508051906020019080838360005b838110156121f75780820151818401526020810190506121dc565b50505050905090810190601f1680156122245780820380516001836020036101000a031916815260200191505b509350505050602060405180830381600087803b15801561224457600080fd5b505af192505050801561227857506040513d602081101561226457600080fd5b810190808051906020019092919050505060015b61231857612284613476565b8061228f57506122d4565b6122ce6040518060400160405280600b81526020017f7265706179426f72726f77000000000000000000000000000000000000000000815250826123ae565b50612313565b6123126040518060400160405280600b81526020017f7265706179426f72726f770000000000000000000000000000000000000000008152506129c6565b5b61231a565b505b6123468860008373ffffffffffffffffffffffffffffffffffffffff16612c589092919063ffffffff16565b505b5b60008311156123675761235d878685612a08565b61236685612c41565b5b50505050505050565b60006123a97fb2f2618cecbbb6e7468cc0f2aa43858ad8d153e0280b22285e28e853bb9d453a60001b6001612e1d90919063ffffffff16565b905090565b6123be6123b9612e3d565b612e7b565b6123c6611ca6565b83836040516020018085805190602001908083835b602083106123fe57805182526020820191506020810190506020830392506123db565b6001836020036101000a038019825116818451168082178552505050505050905001807f5f0000000000000000000000000000000000000000000000000000000000000081525060010184805190602001908083835b602083106124775780518252602082019150602081019050602083039250612454565b6001836020036101000a038019825116818451168082178552505050505050905001807f5f0000000000000000000000000000000000000000000000000000000000000081525060010183805190602001908083835b602083106124f057805182526020820191506020810190506020830392506124cd565b6001836020036101000a038019825116818451168082178552505050505050905001807f3a2000000000000000000000000000000000000000000000000000000000000081525060020182805190602001908083835b602083106125695780518252602082019150602081019050602083039250612546565b6001836020036101000a0380198251168184511680821785525050505050509050019450505050506040516020818303038152906040526040517f08c379a00000000000000000000000000000000000000000000000000000000081526004018080602001828103825283818151815260200191508051906020019080838360005b838110156126065780820151818401526020810190506125eb565b50505050905090810190601f1680156126335780820380516001836020036101000a031916815260200191505b509250505060405180910390fd5b8173ffffffffffffffffffffffffffffffffffffffff16631cff79cd7305ef8eb657027927fab9b279138f0189cb144976633fe5d42584604051602401808273ffffffffffffffffffffffffffffffffffffffff1681526020019150506040516020818303038152906040529060e01b6020820180517bffffffffffffffffffffffffffffffffffffffffffffffffffffffff83818316178352505050506040518363ffffffff1660e01b8152600401808373ffffffffffffffffffffffffffffffffffffffff16815260200180602001828103825283818151815260200191508051906020019080838360005b8381101561274a57808201518184015260208101905061272f565b50505050905090810190601f1680156127775780820380516001836020036101000a031916815260200191505b509350505050602060405180830381600087803b15801561279757600080fd5b505af19250505080156127cb57506040513d60208110156127b757600080fd5b810190808051906020019092919050505060015b61286b576127d7613476565b806127e25750612827565b6128216040518060400160405280600c81526020017f5f656e7465724d61726b65740000000000000000000000000000000000000000815250826123ae565b50612866565b6128656040518060400160405280600c81526020017f5f656e7465724d61726b657400000000000000000000000000000000000000008152506129c6565b5b61286d565b505b5050565b73eeeeeeeeeeeeeeeeeeeeeeeeeeeeeeeeeeeeeeee73ffffffffffffffffffffffffffffffffffffffff168273ffffffffffffffffffffffffffffffffffffffff16141561290b5760008390508073ffffffffffffffffffffffffffffffffffffffff166108fc839081150290604051600060405180830381858888f19350505050158015612904573d6000803e3d6000fd5b5050612937565b61293683828473ffffffffffffffffffffffffffffffffffffffff16612fc29092919063ffffffff16565b5b505050565b60008173ffffffffffffffffffffffffffffffffffffffff16636f307dc36040518163ffffffff1660e01b815260040160206040518083038186803b15801561298457600080fd5b505afa158015612998573d6000803e3d6000fd5b505050506040513d60208110156129ae57600080fd5b81019080805190602001909291905050509050919050565b612a05816040518060400160405280600b81526020017f556e7370656369666965640000000000000000000000000000000000000000008152506123ae565b50565b8273ffffffffffffffffffffffffffffffffffffffff16631cff79cd7305ef8eb657027927fab9b279138f0189cb14497663f3fef3a38585604051602401808373ffffffffffffffffffffffffffffffffffffffff168152602001828152602001925050506040516020818303038152906040529060e01b6020820180517bffffffffffffffffffffffffffffffffffffffffffffffffffffffff83818316178352505050506040518363ffffffff1660e01b8152600401808373ffffffffffffffffffffffffffffffffffffffff16815260200180602001828103825283818151815260200191508051906020019080838360005b83811015612b19578082015181840152602081019050612afe565b50505050905090810190601f168015612b465780820380516001836020036101000a031916815260200191505b509350505050602060405180830381600087803b158015612b6657600080fd5b505af1925050508015612b9a57506040513d6020811015612b8657600080fd5b810190808051906020019092919050505060015b612c3a57612ba6613476565b80612bb15750612bf6565b612bf06040518060400160405280600981526020017f5f77697468647261770000000000000000000000000000000000000000000000815250826123ae565b50612c35565b612c346040518060400160405280600981526020017f5f776974686472617700000000000000000000000000000000000000000000008152506129c6565b5b612c3c565b505b505050565b612c5581600061306490919063ffffffff16565b50565b6000811480612d26575060008373ffffffffffffffffffffffffffffffffffffffff1663dd62ed3e30856040518363ffffffff1660e01b8152600401808373ffffffffffffffffffffffffffffffffffffffff1681526020018273ffffffffffffffffffffffffffffffffffffffff1681526020019250505060206040518083038186803b158015612ce957600080fd5b505afa158015612cfd573d6000803e3d6000fd5b505050506040513d6020811015612d1357600080fd5b8101908080519060200190929190505050145b612d7b576040517f08c379a000000000000000000000000000000000000000000000000000000000815260040180806020018281038252603681526020018061357d6036913960400191505060405180910390fd5b612e188363095ea7b360e01b8484604051602401808373ffffffffffffffffffffffffffffffffffffffff16815260200182815260200192505050604051602081830303815290604052907bffffffffffffffffffffffffffffffffffffffffffffffffffffffff19166020820180517bffffffffffffffffffffffffffffffffffffffffffffffffffffffff83818316178352505050506130a9565b505050565b60008260008381526020019081526020016000205460001c905092915050565b6000612e767ff9543f11459ccccd21306c8881aaab675ff49d988c1162fd1dd9bbcdbe4446be60001b600161319890919063ffffffff16565b905090565b60606000821415612ec3576040518060400160405280600181526020017f30000000000000000000000000000000000000000000000000000000000000008152509050612fbd565b6000808390505b6000811115612eed578180600101925050600a8181612ee557fe5b049050612eca565b5060608167ffffffffffffffff81118015612f0757600080fd5b506040519080825280601f01601f191660200182016040528015612f3a5781602001600182028036833780820191505090505b50905060008290505b6000811115612fb657600a8581612f5657fe5b0660300160f81b826001830381518110612f6c57fe5b60200101907effffffffffffffffffffffffffffffffffffffffffffffffffffffffffffff1916908160001a905350600a8581612fa557fe5b049450808060019003915050612f43565b5080925050505b919050565b61305f8363a9059cbb60e01b8484604051602401808373ffffffffffffffffffffffffffffffffffffffff16815260200182815260200192505050604051602081830303815290604052907bffffffffffffffffffffffffffffffffffffffffffffffffffffffff19166020820180517bffffffffffffffffffffffffffffffffffffffffffffffffffffffff83818316178352505050506130a9565b505050565b818173ffffffffffffffffffffffffffffffffffffffff1660001b90806001815401808255809150506001900390600052602060002001600090919091909150555050565b606061310b826040518060400160405280602081526020017f5361666545524332303a206c6f772d6c6576656c2063616c6c206661696c65648152508573ffffffffffffffffffffffffffffffffffffffff166131b89092919063ffffffff16565b90506000815111156131935780806020019051602081101561312c57600080fd5b8101908080519060200190929190505050613192576040517f08c379a000000000000000000000000000000000000000000000000000000000815260040180806020018281038252602a815260200180613553602a913960400191505060405180910390fd5b5b505050565b60008260008381526020019081526020016000205460001c905092915050565b60606131c784846000856131d0565b90509392505050565b60608247101561322b576040517f08c379a000000000000000000000000000000000000000000000000000000000815260040180806020018281038252602681526020018061352d6026913960400191505060405180910390fd5b61323485613379565b6132a6576040517f08c379a000000000000000000000000000000000000000000000000000000000815260040180806020018281038252601d8152602001807f416464726573733a2063616c6c20746f206e6f6e2d636f6e747261637400000081525060200191505060405180910390fd5b600060608673ffffffffffffffffffffffffffffffffffffffff1685876040518082805190602001908083835b602083106132f657805182526020820191506020810190506020830392506132d3565b6001836020036101000a03801982511681845116808217855250505050505090500191505060006040518083038185875af1925050503d8060008114613358576040519150601f19603f3d011682016040523d82523d6000602084013e61335d565b606091505b509150915061336d82828661338c565b92505050949350505050565b600080823b905060008111915050919050565b6060831561339c57829050613451565b6000835111156133af5782518084602001fd5b816040517f08c379a00000000000000000000000000000000000000000000000000000000081526004018080602001828103825283818151815260200191508051906020019080838360005b838110156134165780820151818401526020810190506133fb565b50505050905090810190601f1680156134435780820380516001836020036101000a031916815260200191505b509250505060405180910390fd5b9392505050565b6000601f19601f8301169050919050565b60008160e01c9050919050565b600060443d101561348657613529565b60046000803e613497600051613469565b6308c379a081146134a85750613529565b60405160043d036004823e80513d602482011167ffffffffffffffff821117156134d457505050613529565b808201805167ffffffffffffffff8111156134f3575050505050613529565b8060208301013d850181111561350e57505050505050613529565b61351782613458565b60208401016040528296505050505050505b9056fe416464726573733a20696e73756666696369656e742062616c616e636520666f722063616c6c5361666545524332303a204552433230206f7065726174696f6e20646964206e6f7420737563636565645361666545524332303a20617070726f76652066726f6d206e6f6e2d7a65726f20746f206e6f6e2d7a65726f20616c6c6f77616e6365a2646970667358221220e705c8ca3ac0a6dcfa605ceb335148796aa1c244812aed3dbddaadb72b62e52764736f6c634300060c0033",
  "devdoc": {
    "kind": "dev",
    "methods": {},
    "version": 1
  },
  "userdoc": {
    "kind": "user",
    "methods": {},
    "version": 1
  },
  "storageLayout": {
    "storage": [
      {
        "astId": 2834,
        "contract": "contracts/handlers/compound/HSCompound.sol:HSCompound",
        "label": "stack",
        "offset": 0,
        "slot": "0",
        "type": "t_array(t_bytes32)dyn_storage"
      },
      {
        "astId": 2838,
        "contract": "contracts/handlers/compound/HSCompound.sol:HSCompound",
        "label": "cache",
        "offset": 0,
        "slot": "1",
        "type": "t_mapping(t_bytes32,t_bytes32)"
      }
    ],
    "types": {
      "t_array(t_bytes32)dyn_storage": {
        "base": "t_bytes32",
        "encoding": "dynamic_array",
        "label": "bytes32[]",
        "numberOfBytes": "32"
      },
      "t_bytes32": {
        "encoding": "inplace",
        "label": "bytes32",
        "numberOfBytes": "32"
      },
      "t_mapping(t_bytes32,t_bytes32)": {
        "encoding": "mapping",
        "key": "t_bytes32",
        "label": "mapping(bytes32 => bytes32)",
        "numberOfBytes": "32",
        "value": "t_bytes32"
      }
    }
  }
}