{
  "address": "0xd7C89FfB2D8115C8be139251af3be0b4206C0c5E",
  "abi": [
    {
      "inputs": [],
      "name": "CUBE_COUNTER_KEY",
      "outputs": [
        {
          "internalType": "bytes32",
          "name": "",
          "type": "bytes32"
        }
      ],
      "stateMutability": "view",
      "type": "function"
    },
    {
      "inputs": [],
      "name": "MSG_SENDER_KEY",
      "outputs": [
        {
          "internalType": "bytes32",
          "name": "",
          "type": "bytes32"
        }
      ],
      "stateMutability": "view",
      "type": "function"
    },
    {
      "inputs": [],
      "name": "PERCENTAGE_BASE",
      "outputs": [
        {
          "internalType": "uint256",
          "name": "",
          "type": "uint256"
        }
      ],
      "stateMutability": "view",
      "type": "function"
    },
    {
      "inputs": [],
      "name": "POSTPROCESS_SIG",
      "outputs": [
        {
          "internalType": "bytes4",
          "name": "",
          "type": "bytes4"
        }
      ],
      "stateMutability": "view",
      "type": "function"
    },
    {
      "inputs": [
        {
          "internalType": "bytes32",
          "name": "",
          "type": "bytes32"
        }
      ],
      "name": "cache",
      "outputs": [
        {
          "internalType": "bytes32",
          "name": "",
          "type": "bytes32"
        }
      ],
      "stateMutability": "view",
      "type": "function"
    },
    {
      "inputs": [
        {
          "internalType": "address",
          "name": "adapterAddr",
          "type": "address"
        }
      ],
      "name": "exit",
      "outputs": [
        {
          "internalType": "uint256",
          "name": "withdrawAmount",
          "type": "uint256"
        },
        {
          "internalType": "uint256",
          "name": "rewardsAmount",
          "type": "uint256"
        }
      ],
      "stateMutability": "payable",
      "type": "function"
    },
    {
      "inputs": [],
      "name": "getContractName",
      "outputs": [
        {
          "internalType": "string",
          "name": "",
          "type": "string"
        }
      ],
      "stateMutability": "pure",
      "type": "function"
    },
    {
      "inputs": [
        {
          "internalType": "address",
          "name": "adapterAddr",
          "type": "address"
        }
      ],
      "name": "getReward",
      "outputs": [
        {
          "internalType": "uint256",
          "name": "rewardsAmount",
          "type": "uint256"
        }
      ],
      "stateMutability": "payable",
      "type": "function"
    },
    {
      "inputs": [],
      "name": "postProcess",
      "outputs": [],
      "stateMutability": "payable",
      "type": "function"
    },
    {
      "inputs": [],
      "name": "registry",
      "outputs": [
        {
          "internalType": "contract IStakingRewardsAdapterRegistry",
          "name": "",
          "type": "address"
        }
      ],
      "stateMutability": "view",
      "type": "function"
    },
    {
      "inputs": [
        {
          "internalType": "uint256",
          "name": "",
          "type": "uint256"
        }
      ],
      "name": "stack",
      "outputs": [
        {
          "internalType": "bytes32",
          "name": "",
          "type": "bytes32"
        }
      ],
      "stateMutability": "view",
      "type": "function"
    },
    {
      "inputs": [
        {
          "internalType": "address",
          "name": "adapterAddr",
          "type": "address"
        },
        {
          "internalType": "uint256",
          "name": "amount",
          "type": "uint256"
        }
      ],
      "name": "stake",
      "outputs": [],
      "stateMutability": "payable",
      "type": "function"
    },
    {
      "inputs": [
        {
          "internalType": "address",
          "name": "adapterAddr",
          "type": "address"
        },
        {
          "internalType": "address",
          "name": "account",
          "type": "address"
        },
        {
          "internalType": "uint256",
          "name": "amount",
          "type": "uint256"
        }
      ],
      "name": "stakeFor",
      "outputs": [],
      "stateMutability": "payable",
      "type": "function"
    },
    {
      "inputs": [
        {
          "internalType": "address",
          "name": "adapterAddr",
          "type": "address"
        },
        {
          "internalType": "uint256",
          "name": "amount",
          "type": "uint256"
        }
      ],
      "name": "withdraw",
      "outputs": [],
      "stateMutability": "payable",
      "type": "function"
    }
  ],
  "transactionHash": "0x65745fd09c44eccc1794df23ceca95b113c0752fd1614372078c790603b20b8d",
  "args": [],
  "solcInputHash": "05a3724dc9e1f283fb20820d17e328b2",
  "bytecode": "0x608060405234801561001057600080fd5b5061275b806100206000396000f3fe6080604052600436106100dd5760003560e01c8063b42652e91161007f578063dc9031c411610059578063dc9031c414610370578063f3fef3a3146103bf578063f5f5ba721461040d578063fa2901a51461049d576100dd565b8063b42652e9146102af578063c00007b01461030e578063c272291614610366576100dd565b80637b103999116100bb5780637b103999146101a657806387c13943146101e757806399eb59b914610212578063adc9772e14610261576100dd565b80630f532d18146100e25780631413dc7d1461010d5780632dd5567a14610138575b600080fd5b3480156100ee57600080fd5b506100f76104e7565b6040518082815260200191505060405180910390f35b34801561011957600080fd5b5061012261050e565b6040518082815260200191505060405180910390f35b6101a46004803603606081101561014e57600080fd5b81019080803573ffffffffffffffffffffffffffffffffffffffff169060200190929190803573ffffffffffffffffffffffffffffffffffffffff16906020019092919080359060200190929190505050610535565b005b3480156101b257600080fd5b506101bb610871565b604051808273ffffffffffffffffffffffffffffffffffffffff16815260200191505060405180910390f35b3480156101f357600080fd5b506101fc610889565b6040518082815260200191505060405180910390f35b34801561021e57600080fd5b5061024b6004803603602081101561023557600080fd5b8101908080359060200190929190505050610895565b6040518082815260200191505060405180910390f35b6102ad6004803603604081101561027757600080fd5b81019080803573ffffffffffffffffffffffffffffffffffffffff169060200190929190803590602001909291905050506108ad565b005b6102f1600480360360208110156102c557600080fd5b81019080803573ffffffffffffffffffffffffffffffffffffffff169060200190929190505050610bef565b604051808381526020018281526020019250505060405180910390f35b6103506004803603602081101561032457600080fd5b81019080803573ffffffffffffffffffffffffffffffffffffffff169060200190929190505050611228565b6040518082815260200191505060405180910390f35b61036e611674565b005b34801561037c57600080fd5b506103a96004803603602081101561039357600080fd5b81019080803590602001909291905050506116e2565b6040518082815260200191505060405180910390f35b61040b600480360360408110156103d557600080fd5b81019080803573ffffffffffffffffffffffffffffffffffffffff16906020019092919080359060200190929190505050611703565b005b34801561041957600080fd5b506104226119f1565b6040518080602001828103825283818151815260200191508051906020019080838360005b83811015610462578082015181840152602081019050610447565b50505050905090810190601f16801561048f5780820380516001836020036101000a031916815260200191505b509250505060405180910390f35b3480156104a957600080fd5b506104b2611a2e565b60405180827bffffffffffffffffffffffffffffffffffffffffffffffffffffffff1916815260200191505060405180910390f35b7fb2f2618cecbbb6e7468cc0f2aa43858ad8d153e0280b22285e28e853bb9d453a60001b81565b7ff9543f11459ccccd21306c8881aaab675ff49d988c1162fd1dd9bbcdbe4446be60001b81565b8273ca591346a311a372a20ed69e08bbe5107979e24373ffffffffffffffffffffffffffffffffffffffff16638b1b925f826040518263ffffffff1660e01b8152600401808273ffffffffffffffffffffffffffffffffffffffff16815260200191505060206040518083038186803b1580156105b157600080fd5b505afa1580156105c5573d6000803e3d6000fd5b505050506040513d60208110156105db57600080fd5b8101908080519060200190929190505050610665576106646040518060400160405280600781526020017f47656e6572616c000000000000000000000000000000000000000000000000008152506040518060400160405280600f81526020017f496e76616c696420616461707465720000000000000000000000000000000000815250611a39565b5b600084905060008173ffffffffffffffffffffffffffffffffffffffff166372f702f36040518163ffffffff1660e01b815260040160206040518083038186803b1580156106b257600080fd5b505afa1580156106c6573d6000803e3d6000fd5b505050506040513d60208110156106dc57600080fd5b8101908080519060200190929190505050905061071a82858373ffffffffffffffffffffffffffffffffffffffff16611ccc9092919063ffffffff16565b8173ffffffffffffffffffffffffffffffffffffffff16632ee4090886866040518363ffffffff1660e01b8152600401808373ffffffffffffffffffffffffffffffffffffffff16815260200182815260200192505050600060405180830381600087803b15801561078b57600080fd5b505af192505050801561079c575060015b61083c576107a86125e9565b806107b357506107f8565b6107f26040518060400160405280600881526020017f7374616b65466f7200000000000000000000000000000000000000000000000081525082611a39565b50610837565b6108366040518060400160405280600881526020017f7374616b65466f72000000000000000000000000000000000000000000000000815250611e91565b5b61083d565b5b6108698260008373ffffffffffffffffffffffffffffffffffffffff16611ccc9092919063ffffffff16565b505050505050565b73ca591346a311a372a20ed69e08bbe5107979e24381565b670de0b6b3a764000081565b60016020528060005260406000206000915090505481565b8173ca591346a311a372a20ed69e08bbe5107979e24373ffffffffffffffffffffffffffffffffffffffff16638b1b925f826040518263ffffffff1660e01b8152600401808273ffffffffffffffffffffffffffffffffffffffff16815260200191505060206040518083038186803b15801561092957600080fd5b505afa15801561093d573d6000803e3d6000fd5b505050506040513d602081101561095357600080fd5b81019080805190602001909291905050506109dd576109dc6040518060400160405280600781526020017f47656e6572616c000000000000000000000000000000000000000000000000008152506040518060400160405280600f81526020017f496e76616c696420616461707465720000000000000000000000000000000000815250611a39565b5b600083905060008173ffffffffffffffffffffffffffffffffffffffff166372f702f36040518163ffffffff1660e01b815260040160206040518083038186803b158015610a2a57600080fd5b505afa158015610a3e573d6000803e3d6000fd5b505050506040513d6020811015610a5457600080fd5b81019080805190602001909291905050509050610a9282858373ffffffffffffffffffffffffffffffffffffffff16611ccc9092919063ffffffff16565b8173ffffffffffffffffffffffffffffffffffffffff16632ee40908610ab6611ed3565b866040518363ffffffff1660e01b8152600401808373ffffffffffffffffffffffffffffffffffffffff16815260200182815260200192505050600060405180830381600087803b158015610b0a57600080fd5b505af1925050508015610b1b575060015b610bbb57610b276125e9565b80610b325750610b77565b610b716040518060400160405280600581526020017f7374616b6500000000000000000000000000000000000000000000000000000081525082611a39565b50610bb6565b610bb56040518060400160405280600581526020017f7374616b65000000000000000000000000000000000000000000000000000000815250611e91565b5b610bbc565b5b610be88260008373ffffffffffffffffffffffffffffffffffffffff16611ccc9092919063ffffffff16565b5050505050565b6000808273ca591346a311a372a20ed69e08bbe5107979e24373ffffffffffffffffffffffffffffffffffffffff16638b1b925f826040518263ffffffff1660e01b8152600401808273ffffffffffffffffffffffffffffffffffffffff16815260200191505060206040518083038186803b158015610c6e57600080fd5b505afa158015610c82573d6000803e3d6000fd5b505050506040513d6020811015610c9857600080fd5b8101908080519060200190929190505050610d2257610d216040518060400160405280600781526020017f47656e6572616c000000000000000000000000000000000000000000000000008152506040518060400160405280600f81526020017f496e76616c696420616461707465720000000000000000000000000000000000815250611a39565b5b600084905060008173ffffffffffffffffffffffffffffffffffffffff166372f702f36040518163ffffffff1660e01b815260040160206040518083038186803b158015610d6f57600080fd5b505afa158015610d83573d6000803e3d6000fd5b505050506040513d6020811015610d9957600080fd5b8101908080519060200190929190505050905060008273ffffffffffffffffffffffffffffffffffffffff1663d1af0c7d6040518163ffffffff1660e01b815260040160206040518083038186803b158015610df457600080fd5b505afa158015610e08573d6000803e3d6000fd5b505050506040513d6020811015610e1e57600080fd5b8101908080519060200190929190505050905060008273ffffffffffffffffffffffffffffffffffffffff166370a08231306040518263ffffffff1660e01b8152600401808273ffffffffffffffffffffffffffffffffffffffff16815260200191505060206040518083038186803b158015610e9a57600080fd5b505afa158015610eae573d6000803e3d6000fd5b505050506040513d6020811015610ec457600080fd5b8101908080519060200190929190505050905060008273ffffffffffffffffffffffffffffffffffffffff166370a08231306040518263ffffffff1660e01b8152600401808273ffffffffffffffffffffffffffffffffffffffff16815260200191505060206040518083038186803b158015610f4057600080fd5b505afa158015610f54573d6000803e3d6000fd5b505050506040513d6020811015610f6a57600080fd5b810190808051906020019092919050505090508473ffffffffffffffffffffffffffffffffffffffff16636b610e6a610fa1611ed3565b6040518263ffffffff1660e01b8152600401808273ffffffffffffffffffffffffffffffffffffffff168152602001915050600060405180830381600087803b158015610fed57600080fd5b505af1925050508015610ffe575060015b61109e5761100a6125e9565b80611015575061105a565b6110546040518060400160405280600481526020017f657869740000000000000000000000000000000000000000000000000000000081525082611a39565b50611099565b6110986040518060400160405280600481526020017f6578697400000000000000000000000000000000000000000000000000000000815250611e91565b5b61109f565b5b6110a884611f11565b6110b183611f11565b611165828573ffffffffffffffffffffffffffffffffffffffff166370a08231306040518263ffffffff1660e01b8152600401808273ffffffffffffffffffffffffffffffffffffffff16815260200191505060206040518083038186803b15801561111c57600080fd5b505afa158015611130573d6000803e3d6000fd5b505050506040513d602081101561114657600080fd5b8101908080519060200190929190505050611f2890919063ffffffff16565b975061121b818473ffffffffffffffffffffffffffffffffffffffff166370a08231306040518263ffffffff1660e01b8152600401808273ffffffffffffffffffffffffffffffffffffffff16815260200191505060206040518083038186803b1580156111d257600080fd5b505afa1580156111e6573d6000803e3d6000fd5b505050506040513d60208110156111fc57600080fd5b8101908080519060200190929190505050611f2890919063ffffffff16565b9650505050505050915091565b60008173ca591346a311a372a20ed69e08bbe5107979e24373ffffffffffffffffffffffffffffffffffffffff16638b1b925f826040518263ffffffff1660e01b8152600401808273ffffffffffffffffffffffffffffffffffffffff16815260200191505060206040518083038186803b1580156112a657600080fd5b505afa1580156112ba573d6000803e3d6000fd5b505050506040513d60208110156112d057600080fd5b810190808051906020019092919050505061135a576113596040518060400160405280600781526020017f47656e6572616c000000000000000000000000000000000000000000000000008152506040518060400160405280600f81526020017f496e76616c696420616461707465720000000000000000000000000000000000815250611a39565b5b600083905060008173ffffffffffffffffffffffffffffffffffffffff1663d1af0c7d6040518163ffffffff1660e01b815260040160206040518083038186803b1580156113a757600080fd5b505afa1580156113bb573d6000803e3d6000fd5b505050506040513d60208110156113d157600080fd5b8101908080519060200190929190505050905060008173ffffffffffffffffffffffffffffffffffffffff166370a08231306040518263ffffffff1660e01b8152600401808273ffffffffffffffffffffffffffffffffffffffff16815260200191505060206040518083038186803b15801561144d57600080fd5b505afa158015611461573d6000803e3d6000fd5b505050506040513d602081101561147757600080fd5b810190808051906020019092919050505090508273ffffffffffffffffffffffffffffffffffffffff1663055de2756114ae611ed3565b6040518263ffffffff1660e01b8152600401808273ffffffffffffffffffffffffffffffffffffffff168152602001915050600060405180830381600087803b1580156114fa57600080fd5b505af192505050801561150b575060015b6115ab576115176125e9565b806115225750611567565b6115616040518060400160405280600981526020017f676574526577617264000000000000000000000000000000000000000000000081525082611a39565b506115a6565b6115a56040518060400160405280600981526020017f6765745265776172640000000000000000000000000000000000000000000000815250611e91565b5b6115ac565b5b6115b582611f11565b611669818373ffffffffffffffffffffffffffffffffffffffff166370a08231306040518263ffffffff1660e01b8152600401808273ffffffffffffffffffffffffffffffffffffffff16815260200191505060206040518083038186803b15801561162057600080fd5b505afa158015611634573d6000803e3d6000fd5b505050506040513d602081101561164a57600080fd5b8101908080519060200190929190505050611f2890919063ffffffff16565b945050505050919050565b6040517f08c379a00000000000000000000000000000000000000000000000000000000081526004018080602001828103825260148152602001807f496e76616c696420706f73742070726f6365737300000000000000000000000081525060200191505060405180910390fd5b600081815481106116ef57fe5b906000526020600020016000915090505481565b8173ca591346a311a372a20ed69e08bbe5107979e24373ffffffffffffffffffffffffffffffffffffffff16638b1b925f826040518263ffffffff1660e01b8152600401808273ffffffffffffffffffffffffffffffffffffffff16815260200191505060206040518083038186803b15801561177f57600080fd5b505afa158015611793573d6000803e3d6000fd5b505050506040513d60208110156117a957600080fd5b8101908080519060200190929190505050611833576118326040518060400160405280600781526020017f47656e6572616c000000000000000000000000000000000000000000000000008152506040518060400160405280600f81526020017f496e76616c696420616461707465720000000000000000000000000000000000815250611a39565b5b60008390508073ffffffffffffffffffffffffffffffffffffffff1663db518db261185c611ed3565b856040518363ffffffff1660e01b8152600401808373ffffffffffffffffffffffffffffffffffffffff16815260200182815260200192505050600060405180830381600087803b1580156118b057600080fd5b505af19250505080156118c1575060015b611961576118cd6125e9565b806118d8575061191d565b6119176040518060400160405280600881526020017f776974686472617700000000000000000000000000000000000000000000000081525082611a39565b5061195c565b61195b6040518060400160405280600881526020017f7769746864726177000000000000000000000000000000000000000000000000815250611e91565b5b611962565b5b6119eb8173ffffffffffffffffffffffffffffffffffffffff166372f702f36040518163ffffffff1660e01b815260040160206040518083038186803b1580156119ab57600080fd5b505afa1580156119bf573d6000803e3d6000fd5b505050506040513d60208110156119d557600080fd5b8101908080519060200190929190505050611f11565b50505050565b60606040518060400160405280601681526020017f485374616b696e67526577617264734164617074657200000000000000000000815250905090565b63c272291660e01b81565b611a49611a44611f72565b611fb0565b611a516119f1565b83836040516020018085805190602001908083835b60208310611a895780518252602082019150602081019050602083039250611a66565b6001836020036101000a038019825116818451168082178552505050505050905001807f5f0000000000000000000000000000000000000000000000000000000000000081525060010184805190602001908083835b60208310611b025780518252602082019150602081019050602083039250611adf565b6001836020036101000a038019825116818451168082178552505050505050905001807f5f0000000000000000000000000000000000000000000000000000000000000081525060010183805190602001908083835b60208310611b7b5780518252602082019150602081019050602083039250611b58565b6001836020036101000a038019825116818451168082178552505050505050905001807f3a2000000000000000000000000000000000000000000000000000000000000081525060020182805190602001908083835b60208310611bf45780518252602082019150602081019050602083039250611bd1565b6001836020036101000a0380198251168184511680821785525050505050509050019450505050506040516020818303038152906040526040517f08c379a00000000000000000000000000000000000000000000000000000000081526004018080602001828103825283818151815260200191508051906020019080838360005b83811015611c91578082015181840152602081019050611c76565b50505050905090810190601f168015611cbe5780820380516001836020036101000a031916815260200191505b509250505060405180910390fd5b6000811480611d9a575060008373ffffffffffffffffffffffffffffffffffffffff1663dd62ed3e30856040518363ffffffff1660e01b8152600401808373ffffffffffffffffffffffffffffffffffffffff1681526020018273ffffffffffffffffffffffffffffffffffffffff1681526020019250505060206040518083038186803b158015611d5d57600080fd5b505afa158015611d71573d6000803e3d6000fd5b505050506040513d6020811015611d8757600080fd5b8101908080519060200190929190505050145b611def576040517f08c379a00000000000000000000000000000000000000000000000000000000081526004018080602001828103825260368152602001806126f06036913960400191505060405180910390fd5b611e8c8363095ea7b360e01b8484604051602401808373ffffffffffffffffffffffffffffffffffffffff16815260200182815260200192505050604051602081830303815290604052907bffffffffffffffffffffffffffffffffffffffffffffffffffffffff19166020820180517bffffffffffffffffffffffffffffffffffffffffffffffffffffffff83818316178352505050506120f7565b505050565b611ed0816040518060400160405280600b81526020017f556e737065636966696564000000000000000000000000000000000000000000815250611a39565b50565b6000611f0c7fb2f2618cecbbb6e7468cc0f2aa43858ad8d153e0280b22285e28e853bb9d453a60001b60016121e690919063ffffffff16565b905090565b611f2581600061220690919063ffffffff16565b50565b6000611f6a83836040518060400160405280601e81526020017f536166654d6174683a207375627472616374696f6e206f766572666c6f77000081525061224b565b905092915050565b6000611fab7ff9543f11459ccccd21306c8881aaab675ff49d988c1162fd1dd9bbcdbe4446be60001b600161230b90919063ffffffff16565b905090565b60606000821415611ff8576040518060400160405280600181526020017f300000000000000000000000000000000000000000000000000000000000000081525090506120f2565b6000808390505b6000811115612022578180600101925050600a818161201a57fe5b049050611fff565b5060608167ffffffffffffffff8111801561203c57600080fd5b506040519080825280601f01601f19166020018201604052801561206f5781602001600182028036833780820191505090505b50905060008290505b60008111156120eb57600a858161208b57fe5b0660300160f81b8260018303815181106120a157fe5b60200101907effffffffffffffffffffffffffffffffffffffffffffffffffffffffffffff1916908160001a905350600a85816120da57fe5b049450808060019003915050612078565b5080925050505b919050565b6060612159826040518060400160405280602081526020017f5361666545524332303a206c6f772d6c6576656c2063616c6c206661696c65648152508573ffffffffffffffffffffffffffffffffffffffff1661232b9092919063ffffffff16565b90506000815111156121e15780806020019051602081101561217a57600080fd5b81019080805190602001909291905050506121e0576040517f08c379a000000000000000000000000000000000000000000000000000000000815260040180806020018281038252602a8152602001806126c6602a913960400191505060405180910390fd5b5b505050565b60008260008381526020019081526020016000205460001c905092915050565b818173ffffffffffffffffffffffffffffffffffffffff1660001b90806001815401808255809150506001900390600052602060002001600090919091909150555050565b60008383111582906122f8576040517f08c379a00000000000000000000000000000000000000000000000000000000081526004018080602001828103825283818151815260200191508051906020019080838360005b838110156122bd5780820151818401526020810190506122a2565b50505050905090810190601f1680156122ea5780820380516001836020036101000a031916815260200191505b509250505060405180910390fd5b5060008385039050809150509392505050565b60008260008381526020019081526020016000205460001c905092915050565b606061233a8484600085612343565b90509392505050565b60608247101561239e576040517f08c379a00000000000000000000000000000000000000000000000000000000081526004018080602001828103825260268152602001806126a06026913960400191505060405180910390fd5b6123a7856124ec565b612419576040517f08c379a000000000000000000000000000000000000000000000000000000000815260040180806020018281038252601d8152602001807f416464726573733a2063616c6c20746f206e6f6e2d636f6e747261637400000081525060200191505060405180910390fd5b600060608673ffffffffffffffffffffffffffffffffffffffff1685876040518082805190602001908083835b602083106124695780518252602082019150602081019050602083039250612446565b6001836020036101000a03801982511681845116808217855250505050505090500191505060006040518083038185875af1925050503d80600081146124cb576040519150601f19603f3d011682016040523d82523d6000602084013e6124d0565b606091505b50915091506124e08282866124ff565b92505050949350505050565b600080823b905060008111915050919050565b6060831561250f578290506125c4565b6000835111156125225782518084602001fd5b816040517f08c379a00000000000000000000000000000000000000000000000000000000081526004018080602001828103825283818151815260200191508051906020019080838360005b8381101561258957808201518184015260208101905061256e565b50505050905090810190601f1680156125b65780820380516001836020036101000a031916815260200191505b509250505060405180910390fd5b9392505050565b6000601f19601f8301169050919050565b60008160e01c9050919050565b600060443d10156125f95761269c565b60046000803e61260a6000516125dc565b6308c379a0811461261b575061269c565b60405160043d036004823e80513d602482011167ffffffffffffffff821117156126475750505061269c565b808201805167ffffffffffffffff81111561266657505050505061269c565b8060208301013d85018111156126815750505050505061269c565b61268a826125cb565b60208401016040528296505050505050505b9056fe416464726573733a20696e73756666696369656e742062616c616e636520666f722063616c6c5361666545524332303a204552433230206f7065726174696f6e20646964206e6f7420737563636565645361666545524332303a20617070726f76652066726f6d206e6f6e2d7a65726f20746f206e6f6e2d7a65726f20616c6c6f77616e6365a264697066735822122070c3a5ae3d66c97e7522810b6ca357b5ac05cb78644c403747ac6f1ce8b814c764736f6c634300060c0033",
  "devdoc": {
    "kind": "dev",
    "methods": {},
    "version": 1
  },
  "userdoc": {
    "kind": "user",
    "methods": {},
    "version": 1
  },
  "storageLayout": {
    "storage": [
      {
        "astId": 2834,
        "contract": "contracts/handlers/staking/HStakingRewardsAdapter.sol:HStakingRewardsAdapter",
        "label": "stack",
        "offset": 0,
        "slot": "0",
        "type": "t_array(t_bytes32)dyn_storage"
      },
      {
        "astId": 2838,
        "contract": "contracts/handlers/staking/HStakingRewardsAdapter.sol:HStakingRewardsAdapter",
        "label": "cache",
        "offset": 0,
        "slot": "1",
        "type": "t_mapping(t_bytes32,t_bytes32)"
      }
    ],
    "types": {
      "t_array(t_bytes32)dyn_storage": {
        "base": "t_bytes32",
        "encoding": "dynamic_array",
        "label": "bytes32[]",
        "numberOfBytes": "32"
      },
      "t_bytes32": {
        "encoding": "inplace",
        "label": "bytes32",
        "numberOfBytes": "32"
      },
      "t_mapping(t_bytes32,t_bytes32)": {
        "encoding": "mapping",
        "key": "t_bytes32",
        "label": "mapping(bytes32 => bytes32)",
        "numberOfBytes": "32",
        "value": "t_bytes32"
      }
    }
  }
}