{
  "address": "0x98f15248448cE0509F73596647550668248A4E61",
  "abi": [
    {
      "inputs": [],
      "name": "CUBE_COUNTER_KEY",
      "outputs": [
        {
          "internalType": "bytes32",
          "name": "",
          "type": "bytes32"
        }
      ],
      "stateMutability": "view",
      "type": "function"
    },
    {
      "inputs": [],
      "name": "MSG_SENDER_KEY",
      "outputs": [
        {
          "internalType": "bytes32",
          "name": "",
          "type": "bytes32"
        }
      ],
      "stateMutability": "view",
      "type": "function"
    },
    {
      "inputs": [],
      "name": "PERCENTAGE_BASE",
      "outputs": [
        {
          "internalType": "uint256",
          "name": "",
          "type": "uint256"
        }
      ],
      "stateMutability": "view",
      "type": "function"
    },
    {
      "inputs": [],
      "name": "POSTPROCESS_SIG",
      "outputs": [
        {
          "internalType": "bytes4",
          "name": "",
          "type": "bytes4"
        }
      ],
      "stateMutability": "view",
      "type": "function"
    },
    {
      "inputs": [],
      "name": "UNISWAPV2_ROUTER",
      "outputs": [
        {
          "internalType": "address",
          "name": "",
          "type": "address"
        }
      ],
      "stateMutability": "view",
      "type": "function"
    },
    {
      "inputs": [
        {
          "internalType": "address",
          "name": "tokenA",
          "type": "address"
        },
        {
          "internalType": "address",
          "name": "tokenB",
          "type": "address"
        },
        {
          "internalType": "uint256",
          "name": "amountADesired",
          "type": "uint256"
        },
        {
          "internalType": "uint256",
          "name": "amountBDesired",
          "type": "uint256"
        },
        {
          "internalType": "uint256",
          "name": "amountAMin",
          "type": "uint256"
        },
        {
          "internalType": "uint256",
          "name": "amountBMin",
          "type": "uint256"
        }
      ],
      "name": "addLiquidity",
      "outputs": [
        {
          "internalType": "uint256",
          "name": "amountA",
          "type": "uint256"
        },
        {
          "internalType": "uint256",
          "name": "amountB",
          "type": "uint256"
        },
        {
          "internalType": "uint256",
          "name": "liquidity",
          "type": "uint256"
        }
      ],
      "stateMutability": "payable",
      "type": "function"
    },
    {
      "inputs": [
        {
          "internalType": "uint256",
          "name": "value",
          "type": "uint256"
        },
        {
          "internalType": "address",
          "name": "token",
          "type": "address"
        },
        {
          "internalType": "uint256",
          "name": "amountTokenDesired",
          "type": "uint256"
        },
        {
          "internalType": "uint256",
          "name": "amountTokenMin",
          "type": "uint256"
        },
        {
          "internalType": "uint256",
          "name": "amountETHMin",
          "type": "uint256"
        }
      ],
      "name": "addLiquidityETH",
      "outputs": [
        {
          "internalType": "uint256",
          "name": "amountToken",
          "type": "uint256"
        },
        {
          "internalType": "uint256",
          "name": "amountETH",
          "type": "uint256"
        },
        {
          "internalType": "uint256",
          "name": "liquidity",
          "type": "uint256"
        }
      ],
      "stateMutability": "payable",
      "type": "function"
    },
    {
      "inputs": [
        {
          "internalType": "bytes32",
          "name": "",
          "type": "bytes32"
        }
      ],
      "name": "cache",
      "outputs": [
        {
          "internalType": "bytes32",
          "name": "",
          "type": "bytes32"
        }
      ],
      "stateMutability": "view",
      "type": "function"
    },
    {
      "inputs": [],
      "name": "getContractName",
      "outputs": [
        {
          "internalType": "string",
          "name": "",
          "type": "string"
        }
      ],
      "stateMutability": "pure",
      "type": "function"
    },
    {
      "inputs": [],
      "name": "postProcess",
      "outputs": [],
      "stateMutability": "payable",
      "type": "function"
    },
    {
      "inputs": [
        {
          "internalType": "address",
          "name": "tokenA",
          "type": "address"
        },
        {
          "internalType": "address",
          "name": "tokenB",
          "type": "address"
        },
        {
          "internalType": "uint256",
          "name": "liquidity",
          "type": "uint256"
        },
        {
          "internalType": "uint256",
          "name": "amountAMin",
          "type": "uint256"
        },
        {
          "internalType": "uint256",
          "name": "amountBMin",
          "type": "uint256"
        }
      ],
      "name": "removeLiquidity",
      "outputs": [
        {
          "internalType": "uint256",
          "name": "amountA",
          "type": "uint256"
        },
        {
          "internalType": "uint256",
          "name": "amountB",
          "type": "uint256"
        }
      ],
      "stateMutability": "payable",
      "type": "function"
    },
    {
      "inputs": [
        {
          "internalType": "address",
          "name": "token",
          "type": "address"
        },
        {
          "internalType": "uint256",
          "name": "liquidity",
          "type": "uint256"
        },
        {
          "internalType": "uint256",
          "name": "amountTokenMin",
          "type": "uint256"
        },
        {
          "internalType": "uint256",
          "name": "amountETHMin",
          "type": "uint256"
        }
      ],
      "name": "removeLiquidityETH",
      "outputs": [
        {
          "internalType": "uint256",
          "name": "amountToken",
          "type": "uint256"
        },
        {
          "internalType": "uint256",
          "name": "amountETH",
          "type": "uint256"
        }
      ],
      "stateMutability": "payable",
      "type": "function"
    },
    {
      "inputs": [
        {
          "internalType": "uint256",
          "name": "",
          "type": "uint256"
        }
      ],
      "name": "stack",
      "outputs": [
        {
          "internalType": "bytes32",
          "name": "",
          "type": "bytes32"
        }
      ],
      "stateMutability": "view",
      "type": "function"
    },
    {
      "inputs": [
        {
          "internalType": "uint256",
          "name": "value",
          "type": "uint256"
        },
        {
          "internalType": "uint256",
          "name": "amountOut",
          "type": "uint256"
        },
        {
          "internalType": "address[]",
          "name": "path",
          "type": "address[]"
        }
      ],
      "name": "swapETHForExactTokens",
      "outputs": [
        {
          "internalType": "uint256",
          "name": "amount",
          "type": "uint256"
        }
      ],
      "stateMutability": "payable",
      "type": "function"
    },
    {
      "inputs": [
        {
          "internalType": "uint256",
          "name": "value",
          "type": "uint256"
        },
        {
          "internalType": "uint256",
          "name": "amountOutMin",
          "type": "uint256"
        },
        {
          "internalType": "address[]",
          "name": "path",
          "type": "address[]"
        }
      ],
      "name": "swapExactETHForTokens",
      "outputs": [
        {
          "internalType": "uint256",
          "name": "amount",
          "type": "uint256"
        }
      ],
      "stateMutability": "payable",
      "type": "function"
    },
    {
      "inputs": [
        {
          "internalType": "uint256",
          "name": "amountIn",
          "type": "uint256"
        },
        {
          "internalType": "uint256",
          "name": "amountOutMin",
          "type": "uint256"
        },
        {
          "internalType": "address[]",
          "name": "path",
          "type": "address[]"
        }
      ],
      "name": "swapExactTokensForETH",
      "outputs": [
        {
          "internalType": "uint256",
          "name": "amount",
          "type": "uint256"
        }
      ],
      "stateMutability": "payable",
      "type": "function"
    },
    {
      "inputs": [
        {
          "internalType": "uint256",
          "name": "amountIn",
          "type": "uint256"
        },
        {
          "internalType": "uint256",
          "name": "amountOutMin",
          "type": "uint256"
        },
        {
          "internalType": "address[]",
          "name": "path",
          "type": "address[]"
        }
      ],
      "name": "swapExactTokensForTokens",
      "outputs": [
        {
          "internalType": "uint256",
          "name": "amount",
          "type": "uint256"
        }
      ],
      "stateMutability": "payable",
      "type": "function"
    },
    {
      "inputs": [
        {
          "internalType": "uint256",
          "name": "amountOut",
          "type": "uint256"
        },
        {
          "internalType": "uint256",
          "name": "amountInMax",
          "type": "uint256"
        },
        {
          "internalType": "address[]",
          "name": "path",
          "type": "address[]"
        }
      ],
      "name": "swapTokensForExactETH",
      "outputs": [
        {
          "internalType": "uint256",
          "name": "amount",
          "type": "uint256"
        }
      ],
      "stateMutability": "payable",
      "type": "function"
    },
    {
      "inputs": [
        {
          "internalType": "uint256",
          "name": "amountOut",
          "type": "uint256"
        },
        {
          "internalType": "uint256",
          "name": "amountInMax",
          "type": "uint256"
        },
        {
          "internalType": "address[]",
          "name": "path",
          "type": "address[]"
        }
      ],
      "name": "swapTokensForExactTokens",
      "outputs": [
        {
          "internalType": "uint256",
          "name": "amount",
          "type": "uint256"
        }
      ],
      "stateMutability": "payable",
      "type": "function"
    }
  ],
  "transactionHash": "0x666ea93127d41974ecfb22896c7c1cae3a7772e9d8ac1ceb26a17d8dc3db8d22",
  "args": [],
  "solcInputHash": "05a3724dc9e1f283fb20820d17e328b2",
  "bytecode": "0x608060405234801561001057600080fd5b50613b03806100206000396000f3fe6080604052600436106101145760003560e01c806387c13943116100a0578063dc9031c411610064578063dc9031c414610712578063e2dc85dc14610761578063ef66f725146107fe578063f5f5ba721461089f578063fa2901a51461092f57610114565b806387c139431461057057806399eb59b91461059b578063a1cfacde146105ea578063c272291614610667578063d0241dac1461067157610114565b8063397d4b4a116100e7578063397d4b4a146102be57806349618dad1461035f57806358871c81146103a057806386818f261461042e57806387151a79146104cf57610114565b80630f532d18146101195780631413dc7d1461014457806318a22c401461016f5780633351733f14610210575b600080fd5b34801561012557600080fd5b5061012e610979565b6040518082815260200191505060405180910390f35b34801561015057600080fd5b506101596109a0565b6040518082815260200191505060405180910390f35b6101fa6004803603606081101561018557600080fd5b810190808035906020019092919080359060200190929190803590602001906401000000008111156101b657600080fd5b8201836020820111156101c857600080fd5b803590602001918460208302840111640100000000831117156101ea57600080fd5b90919293919293905050506109c7565b6040518082815260200191505060405180910390f35b61029a600480360360c081101561022657600080fd5b81019080803573ffffffffffffffffffffffffffffffffffffffff169060200190929190803573ffffffffffffffffffffffffffffffffffffffff16906020019092919080359060200190929190803590602001909291908035906020019092919080359060200190929190505050610d08565b60405180848152602001838152602001828152602001935050505060405180910390f35b610349600480360360608110156102d457600080fd5b8101908080359060200190929190803590602001909291908035906020019064010000000081111561030557600080fd5b82018360208201111561031757600080fd5b8035906020019184602083028401116401000000008311171561033957600080fd5b9091929391929390505050610fe6565b6040518082815260200191505060405180910390f35b34801561036b57600080fd5b50610374611364565b604051808273ffffffffffffffffffffffffffffffffffffffff16815260200191505060405180910390f35b61040a600480360360a08110156103b657600080fd5b8101908080359060200190929190803573ffffffffffffffffffffffffffffffffffffffff16906020019092919080359060200190929190803590602001909291908035906020019092919050505061137c565b60405180848152602001838152602001828152602001935050505060405180910390f35b6104b96004803603606081101561044457600080fd5b8101908080359060200190929190803590602001909291908035906020019064010000000081111561047557600080fd5b82018360208201111561048757600080fd5b803590602001918460208302840111640100000000831117156104a957600080fd5b9091929391929390505050611696565b6040518082815260200191505060405180910390f35b61055a600480360360608110156104e557600080fd5b8101908080359060200190929190803590602001909291908035906020019064010000000081111561051657600080fd5b82018360208201111561052857600080fd5b8035906020019184602083028401116401000000008311171561054a57600080fd5b9091929391929390505050611a17565b6040518082815260200191505060405180910390f35b34801561057c57600080fd5b50610585611d41565b6040518082815260200191505060405180910390f35b3480156105a757600080fd5b506105d4600480360360208110156105be57600080fd5b8101908080359060200190929190505050611d4d565b6040518082815260200191505060405180910390f35b61064a6004803603608081101561060057600080fd5b81019080803573ffffffffffffffffffffffffffffffffffffffff169060200190929190803590602001909291908035906020019092919080359060200190929190505050611d65565b604051808381526020018281526020019250505060405180910390f35b61066f61205f565b005b6106fc6004803603606081101561068757600080fd5b810190808035906020019092919080359060200190929190803590602001906401000000008111156106b857600080fd5b8201836020820111156106ca57600080fd5b803590602001918460208302840111640100000000831117156106ec57600080fd5b90919293919293905050506120cd565b6040518082815260200191505060405180910390f35b34801561071e57600080fd5b5061074b6004803603602081101561073557600080fd5b81019080803590602001909291905050506123fa565b6040518082815260200191505060405180910390f35b6107e1600480360360a081101561077757600080fd5b81019080803573ffffffffffffffffffffffffffffffffffffffff169060200190929190803573ffffffffffffffffffffffffffffffffffffffff16906020019092919080359060200190929190803590602001909291908035906020019092919050505061241b565b604051808381526020018281526020019250505060405180910390f35b6108896004803603606081101561081457600080fd5b8101908080359060200190929190803590602001909291908035906020019064010000000081111561084557600080fd5b82018360208201111561085757600080fd5b8035906020019184602083028401116401000000008311171561087957600080fd5b90919293919293905050506126bd565b6040518082815260200191505060405180910390f35b3480156108ab57600080fd5b506108b4612a01565b6040518080602001828103825283818151815260200191508051906020019080838360005b838110156108f45780820151818401526020810190506108d9565b50505050905090810190601f1680156109215780820380516001836020036101000a031916815260200191505b509250505060405180910390f35b34801561093b57600080fd5b50610944612a3e565b60405180827bffffffffffffffffffffffffffffffffffffffffffffffffffffffff1916815260200191505060405180910390f35b7fb2f2618cecbbb6e7468cc0f2aa43858ad8d153e0280b22285e28e853bb9d453a60001b81565b7ff9543f11459ccccd21306c8881aaab675ff49d988c1162fd1dd9bbcdbe4446be60001b81565b60006002838390501015610a4a57610a496040518060400160405280601581526020017f73776170546f6b656e73466f72457861637445544800000000000000000000008152506040518060400160405280600c81526020017f696e76616c696420706174680000000000000000000000000000000000000000815250612a49565b5b600083836000818110610a5957fe5b9050602002013573ffffffffffffffffffffffffffffffffffffffff1690506000737a250d5630b4cf539739df2c5dacb4c659f2488d9050610a9b8287612cdc565b9550610abc82737a250d5630b4cf539739df2c5dacb4c659f2488d88612e3f565b8073ffffffffffffffffffffffffffffffffffffffff16634a25d94a8888888830600142016040518763ffffffff1660e01b815260040180878152602001868152602001806020018473ffffffffffffffffffffffffffffffffffffffff1681526020018381526020018281038252868682818152602001925060200280828437600081840152601f19601f820116905080830192505050975050505050505050600060405180830381600087803b158015610b7757600080fd5b505af1925050508015610c4557506040513d6000823e3d601f19601f820116820180604052506020811015610bab57600080fd5b8101908080516040519392919084640100000000821115610bcb57600080fd5b83820191506020820185811115610be157600080fd5b8251866020820283011164010000000082111715610bfe57600080fd5b8083526020830192505050908051906020019060200280838360005b83811015610c35578082015181840152602081019050610c1a565b5050505090500160405250505060015b610ce557610c5161396c565b80610c5c5750610ca1565b610c9b6040518060400160405280601581526020017f73776170546f6b656e73466f724578616374455448000000000000000000000081525082612a49565b50610ce0565b610cdf6040518060400160405280601581526020017f73776170546f6b656e73466f7245786163744554480000000000000000000000815250612f27565b5b610cfe565b80600081518110610cf257fe5b60200260200101519350505b5050949350505050565b600080600080737a250d5630b4cf539739df2c5dacb4c659f2488d9050610d2f8a89612cdc565b9750610d3b8988612cdc565b9650610d5c8a737a250d5630b4cf539739df2c5dacb4c659f2488d8a612e3f565b610d7b89737a250d5630b4cf539739df2c5dacb4c659f2488d89612e3f565b8073ffffffffffffffffffffffffffffffffffffffff1663e8e337008b8b8b8b8b8b30600142016040518963ffffffff1660e01b8152600401808973ffffffffffffffffffffffffffffffffffffffff1681526020018873ffffffffffffffffffffffffffffffffffffffff1681526020018781526020018681526020018581526020018481526020018373ffffffffffffffffffffffffffffffffffffffff16815260200182815260200198505050505050505050606060405180830381600087803b158015610e4b57600080fd5b505af1925050508015610e9357506040513d6060811015610e6b57600080fd5b8101908080519060200190929190805190602001909291908051906020019092919050505060015b610f3357610e9f61396c565b80610eaa5750610eef565b610ee96040518060400160405280600c81526020017f6164644c6971756964697479000000000000000000000000000000000000000081525082612a49565b50610f2e565b610f2d6040518060400160405280600c81526020017f6164644c69717569646974790000000000000000000000000000000000000000815250612f27565b5b610f40565b8296508195508094505050505b6000610fcd8273ffffffffffffffffffffffffffffffffffffffff1663c45a01556040518163ffffffff1660e01b815260040160206040518083038186803b158015610f8b57600080fd5b505afa158015610f9f573d6000803e3d6000fd5b505050506040513d6020811015610fb557600080fd5b81019080805190602001909291905050508c8c612f69565b9050610fd881613082565b505096509650969350505050565b60006002838390501015611069576110686040518060400160405280601881526020017f73776170546f6b656e73466f724578616374546f6b656e7300000000000000008152506040518060400160405280600c81526020017f696e76616c696420706174680000000000000000000000000000000000000000815250612a49565b5b60008383600081811061107857fe5b9050602002013573ffffffffffffffffffffffffffffffffffffffff16905060008484600187879050038181106110ab57fe5b9050602002013573ffffffffffffffffffffffffffffffffffffffff1690506000737a250d5630b4cf539739df2c5dacb4c659f2488d90506110ed8388612cdc565b965061110e83737a250d5630b4cf539739df2c5dacb4c659f2488d89612e3f565b8073ffffffffffffffffffffffffffffffffffffffff16638803dbee8989898930600142016040518763ffffffff1660e01b815260040180878152602001868152602001806020018473ffffffffffffffffffffffffffffffffffffffff1681526020018381526020018281038252868682818152602001925060200280828437600081840152601f19601f820116905080830192505050975050505050505050600060405180830381600087803b1580156111c957600080fd5b505af192505050801561129757506040513d6000823e3d601f19601f8201168201806040525060208110156111fd57600080fd5b810190808051604051939291908464010000000082111561121d57600080fd5b8382019150602082018581111561123357600080fd5b825186602082028301116401000000008211171561125057600080fd5b8083526020830192505050908051906020019060200280838360005b8381101561128757808201518184015260208101905061126c565b5050505090500160405250505060015b611337576112a361396c565b806112ae57506112f3565b6112ed6040518060400160405280601881526020017f73776170546f6b656e73466f724578616374546f6b656e73000000000000000081525082612a49565b50611332565b6113316040518060400160405280601881526020017f73776170546f6b656e73466f724578616374546f6b656e730000000000000000815250612f27565b5b611350565b8060008151811061134457fe5b60200260200101519450505b61135982613082565b505050949350505050565b737a250d5630b4cf539739df2c5dacb4c659f2488d81565b600080600080737a250d5630b4cf539739df2c5dacb4c659f2488d90506113a460008a612cdc565b98506113b08888612cdc565b96506113d188737a250d5630b4cf539739df2c5dacb4c659f2488d89612e3f565b8073ffffffffffffffffffffffffffffffffffffffff1663f305d7198a8a8a8a8a30600142016040518863ffffffff1660e01b8152600401808773ffffffffffffffffffffffffffffffffffffffff1681526020018681526020018581526020018481526020018373ffffffffffffffffffffffffffffffffffffffff16815260200182815260200196505050505050506060604051808303818588803b15801561147b57600080fd5b505af1935050505080156114c457506040513d606081101561149c57600080fd5b8101908080519060200190929190805190602001909291908051906020019092919050505060015b611564576114d061396c565b806114db5750611520565b61151a6040518060400160405280600f81526020017f6164644c6971756964697479455448000000000000000000000000000000000081525082612a49565b5061155f565b61155e6040518060400160405280600f81526020017f6164644c69717569646974794554480000000000000000000000000000000000815250612f27565b5b611571565b8296508195508094505050505b600061167e8273ffffffffffffffffffffffffffffffffffffffff1663c45a01556040518163ffffffff1660e01b815260040160206040518083038186803b1580156115bc57600080fd5b505afa1580156115d0573d6000803e3d6000fd5b505050506040513d60208110156115e657600080fd5b81019080805190602001909291905050508a8473ffffffffffffffffffffffffffffffffffffffff1663ad5c46486040518163ffffffff1660e01b815260040160206040518083038186803b15801561163e57600080fd5b505afa158015611652573d6000803e3d6000fd5b505050506040513d602081101561166857600080fd5b8101908080519060200190929190505050612f69565b905061168981613082565b5050955095509592505050565b60006002838390501015611719576117186040518060400160405280601881526020017f737761704578616374546f6b656e73466f72546f6b656e7300000000000000008152506040518060400160405280600c81526020017f696e76616c696420706174680000000000000000000000000000000000000000815250612a49565b5b60008383600081811061172857fe5b9050602002013573ffffffffffffffffffffffffffffffffffffffff169050600084846001878790500381811061175b57fe5b9050602002013573ffffffffffffffffffffffffffffffffffffffff1690506000737a250d5630b4cf539739df2c5dacb4c659f2488d905061179d8389612cdc565b97506117be83737a250d5630b4cf539739df2c5dacb4c659f2488d8a612e3f565b8073ffffffffffffffffffffffffffffffffffffffff166338ed17398989898930600142016040518763ffffffff1660e01b815260040180878152602001868152602001806020018473ffffffffffffffffffffffffffffffffffffffff1681526020018381526020018281038252868682818152602001925060200280828437600081840152601f19601f820116905080830192505050975050505050505050600060405180830381600087803b15801561187957600080fd5b505af192505050801561194757506040513d6000823e3d601f19601f8201168201806040525060208110156118ad57600080fd5b81019080805160405193929190846401000000008211156118cd57600080fd5b838201915060208201858111156118e357600080fd5b825186602082028301116401000000008211171561190057600080fd5b8083526020830192505050908051906020019060200280838360005b8381101561193757808201518184015260208101905061191c565b5050505090500160405250505060015b6119e75761195361396c565b8061195e57506119a3565b61199d6040518060400160405280601881526020017f737761704578616374546f6b656e73466f72546f6b656e73000000000000000081525082612a49565b506119e2565b6119e16040518060400160405280601881526020017f737761704578616374546f6b656e73466f72546f6b656e730000000000000000815250612f27565b5b611a03565b806001825103815181106119f757fe5b60200260200101519450505b611a0c82613082565b505050949350505050565b60006002838390501015611a9a57611a996040518060400160405280601581526020017f73776170455448466f724578616374546f6b656e7300000000000000000000008152506040518060400160405280600c81526020017f696e76616c696420706174680000000000000000000000000000000000000000815250612a49565b5b6000838360018686905003818110611aae57fe5b9050602002013573ffffffffffffffffffffffffffffffffffffffff1690506000737a250d5630b4cf539739df2c5dacb4c659f2488d9050611af1600088612cdc565b96508073ffffffffffffffffffffffffffffffffffffffff1663fb3bdb418888888830600142016040518763ffffffff1660e01b815260040180868152602001806020018473ffffffffffffffffffffffffffffffffffffffff1681526020018381526020018281038252868682818152602001925060200280828437600081840152601f19601f82011690508083019250505096505050505050506000604051808303818588803b158015611ba657600080fd5b505af193505050508015611c7557506040513d6000823e3d601f19601f820116820180604052506020811015611bdb57600080fd5b8101908080516040519392919084640100000000821115611bfb57600080fd5b83820191506020820185811115611c1157600080fd5b8251866020820283011164010000000082111715611c2e57600080fd5b8083526020830192505050908051906020019060200280838360005b83811015611c65578082015181840152602081019050611c4a565b5050505090500160405250505060015b611d1557611c8161396c565b80611c8c5750611cd1565b611ccb6040518060400160405280601581526020017f73776170455448466f724578616374546f6b656e73000000000000000000000081525082612a49565b50611d10565b611d0f6040518060400160405280601581526020017f73776170455448466f724578616374546f6b656e730000000000000000000000815250612f27565b5b611d2e565b80600081518110611d2257fe5b60200260200101519350505b611d3782613082565b5050949350505050565b670de0b6b3a764000081565b60016020528060005260406000206000915090505481565b6000806000737a250d5630b4cf539739df2c5dacb4c659f2488d90506000611e8e8273ffffffffffffffffffffffffffffffffffffffff1663c45a01556040518163ffffffff1660e01b815260040160206040518083038186803b158015611dcc57600080fd5b505afa158015611de0573d6000803e3d6000fd5b505050506040513d6020811015611df657600080fd5b8101908080519060200190929190505050898473ffffffffffffffffffffffffffffffffffffffff1663ad5c46486040518163ffffffff1660e01b815260040160206040518083038186803b158015611e4e57600080fd5b505afa158015611e62573d6000803e3d6000fd5b505050506040513d6020811015611e7857600080fd5b8101908080519060200190929190505050612f69565b9050611e9a8188612cdc565b9650611ebb81737a250d5630b4cf539739df2c5dacb4c659f2488d89612e3f565b8173ffffffffffffffffffffffffffffffffffffffff166302751cec8989898930600142016040518763ffffffff1660e01b8152600401808773ffffffffffffffffffffffffffffffffffffffff1681526020018681526020018581526020018481526020018373ffffffffffffffffffffffffffffffffffffffff16815260200182815260200196505050505050506040805180830381600087803b158015611f6457600080fd5b505af1925050508015611fa257506040513d6040811015611f8457600080fd5b81019080805190602001909291908051906020019092919050505060015b61204257611fae61396c565b80611fb95750611ffe565b611ff86040518060400160405280601281526020017f72656d6f76654c6971756964697479455448000000000000000000000000000081525082612a49565b5061203d565b61203c6040518060400160405280601281526020017f72656d6f76654c69717569646974794554480000000000000000000000000000815250612f27565b5b61204b565b81955080945050505b61205488613082565b505094509492505050565b6040517f08c379a00000000000000000000000000000000000000000000000000000000081526004018080602001828103825260148152602001807f496e76616c696420706f73742070726f6365737300000000000000000000000081525060200191505060405180910390fd5b600060028383905010156121505761214f6040518060400160405280601581526020017f737761704578616374455448466f72546f6b656e7300000000000000000000008152506040518060400160405280600c81526020017f696e76616c696420706174680000000000000000000000000000000000000000815250612a49565b5b600083836001868690500381811061216457fe5b9050602002013573ffffffffffffffffffffffffffffffffffffffff1690506000737a250d5630b4cf539739df2c5dacb4c659f2488d90506121a7600088612cdc565b96508073ffffffffffffffffffffffffffffffffffffffff16637ff36ab58888888830600142016040518763ffffffff1660e01b815260040180868152602001806020018473ffffffffffffffffffffffffffffffffffffffff1681526020018381526020018281038252868682818152602001925060200280828437600081840152601f19601f82011690508083019250505096505050505050506000604051808303818588803b15801561225c57600080fd5b505af19350505050801561232b57506040513d6000823e3d601f19601f82011682018060405250602081101561229157600080fd5b81019080805160405193929190846401000000008211156122b157600080fd5b838201915060208201858111156122c757600080fd5b82518660208202830111640100000000821117156122e457600080fd5b8083526020830192505050908051906020019060200280838360005b8381101561231b578082015181840152602081019050612300565b5050505090500160405250505060015b6123cb5761233761396c565b806123425750612387565b6123816040518060400160405280601581526020017f737761704578616374455448466f72546f6b656e73000000000000000000000081525082612a49565b506123c6565b6123c56040518060400160405280601581526020017f737761704578616374455448466f72546f6b656e730000000000000000000000815250612f27565b5b6123e7565b806001825103815181106123db57fe5b60200260200101519350505b6123f082613082565b5050949350505050565b6000818154811061240757fe5b906000526020600020016000915090505481565b6000806000737a250d5630b4cf539739df2c5dacb4c659f2488d905060006124c48273ffffffffffffffffffffffffffffffffffffffff1663c45a01556040518163ffffffff1660e01b815260040160206040518083038186803b15801561248257600080fd5b505afa158015612496573d6000803e3d6000fd5b505050506040513d60208110156124ac57600080fd5b81019080805190602001909291905050508a8a612f69565b90506124d08188612cdc565b96506124f181737a250d5630b4cf539739df2c5dacb4c659f2488d89612e3f565b8173ffffffffffffffffffffffffffffffffffffffff1663baa2abde8a8a8a8a8a30600142016040518863ffffffff1660e01b8152600401808873ffffffffffffffffffffffffffffffffffffffff1681526020018773ffffffffffffffffffffffffffffffffffffffff1681526020018681526020018581526020018481526020018373ffffffffffffffffffffffffffffffffffffffff1681526020018281526020019750505050505050506040805180830381600087803b1580156125b857600080fd5b505af19250505080156125f657506040513d60408110156125d857600080fd5b81019080805190602001909291908051906020019092919050505060015b6126965761260261396c565b8061260d5750612652565b61264c6040518060400160405280600f81526020017f72656d6f76654c6971756964697479000000000000000000000000000000000081525082612a49565b50612691565b6126906040518060400160405280600f81526020017f72656d6f76654c69717569646974790000000000000000000000000000000000815250612f27565b5b61269f565b81955080945050505b6126a889613082565b6126b188613082565b50509550959350505050565b600060028383905010156127405761273f6040518060400160405280601581526020017f737761704578616374546f6b656e73466f7245544800000000000000000000008152506040518060400160405280600c81526020017f696e76616c696420706174680000000000000000000000000000000000000000815250612a49565b5b60008383600081811061274f57fe5b9050602002013573ffffffffffffffffffffffffffffffffffffffff1690506000737a250d5630b4cf539739df2c5dacb4c659f2488d90506127918288612cdc565b96506127b282737a250d5630b4cf539739df2c5dacb4c659f2488d89612e3f565b8073ffffffffffffffffffffffffffffffffffffffff166318cbafe58888888830600142016040518763ffffffff1660e01b815260040180878152602001868152602001806020018473ffffffffffffffffffffffffffffffffffffffff1681526020018381526020018281038252868682818152602001925060200280828437600081840152601f19601f820116905080830192505050975050505050505050600060405180830381600087803b15801561286d57600080fd5b505af192505050801561293b57506040513d6000823e3d601f19601f8201168201806040525060208110156128a157600080fd5b81019080805160405193929190846401000000008211156128c157600080fd5b838201915060208201858111156128d757600080fd5b82518660208202830111640100000000821117156128f457600080fd5b8083526020830192505050908051906020019060200280838360005b8381101561292b578082015181840152602081019050612910565b5050505090500160405250505060015b6129db5761294761396c565b806129525750612997565b6129916040518060400160405280601581526020017f737761704578616374546f6b656e73466f72455448000000000000000000000081525082612a49565b506129d6565b6129d56040518060400160405280601581526020017f737761704578616374546f6b656e73466f724554480000000000000000000000815250612f27565b5b6129f7565b806001825103815181106129eb57fe5b60200260200101519350505b5050949350505050565b60606040518060400160405280600a81526020017f48556e6973776170563200000000000000000000000000000000000000000000815250905090565b63c272291660e01b81565b612a59612a54613099565b6130d7565b612a61612a01565b83836040516020018085805190602001908083835b60208310612a995780518252602082019150602081019050602083039250612a76565b6001836020036101000a038019825116818451168082178552505050505050905001807f5f0000000000000000000000000000000000000000000000000000000000000081525060010184805190602001908083835b60208310612b125780518252602082019150602081019050602083039250612aef565b6001836020036101000a038019825116818451168082178552505050505050905001807f5f0000000000000000000000000000000000000000000000000000000000000081525060010183805190602001908083835b60208310612b8b5780518252602082019150602081019050602083039250612b68565b6001836020036101000a038019825116818451168082178552505050505050905001807f3a2000000000000000000000000000000000000000000000000000000000000081525060020182805190602001908083835b60208310612c045780518252602082019150602081019050602083039250612be1565b6001836020036101000a0380198251168184511680821785525050505050509050019450505050506040516020818303038152906040526040517f08c379a00000000000000000000000000000000000000000000000000000000081526004018080602001828103825283818151815260200191508051906020019080838360005b83811015612ca1578082015181840152602081019050612c86565b50505050905090810190601f168015612cce5780820380516001836020036101000a031916815260200191505b509250505060405180910390fd5b60007fffffffffffffffffffffffffffffffffffffffffffffffffffffffffffffffff8214612d0d57819050612e39565b600073ffffffffffffffffffffffffffffffffffffffff168373ffffffffffffffffffffffffffffffffffffffff161480612d87575073eeeeeeeeeeeeeeeeeeeeeeeeeeeeeeeeeeeeeeee73ffffffffffffffffffffffffffffffffffffffff168373ffffffffffffffffffffffffffffffffffffffff16145b15612d9457479050612e39565b8273ffffffffffffffffffffffffffffffffffffffff166370a08231306040518263ffffffff1660e01b8152600401808273ffffffffffffffffffffffffffffffffffffffff16815260200191505060206040518083038186803b158015612dfb57600080fd5b505afa158015612e0f573d6000803e3d6000fd5b505050506040513d6020811015612e2557600080fd5b810190808051906020019092919050505090505b92915050565b8273ffffffffffffffffffffffffffffffffffffffff1663095ea7b383836040518363ffffffff1660e01b8152600401808373ffffffffffffffffffffffffffffffffffffffff16815260200182815260200192505050600060405180830381600087803b158015612eb057600080fd5b505af1925050508015612ec1575060015b612f2157612ef18260008573ffffffffffffffffffffffffffffffffffffffff1661321e9092919063ffffffff16565b612f1c82828573ffffffffffffffffffffffffffffffffffffffff1661321e9092919063ffffffff16565b612f22565b5b505050565b612f66816040518060400160405280600b81526020017f556e737065636966696564000000000000000000000000000000000000000000815250612a49565b50565b6000806000612f7885856133e3565b91509150858282604051602001808373ffffffffffffffffffffffffffffffffffffffff1660601b81526014018273ffffffffffffffffffffffffffffffffffffffff1660601b8152601401925050506040516020818303038152906040528051906020012060405160200180807fff000000000000000000000000000000000000000000000000000000000000008152506001018373ffffffffffffffffffffffffffffffffffffffff1660601b8152601401828152602001807f96e8ac4277198ff8b6f785478aa9a39f403cb768dd02cbee326c3e7da348845f815250602001925050506040516020818303038152906040528051906020012060001c925050509392505050565b61309681600061355a90919063ffffffff16565b50565b60006130d27ff9543f11459ccccd21306c8881aaab675ff49d988c1162fd1dd9bbcdbe4446be60001b600161359f90919063ffffffff16565b905090565b6060600082141561311f576040518060400160405280600181526020017f30000000000000000000000000000000000000000000000000000000000000008152509050613219565b6000808390505b6000811115613149578180600101925050600a818161314157fe5b049050613126565b5060608167ffffffffffffffff8111801561316357600080fd5b506040519080825280601f01601f1916602001820160405280156131965781602001600182028036833780820191505090505b50905060008290505b600081111561321257600a85816131b257fe5b0660300160f81b8260018303815181106131c857fe5b60200101907effffffffffffffffffffffffffffffffffffffffffffffffffffffffffffff1916908160001a905350600a858161320157fe5b04945080806001900391505061319f565b5080925050505b919050565b60008114806132ec575060008373ffffffffffffffffffffffffffffffffffffffff1663dd62ed3e30856040518363ffffffff1660e01b8152600401808373ffffffffffffffffffffffffffffffffffffffff1681526020018273ffffffffffffffffffffffffffffffffffffffff1681526020019250505060206040518083038186803b1580156132af57600080fd5b505afa1580156132c3573d6000803e3d6000fd5b505050506040513d60208110156132d957600080fd5b8101908080519060200190929190505050145b613341576040517f08c379a0000000000000000000000000000000000000000000000000000000008152600401808060200182810382526036815260200180613a986036913960400191505060405180910390fd5b6133de8363095ea7b360e01b8484604051602401808373ffffffffffffffffffffffffffffffffffffffff16815260200182815260200192505050604051602081830303815290604052907bffffffffffffffffffffffffffffffffffffffffffffffffffffffff19166020820180517bffffffffffffffffffffffffffffffffffffffffffffffffffffffff83818316178352505050506135bf565b505050565b6000808273ffffffffffffffffffffffffffffffffffffffff168473ffffffffffffffffffffffffffffffffffffffff16141561346b576040517f08c379a0000000000000000000000000000000000000000000000000000000008152600401808060200182810382526025815260200180613a236025913960400191505060405180910390fd5b8273ffffffffffffffffffffffffffffffffffffffff168473ffffffffffffffffffffffffffffffffffffffff16106134a55782846134a8565b83835b8092508193505050600073ffffffffffffffffffffffffffffffffffffffff168273ffffffffffffffffffffffffffffffffffffffff161415613553576040517f08c379a000000000000000000000000000000000000000000000000000000000815260040180806020018281038252601e8152602001807f556e697377617056324c6962726172793a205a45524f5f41444452455353000081525060200191505060405180910390fd5b9250929050565b818173ffffffffffffffffffffffffffffffffffffffff1660001b90806001815401808255809150506001900390600052602060002001600090919091909150555050565b60008260008381526020019081526020016000205460001c905092915050565b6060613621826040518060400160405280602081526020017f5361666545524332303a206c6f772d6c6576656c2063616c6c206661696c65648152508573ffffffffffffffffffffffffffffffffffffffff166136ae9092919063ffffffff16565b90506000815111156136a95780806020019051602081101561364257600080fd5b81019080805190602001909291905050506136a8576040517f08c379a000000000000000000000000000000000000000000000000000000000815260040180806020018281038252602a815260200180613a6e602a913960400191505060405180910390fd5b5b505050565b60606136bd84846000856136c6565b90509392505050565b606082471015613721576040517f08c379a0000000000000000000000000000000000000000000000000000000008152600401808060200182810382526026815260200180613a486026913960400191505060405180910390fd5b61372a8561386f565b61379c576040517f08c379a000000000000000000000000000000000000000000000000000000000815260040180806020018281038252601d8152602001807f416464726573733a2063616c6c20746f206e6f6e2d636f6e747261637400000081525060200191505060405180910390fd5b600060608673ffffffffffffffffffffffffffffffffffffffff1685876040518082805190602001908083835b602083106137ec57805182526020820191506020810190506020830392506137c9565b6001836020036101000a03801982511681845116808217855250505050505090500191505060006040518083038185875af1925050503d806000811461384e576040519150601f19603f3d011682016040523d82523d6000602084013e613853565b606091505b5091509150613863828286613882565b92505050949350505050565b600080823b905060008111915050919050565b6060831561389257829050613947565b6000835111156138a55782518084602001fd5b816040517f08c379a00000000000000000000000000000000000000000000000000000000081526004018080602001828103825283818151815260200191508051906020019080838360005b8381101561390c5780820151818401526020810190506138f1565b50505050905090810190601f1680156139395780820380516001836020036101000a031916815260200191505b509250505060405180910390fd5b9392505050565b6000601f19601f8301169050919050565b60008160e01c9050919050565b600060443d101561397c57613a1f565b60046000803e61398d60005161395f565b6308c379a0811461399e5750613a1f565b60405160043d036004823e80513d602482011167ffffffffffffffff821117156139ca57505050613a1f565b808201805167ffffffffffffffff8111156139e9575050505050613a1f565b8060208301013d8501811115613a0457505050505050613a1f565b613a0d8261394e565b60208401016040528296505050505050505b9056fe556e697377617056324c6962726172793a204944454e544943414c5f414444524553534553416464726573733a20696e73756666696369656e742062616c616e636520666f722063616c6c5361666545524332303a204552433230206f7065726174696f6e20646964206e6f7420737563636565645361666545524332303a20617070726f76652066726f6d206e6f6e2d7a65726f20746f206e6f6e2d7a65726f20616c6c6f77616e6365a26469706673582212200f7e22d7f4a5aef2b0f389c7cce45e9cccd8301a233fae98aca767dfbe1b453f64736f6c634300060c0033",
  "devdoc": {
    "kind": "dev",
    "methods": {},
    "version": 1
  },
  "userdoc": {
    "kind": "user",
    "methods": {},
    "version": 1
  },
  "storageLayout": {
    "storage": [
      {
        "astId": 2834,
        "contract": "contracts/handlers/uniswapv2/HUniswapV2.sol:HUniswapV2",
        "label": "stack",
        "offset": 0,
        "slot": "0",
        "type": "t_array(t_bytes32)dyn_storage"
      },
      {
        "astId": 2838,
        "contract": "contracts/handlers/uniswapv2/HUniswapV2.sol:HUniswapV2",
        "label": "cache",
        "offset": 0,
        "slot": "1",
        "type": "t_mapping(t_bytes32,t_bytes32)"
      }
    ],
    "types": {
      "t_array(t_bytes32)dyn_storage": {
        "base": "t_bytes32",
        "encoding": "dynamic_array",
        "label": "bytes32[]",
        "numberOfBytes": "32"
      },
      "t_bytes32": {
        "encoding": "inplace",
        "label": "bytes32",
        "numberOfBytes": "32"
      },
      "t_mapping(t_bytes32,t_bytes32)": {
        "encoding": "mapping",
        "key": "t_bytes32",
        "label": "mapping(bytes32 => bytes32)",
        "numberOfBytes": "32",
        "value": "t_bytes32"
      }
    }
  }
}