{
  "address": "0xc4F65547f0c0e08D2B7Cd8f8C8AcD8Cd4ee0a791",
  "abi": [
    {
      "inputs": [],
      "name": "CUBE_COUNTER_KEY",
      "outputs": [
        {
          "internalType": "bytes32",
          "name": "",
          "type": "bytes32"
        }
      ],
      "stateMutability": "view",
      "type": "function"
    },
    {
      "inputs": [],
      "name": "MSG_SENDER_KEY",
      "outputs": [
        {
          "internalType": "bytes32",
          "name": "",
          "type": "bytes32"
        }
      ],
      "stateMutability": "view",
      "type": "function"
    },
    {
      "inputs": [],
      "name": "PERCENTAGE_BASE",
      "outputs": [
        {
          "internalType": "uint256",
          "name": "",
          "type": "uint256"
        }
      ],
      "stateMutability": "view",
      "type": "function"
    },
    {
      "inputs": [],
      "name": "POSTPROCESS_SIG",
      "outputs": [
        {
          "internalType": "bytes4",
          "name": "",
          "type": "bytes4"
        }
      ],
      "stateMutability": "view",
      "type": "function"
    },
    {
      "inputs": [],
      "name": "ROUTER",
      "outputs": [
        {
          "internalType": "contract ISwapRouter",
          "name": "",
          "type": "address"
        }
      ],
      "stateMutability": "view",
      "type": "function"
    },
    {
      "inputs": [],
      "name": "WETH",
      "outputs": [
        {
          "internalType": "contract IWETH9",
          "name": "",
          "type": "address"
        }
      ],
      "stateMutability": "view",
      "type": "function"
    },
    {
      "inputs": [
        {
          "internalType": "bytes32",
          "name": "",
          "type": "bytes32"
        }
      ],
      "name": "cache",
      "outputs": [
        {
          "internalType": "bytes32",
          "name": "",
          "type": "bytes32"
        }
      ],
      "stateMutability": "view",
      "type": "function"
    },
    {
      "inputs": [
        {
          "internalType": "bytes",
          "name": "path",
          "type": "bytes"
        },
        {
          "internalType": "uint256",
          "name": "amountIn",
          "type": "uint256"
        },
        {
          "internalType": "uint256",
          "name": "amountOutMinimum",
          "type": "uint256"
        }
      ],
      "name": "exactInput",
      "outputs": [
        {
          "internalType": "uint256",
          "name": "amountOut",
          "type": "uint256"
        }
      ],
      "stateMutability": "payable",
      "type": "function"
    },
    {
      "inputs": [
        {
          "internalType": "bytes",
          "name": "path",
          "type": "bytes"
        },
        {
          "internalType": "uint256",
          "name": "amountIn",
          "type": "uint256"
        },
        {
          "internalType": "uint256",
          "name": "amountOutMinimum",
          "type": "uint256"
        }
      ],
      "name": "exactInputFromEther",
      "outputs": [
        {
          "internalType": "uint256",
          "name": "amountOut",
          "type": "uint256"
        }
      ],
      "stateMutability": "payable",
      "type": "function"
    },
    {
      "inputs": [
        {
          "internalType": "address",
          "name": "tokenIn",
          "type": "address"
        },
        {
          "internalType": "address",
          "name": "tokenOut",
          "type": "address"
        },
        {
          "internalType": "uint24",
          "name": "fee",
          "type": "uint24"
        },
        {
          "internalType": "uint256",
          "name": "amountIn",
          "type": "uint256"
        },
        {
          "internalType": "uint256",
          "name": "amountOutMinimum",
          "type": "uint256"
        },
        {
          "internalType": "uint160",
          "name": "sqrtPriceLimitX96",
          "type": "uint160"
        }
      ],
      "name": "exactInputSingle",
      "outputs": [
        {
          "internalType": "uint256",
          "name": "amountOut",
          "type": "uint256"
        }
      ],
      "stateMutability": "payable",
      "type": "function"
    },
    {
      "inputs": [
        {
          "internalType": "address",
          "name": "tokenOut",
          "type": "address"
        },
        {
          "internalType": "uint24",
          "name": "fee",
          "type": "uint24"
        },
        {
          "internalType": "uint256",
          "name": "amountIn",
          "type": "uint256"
        },
        {
          "internalType": "uint256",
          "name": "amountOutMinimum",
          "type": "uint256"
        },
        {
          "internalType": "uint160",
          "name": "sqrtPriceLimitX96",
          "type": "uint160"
        }
      ],
      "name": "exactInputSingleFromEther",
      "outputs": [
        {
          "internalType": "uint256",
          "name": "amountOut",
          "type": "uint256"
        }
      ],
      "stateMutability": "payable",
      "type": "function"
    },
    {
      "inputs": [
        {
          "internalType": "address",
          "name": "tokenIn",
          "type": "address"
        },
        {
          "internalType": "uint24",
          "name": "fee",
          "type": "uint24"
        },
        {
          "internalType": "uint256",
          "name": "amountIn",
          "type": "uint256"
        },
        {
          "internalType": "uint256",
          "name": "amountOutMinimum",
          "type": "uint256"
        },
        {
          "internalType": "uint160",
          "name": "sqrtPriceLimitX96",
          "type": "uint160"
        }
      ],
      "name": "exactInputSingleToEther",
      "outputs": [
        {
          "internalType": "uint256",
          "name": "amountOut",
          "type": "uint256"
        }
      ],
      "stateMutability": "payable",
      "type": "function"
    },
    {
      "inputs": [
        {
          "internalType": "bytes",
          "name": "path",
          "type": "bytes"
        },
        {
          "internalType": "uint256",
          "name": "amountIn",
          "type": "uint256"
        },
        {
          "internalType": "uint256",
          "name": "amountOutMinimum",
          "type": "uint256"
        }
      ],
      "name": "exactInputToEther",
      "outputs": [
        {
          "internalType": "uint256",
          "name": "amountOut",
          "type": "uint256"
        }
      ],
      "stateMutability": "payable",
      "type": "function"
    },
    {
      "inputs": [
        {
          "internalType": "bytes",
          "name": "path",
          "type": "bytes"
        },
        {
          "internalType": "uint256",
          "name": "amountOut",
          "type": "uint256"
        },
        {
          "internalType": "uint256",
          "name": "amountInMaximum",
          "type": "uint256"
        }
      ],
      "name": "exactOutput",
      "outputs": [
        {
          "internalType": "uint256",
          "name": "amountIn",
          "type": "uint256"
        }
      ],
      "stateMutability": "payable",
      "type": "function"
    },
    {
      "inputs": [
        {
          "internalType": "bytes",
          "name": "path",
          "type": "bytes"
        },
        {
          "internalType": "uint256",
          "name": "amountOut",
          "type": "uint256"
        },
        {
          "internalType": "uint256",
          "name": "amountInMaximum",
          "type": "uint256"
        }
      ],
      "name": "exactOutputFromEther",
      "outputs": [
        {
          "internalType": "uint256",
          "name": "amountIn",
          "type": "uint256"
        }
      ],
      "stateMutability": "payable",
      "type": "function"
    },
    {
      "inputs": [
        {
          "internalType": "address",
          "name": "tokenIn",
          "type": "address"
        },
        {
          "internalType": "address",
          "name": "tokenOut",
          "type": "address"
        },
        {
          "internalType": "uint24",
          "name": "fee",
          "type": "uint24"
        },
        {
          "internalType": "uint256",
          "name": "amountOut",
          "type": "uint256"
        },
        {
          "internalType": "uint256",
          "name": "amountInMaximum",
          "type": "uint256"
        },
        {
          "internalType": "uint160",
          "name": "sqrtPriceLimitX96",
          "type": "uint160"
        }
      ],
      "name": "exactOutputSingle",
      "outputs": [
        {
          "internalType": "uint256",
          "name": "amountIn",
          "type": "uint256"
        }
      ],
      "stateMutability": "payable",
      "type": "function"
    },
    {
      "inputs": [
        {
          "internalType": "address",
          "name": "tokenOut",
          "type": "address"
        },
        {
          "internalType": "uint24",
          "name": "fee",
          "type": "uint24"
        },
        {
          "internalType": "uint256",
          "name": "amountOut",
          "type": "uint256"
        },
        {
          "internalType": "uint256",
          "name": "amountInMaximum",
          "type": "uint256"
        },
        {
          "internalType": "uint160",
          "name": "sqrtPriceLimitX96",
          "type": "uint160"
        }
      ],
      "name": "exactOutputSingleFromEther",
      "outputs": [
        {
          "internalType": "uint256",
          "name": "amountIn",
          "type": "uint256"
        }
      ],
      "stateMutability": "payable",
      "type": "function"
    },
    {
      "inputs": [
        {
          "internalType": "address",
          "name": "tokenIn",
          "type": "address"
        },
        {
          "internalType": "uint24",
          "name": "fee",
          "type": "uint24"
        },
        {
          "internalType": "uint256",
          "name": "amountOut",
          "type": "uint256"
        },
        {
          "internalType": "uint256",
          "name": "amountInMaximum",
          "type": "uint256"
        },
        {
          "internalType": "uint160",
          "name": "sqrtPriceLimitX96",
          "type": "uint160"
        }
      ],
      "name": "exactOutputSingleToEther",
      "outputs": [
        {
          "internalType": "uint256",
          "name": "amountIn",
          "type": "uint256"
        }
      ],
      "stateMutability": "payable",
      "type": "function"
    },
    {
      "inputs": [
        {
          "internalType": "bytes",
          "name": "path",
          "type": "bytes"
        },
        {
          "internalType": "uint256",
          "name": "amountOut",
          "type": "uint256"
        },
        {
          "internalType": "uint256",
          "name": "amountInMaximum",
          "type": "uint256"
        }
      ],
      "name": "exactOutputToEther",
      "outputs": [
        {
          "internalType": "uint256",
          "name": "amountIn",
          "type": "uint256"
        }
      ],
      "stateMutability": "payable",
      "type": "function"
    },
    {
      "inputs": [],
      "name": "getContractName",
      "outputs": [
        {
          "internalType": "string",
          "name": "",
          "type": "string"
        }
      ],
      "stateMutability": "pure",
      "type": "function"
    },
    {
      "inputs": [],
      "name": "postProcess",
      "outputs": [],
      "stateMutability": "payable",
      "type": "function"
    },
    {
      "inputs": [
        {
          "internalType": "uint256",
          "name": "",
          "type": "uint256"
        }
      ],
      "name": "stack",
      "outputs": [
        {
          "internalType": "bytes32",
          "name": "",
          "type": "bytes32"
        }
      ],
      "stateMutability": "view",
      "type": "function"
    }
  ],
  "transactionHash": "0x29a51c2c8447437d23e67a0da40d56868da7e3ef6e7a1ac326a453858e514322",
  "args": [],
  "solcInputHash": "05a3724dc9e1f283fb20820d17e328b2",
  "bytecode": "0x608060405234801561001057600080fd5b506137c5806100206000396000f3fe6080604052600436106101355760003560e01c8063bfd62c5e116100ab578063e473efd31161006f578063e473efd314610415578063f4f47ee114610445578063f5f5ba7214610475578063f900e577146104a0578063fa2901a5146104d0578063fd9b1912146104fb57610135565b8063bfd62c5e1461033e578063c27229161461036e578063d3695b0914610378578063dc9031c4146103a8578063df58a96f146103e557610135565b806387c13943116100fd57806387c139431461021b5780638aa5b89b1461024657806399eb59b914610276578063a2608210146102b3578063ad5c4648146102e3578063b5619b551461030e57610135565b80630f532d181461013a578063110cb594146101655780631413dc7d1461019557806332fe7b26146101c05780634eb4ccef146101eb575b600080fd5b34801561014657600080fd5b5061014f61052b565b60405161015c919061326e565b60405180910390f35b61017f600480360381019061017a9190612a86565b610552565b60405161018c9190613458565b60405180910390f35b3480156101a157600080fd5b506101aa6105de565b6040516101b7919061326e565b60405180910390f35b3480156101cc57600080fd5b506101d5610605565b6040516101e291906132a4565b60405180910390f35b610205600480360381019061020091906129bd565b61061d565b6040516102129190613458565b60405180910390f35b34801561022757600080fd5b506102306107ae565b60405161023d9190613458565b60405180910390f35b610260600480360381019061025b91906129bd565b6107ba565b60405161026d9190613458565b60405180910390f35b34801561028257600080fd5b5061029d60048036038101906102989190612a5d565b6108d7565b6040516102aa919061326e565b60405180910390f35b6102cd60048036038101906102c89190612934565b6108ef565b6040516102da9190613458565b60405180910390f35b3480156102ef57600080fd5b506102f8610a18565b60405161030591906132bf565b60405180910390f35b61032860048036038101906103239190612a86565b610a30565b6040516103359190613458565b60405180910390f35b610358600480360381019061035391906129bd565b610b59565b6040516103659190613458565b60405180910390f35b610376610d13565b005b610392600480360381019061038d9190612a86565b610d4e565b60405161039f9190613458565b60405180910390f35b3480156103b457600080fd5b506103cf60048036038101906103ca9190612aed565b610f0c565b6040516103dc919061326e565b60405180910390f35b6103ff60048036038101906103fa9190612a86565b610f2d565b60405161040c9190613458565b60405180910390f35b61042f600480360381019061042a91906129bd565b610fb9565b60405161043c9190613458565b60405180910390f35b61045f600480360381019061045a9190612a86565b61116b565b60405161046c9190613458565b60405180910390f35b34801561048157600080fd5b5061048a611308565b60405161049791906132da565b60405180910390f35b6104ba60048036038101906104b59190612934565b611345565b6040516104c79190613458565b60405180910390f35b3480156104dc57600080fd5b506104e5611476565b6040516104f29190613289565b60405180910390f35b61051560048036038101906105109190612a86565b611481565b6040516105229190613458565b60405180910390f35b7fb2f2618cecbbb6e7468cc0f2aa43858ad8d153e0280b22285e28e853bb9d453a60001b81565b60008061055e8561163f565b9050600061056b866116de565b905061057561267f565b8681600001819052508581606001818152505061059283866116fb565b8160800181815250506105be8373e592427a0aece92de3edee1f18e0157c058615648360800151611845565b6105c9600082611911565b93506105d482611a9e565b5050509392505050565b7ff9543f11459ccccd21306c8881aaab675ff49d988c1162fd1dd9bbcdbe4446be60001b81565b73e592427a0aece92de3edee1f18e0157c0586156481565b60006106276126c4565b73c02aaa39b223fe8d0a0e5c4f27ead9083c756cc2816000019073ffffffffffffffffffffffffffffffffffffffff16908173ffffffffffffffffffffffffffffffffffffffff168152505086816020019073ffffffffffffffffffffffffffffffffffffffff16908173ffffffffffffffffffffffffffffffffffffffff168152505085816040019062ffffff16908162ffffff1681525050848160a00181815250506106d66000856116fb565b8160c0018181525050828160e0019073ffffffffffffffffffffffffffffffffffffffff16908173ffffffffffffffffffffffffffffffffffffffff16815250506107258160c0015182611ab5565b915073e592427a0aece92de3edee1f18e0157c0586156473ffffffffffffffffffffffffffffffffffffffff166312210e8a6040518163ffffffff1660e01b8152600401600060405180830381600087803b15801561078357600080fd5b505af1158015610797573d6000803e3d6000fd5b505050506107a487611a9e565b5095945050505050565b670de0b6b3a764000081565b60006107c4612766565b73c02aaa39b223fe8d0a0e5c4f27ead9083c756cc2816000019073ffffffffffffffffffffffffffffffffffffffff16908173ffffffffffffffffffffffffffffffffffffffff168152505086816020019073ffffffffffffffffffffffffffffffffffffffff16908173ffffffffffffffffffffffffffffffffffffffff168152505085816040019062ffffff16908162ffffff16815250506108696000866116fb565b8160a0018181525050838160c0018181525050828160e0019073ffffffffffffffffffffffffffffffffffffffff16908173ffffffffffffffffffffffffffffffffffffffff16815250506108c28160a0015182611c42565b91506108cd87611a9e565b5095945050505050565b60016020528060005260406000206000915090505481565b60006108f9612766565b87816000019073ffffffffffffffffffffffffffffffffffffffff16908173ffffffffffffffffffffffffffffffffffffffff168152505086816020019073ffffffffffffffffffffffffffffffffffffffff16908173ffffffffffffffffffffffffffffffffffffffff168152505085816040019062ffffff16908162ffffff168152505061098988866116fb565b8160a0018181525050838160c0018181525050828160e0019073ffffffffffffffffffffffffffffffffffffffff16908173ffffffffffffffffffffffffffffffffffffffff16815250506109f78873e592427a0aece92de3edee1f18e0157c058615648360a00151611845565b610a02600082611c42565b9150610a0d87611a9e565b509695505050505050565b73c02aaa39b223fe8d0a0e5c4f27ead9083c756cc281565b600080610a3c856116de565b90506000610a498661163f565b905073c02aaa39b223fe8d0a0e5c4f27ead9083c756cc273ffffffffffffffffffffffffffffffffffffffff168273ffffffffffffffffffffffffffffffffffffffff1614610b0757610b066040518060400160405280601381526020017f6578616374496e70757446726f6d4574686572000000000000000000000000008152506040518060400160405280600e81526020017f496e707574206e6f742057455448000000000000000000000000000000000000815250611dcf565b5b610b0f612808565b868160000181905250610b236000876116fb565b81606001818152505084816080018181525050610b44816060015182611e47565b9350610b4f82611a9e565b5050509392505050565b6000610b636126c4565b86816000019073ffffffffffffffffffffffffffffffffffffffff16908173ffffffffffffffffffffffffffffffffffffffff168152505073c02aaa39b223fe8d0a0e5c4f27ead9083c756cc2816020019073ffffffffffffffffffffffffffffffffffffffff16908173ffffffffffffffffffffffffffffffffffffffff168152505085816040019062ffffff16908162ffffff1681525050848160a0018181525050610c1187856116fb565b8160c0018181525050828160e0019073ffffffffffffffffffffffffffffffffffffffff16908173ffffffffffffffffffffffffffffffffffffffff1681525050610c79816000015173e592427a0aece92de3edee1f18e0157c058615648360c00151611845565b610c84600082611ab5565b915073c02aaa39b223fe8d0a0e5c4f27ead9083c756cc273ffffffffffffffffffffffffffffffffffffffff16632e1a7d4d8260a001516040518263ffffffff1660e01b8152600401610cd79190613458565b600060405180830381600087803b158015610cf157600080fd5b505af1158015610d05573d6000803e3d6000fd5b505050505095945050505050565b6040517f08c379a0000000000000000000000000000000000000000000000000000000008152600401610d459061333c565b60405180910390fd5b600080610d5a856116de565b90506000610d678661163f565b905073c02aaa39b223fe8d0a0e5c4f27ead9083c756cc273ffffffffffffffffffffffffffffffffffffffff168173ffffffffffffffffffffffffffffffffffffffff1614610e2557610e246040518060400160405280601181526020017f6578616374496e707574546f45746865720000000000000000000000000000008152506040518060400160405280600f81526020017f4f7574707574206e6f7420574554480000000000000000000000000000000000815250611dcf565b5b610e2d612808565b868160000181905250610e4083876116fb565b81606001818152505084816080018181525050610e768373e592427a0aece92de3edee1f18e0157c058615648360600151611845565b610e81600082611e47565b935073c02aaa39b223fe8d0a0e5c4f27ead9083c756cc273ffffffffffffffffffffffffffffffffffffffff16632e1a7d4d856040518263ffffffff1660e01b8152600401610ed09190613458565b600060405180830381600087803b158015610eea57600080fd5b505af1158015610efe573d6000803e3d6000fd5b505050505050509392505050565b60008181548110610f1957fe5b906000526020600020016000915090505481565b600080610f39856116de565b90506000610f468661163f565b9050610f50612808565b868160000181905250610f6383876116fb565b81606001818152505084816080018181525050610f998373e592427a0aece92de3edee1f18e0157c058615648360600151611845565b610fa4600082611e47565b9350610faf82611a9e565b5050509392505050565b6000610fc3612766565b86816000019073ffffffffffffffffffffffffffffffffffffffff16908173ffffffffffffffffffffffffffffffffffffffff168152505073c02aaa39b223fe8d0a0e5c4f27ead9083c756cc2816020019073ffffffffffffffffffffffffffffffffffffffff16908173ffffffffffffffffffffffffffffffffffffffff168152505085816040019062ffffff16908162ffffff168152505061106787866116fb565b8160a0018181525050838160c0018181525050828160e0019073ffffffffffffffffffffffffffffffffffffffff16908173ffffffffffffffffffffffffffffffffffffffff16815250506110d58773e592427a0aece92de3edee1f18e0157c058615648360a00151611845565b6110e0600082611c42565b915073c02aaa39b223fe8d0a0e5c4f27ead9083c756cc273ffffffffffffffffffffffffffffffffffffffff16632e1a7d4d836040518263ffffffff1660e01b815260040161112f9190613458565b600060405180830381600087803b15801561114957600080fd5b505af115801561115d573d6000803e3d6000fd5b505050505095945050505050565b6000806111778561163f565b90506000611184866116de565b905073c02aaa39b223fe8d0a0e5c4f27ead9083c756cc273ffffffffffffffffffffffffffffffffffffffff168273ffffffffffffffffffffffffffffffffffffffff1614611242576112416040518060400160405280601481526020017f65786163744f757470757446726f6d45746865720000000000000000000000008152506040518060400160405280600e81526020017f496e707574206e6f742057455448000000000000000000000000000000000000815250611dcf565b5b61124a61267f565b868160000181905250858160600181815250506112686000866116fb565b81608001818152505061127f816080015182611911565b935073e592427a0aece92de3edee1f18e0157c0586156473ffffffffffffffffffffffffffffffffffffffff166312210e8a6040518163ffffffff1660e01b8152600401600060405180830381600087803b1580156112dd57600080fd5b505af11580156112f1573d6000803e3d6000fd5b505050506112fe82611a9e565b5050509392505050565b60606040518060400160405280600a81526020017f48556e6973776170563300000000000000000000000000000000000000000000815250905090565b600061134f6126c4565b87816000019073ffffffffffffffffffffffffffffffffffffffff16908173ffffffffffffffffffffffffffffffffffffffff168152505086816020019073ffffffffffffffffffffffffffffffffffffffff16908173ffffffffffffffffffffffffffffffffffffffff168152505085816040019062ffffff16908162ffffff1681525050848160a00181815250506113e988856116fb565b8160c0018181525050828160e0019073ffffffffffffffffffffffffffffffffffffffff16908173ffffffffffffffffffffffffffffffffffffffff1681525050611451816000015173e592427a0aece92de3edee1f18e0157c058615648360c00151611845565b61145c600082611ab5565b915061146b8160200151611a9e565b509695505050505050565b63c272291660e01b81565b60008061148d8561163f565b9050600061149a866116de565b905073c02aaa39b223fe8d0a0e5c4f27ead9083c756cc273ffffffffffffffffffffffffffffffffffffffff168173ffffffffffffffffffffffffffffffffffffffff1614611558576115576040518060400160405280601281526020017f65786163744f7574707574546f457468657200000000000000000000000000008152506040518060400160405280600f81526020017f4f7574707574206e6f7420574554480000000000000000000000000000000000815250611dcf565b5b61156061267f565b8681600001819052508581606001818152505061157d83866116fb565b8160800181815250506115a98373e592427a0aece92de3edee1f18e0157c058615648360800151611845565b6115b4600082611911565b935073c02aaa39b223fe8d0a0e5c4f27ead9083c756cc273ffffffffffffffffffffffffffffffffffffffff16632e1a7d4d876040518263ffffffff1660e01b81526004016116039190613458565b600060405180830381600087803b15801561161d57600080fd5b505af1158015611631573d6000803e3d6000fd5b505050505050509392505050565b6000602b825110156116c0576116bf6040518060400160405280600781526020017f47656e6572616c000000000000000000000000000000000000000000000000008152506040518060400160405280601381526020017f506174682073697a6520746f6f20736d616c6c00000000000000000000000000815250611dcf565b5b6116d7601483510383611fd490919063ffffffff16565b9050919050565b60006116f4600083611fd490919063ffffffff16565b9050919050565b60007fffffffffffffffffffffffffffffffffffffffffffffffffffffffffffffffff821461172c5781905061183f565b600073ffffffffffffffffffffffffffffffffffffffff168373ffffffffffffffffffffffffffffffffffffffff1614806117a6575073eeeeeeeeeeeeeeeeeeeeeeeeeeeeeeeeeeeeeeee73ffffffffffffffffffffffffffffffffffffffff168373ffffffffffffffffffffffffffffffffffffffff16145b156117b35747905061183f565b8273ffffffffffffffffffffffffffffffffffffffff166370a08231306040518263ffffffff1660e01b81526004016117ec9190613201565b60206040518083038186803b15801561180457600080fd5b505afa158015611818573d6000803e3d6000fd5b505050506040513d601f19601f8201168201806040525081019061183c9190612b16565b90505b92915050565b8273ffffffffffffffffffffffffffffffffffffffff1663095ea7b383836040518363ffffffff1660e01b8152600401611880929190613245565b600060405180830381600087803b15801561189a57600080fd5b505af19250505080156118ab575060015b61190b576118db8260008573ffffffffffffffffffffffffffffffffffffffff166120879092919063ffffffff16565b61190682828573ffffffffffffffffffffffffffffffffffffffff166120879092919063ffffffff16565b61190c565b5b505050565b60004282604001818152505030826020019073ffffffffffffffffffffffffffffffffffffffff16908173ffffffffffffffffffffffffffffffffffffffff168152505073e592427a0aece92de3edee1f18e0157c0586156473ffffffffffffffffffffffffffffffffffffffff1663f28c049884846040518363ffffffff1660e01b81526004016119a3919061341a565b6020604051808303818588803b1580156119bc57600080fd5b505af1935050505080156119ee57506040513d601f19601f820116820180604052508101906119eb9190612b16565b60015b611a8e576119fa61364f565b80611a055750611a4a565b611a446040518060400160405280600b81526020017f65786163744f757470757400000000000000000000000000000000000000000081525082611dcf565b50611a89565b611a886040518060400160405280600b81526020017f65786163744f75747075740000000000000000000000000000000000000000008152506121e5565b5b611a97565b80915050611a98565b5b92915050565b611ab281600061222790919063ffffffff16565b50565b60004282608001818152505030826060019073ffffffffffffffffffffffffffffffffffffffff16908173ffffffffffffffffffffffffffffffffffffffff168152505073e592427a0aece92de3edee1f18e0157c0586156473ffffffffffffffffffffffffffffffffffffffff1663db3e219884846040518363ffffffff1660e01b8152600401611b47919061343c565b6020604051808303818588803b158015611b6057600080fd5b505af193505050508015611b9257506040513d601f19601f82011682018060405250810190611b8f9190612b16565b60015b611c3257611b9e61364f565b80611ba95750611bee565b611be86040518060400160405280601181526020017f65786163744f757470757453696e676c6500000000000000000000000000000081525082611dcf565b50611c2d565b611c2c6040518060400160405280601181526020017f65786163744f757470757453696e676c650000000000000000000000000000008152506121e5565b5b611c3b565b80915050611c3c565b5b92915050565b60004282608001818152505030826060019073ffffffffffffffffffffffffffffffffffffffff16908173ffffffffffffffffffffffffffffffffffffffff168152505073e592427a0aece92de3edee1f18e0157c0586156473ffffffffffffffffffffffffffffffffffffffff1663414bf38984846040518363ffffffff1660e01b8152600401611cd491906133fe565b6020604051808303818588803b158015611ced57600080fd5b505af193505050508015611d1f57506040513d601f19601f82011682018060405250810190611d1c9190612b16565b60015b611dbf57611d2b61364f565b80611d365750611d7b565b611d756040518060400160405280601081526020017f6578616374496e70757453696e676c650000000000000000000000000000000081525082611dcf565b50611dba565b611db96040518060400160405280601081526020017f6578616374496e70757453696e676c65000000000000000000000000000000008152506121e5565b5b611dc8565b80915050611dc9565b5b92915050565b611ddf611dda61226c565b6122aa565b611de7611308565b8383604051602001611dfc94939291906131a2565b6040516020818303038152906040526040517f08c379a0000000000000000000000000000000000000000000000000000000008152600401611e3e91906132da565b60405180910390fd5b60004282604001818152505030826020019073ffffffffffffffffffffffffffffffffffffffff16908173ffffffffffffffffffffffffffffffffffffffff168152505073e592427a0aece92de3edee1f18e0157c0586156473ffffffffffffffffffffffffffffffffffffffff1663c04b8d5984846040518363ffffffff1660e01b8152600401611ed991906133dc565b6020604051808303818588803b158015611ef257600080fd5b505af193505050508015611f2457506040513d601f19601f82011682018060405250810190611f219190612b16565b60015b611fc457611f3061364f565b80611f3b5750611f80565b611f7a6040518060400160405280600a81526020017f6578616374496e7075740000000000000000000000000000000000000000000081525082611dcf565b50611fbf565b611fbe6040518060400160405280600a81526020017f6578616374496e707574000000000000000000000000000000000000000000008152506121e5565b5b611fcd565b80915050611fce565b5b92915050565b60008160148301101561201c576040517f08c379a0000000000000000000000000000000000000000000000000000000008152600401612013906133bc565b60405180910390fd5b6014820183511015612063576040517f08c379a000000000000000000000000000000000000000000000000000000000815260040161205a9061331c565b60405180910390fd5b60006c01000000000000000000000000836020860101510490508091505092915050565b6000811480612120575060008373ffffffffffffffffffffffffffffffffffffffff1663dd62ed3e30856040518363ffffffff1660e01b81526004016120ce92919061321c565b60206040518083038186803b1580156120e657600080fd5b505afa1580156120fa573d6000803e3d6000fd5b505050506040513d601f19601f8201168201806040525081019061211e9190612b16565b145b61215f576040517f08c379a00000000000000000000000000000000000000000000000000000000081526004016121569061339c565b60405180910390fd5b6121e08363095ea7b360e01b848460405160240161217e929190613245565b604051602081830303815290604052907bffffffffffffffffffffffffffffffffffffffffffffffffffffffff19166020820180517bffffffffffffffffffffffffffffffffffffffffffffffffffffffff83818316178352505050506123f1565b505050565b612224816040518060400160405280600b81526020017f556e737065636966696564000000000000000000000000000000000000000000815250611dcf565b50565b818173ffffffffffffffffffffffffffffffffffffffff1660001b90806001815401808255809150506001900390600052602060002001600090919091909150555050565b60006122a57ff9543f11459ccccd21306c8881aaab675ff49d988c1162fd1dd9bbcdbe4446be60001b60016124b890919063ffffffff16565b905090565b606060008214156122f2576040518060400160405280600181526020017f300000000000000000000000000000000000000000000000000000000000000081525090506123ec565b6000808390505b600081111561231c578180600101925050600a818161231457fe5b0490506122f9565b5060608167ffffffffffffffff8111801561233657600080fd5b506040519080825280601f01601f1916602001820160405280156123695781602001600182028036833780820191505090505b50905060008290505b60008111156123e557600a858161238557fe5b0660300160f81b82600183038151811061239b57fe5b60200101907effffffffffffffffffffffffffffffffffffffffffffffffffffffffffffff1916908160001a905350600a85816123d457fe5b049450808060019003915050612372565b5080925050505b919050565b6060612453826040518060400160405280602081526020017f5361666545524332303a206c6f772d6c6576656c2063616c6c206661696c65648152508573ffffffffffffffffffffffffffffffffffffffff166124d89092919063ffffffff16565b90506000815111156124b357808060200190518101906124739190612a34565b6124b2576040517f08c379a00000000000000000000000000000000000000000000000000000000081526004016124a99061337c565b60405180910390fd5b5b505050565b60008260008381526020019081526020016000205460001c905092915050565b60606124e784846000856124f0565b90509392505050565b606082471015612535576040517f08c379a000000000000000000000000000000000000000000000000000000000815260040161252c906132fc565b60405180910390fd5b61253e85612605565b61257d576040517f08c379a00000000000000000000000000000000000000000000000000000000081526004016125749061335c565b60405180910390fd5b600060608673ffffffffffffffffffffffffffffffffffffffff1685876040516125a7919061318b565b60006040518083038185875af1925050503d80600081146125e4576040519150601f19603f3d011682016040523d82523d6000602084013e6125e9565b606091505b50915091506125f9828286612618565b92505050949350505050565b600080823b905060008111915050919050565b6060831561262857829050612678565b60008351111561263b5782518084602001fd5b816040517f08c379a000000000000000000000000000000000000000000000000000000000815260040161266f91906132da565b60405180910390fd5b9392505050565b6040518060a0016040528060608152602001600073ffffffffffffffffffffffffffffffffffffffff1681526020016000815260200160008152602001600081525090565b604051806101000160405280600073ffffffffffffffffffffffffffffffffffffffff168152602001600073ffffffffffffffffffffffffffffffffffffffff168152602001600062ffffff168152602001600073ffffffffffffffffffffffffffffffffffffffff168152602001600081526020016000815260200160008152602001600073ffffffffffffffffffffffffffffffffffffffff1681525090565b604051806101000160405280600073ffffffffffffffffffffffffffffffffffffffff168152602001600073ffffffffffffffffffffffffffffffffffffffff168152602001600062ffffff168152602001600073ffffffffffffffffffffffffffffffffffffffff168152602001600081526020016000815260200160008152602001600073ffffffffffffffffffffffffffffffffffffffff1681525090565b6040518060a0016040528060608152602001600073ffffffffffffffffffffffffffffffffffffffff1681526020016000815260200160008152602001600081525090565b60008135905061285c81613705565b92915050565b6000815190506128718161371c565b92915050565b60008135905061288681613733565b92915050565b600082601f83011261289d57600080fd5b81356128b06128ab826134a0565b613473565b915080825260208301602083018583830111156128cc57600080fd5b6128d78382846135ef565b50505092915050565b6000813590506128ef8161374a565b92915050565b60008135905061290481613761565b92915050565b60008135905061291981613778565b92915050565b60008151905061292e81613778565b92915050565b60008060008060008060c0878903121561294d57600080fd5b600061295b89828a0161284d565b965050602061296c89828a0161284d565b955050604061297d89828a016128f5565b945050606061298e89828a0161290a565b935050608061299f89828a0161290a565b92505060a06129b089828a016128e0565b9150509295509295509295565b600080600080600060a086880312156129d557600080fd5b60006129e38882890161284d565b95505060206129f4888289016128f5565b9450506040612a058882890161290a565b9350506060612a168882890161290a565b9250506080612a27888289016128e0565b9150509295509295909350565b600060208284031215612a4657600080fd5b6000612a5484828501612862565b91505092915050565b600060208284031215612a6f57600080fd5b6000612a7d84828501612877565b91505092915050565b600080600060608486031215612a9b57600080fd5b600084013567ffffffffffffffff811115612ab557600080fd5b612ac18682870161288c565b9350506020612ad28682870161290a565b9250506040612ae38682870161290a565b9150509250925092565b600060208284031215612aff57600080fd5b6000612b0d8482850161290a565b91505092915050565b600060208284031215612b2857600080fd5b6000612b368482850161291f565b91505092915050565b612b488161351a565b82525050565b612b578161351a565b82525050565b612b6681613538565b82525050565b612b7581613542565b82525050565b6000612b86826134cc565b612b9081856134e2565b9350612ba08185602086016135fe565b612ba981613631565b840191505092915050565b6000612bbf826134cc565b612bc981856134f3565b9350612bd98185602086016135fe565b80840191505092915050565b612bee816135a7565b82525050565b612bfd816135cb565b82525050565b6000612c0e826134d7565b612c1881856134fe565b9350612c288185602086016135fe565b612c3181613631565b840191505092915050565b6000612c47826134d7565b612c51818561350f565b9350612c618185602086016135fe565b80840191505092915050565b6000612c7a6026836134fe565b91507f416464726573733a20696e73756666696369656e742062616c616e636520666f60008301527f722063616c6c00000000000000000000000000000000000000000000000000006020830152604082019050919050565b6000612ce06015836134fe565b91507f746f416464726573735f6f75744f66426f756e647300000000000000000000006000830152602082019050919050565b6000612d206014836134fe565b91507f496e76616c696420706f73742070726f636573730000000000000000000000006000830152602082019050919050565b6000612d60601d836134fe565b91507f416464726573733a2063616c6c20746f206e6f6e2d636f6e74726163740000006000830152602082019050919050565b6000612da060018361350f565b91507f5f000000000000000000000000000000000000000000000000000000000000006000830152600182019050919050565b6000612de0602a836134fe565b91507f5361666545524332303a204552433230206f7065726174696f6e20646964206e60008301527f6f742073756363656564000000000000000000000000000000000000000000006020830152604082019050919050565b6000612e4660028361350f565b91507f3a200000000000000000000000000000000000000000000000000000000000006000830152600282019050919050565b6000612e866036836134fe565b91507f5361666545524332303a20617070726f76652066726f6d206e6f6e2d7a65726f60008301527f20746f206e6f6e2d7a65726f20616c6c6f77616e6365000000000000000000006020830152604082019050919050565b6000612eec6012836134fe565b91507f746f416464726573735f6f766572666c6f7700000000000000000000000000006000830152602082019050919050565b600060a0830160008301518482036000860152612f3c8282612b7b565b9150506020830151612f516020860182612b3f565b506040830151612f64604086018261316d565b506060830151612f77606086018261316d565b506080830151612f8a608086018261316d565b508091505092915050565b61010082016000820151612fac6000850182612b3f565b506020820151612fbf6020850182612b3f565b506040820151612fd2604085018261315e565b506060820151612fe56060850182612b3f565b506080820151612ff8608085018261316d565b5060a082015161300b60a085018261316d565b5060c082015161301e60c085018261316d565b5060e082015161303160e085018261314f565b50505050565b600060a08301600083015184820360008601526130548282612b7b565b91505060208301516130696020860182612b3f565b50604083015161307c604086018261316d565b50606083015161308f606086018261316d565b5060808301516130a2608086018261316d565b508091505092915050565b610100820160008201516130c46000850182612b3f565b5060208201516130d76020850182612b3f565b5060408201516130ea604085018261315e565b5060608201516130fd6060850182612b3f565b506080820151613110608085018261316d565b5060a082015161312360a085018261316d565b5060c082015161313660c085018261316d565b5060e082015161314960e085018261314f565b50505050565b6131588161356e565b82525050565b6131678161358e565b82525050565b6131768161359d565b82525050565b6131858161359d565b82525050565b60006131978284612bb4565b915081905092915050565b60006131ae8287612c3c565b91506131b982612d93565b91506131c58286612c3c565b91506131d082612d93565b91506131dc8285612c3c565b91506131e782612e39565b91506131f38284612c3c565b915081905095945050505050565b60006020820190506132166000830184612b4e565b92915050565b60006040820190506132316000830185612b4e565b61323e6020830184612b4e565b9392505050565b600060408201905061325a6000830185612b4e565b613267602083018461317c565b9392505050565b60006020820190506132836000830184612b5d565b92915050565b600060208201905061329e6000830184612b6c565b92915050565b60006020820190506132b96000830184612be5565b92915050565b60006020820190506132d46000830184612bf4565b92915050565b600060208201905081810360008301526132f48184612c03565b905092915050565b6000602082019050818103600083015261331581612c6d565b9050919050565b6000602082019050818103600083015261333581612cd3565b9050919050565b6000602082019050818103600083015261335581612d13565b9050919050565b6000602082019050818103600083015261337581612d53565b9050919050565b6000602082019050818103600083015261339581612dd3565b9050919050565b600060208201905081810360008301526133b581612e79565b9050919050565b600060208201905081810360008301526133d581612edf565b9050919050565b600060208201905081810360008301526133f68184612f1f565b905092915050565b6000610100820190506134146000830184612f95565b92915050565b600060208201905081810360008301526134348184613037565b905092915050565b60006101008201905061345260008301846130ad565b92915050565b600060208201905061346d600083018461317c565b92915050565b6000604051905081810181811067ffffffffffffffff8211171561349657600080fd5b8060405250919050565b600067ffffffffffffffff8211156134b757600080fd5b601f19601f8301169050602081019050919050565b600081519050919050565b600081519050919050565b600082825260208201905092915050565b600081905092915050565b600082825260208201905092915050565b600081905092915050565b60006135258261356e565b9050919050565b60008115159050919050565b6000819050919050565b60007fffffffff0000000000000000000000000000000000000000000000000000000082169050919050565b600073ffffffffffffffffffffffffffffffffffffffff82169050919050565b600062ffffff82169050919050565b6000819050919050565b60006135b2826135b9565b9050919050565b60006135c48261356e565b9050919050565b60006135d6826135dd565b9050919050565b60006135e88261356e565b9050919050565b82818337600083830152505050565b60005b8381101561361c578082015181840152602081019050613601565b8381111561362b576000848401525b50505050565b6000601f19601f8301169050919050565b60008160e01c9050919050565b600060443d101561365f57613702565b60046000803e613670600051613642565b6308c379a081146136815750613702565b60405160043d036004823e80513d602482011167ffffffffffffffff821117156136ad57505050613702565b808201805167ffffffffffffffff8111156136cc575050505050613702565b8060208301013d85018111156136e757505050505050613702565b6136f082613631565b60208401016040528296505050505050505b90565b61370e8161351a565b811461371957600080fd5b50565b6137258161352c565b811461373057600080fd5b50565b61373c81613538565b811461374757600080fd5b50565b6137538161356e565b811461375e57600080fd5b50565b61376a8161358e565b811461377557600080fd5b50565b6137818161359d565b811461378c57600080fd5b5056fea2646970667358221220ff4652b524365c7617497cbcbb43d211125df030c127bfb6a1381238629df98564736f6c634300060c0033",
  "devdoc": {
    "kind": "dev",
    "methods": {},
    "version": 1
  },
  "userdoc": {
    "kind": "user",
    "methods": {},
    "version": 1
  },
  "storageLayout": {
    "storage": [
      {
        "astId": 2834,
        "contract": "contracts/handlers/uniswapv3/HUniswapV3.sol:HUniswapV3",
        "label": "stack",
        "offset": 0,
        "slot": "0",
        "type": "t_array(t_bytes32)dyn_storage"
      },
      {
        "astId": 2838,
        "contract": "contracts/handlers/uniswapv3/HUniswapV3.sol:HUniswapV3",
        "label": "cache",
        "offset": 0,
        "slot": "1",
        "type": "t_mapping(t_bytes32,t_bytes32)"
      }
    ],
    "types": {
      "t_array(t_bytes32)dyn_storage": {
        "base": "t_bytes32",
        "encoding": "dynamic_array",
        "label": "bytes32[]",
        "numberOfBytes": "32"
      },
      "t_bytes32": {
        "encoding": "inplace",
        "label": "bytes32",
        "numberOfBytes": "32"
      },
      "t_mapping(t_bytes32,t_bytes32)": {
        "encoding": "mapping",
        "key": "t_bytes32",
        "label": "mapping(bytes32 => bytes32)",
        "numberOfBytes": "32",
        "value": "t_bytes32"
      }
    }
  }
}