{
  "address": "0x0cA20a28C56B730290D24b84F5850b42dBBfbEe3",
  "abi": [
    {
      "inputs": [],
      "name": "CUBE_COUNTER_KEY",
      "outputs": [
        {
          "internalType": "bytes32",
          "name": "",
          "type": "bytes32"
        }
      ],
      "stateMutability": "view",
      "type": "function"
    },
    {
      "inputs": [],
      "name": "MSG_SENDER_KEY",
      "outputs": [
        {
          "internalType": "bytes32",
          "name": "",
          "type": "bytes32"
        }
      ],
      "stateMutability": "view",
      "type": "function"
    },
    {
      "inputs": [],
      "name": "PERCENTAGE_BASE",
      "outputs": [
        {
          "internalType": "uint256",
          "name": "",
          "type": "uint256"
        }
      ],
      "stateMutability": "view",
      "type": "function"
    },
    {
      "inputs": [],
      "name": "POSTPROCESS_SIG",
      "outputs": [
        {
          "internalType": "bytes4",
          "name": "",
          "type": "bytes4"
        }
      ],
      "stateMutability": "view",
      "type": "function"
    },
    {
      "inputs": [],
      "name": "WETH",
      "outputs": [
        {
          "internalType": "address payable",
          "name": "",
          "type": "address"
        }
      ],
      "stateMutability": "view",
      "type": "function"
    },
    {
      "inputs": [
        {
          "internalType": "bytes32",
          "name": "",
          "type": "bytes32"
        }
      ],
      "name": "cache",
      "outputs": [
        {
          "internalType": "bytes32",
          "name": "",
          "type": "bytes32"
        }
      ],
      "stateMutability": "view",
      "type": "function"
    },
    {
      "inputs": [
        {
          "internalType": "uint256",
          "name": "value",
          "type": "uint256"
        }
      ],
      "name": "deposit",
      "outputs": [],
      "stateMutability": "payable",
      "type": "function"
    },
    {
      "inputs": [],
      "name": "getContractName",
      "outputs": [
        {
          "internalType": "string",
          "name": "",
          "type": "string"
        }
      ],
      "stateMutability": "pure",
      "type": "function"
    },
    {
      "inputs": [],
      "name": "postProcess",
      "outputs": [],
      "stateMutability": "payable",
      "type": "function"
    },
    {
      "inputs": [
        {
          "internalType": "uint256",
          "name": "",
          "type": "uint256"
        }
      ],
      "name": "stack",
      "outputs": [
        {
          "internalType": "bytes32",
          "name": "",
          "type": "bytes32"
        }
      ],
      "stateMutability": "view",
      "type": "function"
    },
    {
      "inputs": [
        {
          "internalType": "uint256",
          "name": "wad",
          "type": "uint256"
        }
      ],
      "name": "withdraw",
      "outputs": [],
      "stateMutability": "payable",
      "type": "function"
    }
  ],
  "transactionHash": "0x6e299bacc668bc14f9f9d24710fc87d4f09a1889f198435a61fe33c660332b1a",
  "args": [],
  "solcInputHash": "05a3724dc9e1f283fb20820d17e328b2",
  "bytecode": "0x608060405234801561001057600080fd5b50610ccd806100206000396000f3fe60806040526004361061009c5760003560e01c8063ad5c464811610064578063ad5c46481461019f578063b6b55f25146101e0578063c27229161461020e578063dc9031c414610218578063f5f5ba7214610267578063fa2901a5146102f75761009c565b80630f532d18146100a15780631413dc7d146100cc5780632e1a7d4d146100f757806387c139431461012557806399eb59b914610150575b600080fd5b3480156100ad57600080fd5b506100b6610341565b6040518082815260200191505060405180910390f35b3480156100d857600080fd5b506100e1610368565b6040518082815260200191505060405180910390f35b6101236004803603602081101561010d57600080fd5b810190808035906020019092919050505061038f565b005b34801561013157600080fd5b5061013a6104ab565b6040518082815260200191505060405180910390f35b34801561015c57600080fd5b506101896004803603602081101561017357600080fd5b81019080803590602001909291905050506104b7565b6040518082815260200191505060405180910390f35b3480156101ab57600080fd5b506101b46104cf565b604051808273ffffffffffffffffffffffffffffffffffffffff16815260200191505060405180910390f35b61020c600480360360208110156101f657600080fd5b81019080803590602001909291905050506104e7565b005b610216610616565b005b34801561022457600080fd5b506102516004803603602081101561023b57600080fd5b8101908080359060200190929190505050610684565b6040518082815260200191505060405180910390f35b34801561027357600080fd5b5061027c6106a5565b6040518080602001828103825283818151815260200191508051906020019080838360005b838110156102bc5780820151818401526020810190506102a1565b50505050905090810190601f1680156102e95780820380516001836020036101000a031916815260200191505b509250505060405180910390f35b34801561030357600080fd5b5061030c6106e2565b60405180827bffffffffffffffffffffffffffffffffffffffffffffffffffffffff1916815260200191505060405180910390f35b7fb2f2618cecbbb6e7468cc0f2aa43858ad8d153e0280b22285e28e853bb9d453a60001b81565b7ff9543f11459ccccd21306c8881aaab675ff49d988c1162fd1dd9bbcdbe4446be60001b81565b73c02aaa39b223fe8d0a0e5c4f27ead9083c756cc273ffffffffffffffffffffffffffffffffffffffff16632e1a7d4d826040518263ffffffff1660e01b815260040180828152602001915050600060405180830381600087803b1580156103f657600080fd5b505af1925050508015610407575060015b6104a757610413610be1565b8061041e5750610463565b61045d6040518060400160405280600881526020017f7769746864726177000000000000000000000000000000000000000000000000815250826106ed565b506104a2565b6104a16040518060400160405280600881526020017f7769746864726177000000000000000000000000000000000000000000000000815250610980565b5b6104a8565b5b50565b670de0b6b3a764000081565b60016020528060005260406000206000915090505481565b73c02aaa39b223fe8d0a0e5c4f27ead9083c756cc281565b73c02aaa39b223fe8d0a0e5c4f27ead9083c756cc273ffffffffffffffffffffffffffffffffffffffff1663d0e30db0826040518263ffffffff1660e01b81526004016000604051808303818588803b15801561054357600080fd5b505af193505050508015610555575060015b6105f557610561610be1565b8061056c57506105b1565b6105ab6040518060400160405280600781526020017f6465706f73697400000000000000000000000000000000000000000000000000815250826106ed565b506105f0565b6105ef6040518060400160405280600781526020017f6465706f73697400000000000000000000000000000000000000000000000000815250610980565b5b6105f6565b5b61061373c02aaa39b223fe8d0a0e5c4f27ead9083c756cc26109c2565b50565b6040517f08c379a00000000000000000000000000000000000000000000000000000000081526004018080602001828103825260148152602001807f496e76616c696420706f73742070726f6365737300000000000000000000000081525060200191505060405180910390fd5b6000818154811061069157fe5b906000526020600020016000915090505481565b60606040518060400160405280600581526020017f4857657468000000000000000000000000000000000000000000000000000000815250905090565b63c272291660e01b81565b6106fd6106f86109d9565b610a17565b6107056106a5565b83836040516020018085805190602001908083835b6020831061073d578051825260208201915060208101905060208303925061071a565b6001836020036101000a038019825116818451168082178552505050505050905001807f5f0000000000000000000000000000000000000000000000000000000000000081525060010184805190602001908083835b602083106107b65780518252602082019150602081019050602083039250610793565b6001836020036101000a038019825116818451168082178552505050505050905001807f5f0000000000000000000000000000000000000000000000000000000000000081525060010183805190602001908083835b6020831061082f578051825260208201915060208101905060208303925061080c565b6001836020036101000a038019825116818451168082178552505050505050905001807f3a2000000000000000000000000000000000000000000000000000000000000081525060020182805190602001908083835b602083106108a85780518252602082019150602081019050602083039250610885565b6001836020036101000a0380198251168184511680821785525050505050509050019450505050506040516020818303038152906040526040517f08c379a00000000000000000000000000000000000000000000000000000000081526004018080602001828103825283818151815260200191508051906020019080838360005b8381101561094557808201518184015260208101905061092a565b50505050905090810190601f1680156109725780820380516001836020036101000a031916815260200191505b509250505060405180910390fd5b6109bf816040518060400160405280600b81526020017f556e7370656369666965640000000000000000000000000000000000000000008152506106ed565b50565b6109d6816000610b5e90919063ffffffff16565b50565b6000610a127ff9543f11459ccccd21306c8881aaab675ff49d988c1162fd1dd9bbcdbe4446be60001b6001610ba390919063ffffffff16565b905090565b60606000821415610a5f576040518060400160405280600181526020017f30000000000000000000000000000000000000000000000000000000000000008152509050610b59565b6000808390505b6000811115610a89578180600101925050600a8181610a8157fe5b049050610a66565b5060608167ffffffffffffffff81118015610aa357600080fd5b506040519080825280601f01601f191660200182016040528015610ad65781602001600182028036833780820191505090505b50905060008290505b6000811115610b5257600a8581610af257fe5b0660300160f81b826001830381518110610b0857fe5b60200101907effffffffffffffffffffffffffffffffffffffffffffffffffffffffffffff1916908160001a905350600a8581610b4157fe5b049450808060019003915050610adf565b5080925050505b919050565b818173ffffffffffffffffffffffffffffffffffffffff1660001b90806001815401808255809150506001900390600052602060002001600090919091909150555050565b60008260008381526020019081526020016000205460001c905092915050565b6000601f19601f8301169050919050565b60008160e01c9050919050565b600060443d1015610bf157610c94565b60046000803e610c02600051610bd4565b6308c379a08114610c135750610c94565b60405160043d036004823e80513d602482011167ffffffffffffffff82111715610c3f57505050610c94565b808201805167ffffffffffffffff811115610c5e575050505050610c94565b8060208301013d8501811115610c7957505050505050610c94565b610c8282610bc3565b60208401016040528296505050505050505b9056fea2646970667358221220fa0569dbe2ca0e7057ceeb6a47d62120e30bfc81a3759f9c48d7f0c94a31810064736f6c634300060c0033",
  "devdoc": {
    "kind": "dev",
    "methods": {},
    "version": 1
  },
  "userdoc": {
    "kind": "user",
    "methods": {},
    "version": 1
  },
  "storageLayout": {
    "storage": [
      {
        "astId": 2834,
        "contract": "contracts/handlers/weth/HWeth.sol:HWeth",
        "label": "stack",
        "offset": 0,
        "slot": "0",
        "type": "t_array(t_bytes32)dyn_storage"
      },
      {
        "astId": 2838,
        "contract": "contracts/handlers/weth/HWeth.sol:HWeth",
        "label": "cache",
        "offset": 0,
        "slot": "1",
        "type": "t_mapping(t_bytes32,t_bytes32)"
      }
    ],
    "types": {
      "t_array(t_bytes32)dyn_storage": {
        "base": "t_bytes32",
        "encoding": "dynamic_array",
        "label": "bytes32[]",
        "numberOfBytes": "32"
      },
      "t_bytes32": {
        "encoding": "inplace",
        "label": "bytes32",
        "numberOfBytes": "32"
      },
      "t_mapping(t_bytes32,t_bytes32)": {
        "encoding": "mapping",
        "key": "t_bytes32",
        "label": "mapping(bytes32 => bytes32)",
        "numberOfBytes": "32",
        "value": "t_bytes32"
      }
    }
  }
}