{
  "address": "0x17d9e7934955F465b619D00E2808957EBd68871c",
  "abi": [
    {
      "inputs": [],
      "name": "CUBE_COUNTER_KEY",
      "outputs": [
        {
          "internalType": "bytes32",
          "name": "",
          "type": "bytes32"
        }
      ],
      "stateMutability": "view",
      "type": "function"
    },
    {
      "inputs": [],
      "name": "MSG_SENDER_KEY",
      "outputs": [
        {
          "internalType": "bytes32",
          "name": "",
          "type": "bytes32"
        }
      ],
      "stateMutability": "view",
      "type": "function"
    },
    {
      "inputs": [],
      "name": "PERCENTAGE_BASE",
      "outputs": [
        {
          "internalType": "uint256",
          "name": "",
          "type": "uint256"
        }
      ],
      "stateMutability": "view",
      "type": "function"
    },
    {
      "inputs": [],
      "name": "POSTPROCESS_SIG",
      "outputs": [
        {
          "internalType": "bytes4",
          "name": "",
          "type": "bytes4"
        }
      ],
      "stateMutability": "view",
      "type": "function"
    },
    {
      "inputs": [
        {
          "internalType": "bytes32",
          "name": "",
          "type": "bytes32"
        }
      ],
      "name": "cache",
      "outputs": [
        {
          "internalType": "bytes32",
          "name": "",
          "type": "bytes32"
        }
      ],
      "stateMutability": "view",
      "type": "function"
    },
    {
      "inputs": [
        {
          "internalType": "address",
          "name": "vault",
          "type": "address"
        },
        {
          "internalType": "uint256",
          "name": "_amount",
          "type": "uint256"
        }
      ],
      "name": "deposit",
      "outputs": [
        {
          "internalType": "uint256",
          "name": "",
          "type": "uint256"
        }
      ],
      "stateMutability": "payable",
      "type": "function"
    },
    {
      "inputs": [
        {
          "internalType": "uint256",
          "name": "value",
          "type": "uint256"
        },
        {
          "internalType": "address",
          "name": "vault",
          "type": "address"
        }
      ],
      "name": "depositETH",
      "outputs": [
        {
          "internalType": "uint256",
          "name": "",
          "type": "uint256"
        }
      ],
      "stateMutability": "payable",
      "type": "function"
    },
    {
      "inputs": [],
      "name": "getContractName",
      "outputs": [
        {
          "internalType": "string",
          "name": "",
          "type": "string"
        }
      ],
      "stateMutability": "pure",
      "type": "function"
    },
    {
      "inputs": [],
      "name": "postProcess",
      "outputs": [],
      "stateMutability": "payable",
      "type": "function"
    },
    {
      "inputs": [
        {
          "internalType": "uint256",
          "name": "",
          "type": "uint256"
        }
      ],
      "name": "stack",
      "outputs": [
        {
          "internalType": "bytes32",
          "name": "",
          "type": "bytes32"
        }
      ],
      "stateMutability": "view",
      "type": "function"
    },
    {
      "inputs": [
        {
          "internalType": "address",
          "name": "vault",
          "type": "address"
        },
        {
          "internalType": "uint256",
          "name": "_shares",
          "type": "uint256"
        }
      ],
      "name": "withdraw",
      "outputs": [
        {
          "internalType": "uint256",
          "name": "",
          "type": "uint256"
        }
      ],
      "stateMutability": "payable",
      "type": "function"
    },
    {
      "inputs": [
        {
          "internalType": "address",
          "name": "vault",
          "type": "address"
        },
        {
          "internalType": "uint256",
          "name": "_shares",
          "type": "uint256"
        }
      ],
      "name": "withdrawETH",
      "outputs": [
        {
          "internalType": "uint256",
          "name": "",
          "type": "uint256"
        }
      ],
      "stateMutability": "payable",
      "type": "function"
    }
  ],
  "transactionHash": "0x6c583c4129e11ab5e20de84c7a35987f6107722b8504977278ec93ce84b32dbb",
  "args": [],
  "solcInputHash": "05a3724dc9e1f283fb20820d17e328b2",
  "bytecode": "0x608060405234801561001057600080fd5b50611dde806100206000396000f3fe6080604052600436106100a75760003560e01c806399eb59b91161006457806399eb59b914610253578063c2722916146102a2578063dc9031c4146102ac578063f3fef3a3146102fb578063f5f5ba721461035d578063fa2901a5146103ed576100a7565b80630f532d18146100ac5780631413dc7d146100d75780634782f7791461010257806347e7ef241461016457806356150edf146101c657806387c1394314610228575b600080fd5b3480156100b857600080fd5b506100c1610437565b6040518082815260200191505060405180910390f35b3480156100e357600080fd5b506100ec61045e565b6040518082815260200191505060405180910390f35b61014e6004803603604081101561011857600080fd5b81019080803573ffffffffffffffffffffffffffffffffffffffff16906020019092919080359060200190929190505050610485565b6040518082815260200191505060405180910390f35b6101b06004803603604081101561017a57600080fd5b81019080803573ffffffffffffffffffffffffffffffffffffffff169060200190929190803590602001909291905050506105c4565b6040518082815260200191505060405180910390f35b610212600480360360408110156101dc57600080fd5b8101908080359060200190929190803573ffffffffffffffffffffffffffffffffffffffff16906020019092919050505061092b565b6040518082815260200191505060405180910390f35b34801561023457600080fd5b5061023d610bac565b6040518082815260200191505060405180910390f35b34801561025f57600080fd5b5061028c6004803603602081101561027657600080fd5b8101908080359060200190929190505050610bb8565b6040518082815260200191505060405180910390f35b6102aa610bd0565b005b3480156102b857600080fd5b506102e5600480360360208110156102cf57600080fd5b8101908080359060200190929190505050610c3e565b6040518082815260200191505060405180910390f35b6103476004803603604081101561031157600080fd5b81019080803573ffffffffffffffffffffffffffffffffffffffff16906020019092919080359060200190929190505050610c5f565b6040518082815260200191505060405180910390f35b34801561036957600080fd5b50610372610f6f565b6040518080602001828103825283818151815260200191508051906020019080838360005b838110156103b2578082015181840152602081019050610397565b50505050905090810190601f1680156103df5780820380516001836020036101000a031916815260200191505b509250505060405180910390f35b3480156103f957600080fd5b50610402610fac565b60405180827bffffffffffffffffffffffffffffffffffffffffffffffffffffffff1916815260200191505060405180910390f35b7fb2f2618cecbbb6e7468cc0f2aa43858ad8d153e0280b22285e28e853bb9d453a60001b81565b7ff9543f11459ccccd21306c8881aaab675ff49d988c1162fd1dd9bbcdbe4446be60001b81565b600080479050600084905061049a8585610fb7565b93508073ffffffffffffffffffffffffffffffffffffffff1663f14210a6856040518263ffffffff1660e01b815260040180828152602001915050600060405180830381600087803b1580156104ef57600080fd5b505af1925050508015610500575060015b6105a05761050c611c6c565b80610517575061055c565b6105566040518060400160405280600b81526020017f77697468647261774554480000000000000000000000000000000000000000008152508261111a565b5061059b565b61059a6040518060400160405280600b81526020017f77697468647261774554480000000000000000000000000000000000000000008152506113ad565b5b6105a1565b5b60004790506105b983826113ef90919063ffffffff16565b935050505092915050565b60008083905060008173ffffffffffffffffffffffffffffffffffffffff166370a08231306040518263ffffffff1660e01b8152600401808273ffffffffffffffffffffffffffffffffffffffff16815260200191505060206040518083038186803b15801561063357600080fd5b505afa158015610647573d6000803e3d6000fd5b505050506040513d602081101561065d57600080fd5b8101908080519060200190929190505050905060008273ffffffffffffffffffffffffffffffffffffffff1663fc0c546a6040518163ffffffff1660e01b815260040160206040518083038186803b1580156106b857600080fd5b505afa1580156106cc573d6000803e3d6000fd5b505050506040513d60208110156106e257600080fd5b810190808051906020019092919050505090506106ff8186610fb7565b945061072c83868373ffffffffffffffffffffffffffffffffffffffff166114399092919063ffffffff16565b8273ffffffffffffffffffffffffffffffffffffffff1663b6b55f25866040518263ffffffff1660e01b815260040180828152602001915050600060405180830381600087803b15801561077f57600080fd5b505af1925050508015610790575060015b6108305761079c611c6c565b806107a757506107ec565b6107e66040518060400160405280600781526020017f6465706f736974000000000000000000000000000000000000000000000000008152508261111a565b5061082b565b61082a6040518060400160405280600781526020017f6465706f736974000000000000000000000000000000000000000000000000008152506113ad565b5b610831565b5b61085d8360008373ffffffffffffffffffffffffffffffffffffffff166114399092919063ffffffff16565b60008373ffffffffffffffffffffffffffffffffffffffff166370a08231306040518263ffffffff1660e01b8152600401808273ffffffffffffffffffffffffffffffffffffffff16815260200191505060206040518083038186803b1580156108c657600080fd5b505afa1580156108da573d6000803e3d6000fd5b505050506040513d60208110156108f057600080fd5b8101908080519060200190929190505050905061090c846115fe565b61091f83826113ef90919063ffffffff16565b94505050505092915050565b60008082905060008173ffffffffffffffffffffffffffffffffffffffff166370a08231306040518263ffffffff1660e01b8152600401808273ffffffffffffffffffffffffffffffffffffffff16815260200191505060206040518083038186803b15801561099a57600080fd5b505afa1580156109ae573d6000803e3d6000fd5b505050506040513d60208110156109c457600080fd5b810190808051906020019092919050505090506109e2600086610fb7565b94508173ffffffffffffffffffffffffffffffffffffffff1663f6326fb3866040518263ffffffff1660e01b81526004016000604051808303818588803b158015610a2c57600080fd5b505af193505050508015610a3e575060015b610ade57610a4a611c6c565b80610a555750610a9a565b610a946040518060400160405280600a81526020017f6465706f736974455448000000000000000000000000000000000000000000008152508261111a565b50610ad9565b610ad86040518060400160405280600a81526020017f6465706f736974455448000000000000000000000000000000000000000000008152506113ad565b5b610adf565b5b60008273ffffffffffffffffffffffffffffffffffffffff166370a08231306040518263ffffffff1660e01b8152600401808273ffffffffffffffffffffffffffffffffffffffff16815260200191505060206040518083038186803b158015610b4857600080fd5b505afa158015610b5c573d6000803e3d6000fd5b505050506040513d6020811015610b7257600080fd5b81019080805190602001909291905050509050610b8e836115fe565b610ba182826113ef90919063ffffffff16565b935050505092915050565b670de0b6b3a764000081565b60016020528060005260406000206000915090505481565b6040517f08c379a00000000000000000000000000000000000000000000000000000000081526004018080602001828103825260148152602001807f496e76616c696420706f73742070726f6365737300000000000000000000000081525060200191505060405180910390fd5b60008181548110610c4b57fe5b906000526020600020016000915090505481565b60008083905060008173ffffffffffffffffffffffffffffffffffffffff1663fc0c546a6040518163ffffffff1660e01b815260040160206040518083038186803b158015610cad57600080fd5b505afa158015610cc1573d6000803e3d6000fd5b505050506040513d6020811015610cd757600080fd5b8101908080519060200190929190505050905060008173ffffffffffffffffffffffffffffffffffffffff166370a08231306040518263ffffffff1660e01b8152600401808273ffffffffffffffffffffffffffffffffffffffff16815260200191505060206040518083038186803b158015610d5357600080fd5b505afa158015610d67573d6000803e3d6000fd5b505050506040513d6020811015610d7d57600080fd5b81019080805190602001909291905050509050610d9a8686610fb7565b94508273ffffffffffffffffffffffffffffffffffffffff16632e1a7d4d866040518263ffffffff1660e01b815260040180828152602001915050600060405180830381600087803b158015610def57600080fd5b505af1925050508015610e00575060015b610ea057610e0c611c6c565b80610e175750610e5c565b610e566040518060400160405280600881526020017f77697468647261770000000000000000000000000000000000000000000000008152508261111a565b50610e9b565b610e9a6040518060400160405280600881526020017f77697468647261770000000000000000000000000000000000000000000000008152506113ad565b5b610ea1565b5b60008273ffffffffffffffffffffffffffffffffffffffff166370a08231306040518263ffffffff1660e01b8152600401808273ffffffffffffffffffffffffffffffffffffffff16815260200191505060206040518083038186803b158015610f0a57600080fd5b505afa158015610f1e573d6000803e3d6000fd5b505050506040513d6020811015610f3457600080fd5b81019080805190602001909291905050509050610f50836115fe565b610f6382826113ef90919063ffffffff16565b94505050505092915050565b60606040518060400160405280600781526020017f48595661756c7400000000000000000000000000000000000000000000000000815250905090565b63c272291660e01b81565b60007fffffffffffffffffffffffffffffffffffffffffffffffffffffffffffffffff8214610fe857819050611114565b600073ffffffffffffffffffffffffffffffffffffffff168373ffffffffffffffffffffffffffffffffffffffff161480611062575073eeeeeeeeeeeeeeeeeeeeeeeeeeeeeeeeeeeeeeee73ffffffffffffffffffffffffffffffffffffffff168373ffffffffffffffffffffffffffffffffffffffff16145b1561106f57479050611114565b8273ffffffffffffffffffffffffffffffffffffffff166370a08231306040518263ffffffff1660e01b8152600401808273ffffffffffffffffffffffffffffffffffffffff16815260200191505060206040518083038186803b1580156110d657600080fd5b505afa1580156110ea573d6000803e3d6000fd5b505050506040513d602081101561110057600080fd5b810190808051906020019092919050505090505b92915050565b61112a611125611615565b611653565b611132610f6f565b83836040516020018085805190602001908083835b6020831061116a5780518252602082019150602081019050602083039250611147565b6001836020036101000a038019825116818451168082178552505050505050905001807f5f0000000000000000000000000000000000000000000000000000000000000081525060010184805190602001908083835b602083106111e357805182526020820191506020810190506020830392506111c0565b6001836020036101000a038019825116818451168082178552505050505050905001807f5f0000000000000000000000000000000000000000000000000000000000000081525060010183805190602001908083835b6020831061125c5780518252602082019150602081019050602083039250611239565b6001836020036101000a038019825116818451168082178552505050505050905001807f3a2000000000000000000000000000000000000000000000000000000000000081525060020182805190602001908083835b602083106112d557805182526020820191506020810190506020830392506112b2565b6001836020036101000a0380198251168184511680821785525050505050509050019450505050506040516020818303038152906040526040517f08c379a00000000000000000000000000000000000000000000000000000000081526004018080602001828103825283818151815260200191508051906020019080838360005b83811015611372578082015181840152602081019050611357565b50505050905090810190601f16801561139f5780820380516001836020036101000a031916815260200191505b509250505060405180910390fd5b6113ec816040518060400160405280600b81526020017f556e73706563696669656400000000000000000000000000000000000000000081525061111a565b50565b600061143183836040518060400160405280601e81526020017f536166654d6174683a207375627472616374696f6e206f766572666c6f77000081525061179a565b905092915050565b6000811480611507575060008373ffffffffffffffffffffffffffffffffffffffff1663dd62ed3e30856040518363ffffffff1660e01b8152600401808373ffffffffffffffffffffffffffffffffffffffff1681526020018273ffffffffffffffffffffffffffffffffffffffff1681526020019250505060206040518083038186803b1580156114ca57600080fd5b505afa1580156114de573d6000803e3d6000fd5b505050506040513d60208110156114f457600080fd5b8101908080519060200190929190505050145b61155c576040517f08c379a0000000000000000000000000000000000000000000000000000000008152600401808060200182810382526036815260200180611d736036913960400191505060405180910390fd5b6115f98363095ea7b360e01b8484604051602401808373ffffffffffffffffffffffffffffffffffffffff16815260200182815260200192505050604051602081830303815290604052907bffffffffffffffffffffffffffffffffffffffffffffffffffffffff19166020820180517bffffffffffffffffffffffffffffffffffffffffffffffffffffffff838183161783525050505061185a565b505050565b61161281600061194990919063ffffffff16565b50565b600061164e7ff9543f11459ccccd21306c8881aaab675ff49d988c1162fd1dd9bbcdbe4446be60001b600161198e90919063ffffffff16565b905090565b6060600082141561169b576040518060400160405280600181526020017f30000000000000000000000000000000000000000000000000000000000000008152509050611795565b6000808390505b60008111156116c5578180600101925050600a81816116bd57fe5b0490506116a2565b5060608167ffffffffffffffff811180156116df57600080fd5b506040519080825280601f01601f1916602001820160405280156117125781602001600182028036833780820191505090505b50905060008290505b600081111561178e57600a858161172e57fe5b0660300160f81b82600183038151811061174457fe5b60200101907effffffffffffffffffffffffffffffffffffffffffffffffffffffffffffff1916908160001a905350600a858161177d57fe5b04945080806001900391505061171b565b5080925050505b919050565b6000838311158290611847576040517f08c379a00000000000000000000000000000000000000000000000000000000081526004018080602001828103825283818151815260200191508051906020019080838360005b8381101561180c5780820151818401526020810190506117f1565b50505050905090810190601f1680156118395780820380516001836020036101000a031916815260200191505b509250505060405180910390fd5b5060008385039050809150509392505050565b60606118bc826040518060400160405280602081526020017f5361666545524332303a206c6f772d6c6576656c2063616c6c206661696c65648152508573ffffffffffffffffffffffffffffffffffffffff166119ae9092919063ffffffff16565b9050600081511115611944578080602001905160208110156118dd57600080fd5b8101908080519060200190929190505050611943576040517f08c379a000000000000000000000000000000000000000000000000000000000815260040180806020018281038252602a815260200180611d49602a913960400191505060405180910390fd5b5b505050565b818173ffffffffffffffffffffffffffffffffffffffff1660001b90806001815401808255809150506001900390600052602060002001600090919091909150555050565b60008260008381526020019081526020016000205460001c905092915050565b60606119bd84846000856119c6565b90509392505050565b606082471015611a21576040517f08c379a0000000000000000000000000000000000000000000000000000000008152600401808060200182810382526026815260200180611d236026913960400191505060405180910390fd5b611a2a85611b6f565b611a9c576040517f08c379a000000000000000000000000000000000000000000000000000000000815260040180806020018281038252601d8152602001807f416464726573733a2063616c6c20746f206e6f6e2d636f6e747261637400000081525060200191505060405180910390fd5b600060608673ffffffffffffffffffffffffffffffffffffffff1685876040518082805190602001908083835b60208310611aec5780518252602082019150602081019050602083039250611ac9565b6001836020036101000a03801982511681845116808217855250505050505090500191505060006040518083038185875af1925050503d8060008114611b4e576040519150601f19603f3d011682016040523d82523d6000602084013e611b53565b606091505b5091509150611b63828286611b82565b92505050949350505050565b600080823b905060008111915050919050565b60608315611b9257829050611c47565b600083511115611ba55782518084602001fd5b816040517f08c379a00000000000000000000000000000000000000000000000000000000081526004018080602001828103825283818151815260200191508051906020019080838360005b83811015611c0c578082015181840152602081019050611bf1565b50505050905090810190601f168015611c395780820380516001836020036101000a031916815260200191505b509250505060405180910390fd5b9392505050565b6000601f19601f8301169050919050565b60008160e01c9050919050565b600060443d1015611c7c57611d1f565b60046000803e611c8d600051611c5f565b6308c379a08114611c9e5750611d1f565b60405160043d036004823e80513d602482011167ffffffffffffffff82111715611cca57505050611d1f565b808201805167ffffffffffffffff811115611ce9575050505050611d1f565b8060208301013d8501811115611d0457505050505050611d1f565b611d0d82611c4e565b60208401016040528296505050505050505b9056fe416464726573733a20696e73756666696369656e742062616c616e636520666f722063616c6c5361666545524332303a204552433230206f7065726174696f6e20646964206e6f7420737563636565645361666545524332303a20617070726f76652066726f6d206e6f6e2d7a65726f20746f206e6f6e2d7a65726f20616c6c6f77616e6365a2646970667358221220cf4ba6944d673c7b25e4f6e370fd89e3fb3a134098c9ddcf8b5f40290f76342264736f6c634300060c0033",
  "devdoc": {
    "kind": "dev",
    "methods": {},
    "version": 1
  },
  "userdoc": {
    "kind": "user",
    "methods": {},
    "version": 1
  },
  "storageLayout": {
    "storage": [
      {
        "astId": 2834,
        "contract": "contracts/handlers/yearn/HYVault.sol:HYVault",
        "label": "stack",
        "offset": 0,
        "slot": "0",
        "type": "t_array(t_bytes32)dyn_storage"
      },
      {
        "astId": 2838,
        "contract": "contracts/handlers/yearn/HYVault.sol:HYVault",
        "label": "cache",
        "offset": 0,
        "slot": "1",
        "type": "t_mapping(t_bytes32,t_bytes32)"
      }
    ],
    "types": {
      "t_array(t_bytes32)dyn_storage": {
        "base": "t_bytes32",
        "encoding": "dynamic_array",
        "label": "bytes32[]",
        "numberOfBytes": "32"
      },
      "t_bytes32": {
        "encoding": "inplace",
        "label": "bytes32",
        "numberOfBytes": "32"
      },
      "t_mapping(t_bytes32,t_bytes32)": {
        "encoding": "mapping",
        "key": "t_bytes32",
        "label": "mapping(bytes32 => bytes32)",
        "numberOfBytes": "32",
        "value": "t_bytes32"
      }
    }
  }
}