{
  "address": "0x5ba4Edd8BADb91f6DCAB19Bef1829a67de0fA669",
  "abi": [
    {
      "inputs": [
        {
          "internalType": "address",
          "name": "_registry",
          "type": "address"
        }
      ],
      "stateMutability": "nonpayable",
      "type": "constructor"
    },
    {
      "stateMutability": "payable",
      "type": "fallback"
    },
    {
      "inputs": [],
      "name": "CUBE_COUNTER_KEY",
      "outputs": [
        {
          "internalType": "bytes32",
          "name": "",
          "type": "bytes32"
        }
      ],
      "stateMutability": "view",
      "type": "function"
    },
    {
      "inputs": [],
      "name": "MSG_SENDER_KEY",
      "outputs": [
        {
          "internalType": "bytes32",
          "name": "",
          "type": "bytes32"
        }
      ],
      "stateMutability": "view",
      "type": "function"
    },
    {
      "inputs": [],
      "name": "PERCENTAGE_BASE",
      "outputs": [
        {
          "internalType": "uint256",
          "name": "",
          "type": "uint256"
        }
      ],
      "stateMutability": "view",
      "type": "function"
    },
    {
      "inputs": [],
      "name": "POSTPROCESS_SIG",
      "outputs": [
        {
          "internalType": "bytes4",
          "name": "",
          "type": "bytes4"
        }
      ],
      "stateMutability": "view",
      "type": "function"
    },
    {
      "inputs": [
        {
          "internalType": "address[]",
          "name": "tos",
          "type": "address[]"
        },
        {
          "internalType": "bytes32[]",
          "name": "configs",
          "type": "bytes32[]"
        },
        {
          "internalType": "bytes[]",
          "name": "datas",
          "type": "bytes[]"
        }
      ],
      "name": "batchExec",
      "outputs": [],
      "stateMutability": "payable",
      "type": "function"
    },
    {
      "inputs": [
        {
          "internalType": "bytes32",
          "name": "",
          "type": "bytes32"
        }
      ],
      "name": "cache",
      "outputs": [
        {
          "internalType": "bytes32",
          "name": "",
          "type": "bytes32"
        }
      ],
      "stateMutability": "view",
      "type": "function"
    },
    {
      "inputs": [
        {
          "internalType": "address[]",
          "name": "tos",
          "type": "address[]"
        },
        {
          "internalType": "bytes32[]",
          "name": "configs",
          "type": "bytes32[]"
        },
        {
          "internalType": "bytes[]",
          "name": "datas",
          "type": "bytes[]"
        }
      ],
      "name": "execs",
      "outputs": [],
      "stateMutability": "payable",
      "type": "function"
    },
    {
      "inputs": [],
      "name": "registry",
      "outputs": [
        {
          "internalType": "contract IRegistry",
          "name": "",
          "type": "address"
        }
      ],
      "stateMutability": "view",
      "type": "function"
    },
    {
      "inputs": [
        {
          "internalType": "uint256",
          "name": "",
          "type": "uint256"
        }
      ],
      "name": "stack",
      "outputs": [
        {
          "internalType": "bytes32",
          "name": "",
          "type": "bytes32"
        }
      ],
      "stateMutability": "view",
      "type": "function"
    },
    {
      "stateMutability": "payable",
      "type": "receive"
    }
  ],
  "transactionHash": "0xd444d97b3bff5ef15092b0409fef982c8bd50867cc03b76b79f790f70f1abc96",
  "args": [
    "0x97cFdd3d45d7Df2EA9552DF5Ee8473128d1833de"
  ],
  "solcInputHash": "bb259667c42cbb0fa18e2cd3d62f52c9",
  "bytecode": "0x60a06040523480156200001157600080fd5b50604051620036a3380380620036a383398181016040528101906200003791906200008c565b8073ffffffffffffffffffffffffffffffffffffffff1660808173ffffffffffffffffffffffffffffffffffffffff1660601b815250505062000106565b6000815190506200008681620000ec565b92915050565b6000602082840312156200009f57600080fd5b6000620000af8482850162000075565b91505092915050565b6000620000c582620000cc565b9050919050565b600073ffffffffffffffffffffffffffffffffffffffff82169050919050565b620000f781620000b8565b81146200010357600080fd5b50565b60805160601c613553620001506000398060df52806101c1528061036b528061065652806107fa52806108dc5280610b4d5280610c2f5280610e915280610f2752506135536000f3fe60806040526004361061008a5760003560e01c80637b103999116100595780637b1039991461050657806387c139431461053157806399eb59b91461055c578063dc9031c414610599578063fa2901a5146105d6576100d9565b80630f532d18146104785780631413dc7d146104a357806338c5c08e146104ce57806371938509146104ea576100d9565b366100d95761009833610601565b6100d7576040517f08c379a00000000000000000000000000000000000000000000000000000000081526004016100ce906130c8565b60405180910390fd5b005b600015157f000000000000000000000000000000000000000000000000000000000000000073ffffffffffffffffffffffffffffffffffffffff1663ea750af66040518163ffffffff1660e01b815260040160206040518083038186803b15801561014357600080fd5b505afa158015610157573d6000803e3d6000fd5b505050506040513d601f19601f8201168201806040525081019061017b91906125aa565b1515146101bd576040517f08c379a00000000000000000000000000000000000000000000000000000000081526004016101b490613188565b60405180910390fd5b60007f000000000000000000000000000000000000000000000000000000000000000073ffffffffffffffffffffffffffffffffffffffff16631903dcaa306040518263ffffffff1660e01b81526004016102189190612e91565b60206040518083038186803b15801561023057600080fd5b505afa158015610244573d6000803e3d6000fd5b505050506040513d601f19601f82011682018060405250810190610268919061264e565b146102a8576040517f08c379a000000000000000000000000000000000000000000000000000000000815260040161029f906130e8565b60405180910390fd5b600073ffffffffffffffffffffffffffffffffffffffff166102c8610614565b73ffffffffffffffffffffffffffffffffffffffff16141561031f576040517f08c379a000000000000000000000000000000000000000000000000000000000815260040161031690612fa8565b60405180910390fd5b61032833610652565b610367576040517f08c379a000000000000000000000000000000000000000000000000000000000815260040161035e90613008565b60405180910390fd5b60007f000000000000000000000000000000000000000000000000000000000000000073ffffffffffffffffffffffffffffffffffffffff16637bbf4a3f336040518263ffffffff1660e01b81526004016103c29190612e91565b60206040518083038186803b1580156103da57600080fd5b505afa1580156103ee573d6000803e3d6000fd5b505050506040513d601f19601f8201168201806040525081019061041291906125fc565b60601c90506060610468826000368080601f016020809104026020016040519081016040528093929190818152602001838380828437600081840152601f19601f82011690508083019250505050505050610704565b9050600081519050602082018181f35b34801561048457600080fd5b5061048d6107a6565b60405161049a9190612ed5565b60405180910390f35b3480156104af57600080fd5b506104b86107cd565b6040516104c59190612ed5565b60405180910390f35b6104e860048036038101906104e39190612509565b6107f4565b005b61050460048036038101906104ff9190612509565b610b47565b005b34801561051257600080fd5b5061051b610e8f565b6040516105289190612f0b565b60405180910390f35b34801561053d57600080fd5b50610546610eb3565b60405161055391906132c8565b60405180910390f35b34801561056857600080fd5b50610583600480360381019061057e91906125d3565b610ebf565b6040516105909190612ed5565b60405180910390f35b3480156105a557600080fd5b506105c060048036038101906105bb9190612625565b610ed7565b6040516105cd9190612ed5565b60405180910390f35b3480156105e257600080fd5b506105eb610ef8565b6040516105f89190612ef0565b60405180910390f35b600080823b905060008111915050919050565b600061064d7fb2f2618cecbbb6e7468cc0f2aa43858ad8d153e0280b22285e28e853bb9d453a60001b6001610f0390919063ffffffff16565b905090565b60007f000000000000000000000000000000000000000000000000000000000000000073ffffffffffffffffffffffffffffffffffffffff1663bb1010e9836040518263ffffffff1660e01b81526004016106ad9190612e76565b60206040518083038186803b1580156106c557600080fd5b505afa1580156106d9573d6000803e3d6000fd5b505050506040513d601f19601f820116820180604052508101906106fd91906125aa565b9050919050565b606061070f83610f23565b61074e576040517f08c379a000000000000000000000000000000000000000000000000000000000815260040161074590613128565b60405180910390fd5b610756610fd5565b600080835160208501866113885a03f43d6040519250601f19601f6020830101168301604052808352806000602085013e8115600181146107965761079d565b8160208501fd5b50505092915050565b7fb2f2618cecbbb6e7468cc0f2aa43858ad8d153e0280b22285e28e853bb9d453a60001b81565b7ff9543f11459ccccd21306c8881aaab675ff49d988c1162fd1dd9bbcdbe4446be60001b81565b600015157f000000000000000000000000000000000000000000000000000000000000000073ffffffffffffffffffffffffffffffffffffffff1663ea750af66040518163ffffffff1660e01b815260040160206040518083038186803b15801561085e57600080fd5b505afa158015610872573d6000803e3d6000fd5b505050506040513d601f19601f8201168201806040525081019061089691906125aa565b1515146108d8576040517f08c379a00000000000000000000000000000000000000000000000000000000081526004016108cf90613188565b60405180910390fd5b60007f000000000000000000000000000000000000000000000000000000000000000073ffffffffffffffffffffffffffffffffffffffff16631903dcaa306040518263ffffffff1660e01b81526004016109339190612e91565b60206040518083038186803b15801561094b57600080fd5b505afa15801561095f573d6000803e3d6000fd5b505050506040513d601f19601f82011682018060405250810190610983919061264e565b146109c3576040517f08c379a00000000000000000000000000000000000000000000000000000000081526004016109ba906130e8565b60405180910390fd5b610a016040518060400160405280600a81526020017f2d2d2d2d2d2d2d2d2d2d0000000000000000000000000000000000000000000081525061101a565b610a436040518060400160405280600681526020017f746f733a25730000000000000000000000000000000000000000000000000000815250868690506110b3565b610aa36040518060400160405280600981526020017f746f735b305d3a2573000000000000000000000000000000000000000000000081525086866000818110610a8957fe5b9050602002016020810190610a9e91906124e0565b61114f565b610aab6111eb565b610b38858580806020026020016040519081016040528093929190818152602001838360200280828437600081840152601f19601f82011690508083019250505050505050848480806020026020016040519081016040528093929190818152602001838360200280828437600081840152601f19601f8201169050808301925050505050505083611286565b610b40611444565b5050505050565b600015157f000000000000000000000000000000000000000000000000000000000000000073ffffffffffffffffffffffffffffffffffffffff1663ea750af66040518163ffffffff1660e01b815260040160206040518083038186803b158015610bb157600080fd5b505afa158015610bc5573d6000803e3d6000fd5b505050506040513d601f19601f82011682018060405250810190610be991906125aa565b151514610c2b576040517f08c379a0000000000000000000000000000000000000000000000000000000008152600401610c2290613188565b60405180910390fd5b60007f000000000000000000000000000000000000000000000000000000000000000073ffffffffffffffffffffffffffffffffffffffff16631903dcaa306040518263ffffffff1660e01b8152600401610c869190612e91565b60206040518083038186803b158015610c9e57600080fd5b505afa158015610cb2573d6000803e3d6000fd5b505050506040513d601f19601f82011682018060405250810190610cd6919061264e565b14610d16576040517f08c379a0000000000000000000000000000000000000000000000000000000008152600401610d0d906130e8565b60405180910390fd5b600073ffffffffffffffffffffffffffffffffffffffff16610d36610614565b73ffffffffffffffffffffffffffffffffffffffff161415610d8d576040517f08c379a0000000000000000000000000000000000000000000000000000000008152600401610d8490612fa8565b60405180910390fd5b3073ffffffffffffffffffffffffffffffffffffffff163373ffffffffffffffffffffffffffffffffffffffff1614610dfb576040517f08c379a0000000000000000000000000000000000000000000000000000000008152600401610df290613148565b60405180910390fd5b610e88858580806020026020016040519081016040528093929190818152602001838360200280828437600081840152601f19601f82011690508083019250505050505050848480806020026020016040519081016040528093929190818152602001838360200280828437600081840152601f19601f8201169050808301925050505050505083611286565b5050505050565b7f000000000000000000000000000000000000000000000000000000000000000081565b670de0b6b3a764000081565b60016020528060005260406000206000915090505481565b60008181548110610ee457fe5b906000526020600020016000915090505481565b63c272291660e01b81565b60008260008381526020019081526020016000205460001c905092915050565b60007f000000000000000000000000000000000000000000000000000000000000000073ffffffffffffffffffffffffffffffffffffffff1663d4c68348836040518263ffffffff1660e01b8152600401610f7e9190612e76565b60206040518083038186803b158015610f9657600080fd5b505afa158015610faa573d6000803e3d6000fd5b505050506040513d601f19601f82011682018060405250810190610fce91906125aa565b9050919050565b6110187ff9543f11459ccccd21306c8881aaab675ff49d988c1162fd1dd9bbcdbe4446be60001b60016110066116c5565b0160016117039092919063ffffffff16565b565b6110b08160405160240161102e9190612f26565b6040516020818303038152906040527f41304fac000000000000000000000000000000000000000000000000000000007bffffffffffffffffffffffffffffffffffffffffffffffffffffffff19166020820180517bffffffffffffffffffffffffffffffffffffffffffffffffffffffff8381831617835250505050611722565b50565b61114b82826040516024016110c9929190612f78565b6040516020818303038152906040527f9710a9d0000000000000000000000000000000000000000000000000000000007bffffffffffffffffffffffffffffffffffffffffffffffffffffffff19166020820180517bffffffffffffffffffffffffffffffffffffffffffffffffffffffff8381831617835250505050611722565b5050565b6111e78282604051602401611165929190612f48565b6040516020818303038152906040527f319af333000000000000000000000000000000000000000000000000000000007bffffffffffffffffffffffffffffffffffffffffffffffffffffffff19166020820180517bffffffffffffffffffffffffffffffffffffffffffffffffffffffff8381831617835250505050611722565b5050565b6000808054905014611232576040517f08c379a000000000000000000000000000000000000000000000000000000000815260040161122990613208565b60405180910390fd5b600061123c6116c5565b1461127c576040517f08c379a000000000000000000000000000000000000000000000000000000000815260040161127390613048565b60405180910390fd5b61128461174b565b565b61128e6122e2565b600082518551146112d4576040517f08c379a00000000000000000000000000000000000000000000000000000000081526004016112cb906131e8565b60405180910390fd5b8351855114611318576040517f08c379a000000000000000000000000000000000000000000000000000000000815260040161130f90613248565b60405180910390fd5b60005b855181101561143c57600085828151811061133257fe5b60200260200101519050611345816117fc565b6113695761136885838151811061135857fe5b6020026020010151828686611841565b5b606061139b88848151811061137a57fe5b602002602001015187858151811061138e57fe5b6020026020010151610704565b90506113a682611944565b156114115760006113b683611969565b905060006113c58784886119a3565b9050818601811461140b576040517f08c379a000000000000000000000000000000000000000000000000000000000815260040161140290613168565b60405180910390fd5b80955050505b61142d88848151811061142057fe5b6020026020010151611a7c565b5050808060010191505061131b565b505050505050565b5b60008080549050111561165c57600061145e6000611b48565b905060008160a01c6bffffffffffffffffffffffff16600281111561147f57fe5b90506000600281111561148e57fe5b81600281111561149a57fe5b14156115715760008260001c905060008173ffffffffffffffffffffffffffffffffffffffff166370a08231306040518263ffffffff1660e01b81526004016114e39190612e91565b60206040518083038186803b1580156114fb57600080fd5b505afa15801561150f573d6000803e3d6000fd5b505050506040513d601f19601f82011682018060405250810190611533919061264e565b9050600081111561156a5761156933828473ffffffffffffffffffffffffffffffffffffffff16611b7a9092919063ffffffff16565b5b5050611655565b6001600281111561157e57fe5b81600281111561158a57fe5b141561161957600061159c6000611c00565b90506116128163c272291660e01b604051602401604051602081830303815290604052907bffffffffffffffffffffffffffffffffffffffffffffffffffffffff19166020820180517bffffffffffffffffffffffffffffffffffffffffffffffffffffffff8381831617835250505050610704565b5050611654565b6040517f08c379a000000000000000000000000000000000000000000000000000000000815260040161164b90612fc8565b60405180910390fd5b5b5050611445565b600047905060008111156116b2573373ffffffffffffffffffffffffffffffffffffffff166108fc829081150290604051600060405180830381858888f193505050501580156116b0573d6000803e3d6000fd5b505b6116ba611c35565b6116c2611c71565b50565b60006116fe7ff9543f11459ccccd21306c8881aaab675ff49d988c1162fd1dd9bbcdbe4446be60001b6001611cad90919063ffffffff16565b905090565b8060001b83600084815260200190815260200160002081905550505050565b60008151905060006a636f6e736f6c652e6c6f679050602083016000808483855afa5050505050565b600073ffffffffffffffffffffffffffffffffffffffff1661176b610614565b73ffffffffffffffffffffffffffffffffffffffff16146117c1576040517f08c379a00000000000000000000000000000000000000000000000000000000081526004016117b890613028565b60405180910390fd5b6117fa7fb2f2618cecbbb6e7468cc0f2aa43858ad8d153e0280b22285e28e853bb9d453a60001b336001611ccd9092919063ffffffff16565b565b60008060001b7f010000000000000000000000000000000000000000000000000000000000000060001b83161415611837576001905061183c565b600090505b919050565b60608061184d85611d02565b9150915060005b825181101561193b578383828151811061186a57fe5b6020026020010151106118b2576040517f08c379a00000000000000000000000000000000000000000000000000000000081526004016118a990613288565b60405180910390fd5b6000858483815181106118c157fe5b602002602001015161010081106118d457fe5b6020020151905060008383815181106118e957fe5b602002602001015190506000670de0b6b3a764000090508160208b01018051801561192657848102858282041461191f57600080fd5b8381049550505b84825250505050508080600101915050611854565b50505050505050565b60008061195083611969565b141561195f5760009050611964565b600190505b919050565b60008060f07eff00000000000000000000000000000000000000000000000000000000000060001b8416901c90508060001c915050919050565b600080835190506000602082816119b657fe5b06146119f7576040517f08c379a00000000000000000000000000000000000000000000000000000000081526004016119ee90613228565b60405180910390fd5b60208181611a0157fe5b0483019150610100821115611a4b576040517f08c379a0000000000000000000000000000000000000000000000000000000008152600401611a42906131c8565b60405180910390fd5b8260051b60005b82811015611a725760208187010151828201880152602081019050611a52565b5050509392505050565b600080805490501415611a8e57611b45565b60016002811115611a9b57fe5b60a01b73ffffffffffffffffffffffffffffffffffffffff1916611abf6000611f84565b1415611b44576000805480611ad057fe5b60019003818190600052602060002001600090559055600060e01b611af56000611f84565b7bffffffffffffffffffffffffffffffffffffffffffffffffffffffff191614611b2e57611b2d816000611ff190919063ffffffff16565b5b611b436001600061203690919063ffffffff16565b5b5b50565b6000611b5382611f84565b905081805480611b5f57fe5b60019003818190600052602060002001600090559055919050565b611bfb8363a9059cbb60e01b8484604051602401611b99929190612eac565b604051602081830303815290604052907bffffffffffffffffffffffffffffffffffffffffffffffffffffffff19166020820180517bffffffffffffffffffffffffffffffffffffffffffffffffffffffff8381831617835250505050612087565b505050565b6000611c0b82611f84565b60001c905081805480611c1a57fe5b60019003818190600052602060002001600090559055919050565b611c6f7fb2f2618cecbbb6e7468cc0f2aa43858ad8d153e0280b22285e28e853bb9d453a60001b60006001611ccd9092919063ffffffff16565b565b611cab7ff9543f11459ccccd21306c8881aaab675ff49d988c1162fd1dd9bbcdbe4446be60001b600060016117039092919063ffffffff16565b565b60008260008381526020019081526020016000205460001c905092915050565b8073ffffffffffffffffffffffffffffffffffffffff1660001b83600084815260200190815260200160002081905550505050565b606080611d0e836117fc565b15611d4e576040517f08c379a0000000000000000000000000000000000000000000000000000000008152600401611d4590613108565b60405180910390fd5b6000601690505b60ff60001b60ff60001b8516148015611d6e5750600081115b15611d8857808060019003915050600884901c9350611d55565b60008111611dcb576040517f08c379a0000000000000000000000000000000000000000000000000000000008152600401611dc290612fe8565b60405180910390fd5b8067ffffffffffffffff81118015611de257600080fd5b50604051908082528060200260200182016040528015611e115781602001602082028036833780820191505090505b5092508067ffffffffffffffff81118015611e2b57600080fd5b50604051908082528060200260200182016040528015611e5a5781602001602082028036833780820191505090505b50915060005b81811015611e9e5760ff60001b851660001c848281518110611e7e57fe5b602002602001018181525050600885901c94508080600101915050611e60565b506000805b6040811015611f3a576000801b600160001b871614611f2657828210611efe576040517f08c379a0000000000000000000000000000000000000000000000000000000008152600401611ef590613088565b60405180910390fd5b60046020820201848381518110611f1157fe5b60200260200101818152505081806001019250505b600186901c95508080600101915050611ea3565b50818114611f7d576040517f08c379a0000000000000000000000000000000000000000000000000000000008152600401611f7490613068565b60405180910390fd5b5050915091565b600080828054905011611fcc576040517f08c379a0000000000000000000000000000000000000000000000000000000008152600401611fc3906131a8565b60405180910390fd5b81600183805490500381548110611fdf57fe5b90600052602060002001549050919050565b818173ffffffffffffffffffffffffffffffffffffffff1660001b90806001815401808255809150506001900390600052602060002001600090919091909150555050565b8181600281111561204357fe5b60a01b908060018154018082558091505060019003906000526020600020016000909173ffffffffffffffffffffffffffffffffffffffff19169091909150555050565b60606120e9826040518060400160405280602081526020017f5361666545524332303a206c6f772d6c6576656c2063616c6c206661696c65648152508573ffffffffffffffffffffffffffffffffffffffff1661214e9092919063ffffffff16565b9050600081511115612149578080602001905181019061210991906125aa565b612148576040517f08c379a000000000000000000000000000000000000000000000000000000000815260040161213f906132a8565b60405180910390fd5b5b505050565b606061215d8484600085612166565b90509392505050565b6060824710156121ab576040517f08c379a00000000000000000000000000000000000000000000000000000000081526004016121a2906130a8565b60405180910390fd5b6121b485610601565b6121f3576040517f08c379a00000000000000000000000000000000000000000000000000000000081526004016121ea90613268565b60405180910390fd5b600060608673ffffffffffffffffffffffffffffffffffffffff16858760405161221d9190612e5f565b60006040518083038185875af1925050503d806000811461225a576040519150601f19603f3d011682016040523d82523d6000602084013e61225f565b606091505b509150915061226f82828661227b565b92505050949350505050565b6060831561228b578290506122db565b60008351111561229e5782518084602001fd5b816040517f08c379a00000000000000000000000000000000000000000000000000000000081526004016122d29190612f26565b60405180910390fd5b9392505050565b60405180612000016040528061010090602082028036833780820191505090505090565b600081359050612315816134c1565b92915050565b60008083601f84011261232d57600080fd5b8235905067ffffffffffffffff81111561234657600080fd5b60208301915083602082028301111561235e57600080fd5b9250929050565b60008083601f84011261237757600080fd5b8235905067ffffffffffffffff81111561239057600080fd5b6020830191508360208202830111156123a857600080fd5b9250929050565b600082601f8301126123c057600080fd5b81356123d36123ce82613310565b6132e3565b9150818183526020840193506020810190508360005b8381101561241957813586016123ff8882612462565b8452602084019350602083019250506001810190506123e9565b5050505092915050565b600081519050612432816134d8565b92915050565b600081359050612447816134ef565b92915050565b60008151905061245c816134ef565b92915050565b600082601f83011261247357600080fd5b813561248661248182613338565b6132e3565b915080825260208301602083018583830111156124a257600080fd5b6124ad83828461346e565b50505092915050565b6000813590506124c581613506565b92915050565b6000815190506124da81613506565b92915050565b6000602082840312156124f257600080fd5b600061250084828501612306565b91505092915050565b60008060008060006060868803121561252157600080fd5b600086013567ffffffffffffffff81111561253b57600080fd5b6125478882890161231b565b9550955050602086013567ffffffffffffffff81111561256657600080fd5b61257288828901612365565b9350935050604086013567ffffffffffffffff81111561259157600080fd5b61259d888289016123af565b9150509295509295909350565b6000602082840312156125bc57600080fd5b60006125ca84828501612423565b91505092915050565b6000602082840312156125e557600080fd5b60006125f384828501612438565b91505092915050565b60006020828403121561260e57600080fd5b600061261c8482850161244d565b91505092915050565b60006020828403121561263757600080fd5b6000612645848285016124b6565b91505092915050565b60006020828403121561266057600080fd5b600061266e848285016124cb565b91505092915050565b61268081613414565b82525050565b61268f81613396565b82525050565b61269e816133b4565b82525050565b6126ad816133be565b82525050565b60006126be82613364565b6126c8818561337a565b93506126d881856020860161347d565b80840191505092915050565b6126ed81613426565b82525050565b60006126fe8261336f565b6127088185613385565b935061271881856020860161347d565b612721816134b0565b840191505092915050565b6000612739601983613385565b91507f53656e646572206973206e6f7420696e697469616c697a6564000000000000006000830152602082019050919050565b6000612779601483613385565b91507f496e76616c69642068616e646c657220747970650000000000000000000000006000830152602082019050919050565b60006127b9601083613385565b91507f4e6f2064796e616d696320706172616d000000000000000000000000000000006000830152602082019050919050565b60006127f9600e83613385565b91507f496e76616c69642063616c6c65720000000000000000000000000000000000006000830152602082019050919050565b6000612839601583613385565b91507f53656e64657220697320696e697469616c697a656400000000000000000000006000830152602082019050919050565b6000612879601583613385565b91507f4375626520636f756e746572206e6f74207a65726f00000000000000000000006000830152602082019050919050565b60006128b9602283613385565b91507f4c6f636174696f6e20636f756e74206c657373207468616e2072656620636f7560008301527f6e740000000000000000000000000000000000000000000000000000000000006020830152604082019050919050565b600061291f602083613385565b91507f4c6f636174696f6e20636f756e7420657863656564732072656620636f756e746000830152602082019050919050565b600061295f602683613385565b91507f416464726573733a20696e73756666696369656e742062616c616e636520666f60008301527f722063616c6c00000000000000000000000000000000000000000000000000006020830152604082019050919050565b60006129c5601483613385565b91507f4e6f7420616c6c6f7765642066726f6d20454f410000000000000000000000006000830152602082019050919050565b6000612a05600683613385565b91507f42616e6e656400000000000000000000000000000000000000000000000000006000830152602082019050919050565b6000612a45600d83613385565b91507f53746174696320706172616d73000000000000000000000000000000000000006000830152602082019050919050565b6000612a85600f83613385565b91507f496e76616c69642068616e646c657200000000000000000000000000000000006000830152602082019050919050565b6000612ac5601d83613385565b91507f446f6573206e6f7420616c6c6f772065787465726e616c2063616c6c730000006000830152602082019050919050565b6000612b05602c83613385565b91507f52657475726e206e756d20616e64207061727365642072657475726e206e756d60008301527f206e6f74206d61746368656400000000000000000000000000000000000000006020830152604082019050919050565b6000612b6b600683613385565b91507f48616c74656400000000000000000000000000000000000000000000000000006000830152602082019050919050565b6000612bab600b83613385565b91507f737461636b20656d7074790000000000000000000000000000000000000000006000830152602082019050919050565b6000612beb600e83613385565b91507f737461636b206f766572666c6f770000000000000000000000000000000000006000830152602082019050919050565b6000612c2b602183613385565b91507f546f7320616e64206461746173206c656e67746820696e636f6e73697374656e60008301527f74000000000000000000000000000000000000000000000000000000000000006020830152604082019050919050565b6000612c91600f83613385565b91507f537461636b206e6f7420656d70747900000000000000000000000000000000006000830152602082019050919050565b6000612cd1601983613385565b91507f696c6c6567616c206c656e67746820666f72205f7061727365000000000000006000830152602082019050919050565b6000612d11602383613385565b91507f546f7320616e6420636f6e66696773206c656e67746820696e636f6e7369737460008301527f656e7400000000000000000000000000000000000000000000000000000000006020830152604082019050919050565b6000612d77601d83613385565b91507f416464726573733a2063616c6c20746f206e6f6e2d636f6e74726163740000006000830152602082019050919050565b6000612db7601e83613385565b91507f5265666572656e636520746f206f7574206f66206c6f63616c537461636b00006000830152602082019050919050565b6000612df7602a83613385565b91507f5361666545524332303a204552433230206f7065726174696f6e20646964206e60008301527f6f742073756363656564000000000000000000000000000000000000000000006020830152604082019050919050565b612e598161340a565b82525050565b6000612e6b82846126b3565b915081905092915050565b6000602082019050612e8b6000830184612686565b92915050565b6000602082019050612ea66000830184612677565b92915050565b6000604082019050612ec16000830185612686565b612ece6020830184612e50565b9392505050565b6000602082019050612eea6000830184612695565b92915050565b6000602082019050612f0560008301846126a4565b92915050565b6000602082019050612f2060008301846126e4565b92915050565b60006020820190508181036000830152612f4081846126f3565b905092915050565b60006040820190508181036000830152612f6281856126f3565b9050612f716020830184612686565b9392505050565b60006040820190508181036000830152612f9281856126f3565b9050612fa16020830184612e50565b9392505050565b60006020820190508181036000830152612fc18161272c565b9050919050565b60006020820190508181036000830152612fe18161276c565b9050919050565b60006020820190508181036000830152613001816127ac565b9050919050565b60006020820190508181036000830152613021816127ec565b9050919050565b600060208201905081810360008301526130418161282c565b9050919050565b600060208201905081810360008301526130618161286c565b9050919050565b60006020820190508181036000830152613081816128ac565b9050919050565b600060208201905081810360008301526130a181612912565b9050919050565b600060208201905081810360008301526130c181612952565b9050919050565b600060208201905081810360008301526130e1816129b8565b9050919050565b60006020820190508181036000830152613101816129f8565b9050919050565b6000602082019050818103600083015261312181612a38565b9050919050565b6000602082019050818103600083015261314181612a78565b9050919050565b6000602082019050818103600083015261316181612ab8565b9050919050565b6000602082019050818103600083015261318181612af8565b9050919050565b600060208201905081810360008301526131a181612b5e565b9050919050565b600060208201905081810360008301526131c181612b9e565b9050919050565b600060208201905081810360008301526131e181612bde565b9050919050565b6000602082019050818103600083015261320181612c1e565b9050919050565b6000602082019050818103600083015261322181612c84565b9050919050565b6000602082019050818103600083015261324181612cc4565b9050919050565b6000602082019050818103600083015261326181612d04565b9050919050565b6000602082019050818103600083015261328181612d6a565b9050919050565b600060208201905081810360008301526132a181612daa565b9050919050565b600060208201905081810360008301526132c181612dea565b9050919050565b60006020820190506132dd6000830184612e50565b92915050565b6000604051905081810181811067ffffffffffffffff8211171561330657600080fd5b8060405250919050565b600067ffffffffffffffff82111561332757600080fd5b602082029050602081019050919050565b600067ffffffffffffffff82111561334f57600080fd5b601f19601f8301169050602081019050919050565b600081519050919050565b600081519050919050565b600081905092915050565b600082825260208201905092915050565b60006133a1826133ea565b9050919050565b60008115159050919050565b6000819050919050565b60007fffffffff0000000000000000000000000000000000000000000000000000000082169050919050565b600073ffffffffffffffffffffffffffffffffffffffff82169050919050565b6000819050919050565b600061341f8261344a565b9050919050565b600061343182613438565b9050919050565b6000613443826133ea565b9050919050565b60006134558261345c565b9050919050565b6000613467826133ea565b9050919050565b82818337600083830152505050565b60005b8381101561349b578082015181840152602081019050613480565b838111156134aa576000848401525b50505050565b6000601f19601f8301169050919050565b6134ca81613396565b81146134d557600080fd5b50565b6134e1816133a8565b81146134ec57600080fd5b50565b6134f8816133b4565b811461350357600080fd5b50565b61350f8161340a565b811461351a57600080fd5b5056fea264697066735822122045d088c48718412d522c4ef8dfcbd060be542721450d87d643954fc7a776f2d464736f6c634300060c0033",
  "devdoc": {
    "author": "Ben Huang",
    "kind": "dev",
    "methods": {
      "batchExec(address[],bytes32[],bytes[])": {
        "params": {
          "configs": "The configurations of executing cubes.",
          "datas": "The combo datas.",
          "tos": "The handlers of combo."
        }
      },
      "execs(address[],bytes32[],bytes[])": {
        "details": "This function can only be called through the handler, which makes the caller become proxy itself."
      }
    },
    "title": "The entrance of Furucombo",
    "version": 1
  },
  "userdoc": {
    "kind": "user",
    "methods": {
      "batchExec(address[],bytes32[],bytes[])": {
        "notice": "Combo execution function. Including three phases: pre-process, exection and post-process."
      },
      "execs(address[],bytes32[],bytes[])": {
        "notice": "The execution interface for callback function to be executed."
      }
    },
    "version": 1
  },
  "storageLayout": {
    "storage": [
      {
        "astId": 1468,
        "contract": "contracts/Proxy.sol:Proxy",
        "label": "stack",
        "offset": 0,
        "slot": "0",
        "type": "t_array(t_bytes32)dyn_storage"
      },
      {
        "astId": 1472,
        "contract": "contracts/Proxy.sol:Proxy",
        "label": "cache",
        "offset": 0,
        "slot": "1",
        "type": "t_mapping(t_bytes32,t_bytes32)"
      }
    ],
    "types": {
      "t_array(t_bytes32)dyn_storage": {
        "base": "t_bytes32",
        "encoding": "dynamic_array",
        "label": "bytes32[]",
        "numberOfBytes": "32"
      },
      "t_bytes32": {
        "encoding": "inplace",
        "label": "bytes32",
        "numberOfBytes": "32"
      },
      "t_mapping(t_bytes32,t_bytes32)": {
        "encoding": "mapping",
        "key": "t_bytes32",
        "label": "mapping(bytes32 => bytes32)",
        "numberOfBytes": "32",
        "value": "t_bytes32"
      }
    }
  }
}